{
  "contractName": "InvestorsHandler",
  "abi": [
    {
      "inputs": [],
      "stateMutability": "nonpayable",
      "type": "constructor"
    },
    {
      "anonymous": false,
      "inputs": [
        {
          "indexed": false,
          "internalType": "address",
          "name": "_creator",
          "type": "address"
        },
        {
          "indexed": false,
          "internalType": "address",
          "name": "_investorAddress",
          "type": "address"
        },
        {
          "indexed": false,
          "internalType": "string",
          "name": "_investorName",
          "type": "string"
        },
        {
          "indexed": false,
          "internalType": "uint256",
          "name": "_registerDate",
          "type": "uint256"
        },
        {
          "indexed": false,
          "internalType": "bool",
          "name": "_status",
          "type": "bool"
        },
        {
          "indexed": false,
          "internalType": "uint256",
          "name": "_rating",
          "type": "uint256"
        },
        {
          "indexed": false,
          "internalType": "uint256",
          "name": "_amountInvested",
          "type": "uint256"
        }
      ],
      "name": "LogCreateInvestor",
      "type": "event"
    },
    {
      "anonymous": false,
      "inputs": [
        {
          "indexed": false,
          "internalType": "address",
          "name": "_owner",
          "type": "address"
        },
        {
          "indexed": false,
          "internalType": "address",
          "name": "_investorAddress",
          "type": "address"
        },
        {
          "indexed": false,
          "internalType": "bool",
          "name": "_status",
          "type": "bool"
        }
      ],
      "name": "LogNewInvestorStatus",
      "type": "event"
    },
    {
      "anonymous": false,
      "inputs": [
        {
          "indexed": true,
          "internalType": "address",
          "name": "previousOwner",
          "type": "address"
        },
        {
          "indexed": true,
          "internalType": "address",
          "name": "newOwner",
          "type": "address"
        }
      ],
      "name": "OwnershipTransferred",
      "type": "event"
    },
    {
      "inputs": [
        {
          "internalType": "uint256",
          "name": "",
          "type": "uint256"
        }
      ],
      "name": "investorList",
      "outputs": [
        {
          "internalType": "address",
          "name": "",
          "type": "address"
        }
      ],
      "stateMutability": "view",
      "type": "function",
      "constant": true
    },
    {
      "inputs": [
        {
          "internalType": "address",
          "name": "",
          "type": "address"
        }
      ],
      "name": "investors",
      "outputs": [
        {
          "internalType": "string",
          "name": "name",
          "type": "string"
        },
        {
          "internalType": "uint256",
          "name": "registerDate",
          "type": "uint256"
        },
        {
          "internalType": "bool",
          "name": "status",
          "type": "bool"
        },
        {
          "internalType": "uint256",
          "name": "rating",
          "type": "uint256"
        },
        {
          "internalType": "uint256",
          "name": "amountInvested",
          "type": "uint256"
        },
        {
          "internalType": "uint256",
          "name": "termalReceived",
          "type": "uint256"
        },
        {
          "internalType": "bool",
          "name": "hasContract",
          "type": "bool"
        },
        {
          "internalType": "address",
          "name": "investorContractAddress",
          "type": "address"
        }
      ],
      "stateMutability": "view",
      "type": "function",
      "constant": true
    },
    {
      "inputs": [],
      "name": "owner",
      "outputs": [
        {
          "internalType": "address",
          "name": "",
          "type": "address"
        }
      ],
      "stateMutability": "view",
      "type": "function",
      "constant": true
    },
    {
      "inputs": [],
      "name": "renounceOwnership",
      "outputs": [],
      "stateMutability": "nonpayable",
      "type": "function"
    },
    {
      "inputs": [
        {
          "internalType": "address",
          "name": "newOwner",
          "type": "address"
        }
      ],
      "name": "transferOwnership",
      "outputs": [],
      "stateMutability": "nonpayable",
      "type": "function"
    },
    {
      "inputs": [
        {
          "internalType": "address",
          "name": "_investorAddress",
          "type": "address"
        },
        {
          "internalType": "string",
          "name": "_investorName",
          "type": "string"
        }
      ],
      "name": "createInvestor",
      "outputs": [],
      "stateMutability": "nonpayable",
      "type": "function"
    },
    {
      "inputs": [
        {
          "internalType": "address",
          "name": "_investorWallet",
          "type": "address"
        },
        {
          "internalType": "uint256",
          "name": "_investment",
          "type": "uint256"
        },
        {
          "internalType": "uint256",
          "name": "_managementFee",
          "type": "uint256"
        },
        {
          "internalType": "uint256",
          "name": "_termalCoinRatio",
          "type": "uint256"
        },
        {
          "internalType": "uint256",
          "name": "_duration",
          "type": "uint256"
        },
        {
          "internalType": "uint256",
          "name": "_interestRate",
          "type": "uint256"
        }
      ],
      "name": "createInvestorContract",
      "outputs": [],
      "stateMutability": "nonpayable",
      "type": "function"
    },
    {
      "inputs": [
        {
          "internalType": "address",
          "name": "_investor",
          "type": "address"
        }
      ],
      "name": "getSignatureStatus",
      "outputs": [
        {
          "internalType": "bool",
          "name": "",
          "type": "bool"
        }
      ],
      "stateMutability": "view",
      "type": "function",
      "constant": true
    },
    {
      "inputs": [
        {
          "internalType": "address",
          "name": "_investorAddress",
          "type": "address"
        }
      ],
      "name": "isValidInvestor",
      "outputs": [
        {
          "internalType": "bool",
          "name": "",
          "type": "bool"
        }
      ],
      "stateMutability": "view",
      "type": "function",
      "constant": true
    },
    {
      "inputs": [
        {
          "internalType": "address",
          "name": "_investorAddress",
          "type": "address"
        },
        {
          "internalType": "bool",
          "name": "_status",
          "type": "bool"
        }
      ],
      "name": "newInvestorStatus",
      "outputs": [],
      "stateMutability": "nonpayable",
      "type": "function"
    },
    {
      "inputs": [],
      "name": "getTotalInvestors",
      "outputs": [
        {
          "internalType": "uint256",
          "name": "",
          "type": "uint256"
        }
      ],
      "stateMutability": "view",
      "type": "function",
      "constant": true
    },
    {
      "inputs": [
        {
          "internalType": "address",
          "name": "_receiver",
          "type": "address"
        },
        {
          "internalType": "uint256",
          "name": "_amount",
          "type": "uint256"
        }
      ],
      "name": "addDepositDai",
      "outputs": [],
      "stateMutability": "nonpayable",
      "type": "function"
    },
    {
      "inputs": [
        {
          "internalType": "address",
          "name": "_receiver",
          "type": "address"
        },
        {
          "internalType": "uint256",
          "name": "_amount",
          "type": "uint256"
        }
      ],
      "name": "addDepositTermal",
      "outputs": [],
      "stateMutability": "nonpayable",
      "type": "function"
    }
  ],
  "bytecode": "0x608060405234801561001057600080fd5b5061002d61002261003260201b60201c565b61003a60201b60201c565b6100fe565b600033905090565b60008060009054906101000a900473ffffffffffffffffffffffffffffffffffffffff169050816000806101000a81548173ffffffffffffffffffffffffffffffffffffffff021916908373ffffffffffffffffffffffffffffffffffffffff1602179055508173ffffffffffffffffffffffffffffffffffffffff168173ffffffffffffffffffffffffffffffffffffffff167f8be0079c531659141344cd1fd0a4f28419497f9722a3daafe3b4186f6b6457e060405160405180910390a35050565b612d6a806200010e6000396000f3fe60806040523480156200001157600080fd5b5060043610620000e25760003560e01c80638da5cb5b1162000099578063c63208a4116200006f578063c63208a41462000254578063d7766d791462000274578063dceb4c0a1462000296578063f2fde38b14620002b657620000e2565b80638da5cb5b14620001f257806397c9f8ca1462000214578063b895f36f146200023457620000e2565b80630452141b14620000e757806312f9b48e14620001075780635092538a146200013d5780636f7bc9be1462000173578063715018a614620001b057806375126d6414620001bc575b600080fd5b620001056004803603810190620000ff919062001345565b620002d6565b005b6200012560048036038101906200011f9190620013c7565b6200048d565b6040516200013491906200140a565b60405180910390f35b6200015b600480360381019062000155919062001427565b620004cd565b6040516200016a91906200146a565b60405180910390f35b6200019160048036038101906200018b919062001427565b62000526565b604051620001a79897969594939291906200153c565b60405180910390f35b620001ba62000638565b005b620001da6004803603810190620001d4919062001427565b620006c9565b604051620001e991906200146a565b60405180910390f35b620001fc62000848565b6040516200020b91906200140a565b60405180910390f35b6200023260048036038101906200022c919062001722565b62000871565b005b6200025260048036038101906200024c919062001788565b62000b9f565b005b6200027260048036038101906200026c919062001824565b62000e9c565b005b6200027e62000f48565b6040516200028d91906200186b565b60405180910390f35b620002b46004803603810190620002ae919062001824565b62000f55565b005b620002d46004803603810190620002ce919062001427565b62001001565b005b620002e062001105565b73ffffffffffffffffffffffffffffffffffffffff166200030062000848565b73ffffffffffffffffffffffffffffffffffffffff161462000359576040517f08c379a00000000000000000000000000000000000000000000000000000000081526004016200035090620018d8565b60405180910390fd5b801515600160008473ffffffffffffffffffffffffffffffffffffffff1673ffffffffffffffffffffffffffffffffffffffff16815260200190815260200160002060020160009054906101000a900460ff1615151415620003f2576040517f08c379a0000000000000000000000000000000000000000000000000000000008152600401620003e99062001970565b60405180910390fd5b80600160008473ffffffffffffffffffffffffffffffffffffffff1673ffffffffffffffffffffffffffffffffffffffff16815260200190815260200160002060020160006101000a81548160ff0219169083151502179055507f332e0c190aecd762f1cefd9994a03dba54e64671f2e34cba060887bef73088aa338383604051620004819392919062001992565b60405180910390a15050565b600281815481106200049e57600080fd5b906000526020600020016000915054906101000a900473ffffffffffffffffffffffffffffffffffffffff1681565b6000600160008373ffffffffffffffffffffffffffffffffffffffff1673ffffffffffffffffffffffffffffffffffffffff16815260200190815260200160002060020160009054906101000a900460ff169050919050565b60016020528060005260406000206000915090508060000180546200054b90620019fe565b80601f01602080910402602001604051908101604052809291908181526020018280546200057990620019fe565b8015620005ca5780601f106200059e57610100808354040283529160200191620005ca565b820191906000526020600020905b815481529060010190602001808311620005ac57829003601f168201915b5050505050908060010154908060020160009054906101000a900460ff16908060030154908060040154908060050154908060060160009054906101000a900460ff16908060060160019054906101000a900473ffffffffffffffffffffffffffffffffffffffff16905088565b6200064262001105565b73ffffffffffffffffffffffffffffffffffffffff166200066262000848565b73ffffffffffffffffffffffffffffffffffffffff1614620006bb576040517f08c379a0000000000000000000000000000000000000000000000000000000008152600401620006b290620018d8565b60405180910390fd5b620006c760006200110d565b565b6000600160008373ffffffffffffffffffffffffffffffffffffffff1673ffffffffffffffffffffffffffffffffffffffff16815260200190815260200160002060060160009054906101000a900460ff166200075d576040517f08c379a0000000000000000000000000000000000000000000000000000000008152600401620007549062001a84565b60405180910390fd5b600160008373ffffffffffffffffffffffffffffffffffffffff1673ffffffffffffffffffffffffffffffffffffffff16815260200190815260200160002060060160019054906101000a900473ffffffffffffffffffffffffffffffffffffffff1673ffffffffffffffffffffffffffffffffffffffff166351ff48476040518163ffffffff1660e01b815260040160206040518083038186803b1580156200080657600080fd5b505afa1580156200081b573d6000803e3d6000fd5b505050506040513d601f19601f8201168201806040525081019062000841919062001abd565b9050919050565b60008060009054906101000a900473ffffffffffffffffffffffffffffffffffffffff16905090565b6200087b62001105565b73ffffffffffffffffffffffffffffffffffffffff166200089b62000848565b73ffffffffffffffffffffffffffffffffffffffff1614620008f4576040517f08c379a0000000000000000000000000000000000000000000000000000000008152600401620008eb90620018d8565b60405180910390fd5b600160008373ffffffffffffffffffffffffffffffffffffffff1673ffffffffffffffffffffffffffffffffffffffff16815260200190815260200160002060020160009054906101000a900460ff161562000987576040517f08c379a00000000000000000000000000000000000000000000000000000000081526004016200097e9062001b65565b60405180910390fd5b604051806101000160405280828152602001428152602001600115158152602001600081526020016000815260200160008152602001600015158152602001600073ffffffffffffffffffffffffffffffffffffffff16815250600160008473ffffffffffffffffffffffffffffffffffffffff1673ffffffffffffffffffffffffffffffffffffffff168152602001908152602001600020600082015181600001908051906020019062000a3e929190620011d1565b506020820151816001015560408201518160020160006101000a81548160ff021916908315150217905550606082015181600301556080820151816004015560a0820151816005015560c08201518160060160006101000a81548160ff02191690831515021790555060e08201518160060160016101000a81548173ffffffffffffffffffffffffffffffffffffffff021916908373ffffffffffffffffffffffffffffffffffffffff1602179055509050506002829080600181540180825580915050600190039060005260206000200160009091909190916101000a81548173ffffffffffffffffffffffffffffffffffffffff021916908373ffffffffffffffffffffffffffffffffffffffff1602179055507f927948467456f386be96283ad93519b24ab0c6e7920614aec64789679078d1c433838342600160008060405162000b93979695949392919062001bd4565b60405180910390a15050565b62000ba962001105565b73ffffffffffffffffffffffffffffffffffffffff1662000bc962000848565b73ffffffffffffffffffffffffffffffffffffffff161462000c22576040517f08c379a000000000000000000000000000000000000000000000000000000000815260040162000c1990620018d8565b60405180910390fd5b62000c2d86620004cd565b62000c6f576040517f08c379a000000000000000000000000000000000000000000000000000000000815260040162000c669062001cce565b60405180910390fd5b600160008773ffffffffffffffffffffffffffffffffffffffff1673ffffffffffffffffffffffffffffffffffffffff16815260200190815260200160002060060160009054906101000a900460ff161562000d02576040517f08c379a000000000000000000000000000000000000000000000000000000000815260040162000cf99062001d40565b60405180910390fd5b600086868686868660405162000d189062001262565b62000d299695949392919062001d62565b604051809103906000f08015801562000d46573d6000803e3d6000fd5b50905060018060008973ffffffffffffffffffffffffffffffffffffffff1673ffffffffffffffffffffffffffffffffffffffff16815260200190815260200160002060060160006101000a81548160ff02191690831515021790555080600160008973ffffffffffffffffffffffffffffffffffffffff1673ffffffffffffffffffffffffffffffffffffffff16815260200190815260200160002060060160016101000a81548173ffffffffffffffffffffffffffffffffffffffff021916908373ffffffffffffffffffffffffffffffffffffffff1602179055508073ffffffffffffffffffffffffffffffffffffffff1663f2fde38b336040518263ffffffff1660e01b815260040162000e5f91906200140a565b600060405180830381600087803b15801562000e7a57600080fd5b505af115801562000e8f573d6000803e3d6000fd5b5050505050505050505050565b62000ea782620004cd565b62000ee9576040517f08c379a000000000000000000000000000000000000000000000000000000000815260040162000ee09062001e1f565b60405180910390fd5b80600160008473ffffffffffffffffffffffffffffffffffffffff1673ffffffffffffffffffffffffffffffffffffffff168152602001908152602001600020600401600082825462000f3d919062001e70565b925050819055505050565b6000600280549050905090565b62000f6082620004cd565b62000fa2576040517f08c379a000000000000000000000000000000000000000000000000000000000815260040162000f999062001e1f565b60405180910390fd5b80600160008473ffffffffffffffffffffffffffffffffffffffff1673ffffffffffffffffffffffffffffffffffffffff168152602001908152602001600020600501600082825462000ff6919062001e70565b925050819055505050565b6200100b62001105565b73ffffffffffffffffffffffffffffffffffffffff166200102b62000848565b73ffffffffffffffffffffffffffffffffffffffff161462001084576040517f08c379a00000000000000000000000000000000000000000000000000000000081526004016200107b90620018d8565b60405180910390fd5b600073ffffffffffffffffffffffffffffffffffffffff168173ffffffffffffffffffffffffffffffffffffffff161415620010f7576040517f08c379a0000000000000000000000000000000000000000000000000000000008152600401620010ee9062001f43565b60405180910390fd5b62001102816200110d565b50565b600033905090565b60008060009054906101000a900473ffffffffffffffffffffffffffffffffffffffff169050816000806101000a81548173ffffffffffffffffffffffffffffffffffffffff021916908373ffffffffffffffffffffffffffffffffffffffff1602179055508173ffffffffffffffffffffffffffffffffffffffff168173ffffffffffffffffffffffffffffffffffffffff167f8be0079c531659141344cd1fd0a4f28419497f9722a3daafe3b4186f6b6457e060405160405180910390a35050565b828054620011df90620019fe565b90600052602060002090601f0160209004810192826200120357600085556200124f565b82601f106200121e57805160ff19168380011785556200124f565b828001600101855582156200124f579182015b828111156200124e57825182559160200191906001019062001231565b5b5090506200125e919062001270565b5090565b610dcf8062001f6683390190565b5b808211156200128b57600081600090555060010162001271565b5090565b6000604051905090565b600080fd5b600080fd5b600073ffffffffffffffffffffffffffffffffffffffff82169050919050565b6000620012d082620012a3565b9050919050565b620012e281620012c3565b8114620012ee57600080fd5b50565b6000813590506200130281620012d7565b92915050565b60008115159050919050565b6200131f8162001308565b81146200132b57600080fd5b50565b6000813590506200133f8162001314565b92915050565b600080604083850312156200135f576200135e62001299565b5b60006200136f85828601620012f1565b925050602062001382858286016200132e565b9150509250929050565b6000819050919050565b620013a1816200138c565b8114620013ad57600080fd5b50565b600081359050620013c18162001396565b92915050565b600060208284031215620013e057620013df62001299565b5b6000620013f084828501620013b0565b91505092915050565b6200140481620012c3565b82525050565b6000602082019050620014216000830184620013f9565b92915050565b60006020828403121562001440576200143f62001299565b5b60006200145084828501620012f1565b91505092915050565b620014648162001308565b82525050565b600060208201905062001481600083018462001459565b92915050565b600081519050919050565b600082825260208201905092915050565b60005b83811015620014c3578082015181840152602081019050620014a6565b83811115620014d3576000848401525b50505050565b6000601f19601f8301169050919050565b6000620014f78262001487565b62001503818562001492565b935062001515818560208601620014a3565b6200152081620014d9565b840191505092915050565b62001536816200138c565b82525050565b600061010082019050818103600083015262001559818b620014ea565b90506200156a602083018a6200152b565b62001579604083018962001459565b6200158860608301886200152b565b6200159760808301876200152b565b620015a660a08301866200152b565b620015b560c083018562001459565b620015c460e0830184620013f9565b9998505050505050505050565b600080fd5b600080fd5b7f4e487b7100000000000000000000000000000000000000000000000000000000600052604160045260246000fd5b6200161582620014d9565b810181811067ffffffffffffffff82111715620016375762001636620015db565b5b80604052505050565b60006200164c6200128f565b90506200165a82826200160a565b919050565b600067ffffffffffffffff8211156200167d576200167c620015db565b5b6200168882620014d9565b9050602081019050919050565b82818337600083830152505050565b6000620016bb620016b5846200165f565b62001640565b905082815260208101848484011115620016da57620016d9620015d6565b5b620016e784828562001695565b509392505050565b600082601f830112620017075762001706620015d1565b5b813562001719848260208601620016a4565b91505092915050565b600080604083850312156200173c576200173b62001299565b5b60006200174c85828601620012f1565b925050602083013567ffffffffffffffff81111562001770576200176f6200129e565b5b6200177e85828601620016ef565b9150509250929050565b60008060008060008060c08789031215620017a857620017a762001299565b5b6000620017b889828a01620012f1565b9650506020620017cb89828a01620013b0565b9550506040620017de89828a01620013b0565b9450506060620017f189828a01620013b0565b93505060806200180489828a01620013b0565b92505060a06200181789828a01620013b0565b9150509295509295509295565b600080604083850312156200183e576200183d62001299565b5b60006200184e85828601620012f1565b92505060206200186185828601620013b0565b9150509250929050565b60006020820190506200188260008301846200152b565b92915050565b7f4f776e61626c653a2063616c6c6572206973206e6f7420746865206f776e6572600082015250565b6000620018c060208362001492565b9150620018cd8262001888565b602082019050919050565b60006020820190508181036000830152620018f381620018b1565b9050919050565b7f4e657720696e766573746f722773207374617475732073686f756c642062652060008201527f646966666572656e742100000000000000000000000000000000000000000000602082015250565b600062001958602a8362001492565b91506200196582620018fa565b604082019050919050565b600060208201905081810360008301526200198b8162001949565b9050919050565b6000606082019050620019a96000830186620013f9565b620019b86020830185620013f9565b620019c7604083018462001459565b949350505050565b7f4e487b7100000000000000000000000000000000000000000000000000000000600052602260045260246000fd5b6000600282049050600182168062001a1757607f821691505b6020821081141562001a2e5762001a2d620019cf565b5b50919050565b7f496e766573746f7220686173206e6f20636f6e74726163742100000000000000600082015250565b600062001a6c60198362001492565b915062001a798262001a34565b602082019050919050565b6000602082019050818103600083015262001a9f8162001a5d565b9050919050565b60008151905062001ab78162001314565b92915050565b60006020828403121562001ad65762001ad562001299565b5b600062001ae68482850162001aa6565b91505092915050565b7f496e766573746f7227732061646472657373206973207265676973746572656460008201527f2100000000000000000000000000000000000000000000000000000000000000602082015250565b600062001b4d60218362001492565b915062001b5a8262001aef565b604082019050919050565b6000602082019050818103600083015262001b808162001b3e565b9050919050565b6000819050919050565b6000819050919050565b600062001bbc62001bb662001bb08462001b87565b62001b91565b6200138c565b9050919050565b62001bce8162001b9b565b82525050565b600060e08201905062001beb600083018a620013f9565b62001bfa6020830189620013f9565b818103604083015262001c0e8188620014ea565b905062001c1f60608301876200152b565b62001c2e608083018662001459565b62001c3d60a083018562001bc3565b62001c4c60c083018462001bc3565b98975050505050505050565b7f496e766573746f722077616c6c6574206973206e6f7420612076616c6964206360008201527f6f6e747261637400000000000000000000000000000000000000000000000000602082015250565b600062001cb660278362001492565b915062001cc38262001c58565b604082019050919050565b6000602082019050818103600083015262001ce98162001ca7565b9050919050565b7f5374617274757020686173206120636f6e747261637400000000000000000000600082015250565b600062001d2860168362001492565b915062001d358262001cf0565b602082019050919050565b6000602082019050818103600083015262001d5b8162001d19565b9050919050565b600060c08201905062001d796000830189620013f9565b62001d8860208301886200152b565b62001d9760408301876200152b565b62001da660608301866200152b565b62001db560808301856200152b565b62001dc460a08301846200152b565b979650505050505050565b7f496e766573746f72206e6f742072656769737465726564210000000000000000600082015250565b600062001e0760188362001492565b915062001e148262001dcf565b602082019050919050565b6000602082019050818103600083015262001e3a8162001df8565b9050919050565b7f4e487b7100000000000000000000000000000000000000000000000000000000600052601160045260246000fd5b600062001e7d826200138c565b915062001e8a836200138c565b9250827fffffffffffffffffffffffffffffffffffffffffffffffffffffffffffffffff0382111562001ec25762001ec162001e41565b5b828201905092915050565b7f4f776e61626c653a206e6577206f776e657220697320746865207a65726f206160008201527f6464726573730000000000000000000000000000000000000000000000000000602082015250565b600062001f2b60268362001492565b915062001f388262001ecd565b604082019050919050565b6000602082019050818103600083015262001f5e8162001f1c565b905091905056fe60806040523480156200001157600080fd5b5060405162000dcf38038062000dcf8339818101604052810190620000379190620002cb565b620000576200004b6200015a60201b60201c565b6200016260201b60201c565b85600160006101000a81548173ffffffffffffffffffffffffffffffffffffffff021916908373ffffffffffffffffffffffffffffffffffffffff1602179055508460028190555083600381905550426004819055506000600560006101000a81548160ff0219169083151502179055508260068190555081600881905550806009819055507f7007ba4e1b77996a212434bda760646d3a01b4d163751c70c0195f039f8632d033600160009054906101000a900473ffffffffffffffffffffffffffffffffffffffff1660025460045460065460085460095460405162000146979695949392919062000389565b60405180910390a150505050505062000406565b600033905090565b60008060009054906101000a900473ffffffffffffffffffffffffffffffffffffffff169050816000806101000a81548173ffffffffffffffffffffffffffffffffffffffff021916908373ffffffffffffffffffffffffffffffffffffffff1602179055508173ffffffffffffffffffffffffffffffffffffffff168173ffffffffffffffffffffffffffffffffffffffff167f8be0079c531659141344cd1fd0a4f28419497f9722a3daafe3b4186f6b6457e060405160405180910390a35050565b600080fd5b600073ffffffffffffffffffffffffffffffffffffffff82169050919050565b600062000258826200022b565b9050919050565b6200026a816200024b565b81146200027657600080fd5b50565b6000815190506200028a816200025f565b92915050565b6000819050919050565b620002a58162000290565b8114620002b157600080fd5b50565b600081519050620002c5816200029a565b92915050565b60008060008060008060c08789031215620002eb57620002ea62000226565b5b6000620002fb89828a0162000279565b96505060206200030e89828a01620002b4565b95505060406200032189828a01620002b4565b94505060606200033489828a01620002b4565b93505060806200034789828a01620002b4565b92505060a06200035a89828a01620002b4565b9150509295509295509295565b62000372816200024b565b82525050565b620003838162000290565b82525050565b600060e082019050620003a0600083018a62000367565b620003af602083018962000367565b620003be604083018862000378565b620003cd606083018762000378565b620003dc608083018662000378565b620003eb60a083018562000378565b620003fa60c083018462000378565b98975050505050505050565b6109b980620004166000396000f3fe608060405234801561001057600080fd5b50600436106100cf5760003560e01c80637aa9c32a1161008c5780638da5cb5b116100665780638da5cb5b146101ba578063a6f7f5d6146101d8578063c24a0f8b146101f6578063f2fde38b14610214576100cf565b80637aa9c32a146101745780637c3a00fd1461017e57806381cb8ae11461019c576100cf565b80630fb5a6b4146100d4578063323046b1146100f257806345fbfbca1461011057806351ff48471461012e578063643aff0f1461014c578063715018a61461016a575b600080fd5b6100dc610230565b6040516100e9919061065a565b60405180910390f35b6100fa610236565b604051610107919061065a565b60405180910390f35b61011861023c565b604051610125919061065a565b60405180910390f35b610136610242565b6040516101439190610690565b60405180910390f35b610154610255565b60405161016191906106ec565b60405180910390f35b61017261027b565b005b61017c610303565b005b61018661043c565b604051610193919061065a565b60405180910390f35b6101a4610442565b6040516101b1919061065a565b60405180910390f35b6101c2610448565b6040516101cf91906106ec565b60405180910390f35b6101e0610471565b6040516101ed919061065a565b60405180910390f35b6101fe610477565b60405161020b919061065a565b60405180910390f35b61022e60048036038101906102299190610738565b61047d565b005b60085481565b60045481565b60025481565b600560009054906101000a900460ff1681565b600160009054906101000a900473ffffffffffffffffffffffffffffffffffffffff1681565b610283610575565b73ffffffffffffffffffffffffffffffffffffffff166102a1610448565b73ffffffffffffffffffffffffffffffffffffffff16146102f7576040517f08c379a00000000000000000000000000000000000000000000000000000000081526004016102ee906107c2565b60405180910390fd5b610301600061057d565b565b3373ffffffffffffffffffffffffffffffffffffffff16600160009054906101000a900473ffffffffffffffffffffffffffffffffffffffff1673ffffffffffffffffffffffffffffffffffffffff1614610393576040517f08c379a000000000000000000000000000000000000000000000000000000000815260040161038a9061082e565b60405180910390fd5b600560009054906101000a900460ff16156103e3576040517f08c379a00000000000000000000000000000000000000000000000000000000081526004016103da9061089a565b60405180910390fd5b6001600560006101000a81548160ff0219169083151502179055507fe21af13e061ea0d637068fd172d57075690af2c7d6c696319a8d13c763009bf933600142604051610432939291906108ba565b60405180910390a1565b60095481565b60065481565b60008060009054906101000a900473ffffffffffffffffffffffffffffffffffffffff16905090565b60035481565b60075481565b610485610575565b73ffffffffffffffffffffffffffffffffffffffff166104a3610448565b73ffffffffffffffffffffffffffffffffffffffff16146104f9576040517f08c379a00000000000000000000000000000000000000000000000000000000081526004016104f0906107c2565b60405180910390fd5b600073ffffffffffffffffffffffffffffffffffffffff168173ffffffffffffffffffffffffffffffffffffffff161415610569576040517f08c379a000000000000000000000000000000000000000000000000000000000815260040161056090610963565b60405180910390fd5b6105728161057d565b50565b600033905090565b60008060009054906101000a900473ffffffffffffffffffffffffffffffffffffffff169050816000806101000a81548173ffffffffffffffffffffffffffffffffffffffff021916908373ffffffffffffffffffffffffffffffffffffffff1602179055508173ffffffffffffffffffffffffffffffffffffffff168173ffffffffffffffffffffffffffffffffffffffff167f8be0079c531659141344cd1fd0a4f28419497f9722a3daafe3b4186f6b6457e060405160405180910390a35050565b6000819050919050565b61065481610641565b82525050565b600060208201905061066f600083018461064b565b92915050565b60008115159050919050565b61068a81610675565b82525050565b60006020820190506106a56000830184610681565b92915050565b600073ffffffffffffffffffffffffffffffffffffffff82169050919050565b60006106d6826106ab565b9050919050565b6106e6816106cb565b82525050565b600060208201905061070160008301846106dd565b92915050565b600080fd5b610715816106cb565b811461072057600080fd5b50565b6000813590506107328161070c565b92915050565b60006020828403121561074e5761074d610707565b5b600061075c84828501610723565b91505092915050565b600082825260208201905092915050565b7f4f776e61626c653a2063616c6c6572206973206e6f7420746865206f776e6572600082015250565b60006107ac602083610765565b91506107b782610776565b602082019050919050565b600060208201905081810360008301526107db8161079f565b9050919050565b7f4f6e6c7920696e766573746f722073686f756c64206163636570742100000000600082015250565b6000610818601c83610765565b9150610823826107e2565b602082019050919050565b600060208201905081810360008301526108478161080b565b9050919050565b7f436f6e747261637420686173206265656e207369676e65642100000000000000600082015250565b6000610884601983610765565b915061088f8261084e565b602082019050919050565b600060208201905081810360008301526108b381610877565b9050919050565b60006060820190506108cf60008301866106dd565b6108dc6020830185610681565b6108e9604083018461064b565b949350505050565b7f4f776e61626c653a206e6577206f776e657220697320746865207a65726f206160008201527f6464726573730000000000000000000000000000000000000000000000000000602082015250565b600061094d602683610765565b9150610958826108f1565b604082019050919050565b6000602082019050818103600083015261097c81610940565b905091905056fea2646970667358221220712a947f7431a58397fdc0f69e24d6a864db6bdbaee9e99d42c5532833f2af7d64736f6c63430008090033a26469706673582212208414e753be3392d3637510710e6430826ef89b63f025f08b5ee918d5b3b6bd3d64736f6c63430008090033",
  "immutableReferences": {},
  "source": "// SPDX-License-Identifier: MIT\r\npragma solidity ^0.8.0;\r\n\r\nimport \"./InvestorContract.sol\";\r\nimport \"@openzeppelin/contracts/access/Ownable.sol\";\r\n\r\ncontract InvestorsHandler is Ownable {\r\n\r\n    struct Investor{\r\n        string name;\r\n        uint registerDate;\r\n        bool status;\r\n        uint rating;\r\n        uint amountInvested; //total amount in DAI\r\n        uint termalReceived;\r\n        bool hasContract;\r\n        address investorContractAddress;\r\n    }\r\n\r\n    mapping (address => Investor) public investors;\r\n    address[] public investorList;\r\n\r\n    event LogCreateInvestor(address _creator, address _investorAddress, string _investorName, uint _registerDate, bool _status, uint _rating, uint _amountInvested);\r\n    event LogNewInvestorStatus(address _owner,  address _investorAddress, bool _status);\r\n\r\n    constructor(){\r\n    }\r\n\r\n    function createInvestor(address _investorAddress, \r\n                         string memory _investorName)\r\n        onlyOwner()\r\n        external\r\n    {\r\n        require(!investors[_investorAddress].status, \"Investor's address is registered!\");\r\n        investors[_investorAddress] = Investor(_investorName, block.timestamp, true, 0, 0, 0, false, address(0));\r\n        investorList.push(_investorAddress);\r\n        emit LogCreateInvestor(msg.sender, _investorAddress, _investorName, block.timestamp, true, 0, 0);\r\n    }\r\n\r\n    function createInvestorContract(\r\n            address _investorWallet, \r\n            uint _investment,\r\n            uint _managementFee,\r\n            uint _termalCoinRatio,\r\n            uint _duration,\r\n            uint _interestRate\r\n        )\r\n        onlyOwner()\r\n        external\r\n    {\r\n        require(isValidInvestor(_investorWallet), \"Investor wallet is not a valid contract\");\r\n        require(!investors[_investorWallet].hasContract, \"Startup has a contract\");\r\n        \r\n        InvestorContract newInvestorContract = new InvestorContract(\r\n            _investorWallet, \r\n            _investment,\r\n            _managementFee,\r\n            _termalCoinRatio,\r\n            _duration,\r\n            _interestRate\r\n        );\r\n\r\n        investors[_investorWallet].hasContract = true;\r\n        investors[_investorWallet].investorContractAddress = address(newInvestorContract);\r\n        newInvestorContract.transferOwnership(msg.sender);\r\n    }\r\n\r\n    function getSignatureStatus(address _investor)\r\n        public\r\n        view\r\n        returns (bool)\r\n    {\r\n        require(investors[_investor].hasContract, \"Investor has no contract!\");\r\n        return InvestorContract(investors[_investor].investorContractAddress).signature();\r\n    }\r\n\r\n    function isValidInvestor(address _investorAddress)\r\n        public\r\n        view\r\n        returns(bool)\r\n    {\r\n        return investors[_investorAddress].status;\r\n    }\r\n\r\n    function newInvestorStatus(address _investorAddress, bool _status)\r\n        onlyOwner()\r\n        public\r\n    {\r\n        require(investors[_investorAddress].status != _status, \"New investor's status should be different!\");\r\n        investors[_investorAddress].status = _status;\r\n        emit LogNewInvestorStatus(msg.sender, _investorAddress, _status);\r\n    }\r\n    function getTotalInvestors()\r\n        external\r\n        view\r\n        returns (uint)\r\n    {\r\n        return investorList.length;\r\n    }\r\n\r\n    //event LogDepositDai(address _sender, address _receipent, uint _amount);\r\n    \r\n    // Move this function to Termal.sol\r\n    function addDepositDai(address _receiver, uint _amount) external {\r\n        require(isValidInvestor(_receiver), \"Investor not registered!\");\r\n        \r\n        investors[_receiver].amountInvested += _amount;\r\n    }\r\n\r\n    function addDepositTermal(address _receiver, uint _amount) external {\r\n        require(isValidInvestor(_receiver), \"Investor not registered!\");\r\n        \r\n        investors[_receiver].termalReceived += _amount;\r\n    }\r\n\r\n\r\n\r\n    // Move this function to Termal.sol\r\n    // This function allows to send termal from the contract to a user.\r\n    /*function transferTermal(address _receiver, uint _amount)\r\n        onlyOwner()\r\n        public\r\n    {\r\n        termalToken.transfer(_receiver, _amount);\r\n    }*/\r\n\r\n    //Move this function to Termal.sol\r\n    //This function returns the dai contract's balance\r\n    /*function getDaiContractBalance()\r\n        external\r\n        view\r\n        returns (uint)\r\n    {\r\n        return daiToken.balanceOf(address(this));\r\n    }*/\r\n\r\n    // Move this function to Termal.sol\r\n    //This function returns the Termal tottal supply\r\n    /*function getTermalTotalSupply()\r\n        external\r\n        view\r\n        returns (uint)\r\n    {\r\n        return termalToken.totalSupply();\r\n    } */\r\n\r\n    // Move this function to Termal.sol\r\n    /*function getTermalBalance(address _wallet)\r\n        external\r\n        view\r\n        returns (uint)\r\n    {\r\n        return termalToken.balanceOf(_wallet);\r\n    } */\r\n        \r\n}",
  "sourcePath": "/Users/gimer/Projects/TermalPolygon/contracts/InvestorsHandler.sol",
  "compiler": {
    "name": "solc",
    "version": "0.8.9+commit.e5eed63a.Emscripten.clang"
  },
  "schemaVersion": "3.4.4",
  "updatedAt": "2022-03-31T15:13:57.803Z",
  "networkType": "ethereum",
  "devdoc": {
    "kind": "dev",
    "methods": {
      "owner()": {
        "details": "Returns the address of the current owner."
      },
      "renounceOwnership()": {
        "details": "Leaves the contract without owner. It will not be possible to call `onlyOwner` functions anymore. Can only be called by the current owner. NOTE: Renouncing ownership will leave the contract without an owner, thereby removing any functionality that is only available to the owner."
      },
      "transferOwnership(address)": {
        "details": "Transfers ownership of the contract to a new account (`newOwner`). Can only be called by the current owner."
      }
    },
    "version": 1
  },
  "userdoc": {
    "kind": "user",
    "methods": {},
    "version": 1
  }
}