{
  "contractName": "InvestorsHandler",
  "abi": [
    {
      "inputs": [],
      "stateMutability": "nonpayable",
      "type": "constructor"
    },
    {
      "anonymous": false,
      "inputs": [
        {
          "indexed": false,
          "internalType": "address",
          "name": "_creator",
          "type": "address"
        },
        {
          "indexed": false,
          "internalType": "address",
          "name": "_investorAddress",
          "type": "address"
        },
        {
          "indexed": false,
          "internalType": "string",
          "name": "_investorName",
          "type": "string"
        },
        {
          "indexed": false,
          "internalType": "uint256",
          "name": "_registerDate",
          "type": "uint256"
        },
        {
          "indexed": false,
          "internalType": "bool",
          "name": "_status",
          "type": "bool"
        },
        {
          "indexed": false,
          "internalType": "uint256",
          "name": "_rating",
          "type": "uint256"
        },
        {
          "indexed": false,
          "internalType": "uint256",
          "name": "_amountInvested",
          "type": "uint256"
        }
      ],
      "name": "LogCreateInvestor",
      "type": "event"
    },
    {
      "anonymous": false,
      "inputs": [
        {
          "indexed": false,
          "internalType": "address",
          "name": "_owner",
          "type": "address"
        },
        {
          "indexed": false,
          "internalType": "address",
          "name": "_investorAddress",
          "type": "address"
        },
        {
          "indexed": false,
          "internalType": "bool",
          "name": "_status",
          "type": "bool"
        }
      ],
      "name": "LogNewInvestorStatus",
      "type": "event"
    },
    {
      "anonymous": false,
      "inputs": [
        {
          "indexed": true,
          "internalType": "address",
          "name": "previousOwner",
          "type": "address"
        },
        {
          "indexed": true,
          "internalType": "address",
          "name": "newOwner",
          "type": "address"
        }
      ],
      "name": "OwnershipTransferred",
      "type": "event"
    },
    {
      "inputs": [
        {
          "internalType": "uint256",
          "name": "",
          "type": "uint256"
        }
      ],
      "name": "investorList",
      "outputs": [
        {
          "internalType": "address",
          "name": "",
          "type": "address"
        }
      ],
      "stateMutability": "view",
      "type": "function",
      "constant": true
    },
    {
      "inputs": [
        {
          "internalType": "address",
          "name": "",
          "type": "address"
        }
      ],
      "name": "investors",
      "outputs": [
        {
          "internalType": "string",
          "name": "name",
          "type": "string"
        },
        {
          "internalType": "uint256",
          "name": "registerDate",
          "type": "uint256"
        },
        {
          "internalType": "bool",
          "name": "status",
          "type": "bool"
        },
        {
          "internalType": "uint256",
          "name": "rating",
          "type": "uint256"
        },
        {
          "internalType": "uint256",
          "name": "amountInvested",
          "type": "uint256"
        },
        {
          "internalType": "uint256",
          "name": "termalReceived",
          "type": "uint256"
        },
        {
          "internalType": "bool",
          "name": "hasContract",
          "type": "bool"
        },
        {
          "internalType": "address",
          "name": "investorContractAddress",
          "type": "address"
        }
      ],
      "stateMutability": "view",
      "type": "function",
      "constant": true
    },
    {
      "inputs": [],
      "name": "owner",
      "outputs": [
        {
          "internalType": "address",
          "name": "",
          "type": "address"
        }
      ],
      "stateMutability": "view",
      "type": "function",
      "constant": true
    },
    {
      "inputs": [],
      "name": "renounceOwnership",
      "outputs": [],
      "stateMutability": "nonpayable",
      "type": "function"
    },
    {
      "inputs": [
        {
          "internalType": "address",
          "name": "newOwner",
          "type": "address"
        }
      ],
      "name": "transferOwnership",
      "outputs": [],
      "stateMutability": "nonpayable",
      "type": "function"
    },
    {
      "inputs": [
        {
          "internalType": "address",
          "name": "_investorAddress",
          "type": "address"
        },
        {
          "internalType": "string",
          "name": "_investorName",
          "type": "string"
        }
      ],
      "name": "createInvestor",
      "outputs": [],
      "stateMutability": "nonpayable",
      "type": "function"
    },
    {
      "inputs": [
        {
          "internalType": "address",
          "name": "_investorWallet",
          "type": "address"
        },
        {
          "internalType": "uint256",
          "name": "_investment",
          "type": "uint256"
        },
        {
          "internalType": "uint256",
          "name": "_managementFee",
          "type": "uint256"
        },
        {
          "internalType": "uint256",
          "name": "_termalCoinRatio",
          "type": "uint256"
        },
        {
          "internalType": "uint256",
          "name": "_duration",
          "type": "uint256"
        },
        {
          "internalType": "uint256",
          "name": "_interestRate",
          "type": "uint256"
        }
      ],
      "name": "createInvestorContract",
      "outputs": [],
      "stateMutability": "nonpayable",
      "type": "function"
    },
    {
      "inputs": [
        {
          "internalType": "address",
          "name": "_investor",
          "type": "address"
        }
      ],
      "name": "getSignatureStatus",
      "outputs": [
        {
          "internalType": "bool",
          "name": "",
          "type": "bool"
        }
      ],
      "stateMutability": "view",
      "type": "function",
      "constant": true
    },
    {
      "inputs": [
        {
          "internalType": "address",
          "name": "_investorAddress",
          "type": "address"
        }
      ],
      "name": "isValidInvestor",
      "outputs": [
        {
          "internalType": "bool",
          "name": "",
          "type": "bool"
        }
      ],
      "stateMutability": "view",
      "type": "function",
      "constant": true
    },
    {
      "inputs": [
        {
          "internalType": "address",
          "name": "_investorAddress",
          "type": "address"
        },
        {
          "internalType": "bool",
          "name": "_status",
          "type": "bool"
        }
      ],
      "name": "newInvestorStatus",
      "outputs": [],
      "stateMutability": "nonpayable",
      "type": "function"
    },
    {
      "inputs": [],
      "name": "getTotalInvestors",
      "outputs": [
        {
          "internalType": "uint256",
          "name": "",
          "type": "uint256"
        }
      ],
      "stateMutability": "view",
      "type": "function",
      "constant": true
    },
    {
      "inputs": [
        {
          "internalType": "address",
          "name": "_receiver",
          "type": "address"
        },
        {
          "internalType": "uint256",
          "name": "_amount",
          "type": "uint256"
        }
      ],
      "name": "addDepositDai",
      "outputs": [],
      "stateMutability": "nonpayable",
      "type": "function"
    },
    {
      "inputs": [
        {
          "internalType": "address",
          "name": "_receiver",
          "type": "address"
        },
        {
          "internalType": "uint256",
          "name": "_amount",
          "type": "uint256"
        }
      ],
      "name": "addDepositTermal",
      "outputs": [],
      "stateMutability": "nonpayable",
      "type": "function"
    }
  ],
  "bytecode": "0x608060405234801561001057600080fd5b5061002d61002261003260201b60201c565b61003a60201b60201c565b6100fe565b600033905090565b60008060009054906101000a900473ffffffffffffffffffffffffffffffffffffffff169050816000806101000a81548173ffffffffffffffffffffffffffffffffffffffff021916908373ffffffffffffffffffffffffffffffffffffffff1602179055508173ffffffffffffffffffffffffffffffffffffffff168173ffffffffffffffffffffffffffffffffffffffff167f8be0079c531659141344cd1fd0a4f28419497f9722a3daafe3b4186f6b6457e060405160405180910390a35050565b612d56806200010e6000396000f3fe60806040523480156200001157600080fd5b5060043610620000e25760003560e01c80638da5cb5b1162000099578063c63208a4116200006f578063c63208a41462000254578063d7766d791462000274578063dceb4c0a1462000296578063f2fde38b14620002b657620000e2565b80638da5cb5b14620001f257806397c9f8ca1462000214578063b895f36f146200023457620000e2565b80630452141b14620000e757806312f9b48e14620001075780635092538a146200013d5780636f7bc9be1462000173578063715018a614620001b057806375126d6414620001bc575b600080fd5b620001056004803603810190620000ff919062001333565b620002d6565b005b6200012560048036038101906200011f9190620013b5565b6200048c565b604051620001349190620013f8565b60405180910390f35b6200015b600480360381019062000155919062001415565b620004cc565b6040516200016a919062001458565b60405180910390f35b6200019160048036038101906200018b919062001415565b62000525565b604051620001a79897969594939291906200152a565b60405180910390f35b620001ba62000637565b005b620001da6004803603810190620001d4919062001415565b620006c8565b604051620001e9919062001458565b60405180910390f35b620001fc62000837565b6040516200020b9190620013f8565b60405180910390f35b6200023260048036038101906200022c919062001710565b62000860565b005b6200025260048036038101906200024c919062001776565b62000b8e565b005b6200027260048036038101906200026c919062001812565b62000e8b565b005b6200027e62000f37565b6040516200028d919062001859565b60405180910390f35b620002b46004803603810190620002ae919062001812565b62000f44565b005b620002d46004803603810190620002ce919062001415565b62000ff0565b005b620002e0620010f3565b73ffffffffffffffffffffffffffffffffffffffff166200030062000837565b73ffffffffffffffffffffffffffffffffffffffff161462000359576040517f08c379a00000000000000000000000000000000000000000000000000000000081526004016200035090620018c6565b60405180910390fd5b801515600160008473ffffffffffffffffffffffffffffffffffffffff1673ffffffffffffffffffffffffffffffffffffffff16815260200190815260200160002060020160009054906101000a900460ff16151503620003f1576040517f08c379a0000000000000000000000000000000000000000000000000000000008152600401620003e8906200195e565b60405180910390fd5b80600160008473ffffffffffffffffffffffffffffffffffffffff1673ffffffffffffffffffffffffffffffffffffffff16815260200190815260200160002060020160006101000a81548160ff0219169083151502179055507f332e0c190aecd762f1cefd9994a03dba54e64671f2e34cba060887bef73088aa338383604051620004809392919062001980565b60405180910390a15050565b600281815481106200049d57600080fd5b906000526020600020016000915054906101000a900473ffffffffffffffffffffffffffffffffffffffff1681565b6000600160008373ffffffffffffffffffffffffffffffffffffffff1673ffffffffffffffffffffffffffffffffffffffff16815260200190815260200160002060020160009054906101000a900460ff169050919050565b60016020528060005260406000206000915090508060000180546200054a90620019ec565b80601f01602080910402602001604051908101604052809291908181526020018280546200057890620019ec565b8015620005c95780601f106200059d57610100808354040283529160200191620005c9565b820191906000526020600020905b815481529060010190602001808311620005ab57829003601f168201915b5050505050908060010154908060020160009054906101000a900460ff16908060030154908060040154908060050154908060060160009054906101000a900460ff16908060060160019054906101000a900473ffffffffffffffffffffffffffffffffffffffff16905088565b62000641620010f3565b73ffffffffffffffffffffffffffffffffffffffff166200066162000837565b73ffffffffffffffffffffffffffffffffffffffff1614620006ba576040517f08c379a0000000000000000000000000000000000000000000000000000000008152600401620006b190620018c6565b60405180910390fd5b620006c66000620010fb565b565b6000600160008373ffffffffffffffffffffffffffffffffffffffff1673ffffffffffffffffffffffffffffffffffffffff16815260200190815260200160002060060160009054906101000a900460ff166200075c576040517f08c379a0000000000000000000000000000000000000000000000000000000008152600401620007539062001a71565b60405180910390fd5b600160008373ffffffffffffffffffffffffffffffffffffffff1673ffffffffffffffffffffffffffffffffffffffff16815260200190815260200160002060060160019054906101000a900473ffffffffffffffffffffffffffffffffffffffff1673ffffffffffffffffffffffffffffffffffffffff166351ff48476040518163ffffffff1660e01b8152600401602060405180830381865afa1580156200080a573d6000803e3d6000fd5b505050506040513d601f19601f8201168201806040525081019062000830919062001aaa565b9050919050565b60008060009054906101000a900473ffffffffffffffffffffffffffffffffffffffff16905090565b6200086a620010f3565b73ffffffffffffffffffffffffffffffffffffffff166200088a62000837565b73ffffffffffffffffffffffffffffffffffffffff1614620008e3576040517f08c379a0000000000000000000000000000000000000000000000000000000008152600401620008da90620018c6565b60405180910390fd5b600160008373ffffffffffffffffffffffffffffffffffffffff1673ffffffffffffffffffffffffffffffffffffffff16815260200190815260200160002060020160009054906101000a900460ff161562000976576040517f08c379a00000000000000000000000000000000000000000000000000000000081526004016200096d9062001b52565b60405180910390fd5b604051806101000160405280828152602001428152602001600115158152602001600081526020016000815260200160008152602001600015158152602001600073ffffffffffffffffffffffffffffffffffffffff16815250600160008473ffffffffffffffffffffffffffffffffffffffff1673ffffffffffffffffffffffffffffffffffffffff168152602001908152602001600020600082015181600001908051906020019062000a2d929190620011bf565b506020820151816001015560408201518160020160006101000a81548160ff021916908315150217905550606082015181600301556080820151816004015560a0820151816005015560c08201518160060160006101000a81548160ff02191690831515021790555060e08201518160060160016101000a81548173ffffffffffffffffffffffffffffffffffffffff021916908373ffffffffffffffffffffffffffffffffffffffff1602179055509050506002829080600181540180825580915050600190039060005260206000200160009091909190916101000a81548173ffffffffffffffffffffffffffffffffffffffff021916908373ffffffffffffffffffffffffffffffffffffffff1602179055507f927948467456f386be96283ad93519b24ab0c6e7920614aec64789679078d1c433838342600160008060405162000b82979695949392919062001bc1565b60405180910390a15050565b62000b98620010f3565b73ffffffffffffffffffffffffffffffffffffffff1662000bb862000837565b73ffffffffffffffffffffffffffffffffffffffff161462000c11576040517f08c379a000000000000000000000000000000000000000000000000000000000815260040162000c0890620018c6565b60405180910390fd5b62000c1c86620004cc565b62000c5e576040517f08c379a000000000000000000000000000000000000000000000000000000000815260040162000c559062001cbb565b60405180910390fd5b600160008773ffffffffffffffffffffffffffffffffffffffff1673ffffffffffffffffffffffffffffffffffffffff16815260200190815260200160002060060160009054906101000a900460ff161562000cf1576040517f08c379a000000000000000000000000000000000000000000000000000000000815260040162000ce89062001d2d565b60405180910390fd5b600086868686868660405162000d079062001250565b62000d189695949392919062001d4f565b604051809103906000f08015801562000d35573d6000803e3d6000fd5b50905060018060008973ffffffffffffffffffffffffffffffffffffffff1673ffffffffffffffffffffffffffffffffffffffff16815260200190815260200160002060060160006101000a81548160ff02191690831515021790555080600160008973ffffffffffffffffffffffffffffffffffffffff1673ffffffffffffffffffffffffffffffffffffffff16815260200190815260200160002060060160016101000a81548173ffffffffffffffffffffffffffffffffffffffff021916908373ffffffffffffffffffffffffffffffffffffffff1602179055508073ffffffffffffffffffffffffffffffffffffffff1663f2fde38b336040518263ffffffff1660e01b815260040162000e4e9190620013f8565b600060405180830381600087803b15801562000e6957600080fd5b505af115801562000e7e573d6000803e3d6000fd5b5050505050505050505050565b62000e9682620004cc565b62000ed8576040517f08c379a000000000000000000000000000000000000000000000000000000000815260040162000ecf9062001e0c565b60405180910390fd5b80600160008473ffffffffffffffffffffffffffffffffffffffff1673ffffffffffffffffffffffffffffffffffffffff168152602001908152602001600020600401600082825462000f2c919062001e5d565b925050819055505050565b6000600280549050905090565b62000f4f82620004cc565b62000f91576040517f08c379a000000000000000000000000000000000000000000000000000000000815260040162000f889062001e0c565b60405180910390fd5b80600160008473ffffffffffffffffffffffffffffffffffffffff1673ffffffffffffffffffffffffffffffffffffffff168152602001908152602001600020600501600082825462000fe5919062001e5d565b925050819055505050565b62000ffa620010f3565b73ffffffffffffffffffffffffffffffffffffffff166200101a62000837565b73ffffffffffffffffffffffffffffffffffffffff161462001073576040517f08c379a00000000000000000000000000000000000000000000000000000000081526004016200106a90620018c6565b60405180910390fd5b600073ffffffffffffffffffffffffffffffffffffffff168173ffffffffffffffffffffffffffffffffffffffff1603620010e5576040517f08c379a0000000000000000000000000000000000000000000000000000000008152600401620010dc9062001f30565b60405180910390fd5b620010f081620010fb565b50565b600033905090565b60008060009054906101000a900473ffffffffffffffffffffffffffffffffffffffff169050816000806101000a81548173ffffffffffffffffffffffffffffffffffffffff021916908373ffffffffffffffffffffffffffffffffffffffff1602179055508173ffffffffffffffffffffffffffffffffffffffff168173ffffffffffffffffffffffffffffffffffffffff167f8be0079c531659141344cd1fd0a4f28419497f9722a3daafe3b4186f6b6457e060405160405180910390a35050565b828054620011cd90620019ec565b90600052602060002090601f016020900481019282620011f157600085556200123d565b82601f106200120c57805160ff19168380011785556200123d565b828001600101855582156200123d579182015b828111156200123c5782518255916020019190600101906200121f565b5b5090506200124c91906200125e565b5090565b610dce8062001f5383390190565b5b80821115620012795760008160009055506001016200125f565b5090565b6000604051905090565b600080fd5b600080fd5b600073ffffffffffffffffffffffffffffffffffffffff82169050919050565b6000620012be8262001291565b9050919050565b620012d081620012b1565b8114620012dc57600080fd5b50565b600081359050620012f081620012c5565b92915050565b60008115159050919050565b6200130d81620012f6565b81146200131957600080fd5b50565b6000813590506200132d8162001302565b92915050565b600080604083850312156200134d576200134c62001287565b5b60006200135d85828601620012df565b925050602062001370858286016200131c565b9150509250929050565b6000819050919050565b6200138f816200137a565b81146200139b57600080fd5b50565b600081359050620013af8162001384565b92915050565b600060208284031215620013ce57620013cd62001287565b5b6000620013de848285016200139e565b91505092915050565b620013f281620012b1565b82525050565b60006020820190506200140f6000830184620013e7565b92915050565b6000602082840312156200142e576200142d62001287565b5b60006200143e84828501620012df565b91505092915050565b6200145281620012f6565b82525050565b60006020820190506200146f600083018462001447565b92915050565b600081519050919050565b600082825260208201905092915050565b60005b83811015620014b157808201518184015260208101905062001494565b83811115620014c1576000848401525b50505050565b6000601f19601f8301169050919050565b6000620014e58262001475565b620014f1818562001480565b93506200150381856020860162001491565b6200150e81620014c7565b840191505092915050565b62001524816200137a565b82525050565b600061010082019050818103600083015262001547818b620014d8565b905062001558602083018a62001519565b62001567604083018962001447565b62001576606083018862001519565b62001585608083018762001519565b6200159460a083018662001519565b620015a360c083018562001447565b620015b260e0830184620013e7565b9998505050505050505050565b600080fd5b600080fd5b7f4e487b7100000000000000000000000000000000000000000000000000000000600052604160045260246000fd5b6200160382620014c7565b810181811067ffffffffffffffff82111715620016255762001624620015c9565b5b80604052505050565b60006200163a6200127d565b9050620016488282620015f8565b919050565b600067ffffffffffffffff8211156200166b576200166a620015c9565b5b6200167682620014c7565b9050602081019050919050565b82818337600083830152505050565b6000620016a9620016a3846200164d565b6200162e565b905082815260208101848484011115620016c857620016c7620015c4565b5b620016d584828562001683565b509392505050565b600082601f830112620016f557620016f4620015bf565b5b81356200170784826020860162001692565b91505092915050565b600080604083850312156200172a576200172962001287565b5b60006200173a85828601620012df565b925050602083013567ffffffffffffffff8111156200175e576200175d6200128c565b5b6200176c85828601620016dd565b9150509250929050565b60008060008060008060c0878903121562001796576200179562001287565b5b6000620017a689828a01620012df565b9650506020620017b989828a016200139e565b9550506040620017cc89828a016200139e565b9450506060620017df89828a016200139e565b9350506080620017f289828a016200139e565b92505060a06200180589828a016200139e565b9150509295509295509295565b600080604083850312156200182c576200182b62001287565b5b60006200183c85828601620012df565b92505060206200184f858286016200139e565b9150509250929050565b600060208201905062001870600083018462001519565b92915050565b7f4f776e61626c653a2063616c6c6572206973206e6f7420746865206f776e6572600082015250565b6000620018ae60208362001480565b9150620018bb8262001876565b602082019050919050565b60006020820190508181036000830152620018e1816200189f565b9050919050565b7f4e657720696e766573746f722773207374617475732073686f756c642062652060008201527f646966666572656e742100000000000000000000000000000000000000000000602082015250565b600062001946602a8362001480565b91506200195382620018e8565b604082019050919050565b60006020820190508181036000830152620019798162001937565b9050919050565b6000606082019050620019976000830186620013e7565b620019a66020830185620013e7565b620019b5604083018462001447565b949350505050565b7f4e487b7100000000000000000000000000000000000000000000000000000000600052602260045260246000fd5b6000600282049050600182168062001a0557607f821691505b60208210810362001a1b5762001a1a620019bd565b5b50919050565b7f496e766573746f7220686173206e6f20636f6e74726163742100000000000000600082015250565b600062001a5960198362001480565b915062001a668262001a21565b602082019050919050565b6000602082019050818103600083015262001a8c8162001a4a565b9050919050565b60008151905062001aa48162001302565b92915050565b60006020828403121562001ac35762001ac262001287565b5b600062001ad38482850162001a93565b91505092915050565b7f496e766573746f7227732061646472657373206973207265676973746572656460008201527f2100000000000000000000000000000000000000000000000000000000000000602082015250565b600062001b3a60218362001480565b915062001b478262001adc565b604082019050919050565b6000602082019050818103600083015262001b6d8162001b2b565b9050919050565b6000819050919050565b6000819050919050565b600062001ba962001ba362001b9d8462001b74565b62001b7e565b6200137a565b9050919050565b62001bbb8162001b88565b82525050565b600060e08201905062001bd8600083018a620013e7565b62001be76020830189620013e7565b818103604083015262001bfb8188620014d8565b905062001c0c606083018762001519565b62001c1b608083018662001447565b62001c2a60a083018562001bb0565b62001c3960c083018462001bb0565b98975050505050505050565b7f496e766573746f722077616c6c6574206973206e6f7420612076616c6964206360008201527f6f6e747261637400000000000000000000000000000000000000000000000000602082015250565b600062001ca360278362001480565b915062001cb08262001c45565b604082019050919050565b6000602082019050818103600083015262001cd68162001c94565b9050919050565b7f5374617274757020686173206120636f6e747261637400000000000000000000600082015250565b600062001d1560168362001480565b915062001d228262001cdd565b602082019050919050565b6000602082019050818103600083015262001d488162001d06565b9050919050565b600060c08201905062001d666000830189620013e7565b62001d75602083018862001519565b62001d84604083018762001519565b62001d93606083018662001519565b62001da2608083018562001519565b62001db160a083018462001519565b979650505050505050565b7f496e766573746f72206e6f742072656769737465726564210000000000000000600082015250565b600062001df460188362001480565b915062001e018262001dbc565b602082019050919050565b6000602082019050818103600083015262001e278162001de5565b9050919050565b7f4e487b7100000000000000000000000000000000000000000000000000000000600052601160045260246000fd5b600062001e6a826200137a565b915062001e77836200137a565b9250827fffffffffffffffffffffffffffffffffffffffffffffffffffffffffffffffff0382111562001eaf5762001eae62001e2e565b5b828201905092915050565b7f4f776e61626c653a206e6577206f776e657220697320746865207a65726f206160008201527f6464726573730000000000000000000000000000000000000000000000000000602082015250565b600062001f1860268362001480565b915062001f258262001eba565b604082019050919050565b6000602082019050818103600083015262001f4b8162001f09565b905091905056fe60806040523480156200001157600080fd5b5060405162000dce38038062000dce8339818101604052810190620000379190620002cb565b620000576200004b6200015a60201b60201c565b6200016260201b60201c565b85600160006101000a81548173ffffffffffffffffffffffffffffffffffffffff021916908373ffffffffffffffffffffffffffffffffffffffff1602179055508460028190555083600381905550426004819055506000600560006101000a81548160ff0219169083151502179055508260068190555081600881905550806009819055507f7007ba4e1b77996a212434bda760646d3a01b4d163751c70c0195f039f8632d033600160009054906101000a900473ffffffffffffffffffffffffffffffffffffffff1660025460045460065460085460095460405162000146979695949392919062000389565b60405180910390a150505050505062000406565b600033905090565b60008060009054906101000a900473ffffffffffffffffffffffffffffffffffffffff169050816000806101000a81548173ffffffffffffffffffffffffffffffffffffffff021916908373ffffffffffffffffffffffffffffffffffffffff1602179055508173ffffffffffffffffffffffffffffffffffffffff168173ffffffffffffffffffffffffffffffffffffffff167f8be0079c531659141344cd1fd0a4f28419497f9722a3daafe3b4186f6b6457e060405160405180910390a35050565b600080fd5b600073ffffffffffffffffffffffffffffffffffffffff82169050919050565b600062000258826200022b565b9050919050565b6200026a816200024b565b81146200027657600080fd5b50565b6000815190506200028a816200025f565b92915050565b6000819050919050565b620002a58162000290565b8114620002b157600080fd5b50565b600081519050620002c5816200029a565b92915050565b60008060008060008060c08789031215620002eb57620002ea62000226565b5b6000620002fb89828a0162000279565b96505060206200030e89828a01620002b4565b95505060406200032189828a01620002b4565b94505060606200033489828a01620002b4565b93505060806200034789828a01620002b4565b92505060a06200035a89828a01620002b4565b9150509295509295509295565b62000372816200024b565b82525050565b620003838162000290565b82525050565b600060e082019050620003a0600083018a62000367565b620003af602083018962000367565b620003be604083018862000378565b620003cd606083018762000378565b620003dc608083018662000378565b620003eb60a083018562000378565b620003fa60c083018462000378565b98975050505050505050565b6109b880620004166000396000f3fe608060405234801561001057600080fd5b50600436106100cf5760003560e01c80637aa9c32a1161008c5780638da5cb5b116100665780638da5cb5b146101ba578063a6f7f5d6146101d8578063c24a0f8b146101f6578063f2fde38b14610214576100cf565b80637aa9c32a146101745780637c3a00fd1461017e57806381cb8ae11461019c576100cf565b80630fb5a6b4146100d4578063323046b1146100f257806345fbfbca1461011057806351ff48471461012e578063643aff0f1461014c578063715018a61461016a575b600080fd5b6100dc610230565b6040516100e99190610659565b60405180910390f35b6100fa610236565b6040516101079190610659565b60405180910390f35b61011861023c565b6040516101259190610659565b60405180910390f35b610136610242565b604051610143919061068f565b60405180910390f35b610154610255565b60405161016191906106eb565b60405180910390f35b61017261027b565b005b61017c610303565b005b61018661043c565b6040516101939190610659565b60405180910390f35b6101a4610442565b6040516101b19190610659565b60405180910390f35b6101c2610448565b6040516101cf91906106eb565b60405180910390f35b6101e0610471565b6040516101ed9190610659565b60405180910390f35b6101fe610477565b60405161020b9190610659565b60405180910390f35b61022e60048036038101906102299190610737565b61047d565b005b60085481565b60045481565b60025481565b600560009054906101000a900460ff1681565b600160009054906101000a900473ffffffffffffffffffffffffffffffffffffffff1681565b610283610574565b73ffffffffffffffffffffffffffffffffffffffff166102a1610448565b73ffffffffffffffffffffffffffffffffffffffff16146102f7576040517f08c379a00000000000000000000000000000000000000000000000000000000081526004016102ee906107c1565b60405180910390fd5b610301600061057c565b565b3373ffffffffffffffffffffffffffffffffffffffff16600160009054906101000a900473ffffffffffffffffffffffffffffffffffffffff1673ffffffffffffffffffffffffffffffffffffffff1614610393576040517f08c379a000000000000000000000000000000000000000000000000000000000815260040161038a9061082d565b60405180910390fd5b600560009054906101000a900460ff16156103e3576040517f08c379a00000000000000000000000000000000000000000000000000000000081526004016103da90610899565b60405180910390fd5b6001600560006101000a81548160ff0219169083151502179055507fe21af13e061ea0d637068fd172d57075690af2c7d6c696319a8d13c763009bf933600142604051610432939291906108b9565b60405180910390a1565b60095481565b60065481565b60008060009054906101000a900473ffffffffffffffffffffffffffffffffffffffff16905090565b60035481565b60075481565b610485610574565b73ffffffffffffffffffffffffffffffffffffffff166104a3610448565b73ffffffffffffffffffffffffffffffffffffffff16146104f9576040517f08c379a00000000000000000000000000000000000000000000000000000000081526004016104f0906107c1565b60405180910390fd5b600073ffffffffffffffffffffffffffffffffffffffff168173ffffffffffffffffffffffffffffffffffffffff1603610568576040517f08c379a000000000000000000000000000000000000000000000000000000000815260040161055f90610962565b60405180910390fd5b6105718161057c565b50565b600033905090565b60008060009054906101000a900473ffffffffffffffffffffffffffffffffffffffff169050816000806101000a81548173ffffffffffffffffffffffffffffffffffffffff021916908373ffffffffffffffffffffffffffffffffffffffff1602179055508173ffffffffffffffffffffffffffffffffffffffff168173ffffffffffffffffffffffffffffffffffffffff167f8be0079c531659141344cd1fd0a4f28419497f9722a3daafe3b4186f6b6457e060405160405180910390a35050565b6000819050919050565b61065381610640565b82525050565b600060208201905061066e600083018461064a565b92915050565b60008115159050919050565b61068981610674565b82525050565b60006020820190506106a46000830184610680565b92915050565b600073ffffffffffffffffffffffffffffffffffffffff82169050919050565b60006106d5826106aa565b9050919050565b6106e5816106ca565b82525050565b600060208201905061070060008301846106dc565b92915050565b600080fd5b610714816106ca565b811461071f57600080fd5b50565b6000813590506107318161070b565b92915050565b60006020828403121561074d5761074c610706565b5b600061075b84828501610722565b91505092915050565b600082825260208201905092915050565b7f4f776e61626c653a2063616c6c6572206973206e6f7420746865206f776e6572600082015250565b60006107ab602083610764565b91506107b682610775565b602082019050919050565b600060208201905081810360008301526107da8161079e565b9050919050565b7f4f6e6c7920696e766573746f722073686f756c64206163636570742100000000600082015250565b6000610817601c83610764565b9150610822826107e1565b602082019050919050565b600060208201905081810360008301526108468161080a565b9050919050565b7f436f6e747261637420686173206265656e207369676e65642100000000000000600082015250565b6000610883601983610764565b915061088e8261084d565b602082019050919050565b600060208201905081810360008301526108b281610876565b9050919050565b60006060820190506108ce60008301866106dc565b6108db6020830185610680565b6108e8604083018461064a565b949350505050565b7f4f776e61626c653a206e6577206f776e657220697320746865207a65726f206160008201527f6464726573730000000000000000000000000000000000000000000000000000602082015250565b600061094c602683610764565b9150610957826108f0565b604082019050919050565b6000602082019050818103600083015261097b8161093f565b905091905056fea2646970667358221220bf4958595c26a91669449945cda2ec4dd7827d060db701fd8231ae4fd137de8064736f6c634300080e0033a26469706673582212207e7f35d7eaddbdb136b3a754e0896c8672ecd591c7d4eb6ea303aeb29e1e385564736f6c634300080e0033",
  "immutableReferences": {},
  "source": "// SPDX-License-Identifier: MIT\r\npragma solidity ^0.8.14;\r\n\r\nimport \"./InvestorContract.sol\";\r\nimport \"@openzeppelin/contracts/access/Ownable.sol\";\r\n\r\ncontract InvestorsHandler is Ownable {\r\n\r\n    struct Investor{\r\n        string name;\r\n        uint registerDate;\r\n        bool status;\r\n        uint rating;\r\n        uint amountInvested; //total amount in DAI\r\n        uint termalReceived;\r\n        bool hasContract;\r\n        address investorContractAddress;\r\n    }\r\n\r\n    mapping (address => Investor) public investors;\r\n    address[] public investorList;\r\n\r\n    event LogCreateInvestor(address _creator, address _investorAddress, string _investorName, uint _registerDate, bool _status, uint _rating, uint _amountInvested);\r\n    event LogNewInvestorStatus(address _owner,  address _investorAddress, bool _status);\r\n\r\n    constructor(){\r\n    }\r\n\r\n    function createInvestor(address _investorAddress, \r\n                         string memory _investorName)\r\n        onlyOwner()\r\n        external\r\n    {\r\n        require(!investors[_investorAddress].status, \"Investor's address is registered!\");\r\n        investors[_investorAddress] = Investor(_investorName, block.timestamp, true, 0, 0, 0, false, address(0));\r\n        investorList.push(_investorAddress);\r\n        emit LogCreateInvestor(msg.sender, _investorAddress, _investorName, block.timestamp, true, 0, 0);\r\n    }\r\n\r\n    function createInvestorContract(\r\n            address _investorWallet, \r\n            uint _investment,\r\n            uint _managementFee,\r\n            uint _termalCoinRatio,\r\n            uint _duration,\r\n            uint _interestRate\r\n        )\r\n        onlyOwner()\r\n        external\r\n    {\r\n        require(isValidInvestor(_investorWallet), \"Investor wallet is not a valid contract\");\r\n        require(!investors[_investorWallet].hasContract, \"Startup has a contract\");\r\n        \r\n        InvestorContract newInvestorContract = new InvestorContract(\r\n            _investorWallet, \r\n            _investment,\r\n            _managementFee,\r\n            _termalCoinRatio,\r\n            _duration,\r\n            _interestRate\r\n        );\r\n\r\n        investors[_investorWallet].hasContract = true;\r\n        investors[_investorWallet].investorContractAddress = address(newInvestorContract);\r\n        newInvestorContract.transferOwnership(msg.sender);\r\n    }\r\n\r\n    function getSignatureStatus(address _investor)\r\n        public\r\n        view\r\n        returns (bool)\r\n    {\r\n        require(investors[_investor].hasContract, \"Investor has no contract!\");\r\n        return InvestorContract(investors[_investor].investorContractAddress).signature();\r\n    }\r\n\r\n    function isValidInvestor(address _investorAddress)\r\n        public\r\n        view\r\n        returns(bool)\r\n    {\r\n        return investors[_investorAddress].status;\r\n    }\r\n\r\n    function newInvestorStatus(address _investorAddress, bool _status)\r\n        onlyOwner()\r\n        public\r\n    {\r\n        require(investors[_investorAddress].status != _status, \"New investor's status should be different!\");\r\n        investors[_investorAddress].status = _status;\r\n        emit LogNewInvestorStatus(msg.sender, _investorAddress, _status);\r\n    }\r\n    function getTotalInvestors()\r\n        external\r\n        view\r\n        returns (uint)\r\n    {\r\n        return investorList.length;\r\n    }\r\n\r\n    //event LogDepositDai(address _sender, address _receipent, uint _amount);\r\n    \r\n    // Move this function to Termal.sol\r\n    function addDepositDai(address _receiver, uint _amount) external {\r\n        require(isValidInvestor(_receiver), \"Investor not registered!\");\r\n        \r\n        investors[_receiver].amountInvested += _amount;\r\n    }\r\n\r\n    function addDepositTermal(address _receiver, uint _amount) external {\r\n        require(isValidInvestor(_receiver), \"Investor not registered!\");\r\n        \r\n        investors[_receiver].termalReceived += _amount;\r\n    }\r\n\r\n\r\n\r\n    // Move this function to Termal.sol\r\n    // This function allows to send termal from the contract to a user.\r\n    /*function transferTermal(address _receiver, uint _amount)\r\n        onlyOwner()\r\n        public\r\n    {\r\n        termalToken.transfer(_receiver, _amount);\r\n    }*/\r\n\r\n    //Move this function to Termal.sol\r\n    //This function returns the dai contract's balance\r\n    /*function getDaiContractBalance()\r\n        external\r\n        view\r\n        returns (uint)\r\n    {\r\n        return daiToken.balanceOf(address(this));\r\n    }*/\r\n\r\n    // Move this function to Termal.sol\r\n    //This function returns the Termal tottal supply\r\n    /*function getTermalTotalSupply()\r\n        external\r\n        view\r\n        returns (uint)\r\n    {\r\n        return termalToken.totalSupply();\r\n    } */\r\n\r\n    // Move this function to Termal.sol\r\n    /*function getTermalBalance(address _wallet)\r\n        external\r\n        view\r\n        returns (uint)\r\n    {\r\n        return termalToken.balanceOf(_wallet);\r\n    } */\r\n        \r\n}",
  "sourcePath": "/Users/gimer/Projects/TermalPolygon/contracts/InvestorsHandler.sol",
  "compiler": {
    "name": "solc",
    "version": "0.8.14+commit.80d49f37.Emscripten.clang"
  },
  "schemaVersion": "3.4.4",
  "updatedAt": "2022-11-01T07:57:31.045Z",
  "networkType": "ethereum",
  "devdoc": {
    "kind": "dev",
    "methods": {
      "owner()": {
        "details": "Returns the address of the current owner."
      },
      "renounceOwnership()": {
        "details": "Leaves the contract without owner. It will not be possible to call `onlyOwner` functions anymore. Can only be called by the current owner. NOTE: Renouncing ownership will leave the contract without an owner, thereby removing any functionality that is only available to the owner."
      },
      "transferOwnership(address)": {
        "details": "Transfers ownership of the contract to a new account (`newOwner`). Can only be called by the current owner."
      }
    },
    "version": 1
  },
  "userdoc": {
    "kind": "user",
    "methods": {},
    "version": 1
  }
}