{
  "contractName": "InvestorContract",
  "abi": [
    {
      "inputs": [
        {
          "internalType": "address",
          "name": "_investorWallet",
          "type": "address"
        },
        {
          "internalType": "uint256",
          "name": "_investment",
          "type": "uint256"
        },
        {
          "internalType": "uint256",
          "name": "_managementFee",
          "type": "uint256"
        },
        {
          "internalType": "uint256",
          "name": "_termalCoinRatio",
          "type": "uint256"
        },
        {
          "internalType": "uint256",
          "name": "_duration",
          "type": "uint256"
        },
        {
          "internalType": "uint256",
          "name": "_interestRate",
          "type": "uint256"
        }
      ],
      "stateMutability": "nonpayable",
      "type": "constructor"
    },
    {
      "anonymous": false,
      "inputs": [
        {
          "indexed": false,
          "internalType": "address",
          "name": "_sender",
          "type": "address"
        },
        {
          "indexed": false,
          "internalType": "address",
          "name": "_investorWallet",
          "type": "address"
        },
        {
          "indexed": false,
          "internalType": "uint256",
          "name": "_initialInvestment",
          "type": "uint256"
        },
        {
          "indexed": false,
          "internalType": "uint256",
          "name": "_creationDate",
          "type": "uint256"
        },
        {
          "indexed": false,
          "internalType": "uint256",
          "name": "_termalCoinRatio",
          "type": "uint256"
        },
        {
          "indexed": false,
          "internalType": "uint256",
          "name": "_duration",
          "type": "uint256"
        },
        {
          "indexed": false,
          "internalType": "uint256",
          "name": "_interestRate",
          "type": "uint256"
        }
      ],
      "name": "LogContractCreation",
      "type": "event"
    },
    {
      "anonymous": false,
      "inputs": [
        {
          "indexed": false,
          "internalType": "address",
          "name": "_sender",
          "type": "address"
        },
        {
          "indexed": false,
          "internalType": "bool",
          "name": "_signature",
          "type": "bool"
        },
        {
          "indexed": false,
          "internalType": "uint256",
          "name": "_date",
          "type": "uint256"
        }
      ],
      "name": "LogInvestorSignature",
      "type": "event"
    },
    {
      "anonymous": false,
      "inputs": [
        {
          "indexed": true,
          "internalType": "address",
          "name": "previousOwner",
          "type": "address"
        },
        {
          "indexed": true,
          "internalType": "address",
          "name": "newOwner",
          "type": "address"
        }
      ],
      "name": "OwnershipTransferred",
      "type": "event"
    },
    {
      "inputs": [],
      "name": "date",
      "outputs": [
        {
          "internalType": "uint256",
          "name": "",
          "type": "uint256"
        }
      ],
      "stateMutability": "view",
      "type": "function"
    },
    {
      "inputs": [],
      "name": "duration",
      "outputs": [
        {
          "internalType": "uint256",
          "name": "",
          "type": "uint256"
        }
      ],
      "stateMutability": "view",
      "type": "function"
    },
    {
      "inputs": [],
      "name": "endDate",
      "outputs": [
        {
          "internalType": "uint256",
          "name": "",
          "type": "uint256"
        }
      ],
      "stateMutability": "view",
      "type": "function"
    },
    {
      "inputs": [],
      "name": "interestRate",
      "outputs": [
        {
          "internalType": "uint256",
          "name": "",
          "type": "uint256"
        }
      ],
      "stateMutability": "view",
      "type": "function"
    },
    {
      "inputs": [],
      "name": "investment",
      "outputs": [
        {
          "internalType": "uint256",
          "name": "",
          "type": "uint256"
        }
      ],
      "stateMutability": "view",
      "type": "function"
    },
    {
      "inputs": [],
      "name": "investorWallet",
      "outputs": [
        {
          "internalType": "address",
          "name": "",
          "type": "address"
        }
      ],
      "stateMutability": "view",
      "type": "function"
    },
    {
      "inputs": [],
      "name": "managementFee",
      "outputs": [
        {
          "internalType": "uint256",
          "name": "",
          "type": "uint256"
        }
      ],
      "stateMutability": "view",
      "type": "function"
    },
    {
      "inputs": [],
      "name": "owner",
      "outputs": [
        {
          "internalType": "address",
          "name": "",
          "type": "address"
        }
      ],
      "stateMutability": "view",
      "type": "function"
    },
    {
      "inputs": [],
      "name": "renounceOwnership",
      "outputs": [],
      "stateMutability": "nonpayable",
      "type": "function"
    },
    {
      "inputs": [],
      "name": "signature",
      "outputs": [
        {
          "internalType": "bool",
          "name": "",
          "type": "bool"
        }
      ],
      "stateMutability": "view",
      "type": "function"
    },
    {
      "inputs": [],
      "name": "termalCoinRatio",
      "outputs": [
        {
          "internalType": "uint256",
          "name": "",
          "type": "uint256"
        }
      ],
      "stateMutability": "view",
      "type": "function"
    },
    {
      "inputs": [
        {
          "internalType": "address",
          "name": "newOwner",
          "type": "address"
        }
      ],
      "name": "transferOwnership",
      "outputs": [],
      "stateMutability": "nonpayable",
      "type": "function"
    },
    {
      "inputs": [],
      "name": "investorSignature",
      "outputs": [],
      "stateMutability": "nonpayable",
      "type": "function"
    }
  ],
  "bytecode": "0x60806040523480156200001157600080fd5b5060405162000dce38038062000dce8339818101604052810190620000379190620002cb565b620000576200004b6200015a60201b60201c565b6200016260201b60201c565b85600160006101000a81548173ffffffffffffffffffffffffffffffffffffffff021916908373ffffffffffffffffffffffffffffffffffffffff1602179055508460028190555083600381905550426004819055506000600560006101000a81548160ff0219169083151502179055508260068190555081600881905550806009819055507f7007ba4e1b77996a212434bda760646d3a01b4d163751c70c0195f039f8632d033600160009054906101000a900473ffffffffffffffffffffffffffffffffffffffff1660025460045460065460085460095460405162000146979695949392919062000389565b60405180910390a150505050505062000406565b600033905090565b60008060009054906101000a900473ffffffffffffffffffffffffffffffffffffffff169050816000806101000a81548173ffffffffffffffffffffffffffffffffffffffff021916908373ffffffffffffffffffffffffffffffffffffffff1602179055508173ffffffffffffffffffffffffffffffffffffffff168173ffffffffffffffffffffffffffffffffffffffff167f8be0079c531659141344cd1fd0a4f28419497f9722a3daafe3b4186f6b6457e060405160405180910390a35050565b600080fd5b600073ffffffffffffffffffffffffffffffffffffffff82169050919050565b600062000258826200022b565b9050919050565b6200026a816200024b565b81146200027657600080fd5b50565b6000815190506200028a816200025f565b92915050565b6000819050919050565b620002a58162000290565b8114620002b157600080fd5b50565b600081519050620002c5816200029a565b92915050565b60008060008060008060c08789031215620002eb57620002ea62000226565b5b6000620002fb89828a0162000279565b96505060206200030e89828a01620002b4565b95505060406200032189828a01620002b4565b94505060606200033489828a01620002b4565b93505060806200034789828a01620002b4565b92505060a06200035a89828a01620002b4565b9150509295509295509295565b62000372816200024b565b82525050565b620003838162000290565b82525050565b600060e082019050620003a0600083018a62000367565b620003af602083018962000367565b620003be604083018862000378565b620003cd606083018762000378565b620003dc608083018662000378565b620003eb60a083018562000378565b620003fa60c083018462000378565b98975050505050505050565b6109b880620004166000396000f3fe608060405234801561001057600080fd5b50600436106100cf5760003560e01c80637aa9c32a1161008c5780638da5cb5b116100665780638da5cb5b146101ba578063a6f7f5d6146101d8578063c24a0f8b146101f6578063f2fde38b14610214576100cf565b80637aa9c32a146101745780637c3a00fd1461017e57806381cb8ae11461019c576100cf565b80630fb5a6b4146100d4578063323046b1146100f257806345fbfbca1461011057806351ff48471461012e578063643aff0f1461014c578063715018a61461016a575b600080fd5b6100dc610230565b6040516100e99190610659565b60405180910390f35b6100fa610236565b6040516101079190610659565b60405180910390f35b61011861023c565b6040516101259190610659565b60405180910390f35b610136610242565b604051610143919061068f565b60405180910390f35b610154610255565b60405161016191906106eb565b60405180910390f35b61017261027b565b005b61017c610303565b005b61018661043c565b6040516101939190610659565b60405180910390f35b6101a4610442565b6040516101b19190610659565b60405180910390f35b6101c2610448565b6040516101cf91906106eb565b60405180910390f35b6101e0610471565b6040516101ed9190610659565b60405180910390f35b6101fe610477565b60405161020b9190610659565b60405180910390f35b61022e60048036038101906102299190610737565b61047d565b005b60085481565b60045481565b60025481565b600560009054906101000a900460ff1681565b600160009054906101000a900473ffffffffffffffffffffffffffffffffffffffff1681565b610283610574565b73ffffffffffffffffffffffffffffffffffffffff166102a1610448565b73ffffffffffffffffffffffffffffffffffffffff16146102f7576040517f08c379a00000000000000000000000000000000000000000000000000000000081526004016102ee906107c1565b60405180910390fd5b610301600061057c565b565b3373ffffffffffffffffffffffffffffffffffffffff16600160009054906101000a900473ffffffffffffffffffffffffffffffffffffffff1673ffffffffffffffffffffffffffffffffffffffff1614610393576040517f08c379a000000000000000000000000000000000000000000000000000000000815260040161038a9061082d565b60405180910390fd5b600560009054906101000a900460ff16156103e3576040517f08c379a00000000000000000000000000000000000000000000000000000000081526004016103da90610899565b60405180910390fd5b6001600560006101000a81548160ff0219169083151502179055507fe21af13e061ea0d637068fd172d57075690af2c7d6c696319a8d13c763009bf933600142604051610432939291906108b9565b60405180910390a1565b60095481565b60065481565b60008060009054906101000a900473ffffffffffffffffffffffffffffffffffffffff16905090565b60035481565b60075481565b610485610574565b73ffffffffffffffffffffffffffffffffffffffff166104a3610448565b73ffffffffffffffffffffffffffffffffffffffff16146104f9576040517f08c379a00000000000000000000000000000000000000000000000000000000081526004016104f0906107c1565b60405180910390fd5b600073ffffffffffffffffffffffffffffffffffffffff168173ffffffffffffffffffffffffffffffffffffffff1603610568576040517f08c379a000000000000000000000000000000000000000000000000000000000815260040161055f90610962565b60405180910390fd5b6105718161057c565b50565b600033905090565b60008060009054906101000a900473ffffffffffffffffffffffffffffffffffffffff169050816000806101000a81548173ffffffffffffffffffffffffffffffffffffffff021916908373ffffffffffffffffffffffffffffffffffffffff1602179055508173ffffffffffffffffffffffffffffffffffffffff168173ffffffffffffffffffffffffffffffffffffffff167f8be0079c531659141344cd1fd0a4f28419497f9722a3daafe3b4186f6b6457e060405160405180910390a35050565b6000819050919050565b61065381610640565b82525050565b600060208201905061066e600083018461064a565b92915050565b60008115159050919050565b61068981610674565b82525050565b60006020820190506106a46000830184610680565b92915050565b600073ffffffffffffffffffffffffffffffffffffffff82169050919050565b60006106d5826106aa565b9050919050565b6106e5816106ca565b82525050565b600060208201905061070060008301846106dc565b92915050565b600080fd5b610714816106ca565b811461071f57600080fd5b50565b6000813590506107318161070b565b92915050565b60006020828403121561074d5761074c610706565b5b600061075b84828501610722565b91505092915050565b600082825260208201905092915050565b7f4f776e61626c653a2063616c6c6572206973206e6f7420746865206f776e6572600082015250565b60006107ab602083610764565b91506107b682610775565b602082019050919050565b600060208201905081810360008301526107da8161079e565b9050919050565b7f4f6e6c7920696e766573746f722073686f756c64206163636570742100000000600082015250565b6000610817601c83610764565b9150610822826107e1565b602082019050919050565b600060208201905081810360008301526108468161080a565b9050919050565b7f436f6e747261637420686173206265656e207369676e65642100000000000000600082015250565b6000610883601983610764565b915061088e8261084d565b602082019050919050565b600060208201905081810360008301526108b281610876565b9050919050565b60006060820190506108ce60008301866106dc565b6108db6020830185610680565b6108e8604083018461064a565b949350505050565b7f4f776e61626c653a206e6577206f776e657220697320746865207a65726f206160008201527f6464726573730000000000000000000000000000000000000000000000000000602082015250565b600061094c602683610764565b9150610957826108f0565b604082019050919050565b6000602082019050818103600083015261097b8161093f565b905091905056fea2646970667358221220bf4958595c26a91669449945cda2ec4dd7827d060db701fd8231ae4fd137de8064736f6c634300080e0033",
  "immutableReferences": {},
  "source": "// SPDX-License-Identifier: MIT\r\npragma solidity ^0.8.14;\r\n\r\nimport \"@openzeppelin/contracts/access/Ownable.sol\";\r\nimport \"@openzeppelin/contracts/utils/math/SafeMath.sol\";\r\n\r\ncontract InvestorContract is Ownable {\r\n    using SafeMath for uint256;\r\n\r\n    address public investorWallet;  // Investor public key\r\n    uint public investment;         // Amount in DAI\r\n    uint public managementFee;      // Initial management fees in DAI\r\n    uint public date;               // Investor's contract creation date\r\n    bool public signature;          // Investor's signature\r\n    uint public termalCoinRatio;    // Initial 1:1 ratio\r\n    uint public endDate;            // Investor contract end\r\n    uint public duration;           // 0 means undefined\r\n    uint public interestRate;       // 18% if not involved, 20% if involved\r\n    \r\n    event LogContractCreation(\r\n        address _sender, \r\n        address _investorWallet, \r\n        uint _initialInvestment, \r\n        uint _creationDate, \r\n        uint _termalCoinRatio,\r\n        uint _duration, \r\n        uint _interestRate\r\n        );\r\n    \r\n    event LogInvestorSignature(address _sender, bool _signature, uint _date);\r\n\r\n    constructor(\r\n            address _investorWallet,   // Investor's ethereum address\r\n            uint _investment,          // Funding total amount\r\n            uint _managementFee,       // Management fee\r\n            uint _termalCoinRatio,     // Termal token ratio\r\n            uint _duration,            // In months\r\n            uint _interestRate\r\n            )\r\n        {\r\n            investorWallet = _investorWallet;\r\n            investment = _investment;\r\n            managementFee = _managementFee;\r\n            date = block.timestamp;\r\n            signature = false; // This is false until investor accepts the contract.\r\n            termalCoinRatio = _termalCoinRatio;\r\n            duration = _duration;\r\n            interestRate = _interestRate;\r\n            // consider a new variable to approve the new investor\r\n            emit LogContractCreation(msg.sender, investorWallet, investment, date, termalCoinRatio, duration, interestRate);\r\n        }\r\n\r\n    //Startup has to sign to accept the contract\r\n    function investorSignature()\r\n        external\r\n    {\r\n        require(investorWallet == msg.sender, \"Only investor should accept!\");\r\n        require(!signature, \"Contract has been signed!\");\r\n        signature = true;\r\n\r\n        emit LogInvestorSignature(msg.sender, true, block.timestamp);\r\n    }\r\n}",
  "sourcePath": "/Users/gimer/Projects/TermalPolygon/contracts/InvestorContract.sol",
  "compiler": {
    "name": "solc",
    "version": "0.8.14+commit.80d49f37.Emscripten.clang"
  },
  "schemaVersion": "3.4.7",
  "updatedAt": "2022-06-23T02:48:17.490Z",
  "devdoc": {
    "kind": "dev",
    "methods": {
      "owner()": {
        "details": "Returns the address of the current owner."
      },
      "renounceOwnership()": {
        "details": "Leaves the contract without owner. It will not be possible to call `onlyOwner` functions anymore. Can only be called by the current owner. NOTE: Renouncing ownership will leave the contract without an owner, thereby removing any functionality that is only available to the owner."
      },
      "transferOwnership(address)": {
        "details": "Transfers ownership of the contract to a new account (`newOwner`). Can only be called by the current owner."
      }
    },
    "version": 1
  },
  "userdoc": {
    "kind": "user",
    "methods": {},
    "version": 1
  }
}