{
  "contractName": "InvestorContract",
  "abi": [
    {
      "inputs": [
        {
          "internalType": "address",
          "name": "_investorWallet",
          "type": "address"
        },
        {
          "internalType": "uint256",
          "name": "_investment",
          "type": "uint256"
        },
        {
          "internalType": "uint256",
          "name": "_managementFee",
          "type": "uint256"
        },
        {
          "internalType": "uint256",
          "name": "_termalCoinRatio",
          "type": "uint256"
        }
      ],
      "stateMutability": "nonpayable",
      "type": "constructor"
    },
    {
      "anonymous": false,
      "inputs": [
        {
          "indexed": false,
          "internalType": "address",
          "name": "_sender",
          "type": "address"
        },
        {
          "indexed": false,
          "internalType": "address",
          "name": "_investorWallet",
          "type": "address"
        },
        {
          "indexed": false,
          "internalType": "uint256",
          "name": "_initialInvestment",
          "type": "uint256"
        },
        {
          "indexed": false,
          "internalType": "uint256",
          "name": "_creationDate",
          "type": "uint256"
        }
      ],
      "name": "LogContractCreation",
      "type": "event"
    },
    {
      "anonymous": false,
      "inputs": [
        {
          "indexed": false,
          "internalType": "address",
          "name": "_sender",
          "type": "address"
        },
        {
          "indexed": false,
          "internalType": "bool",
          "name": "_signature",
          "type": "bool"
        },
        {
          "indexed": false,
          "internalType": "uint256",
          "name": "_date",
          "type": "uint256"
        }
      ],
      "name": "LogInvestorSignature",
      "type": "event"
    },
    {
      "anonymous": false,
      "inputs": [
        {
          "indexed": true,
          "internalType": "address",
          "name": "previousOwner",
          "type": "address"
        },
        {
          "indexed": true,
          "internalType": "address",
          "name": "newOwner",
          "type": "address"
        }
      ],
      "name": "OwnershipTransferred",
      "type": "event"
    },
    {
      "inputs": [],
      "name": "date",
      "outputs": [
        {
          "internalType": "uint256",
          "name": "",
          "type": "uint256"
        }
      ],
      "stateMutability": "view",
      "type": "function"
    },
    {
      "inputs": [],
      "name": "endDate",
      "outputs": [
        {
          "internalType": "uint256",
          "name": "",
          "type": "uint256"
        }
      ],
      "stateMutability": "view",
      "type": "function"
    },
    {
      "inputs": [],
      "name": "investment",
      "outputs": [
        {
          "internalType": "uint256",
          "name": "",
          "type": "uint256"
        }
      ],
      "stateMutability": "view",
      "type": "function"
    },
    {
      "inputs": [],
      "name": "investorWallet",
      "outputs": [
        {
          "internalType": "address",
          "name": "",
          "type": "address"
        }
      ],
      "stateMutability": "view",
      "type": "function"
    },
    {
      "inputs": [],
      "name": "managementFee",
      "outputs": [
        {
          "internalType": "uint256",
          "name": "",
          "type": "uint256"
        }
      ],
      "stateMutability": "view",
      "type": "function"
    },
    {
      "inputs": [],
      "name": "owner",
      "outputs": [
        {
          "internalType": "address",
          "name": "",
          "type": "address"
        }
      ],
      "stateMutability": "view",
      "type": "function"
    },
    {
      "inputs": [],
      "name": "renounceOwnership",
      "outputs": [],
      "stateMutability": "nonpayable",
      "type": "function"
    },
    {
      "inputs": [],
      "name": "signature",
      "outputs": [
        {
          "internalType": "bool",
          "name": "",
          "type": "bool"
        }
      ],
      "stateMutability": "view",
      "type": "function"
    },
    {
      "inputs": [],
      "name": "termalCoinRatio",
      "outputs": [
        {
          "internalType": "uint256",
          "name": "",
          "type": "uint256"
        }
      ],
      "stateMutability": "view",
      "type": "function"
    },
    {
      "inputs": [
        {
          "internalType": "address",
          "name": "newOwner",
          "type": "address"
        }
      ],
      "name": "transferOwnership",
      "outputs": [],
      "stateMutability": "nonpayable",
      "type": "function"
    },
    {
      "inputs": [],
      "name": "startupSignature",
      "outputs": [],
      "stateMutability": "nonpayable",
      "type": "function"
    }
  ],
  "bytecode": "0x60806040523480156200001157600080fd5b5060405162000ca738038062000ca7833981810160405281019062000037919062000238565b620000576200004b6200013e60201b60201c565b6200014660201b60201c565b83600160006101000a81548173ffffffffffffffffffffffffffffffffffffffff021916908373ffffffffffffffffffffffffffffffffffffffff1602179055508260028190555081600381905550426004819055506000600560006101000a81548160ff021916908315150217905550806006819055507f4309a225233e9030fbc979e314e7b523c38f7d37946678ff4ba75e9184fc0d9833600160009054906101000a900473ffffffffffffffffffffffffffffffffffffffff166002546004546040516200012c9493929190620002c6565b60405180910390a15050505062000385565b600033905090565b60008060009054906101000a900473ffffffffffffffffffffffffffffffffffffffff169050816000806101000a81548173ffffffffffffffffffffffffffffffffffffffff021916908373ffffffffffffffffffffffffffffffffffffffff1602179055508173ffffffffffffffffffffffffffffffffffffffff168173ffffffffffffffffffffffffffffffffffffffff167f8be0079c531659141344cd1fd0a4f28419497f9722a3daafe3b4186f6b6457e060405160405180910390a35050565b6000815190506200021b8162000351565b92915050565b60008151905062000232816200036b565b92915050565b600080600080608085870312156200024f57600080fd5b60006200025f878288016200020a565b9450506020620002728782880162000221565b9350506040620002858782880162000221565b9250506060620002988782880162000221565b91505092959194509250565b620002af8162000313565b82525050565b620002c08162000347565b82525050565b6000608082019050620002dd6000830187620002a4565b620002ec6020830186620002a4565b620002fb6040830185620002b5565b6200030a6060830184620002b5565b95945050505050565b6000620003208262000327565b9050919050565b600073ffffffffffffffffffffffffffffffffffffffff82169050919050565b6000819050919050565b6200035c8162000313565b81146200036857600080fd5b50565b620003768162000347565b81146200038257600080fd5b50565b61091280620003956000396000f3fe608060405234801561001057600080fd5b50600436106100a95760003560e01c8063715018a611610071578063715018a61461013057806381cb8ae11461013a5780638da5cb5b14610158578063a6f7f5d614610176578063c24a0f8b14610194578063f2fde38b146101b2576100a9565b8063323046b1146100ae57806345fbfbca146100cc5780634f4d5c10146100ea57806351ff4847146100f4578063643aff0f14610112575b600080fd5b6100b66101ce565b6040516100c39190610851565b60405180910390f35b6100d46101d4565b6040516100e19190610851565b60405180910390f35b6100f26101da565b005b6100fc610313565b60405161010991906107b6565b60405180910390f35b61011a610326565b6040516101279190610764565b60405180910390f35b61013861034c565b005b6101426103d4565b60405161014f9190610851565b60405180910390f35b6101606103da565b60405161016d9190610764565b60405180910390f35b61017e610403565b60405161018b9190610851565b60405180910390f35b61019c610409565b6040516101a99190610851565b60405180910390f35b6101cc60048036038101906101c791906105e8565b61040f565b005b60045481565b60025481565b3373ffffffffffffffffffffffffffffffffffffffff16600160009054906101000a900473ffffffffffffffffffffffffffffffffffffffff1673ffffffffffffffffffffffffffffffffffffffff161461026a576040517f08c379a000000000000000000000000000000000000000000000000000000000815260040161026190610811565b60405180910390fd5b600560009054906101000a900460ff16156102ba576040517f08c379a00000000000000000000000000000000000000000000000000000000081526004016102b1906107f1565b60405180910390fd5b6001600560006101000a81548160ff0219169083151502179055507fe21af13e061ea0d637068fd172d57075690af2c7d6c696319a8d13c763009bf9336001426040516103099392919061077f565b60405180910390a1565b600560009054906101000a900460ff1681565b600160009054906101000a900473ffffffffffffffffffffffffffffffffffffffff1681565b610354610507565b73ffffffffffffffffffffffffffffffffffffffff166103726103da565b73ffffffffffffffffffffffffffffffffffffffff16146103c8576040517f08c379a00000000000000000000000000000000000000000000000000000000081526004016103bf90610831565b60405180910390fd5b6103d2600061050f565b565b60065481565b60008060009054906101000a900473ffffffffffffffffffffffffffffffffffffffff16905090565b60035481565b60075481565b610417610507565b73ffffffffffffffffffffffffffffffffffffffff166104356103da565b73ffffffffffffffffffffffffffffffffffffffff161461048b576040517f08c379a000000000000000000000000000000000000000000000000000000000815260040161048290610831565b60405180910390fd5b600073ffffffffffffffffffffffffffffffffffffffff168173ffffffffffffffffffffffffffffffffffffffff1614156104fb576040517f08c379a00000000000000000000000000000000000000000000000000000000081526004016104f2906107d1565b60405180910390fd5b6105048161050f565b50565b600033905090565b60008060009054906101000a900473ffffffffffffffffffffffffffffffffffffffff169050816000806101000a81548173ffffffffffffffffffffffffffffffffffffffff021916908373ffffffffffffffffffffffffffffffffffffffff1602179055508173ffffffffffffffffffffffffffffffffffffffff168173ffffffffffffffffffffffffffffffffffffffff167f8be0079c531659141344cd1fd0a4f28419497f9722a3daafe3b4186f6b6457e060405160405180910390a35050565b6000813590506105e2816108c5565b92915050565b6000602082840312156105fa57600080fd5b6000610608848285016105d3565b91505092915050565b61061a8161087d565b82525050565b6106298161088f565b82525050565b600061063c60268361086c565b91507f4f776e61626c653a206e6577206f776e657220697320746865207a65726f206160008301527f64647265737300000000000000000000000000000000000000000000000000006020830152604082019050919050565b60006106a260198361086c565b91507f436f6e747261637420686173206265656e207369676e656421000000000000006000830152602082019050919050565b60006106e2601c8361086c565b91507f4f6e6c7920696e766573746f722073686f756c642061636365707421000000006000830152602082019050919050565b600061072260208361086c565b91507f4f776e61626c653a2063616c6c6572206973206e6f7420746865206f776e65726000830152602082019050919050565b61075e816108bb565b82525050565b60006020820190506107796000830184610611565b92915050565b60006060820190506107946000830186610611565b6107a16020830185610620565b6107ae6040830184610755565b949350505050565b60006020820190506107cb6000830184610620565b92915050565b600060208201905081810360008301526107ea8161062f565b9050919050565b6000602082019050818103600083015261080a81610695565b9050919050565b6000602082019050818103600083015261082a816106d5565b9050919050565b6000602082019050818103600083015261084a81610715565b9050919050565b60006020820190506108666000830184610755565b92915050565b600082825260208201905092915050565b60006108888261089b565b9050919050565b60008115159050919050565b600073ffffffffffffffffffffffffffffffffffffffff82169050919050565b6000819050919050565b6108ce8161087d565b81146108d957600080fd5b5056fea2646970667358221220636caac0a1440169d13a7436a1eeedee2764be9449ede0f3f7bc2fb2de0ccad864736f6c63430008000033",
  "immutableReferences": {},
  "source": "// SPDX-License-Identifier: MIT\r\npragma solidity ^0.8.0;\r\n\r\nimport \"@openzeppelin/contracts/access/Ownable.sol\";\r\nimport \"@openzeppelin/contracts/utils/math/SafeMath.sol\";\r\n\r\ncontract InvestorContract is Ownable {\r\n    using SafeMath for uint256;\r\n\r\n    address public investorWallet;\r\n    uint public investment; //Amount in USD\r\n    uint public managementFee;\r\n    uint public date;\r\n    bool public signature;\r\n    uint public termalCoinRatio;\r\n    uint public endDate;\r\n    \r\n    \r\n    event LogContractCreation(address _sender, address _investorWallet, uint _initialInvestment, uint _creationDate);\r\n    event LogInvestorSignature(address _sender, bool _signature, uint _date);\r\n      \r\n    constructor(\r\n            address _investorWallet,   // Investor's ethereum address\r\n            uint _investment,          // Funding total amount\r\n            uint _managementFee,       // Management fee\r\n            uint _termalCoinRatio      // Termal token ratio\r\n            )\r\n        {\r\n            investorWallet = _investorWallet;\r\n            investment = _investment;\r\n            managementFee = _managementFee;\r\n            date = block.timestamp;\r\n            signature = false; // This is false until investor accepts the contract.\r\n            termalCoinRatio = _termalCoinRatio;\r\n            emit LogContractCreation(msg.sender, investorWallet, investment, date);\r\n        }\r\n\r\n    //Startup has to sign to accept the contract\r\n    function startupSignature()\r\n        external\r\n    {\r\n        require(investorWallet == msg.sender, \"Only investor should accept!\");\r\n        require(!signature, \"Contract has been signed!\");\r\n        signature = true;\r\n\r\n        emit LogInvestorSignature(msg.sender, true, block.timestamp);\r\n    }\r\n}",
  "sourcePath": "C:\\Users\\gimer\\Projects\\Termal-2.0\\contracts\\InvestorContract.sol",
  "compiler": {
    "name": "solc",
    "version": "0.8.0+commit.c7dfd78e.Emscripten.clang"
  },
  "schemaVersion": "3.4.3",
  "updatedAt": "2021-12-17T05:27:58.577Z",
  "devdoc": {
    "kind": "dev",
    "methods": {
      "owner()": {
        "details": "Returns the address of the current owner."
      },
      "renounceOwnership()": {
        "details": "Leaves the contract without owner. It will not be possible to call `onlyOwner` functions anymore. Can only be called by the current owner. NOTE: Renouncing ownership will leave the contract without an owner, thereby removing any functionality that is only available to the owner."
      },
      "transferOwnership(address)": {
        "details": "Transfers ownership of the contract to a new account (`newOwner`). Can only be called by the current owner."
      }
    },
    "version": 1
  },
  "userdoc": {
    "kind": "user",
    "methods": {},
    "version": 1
  }
}