{
  "contractName": "StartupsHandler",
  "abi": [
    {
      "inputs": [],
      "stateMutability": "nonpayable",
      "type": "constructor"
    },
    {
      "anonymous": false,
      "inputs": [
        {
          "indexed": false,
          "internalType": "address",
          "name": "_newStartupAddress",
          "type": "address"
        },
        {
          "indexed": false,
          "internalType": "address",
          "name": "_owner",
          "type": "address"
        }
      ],
      "name": "LogCreateStartup",
      "type": "event"
    },
    {
      "anonymous": false,
      "inputs": [
        {
          "indexed": false,
          "internalType": "address",
          "name": "_owner",
          "type": "address"
        },
        {
          "indexed": false,
          "internalType": "address",
          "name": "_startupAddress",
          "type": "address"
        },
        {
          "indexed": false,
          "internalType": "bool",
          "name": "_status",
          "type": "bool"
        }
      ],
      "name": "LogNewStartupStatus",
      "type": "event"
    },
    {
      "anonymous": false,
      "inputs": [
        {
          "indexed": false,
          "internalType": "address",
          "name": "_sender",
          "type": "address"
        },
        {
          "indexed": false,
          "internalType": "address",
          "name": "_contract",
          "type": "address"
        },
        {
          "indexed": false,
          "internalType": "uint256",
          "name": "_amount",
          "type": "uint256"
        }
      ],
      "name": "LogReturnTermal",
      "type": "event"
    },
    {
      "anonymous": false,
      "inputs": [
        {
          "indexed": true,
          "internalType": "address",
          "name": "previousOwner",
          "type": "address"
        },
        {
          "indexed": true,
          "internalType": "address",
          "name": "newOwner",
          "type": "address"
        }
      ],
      "name": "OwnershipTransferred",
      "type": "event"
    },
    {
      "inputs": [],
      "name": "owner",
      "outputs": [
        {
          "internalType": "address",
          "name": "",
          "type": "address"
        }
      ],
      "stateMutability": "view",
      "type": "function",
      "constant": true
    },
    {
      "inputs": [],
      "name": "renounceOwnership",
      "outputs": [],
      "stateMutability": "nonpayable",
      "type": "function"
    },
    {
      "inputs": [
        {
          "internalType": "uint256",
          "name": "",
          "type": "uint256"
        }
      ],
      "name": "startupList",
      "outputs": [
        {
          "internalType": "address",
          "name": "",
          "type": "address"
        }
      ],
      "stateMutability": "view",
      "type": "function",
      "constant": true
    },
    {
      "inputs": [
        {
          "internalType": "address",
          "name": "",
          "type": "address"
        }
      ],
      "name": "startupToken",
      "outputs": [
        {
          "internalType": "address",
          "name": "tokenAddress",
          "type": "address"
        },
        {
          "internalType": "uint256",
          "name": "balance",
          "type": "uint256"
        }
      ],
      "stateMutability": "view",
      "type": "function",
      "constant": true
    },
    {
      "inputs": [
        {
          "internalType": "address",
          "name": "",
          "type": "address"
        }
      ],
      "name": "startups",
      "outputs": [
        {
          "internalType": "string",
          "name": "name",
          "type": "string"
        },
        {
          "internalType": "uint256",
          "name": "registerDate",
          "type": "uint256"
        },
        {
          "internalType": "bool",
          "name": "status",
          "type": "bool"
        },
        {
          "internalType": "bool",
          "name": "hasContract",
          "type": "bool"
        },
        {
          "internalType": "address",
          "name": "startupContractAddress",
          "type": "address"
        },
        {
          "internalType": "uint256",
          "name": "amountTermal",
          "type": "uint256"
        },
        {
          "internalType": "uint256",
          "name": "daiReceived",
          "type": "uint256"
        },
        {
          "internalType": "uint256",
          "name": "daiReturned",
          "type": "uint256"
        },
        {
          "internalType": "uint256",
          "name": "termalReturned",
          "type": "uint256"
        },
        {
          "internalType": "address",
          "name": "token",
          "type": "address"
        }
      ],
      "stateMutability": "view",
      "type": "function",
      "constant": true
    },
    {
      "inputs": [
        {
          "internalType": "address",
          "name": "newOwner",
          "type": "address"
        }
      ],
      "name": "transferOwnership",
      "outputs": [],
      "stateMutability": "nonpayable",
      "type": "function"
    },
    {
      "inputs": [
        {
          "internalType": "address",
          "name": "_startupWallet",
          "type": "address"
        },
        {
          "internalType": "string",
          "name": "_startupName",
          "type": "string"
        },
        {
          "internalType": "address",
          "name": "tokenAddress",
          "type": "address"
        }
      ],
      "name": "createStartup",
      "outputs": [],
      "stateMutability": "nonpayable",
      "type": "function"
    },
    {
      "inputs": [
        {
          "internalType": "address",
          "name": "_startupWallet",
          "type": "address"
        },
        {
          "internalType": "uint256",
          "name": "_initialLoan",
          "type": "uint256"
        },
        {
          "internalType": "uint256",
          "name": "_interestRate",
          "type": "uint256"
        },
        {
          "internalType": "uint256",
          "name": "_maxConvertionRate",
          "type": "uint256"
        },
        {
          "internalType": "uint256",
          "name": "_minConvertionRate",
          "type": "uint256"
        },
        {
          "internalType": "uint256",
          "name": "_termalCoinPercentage",
          "type": "uint256"
        },
        {
          "internalType": "uint256",
          "name": "_stableCoinPercentage",
          "type": "uint256"
        },
        {
          "internalType": "uint256",
          "name": "_maxProjectime",
          "type": "uint256"
        },
        {
          "internalType": "uint256",
          "name": "_activeFee",
          "type": "uint256"
        }
      ],
      "name": "createStartupContract",
      "outputs": [],
      "stateMutability": "nonpayable",
      "type": "function"
    },
    {
      "inputs": [
        {
          "internalType": "address",
          "name": "_startupAddress",
          "type": "address"
        }
      ],
      "name": "isValidStartup",
      "outputs": [
        {
          "internalType": "bool",
          "name": "",
          "type": "bool"
        }
      ],
      "stateMutability": "view",
      "type": "function",
      "constant": true
    },
    {
      "inputs": [],
      "name": "getTotalStartups",
      "outputs": [
        {
          "internalType": "uint256",
          "name": "",
          "type": "uint256"
        }
      ],
      "stateMutability": "view",
      "type": "function",
      "constant": true
    },
    {
      "inputs": [
        {
          "internalType": "address",
          "name": "_startupAddress",
          "type": "address"
        },
        {
          "internalType": "bool",
          "name": "_status",
          "type": "bool"
        }
      ],
      "name": "newStartupStatus",
      "outputs": [],
      "stateMutability": "nonpayable",
      "type": "function"
    },
    {
      "inputs": [
        {
          "internalType": "address",
          "name": "_startup",
          "type": "address"
        }
      ],
      "name": "getStartupTokenAddress",
      "outputs": [
        {
          "internalType": "address",
          "name": "",
          "type": "address"
        }
      ],
      "stateMutability": "view",
      "type": "function",
      "constant": true
    },
    {
      "inputs": [
        {
          "internalType": "address",
          "name": "_startup",
          "type": "address"
        }
      ],
      "name": "getSignatureStatus",
      "outputs": [
        {
          "internalType": "bool",
          "name": "",
          "type": "bool"
        }
      ],
      "stateMutability": "view",
      "type": "function",
      "constant": true
    },
    {
      "inputs": [
        {
          "internalType": "address",
          "name": "_receiver",
          "type": "address"
        },
        {
          "internalType": "uint256",
          "name": "_amount",
          "type": "uint256"
        }
      ],
      "name": "addDepositDai",
      "outputs": [],
      "stateMutability": "nonpayable",
      "type": "function"
    },
    {
      "inputs": [
        {
          "internalType": "address",
          "name": "_receiver",
          "type": "address"
        },
        {
          "internalType": "uint256",
          "name": "_amount",
          "type": "uint256"
        }
      ],
      "name": "addReturnedDai",
      "outputs": [],
      "stateMutability": "nonpayable",
      "type": "function"
    },
    {
      "inputs": [
        {
          "internalType": "address",
          "name": "_receiver",
          "type": "address"
        },
        {
          "internalType": "uint256",
          "name": "_amount",
          "type": "uint256"
        }
      ],
      "name": "addReturnedTermal",
      "outputs": [],
      "stateMutability": "nonpayable",
      "type": "function"
    }
  ],
  "bytecode": "0x608060405234801561001057600080fd5b5061002d61002261003260201b60201c565b61003a60201b60201c565b6100fe565b600033905090565b60008060009054906101000a900473ffffffffffffffffffffffffffffffffffffffff169050816000806101000a81548173ffffffffffffffffffffffffffffffffffffffff021916908373ffffffffffffffffffffffffffffffffffffffff1602179055508173ffffffffffffffffffffffffffffffffffffffff168173ffffffffffffffffffffffffffffffffffffffff167f8be0079c531659141344cd1fd0a4f28419497f9722a3daafe3b4186f6b6457e060405160405180910390a35050565b613a67806200010e6000396000f3fe60806040523480156200001157600080fd5b5060043610620001185760003560e01c8063b82e412c11620000a5578063ed6ba4dd116200006f578063ed6ba4dd146200031b578063f2fde38b146200033b578063f460694e146200035b578063fed8c236146200037b5762000118565b8063b82e412c1462000265578063c63208a414620002a4578063cf48a1da14620002c4578063e036264414620002fb5762000118565b8063715018a611620000e7578063715018a614620001cb57806375126d6414620001d75780638da5cb5b146200020d578063b50de789146200022f5762000118565b806301670f5d146200011d57806303bd9430146200013f57806324a9caa014620001755780632aec4e6a14620001ab575b600080fd5b620001276200039b565b60405162000136919062001562565b60405180910390f35b6200015d6004803603810190620001579190620015c4565b620003a8565b6040516200016c91906200163b565b60405180910390f35b6200019360048036038101906200018d919062001689565b620003e8565b604051620001a29190620016d8565b60405180910390f35b620001c96004803603810190620001c3919062001726565b62000441565b005b620001d5620005f7565b005b620001f56004803603810190620001ef919062001689565b62000688565b604051620002049190620016d8565b60405180910390f35b62000217620007b2565b6040516200022691906200163b565b60405180910390f35b6200024d600480360381019062000247919062001689565b620007db565b6040516200025c91906200163b565b60405180910390f35b6200028360048036038101906200027d919062001689565b62000894565b6040516200029b9a9998979695949392919062001811565b60405180910390f35b620002c26004803603810190620002bc9190620018c8565b620009d2565b005b620002e26004803603810190620002dc919062001689565b62000a7e565b604051620002f29291906200190f565b60405180910390f35b6200031960048036038101906200031391906200193c565b62000ac2565b005b620003396004803603810190620003339190620018c8565b62000dc9565b005b62000359600480360381019062000353919062001689565b62000e75565b005b62000379600480360381019062000373919062001b6c565b62000f78565b005b620003996004803603810190620003939190620018c8565b62001311565b005b6000600380549050905090565b60038181548110620003b957600080fd5b906000526020600020016000915054906101000a900473ffffffffffffffffffffffffffffffffffffffff1681565b6000600260008373ffffffffffffffffffffffffffffffffffffffff1673ffffffffffffffffffffffffffffffffffffffff16815260200190815260200160002060020160009054906101000a900460ff169050919050565b6200044b620013bd565b73ffffffffffffffffffffffffffffffffffffffff166200046b620007b2565b73ffffffffffffffffffffffffffffffffffffffff1614620004c4576040517f08c379a0000000000000000000000000000000000000000000000000000000008152600401620004bb9062001c37565b60405180910390fd5b801515600260008473ffffffffffffffffffffffffffffffffffffffff1673ffffffffffffffffffffffffffffffffffffffff16815260200190815260200160002060020160009054906101000a900460ff161515036200055c576040517f08c379a0000000000000000000000000000000000000000000000000000000008152600401620005539062001ccf565b60405180910390fd5b80600260008473ffffffffffffffffffffffffffffffffffffffff1673ffffffffffffffffffffffffffffffffffffffff16815260200190815260200160002060020160006101000a81548160ff0219169083151502179055507f8083c265edfbf4990ea1d34acae1ca957ae66839c462c223de6cdb26f30cfbd4338383604051620005eb9392919062001cf1565b60405180910390a15050565b62000601620013bd565b73ffffffffffffffffffffffffffffffffffffffff1662000621620007b2565b73ffffffffffffffffffffffffffffffffffffffff16146200067a576040517f08c379a0000000000000000000000000000000000000000000000000000000008152600401620006719062001c37565b60405180910390fd5b620006866000620013c5565b565b60006200069582620003e8565b620006d7576040517f08c379a0000000000000000000000000000000000000000000000000000000008152600401620006ce9062001d7e565b60405180910390fd5b600260008373ffffffffffffffffffffffffffffffffffffffff1673ffffffffffffffffffffffffffffffffffffffff16815260200190815260200160002060020160029054906101000a900473ffffffffffffffffffffffffffffffffffffffff1673ffffffffffffffffffffffffffffffffffffffff166351ff48476040518163ffffffff1660e01b8152600401602060405180830381865afa15801562000785573d6000803e3d6000fd5b505050506040513d601f19601f82011682018060405250810190620007ab919062001db7565b9050919050565b60008060009054906101000a900473ffffffffffffffffffffffffffffffffffffffff16905090565b6000620007e882620003e8565b6200082a576040517f08c379a0000000000000000000000000000000000000000000000000000000008152600401620008219062001d7e565b60405180910390fd5b600260008373ffffffffffffffffffffffffffffffffffffffff1673ffffffffffffffffffffffffffffffffffffffff16815260200190815260200160002060070160009054906101000a900473ffffffffffffffffffffffffffffffffffffffff169050919050565b6002602052806000526040600020600091509050806000018054620008b99062001e18565b80601f0160208091040260200160405190810160405280929190818152602001828054620008e79062001e18565b8015620009385780601f106200090c5761010080835404028352916020019162000938565b820191906000526020600020905b8154815290600101906020018083116200091a57829003601f168201915b5050505050908060010154908060020160009054906101000a900460ff16908060020160019054906101000a900460ff16908060020160029054906101000a900473ffffffffffffffffffffffffffffffffffffffff16908060030154908060040154908060050154908060060154908060070160009054906101000a900473ffffffffffffffffffffffffffffffffffffffff1690508a565b620009dd82620003e8565b62000a1f576040517f08c379a000000000000000000000000000000000000000000000000000000000815260040162000a169062001e9d565b60405180910390fd5b80600260008473ffffffffffffffffffffffffffffffffffffffff1673ffffffffffffffffffffffffffffffffffffffff168152602001908152602001600020600401600082825462000a73919062001eee565b925050819055505050565b60016020528060005260406000206000915090508060000160009054906101000a900473ffffffffffffffffffffffffffffffffffffffff16908060010154905082565b62000acc620013bd565b73ffffffffffffffffffffffffffffffffffffffff1662000aec620007b2565b73ffffffffffffffffffffffffffffffffffffffff161462000b45576040517f08c379a000000000000000000000000000000000000000000000000000000000815260040162000b3c9062001c37565b60405180910390fd5b62000b5089620003e8565b62000b92576040517f08c379a000000000000000000000000000000000000000000000000000000000815260040162000b899062001fc1565b60405180910390fd5b600260008a73ffffffffffffffffffffffffffffffffffffffff1673ffffffffffffffffffffffffffffffffffffffff16815260200190815260200160002060020160019054906101000a900460ff161562000c25576040517f08c379a000000000000000000000000000000000000000000000000000000000815260040162000c1c9062002033565b60405180910390fd5b600089898989898989898960405162000c3e9062001489565b62000c529998979695949392919062002055565b604051809103906000f08015801562000c6f573d6000803e3d6000fd5b5090506001600260008c73ffffffffffffffffffffffffffffffffffffffff1673ffffffffffffffffffffffffffffffffffffffff16815260200190815260200160002060020160016101000a81548160ff02191690831515021790555080600260008c73ffffffffffffffffffffffffffffffffffffffff1673ffffffffffffffffffffffffffffffffffffffff16815260200190815260200160002060020160026101000a81548173ffffffffffffffffffffffffffffffffffffffff021916908373ffffffffffffffffffffffffffffffffffffffff1602179055508073ffffffffffffffffffffffffffffffffffffffff1663f2fde38b336040518263ffffffff1660e01b815260040162000d8991906200163b565b600060405180830381600087803b15801562000da457600080fd5b505af115801562000db9573d6000803e3d6000fd5b5050505050505050505050505050565b62000dd482620003e8565b62000e16576040517f08c379a000000000000000000000000000000000000000000000000000000000815260040162000e0d9062001d7e565b60405180910390fd5b80600260008473ffffffffffffffffffffffffffffffffffffffff1673ffffffffffffffffffffffffffffffffffffffff168152602001908152602001600020600501600082825462000e6a919062001eee565b925050819055505050565b62000e7f620013bd565b73ffffffffffffffffffffffffffffffffffffffff1662000e9f620007b2565b73ffffffffffffffffffffffffffffffffffffffff161462000ef8576040517f08c379a000000000000000000000000000000000000000000000000000000000815260040162000eef9062001c37565b60405180910390fd5b600073ffffffffffffffffffffffffffffffffffffffff168173ffffffffffffffffffffffffffffffffffffffff160362000f6a576040517f08c379a000000000000000000000000000000000000000000000000000000000815260040162000f61906200216a565b60405180910390fd5b62000f7581620013c5565b50565b62000f82620013bd565b73ffffffffffffffffffffffffffffffffffffffff1662000fa2620007b2565b73ffffffffffffffffffffffffffffffffffffffff161462000ffb576040517f08c379a000000000000000000000000000000000000000000000000000000000815260040162000ff29062001c37565b60405180910390fd5b600260008473ffffffffffffffffffffffffffffffffffffffff1673ffffffffffffffffffffffffffffffffffffffff16815260200190815260200160002060020160009054906101000a900460ff16156200108e576040517f08c379a00000000000000000000000000000000000000000000000000000000081526004016200108590620021dc565b60405180910390fd5b604051806101400160405280838152602001428152602001600115158152602001600015158152602001600073ffffffffffffffffffffffffffffffffffffffff168152602001600081526020016000815260200160008152602001600081526020018273ffffffffffffffffffffffffffffffffffffffff16815250600260008573ffffffffffffffffffffffffffffffffffffffff1673ffffffffffffffffffffffffffffffffffffffff16815260200190815260200160002060008201518160000190805190602001906200116892919062001497565b506020820151816001015560408201518160020160006101000a81548160ff02191690831515021790555060608201518160020160016101000a81548160ff02191690831515021790555060808201518160020160026101000a81548173ffffffffffffffffffffffffffffffffffffffff021916908373ffffffffffffffffffffffffffffffffffffffff16021790555060a0820151816003015560c0820151816004015560e0820151816005015561010082015181600601556101208201518160070160006101000a81548173ffffffffffffffffffffffffffffffffffffffff021916908373ffffffffffffffffffffffffffffffffffffffff1602179055509050506003839080600181540180825580915050600190039060005260206000200160009091909190916101000a81548173ffffffffffffffffffffffffffffffffffffffff021916908373ffffffffffffffffffffffffffffffffffffffff1602179055507f9c01fa4ff82148506de685ddc052bf11c9682218084bc9850ee6865937631cbf833360405162001304929190620021fe565b60405180910390a1505050565b6200131c82620003e8565b6200135e576040517f08c379a0000000000000000000000000000000000000000000000000000000008152600401620013559062001d7e565b60405180910390fd5b80600260008473ffffffffffffffffffffffffffffffffffffffff1673ffffffffffffffffffffffffffffffffffffffff1681526020019081526020016000206006016000828254620013b2919062001eee565b925050819055505050565b600033905090565b60008060009054906101000a900473ffffffffffffffffffffffffffffffffffffffff169050816000806101000a81548173ffffffffffffffffffffffffffffffffffffffff021916908373ffffffffffffffffffffffffffffffffffffffff1602179055508173ffffffffffffffffffffffffffffffffffffffff168173ffffffffffffffffffffffffffffffffffffffff167f8be0079c531659141344cd1fd0a4f28419497f9722a3daafe3b4186f6b6457e060405160405180910390a35050565b611806806200222c83390190565b828054620014a59062001e18565b90600052602060002090601f016020900481019282620014c9576000855562001515565b82601f10620014e457805160ff191683800117855562001515565b8280016001018555821562001515579182015b8281111562001514578251825591602001919060010190620014f7565b5b50905062001524919062001528565b5090565b5b808211156200154357600081600090555060010162001529565b5090565b6000819050919050565b6200155c8162001547565b82525050565b600060208201905062001579600083018462001551565b92915050565b6000604051905090565b600080fd5b600080fd5b6200159e8162001547565b8114620015aa57600080fd5b50565b600081359050620015be8162001593565b92915050565b600060208284031215620015dd57620015dc62001589565b5b6000620015ed84828501620015ad565b91505092915050565b600073ffffffffffffffffffffffffffffffffffffffff82169050919050565b60006200162382620015f6565b9050919050565b620016358162001616565b82525050565b60006020820190506200165260008301846200162a565b92915050565b620016638162001616565b81146200166f57600080fd5b50565b600081359050620016838162001658565b92915050565b600060208284031215620016a257620016a162001589565b5b6000620016b28482850162001672565b91505092915050565b60008115159050919050565b620016d281620016bb565b82525050565b6000602082019050620016ef6000830184620016c7565b92915050565b6200170081620016bb565b81146200170c57600080fd5b50565b6000813590506200172081620016f5565b92915050565b6000806040838503121562001740576200173f62001589565b5b6000620017508582860162001672565b925050602062001763858286016200170f565b9150509250929050565b600081519050919050565b600082825260208201905092915050565b60005b83811015620017a95780820151818401526020810190506200178c565b83811115620017b9576000848401525b50505050565b6000601f19601f8301169050919050565b6000620017dd826200176d565b620017e9818562001778565b9350620017fb81856020860162001789565b6200180681620017bf565b840191505092915050565b60006101408201905081810360008301526200182e818d620017d0565b90506200183f602083018c62001551565b6200184e604083018b620016c7565b6200185d606083018a620016c7565b6200186c60808301896200162a565b6200187b60a083018862001551565b6200188a60c083018762001551565b6200189960e083018662001551565b620018a961010083018562001551565b620018b96101208301846200162a565b9b9a5050505050505050505050565b60008060408385031215620018e257620018e162001589565b5b6000620018f28582860162001672565b92505060206200190585828601620015ad565b9150509250929050565b60006040820190506200192660008301856200162a565b62001935602083018462001551565b9392505050565b60008060008060008060008060006101208a8c03121562001962576200196162001589565b5b6000620019728c828d0162001672565b9950506020620019858c828d01620015ad565b9850506040620019988c828d01620015ad565b9750506060620019ab8c828d01620015ad565b9650506080620019be8c828d01620015ad565b95505060a0620019d18c828d01620015ad565b94505060c0620019e48c828d01620015ad565b93505060e0620019f78c828d01620015ad565b92505061010062001a0b8c828d01620015ad565b9150509295985092959850929598565b600080fd5b600080fd5b7f4e487b7100000000000000000000000000000000000000000000000000000000600052604160045260246000fd5b62001a5f82620017bf565b810181811067ffffffffffffffff8211171562001a815762001a8062001a25565b5b80604052505050565b600062001a966200157f565b905062001aa4828262001a54565b919050565b600067ffffffffffffffff82111562001ac75762001ac662001a25565b5b62001ad282620017bf565b9050602081019050919050565b82818337600083830152505050565b600062001b0562001aff8462001aa9565b62001a8a565b90508281526020810184848401111562001b245762001b2362001a20565b5b62001b3184828562001adf565b509392505050565b600082601f83011262001b515762001b5062001a1b565b5b813562001b6384826020860162001aee565b91505092915050565b60008060006060848603121562001b885762001b8762001589565b5b600062001b988682870162001672565b935050602084013567ffffffffffffffff81111562001bbc5762001bbb6200158e565b5b62001bca8682870162001b39565b925050604062001bdd8682870162001672565b9150509250925092565b7f4f776e61626c653a2063616c6c6572206973206e6f7420746865206f776e6572600082015250565b600062001c1f60208362001778565b915062001c2c8262001be7565b602082019050919050565b6000602082019050818103600083015262001c528162001c10565b9050919050565b7f4e657720696e766573746f722773207374617475732073686f756c642062652060008201527f646966666572656e742100000000000000000000000000000000000000000000602082015250565b600062001cb7602a8362001778565b915062001cc48262001c59565b604082019050919050565b6000602082019050818103600083015262001cea8162001ca8565b9050919050565b600060608201905062001d0860008301866200162a565b62001d1760208301856200162a565b62001d266040830184620016c7565b949350505050565b7f53746172747570206973206e6f74207265676973746572656421000000000000600082015250565b600062001d66601a8362001778565b915062001d738262001d2e565b602082019050919050565b6000602082019050818103600083015262001d998162001d57565b9050919050565b60008151905062001db181620016f5565b92915050565b60006020828403121562001dd05762001dcf62001589565b5b600062001de08482850162001da0565b91505092915050565b7f4e487b7100000000000000000000000000000000000000000000000000000000600052602260045260246000fd5b6000600282049050600182168062001e3157607f821691505b60208210810362001e475762001e4662001de9565b5b50919050565b7f496e766573746f72206973206e6f742072656769737465726564210000000000600082015250565b600062001e85601b8362001778565b915062001e928262001e4d565b602082019050919050565b6000602082019050818103600083015262001eb88162001e76565b9050919050565b7f4e487b7100000000000000000000000000000000000000000000000000000000600052601160045260246000fd5b600062001efb8262001547565b915062001f088362001547565b9250827fffffffffffffffffffffffffffffffffffffffffffffffffffffffffffffffff0382111562001f405762001f3f62001ebf565b5b828201905092915050565b7f537461727475702070726f66696c65206973206e6f7420612076616c6964206360008201527f6f6e747261637400000000000000000000000000000000000000000000000000602082015250565b600062001fa960278362001778565b915062001fb68262001f4b565b604082019050919050565b6000602082019050818103600083015262001fdc8162001f9a565b9050919050565b7f5374617274757020686173206120636f6e747261637400000000000000000000600082015250565b60006200201b60168362001778565b9150620020288262001fe3565b602082019050919050565b600060208201905081810360008301526200204e816200200c565b9050919050565b6000610120820190506200206d600083018c6200162a565b6200207c602083018b62001551565b6200208b604083018a62001551565b6200209a606083018962001551565b620020a9608083018862001551565b620020b860a083018762001551565b620020c760c083018662001551565b620020d660e083018562001551565b620020e661010083018462001551565b9a9950505050505050505050565b7f4f776e61626c653a206e6577206f776e657220697320746865207a65726f206160008201527f6464726573730000000000000000000000000000000000000000000000000000602082015250565b60006200215260268362001778565b91506200215f82620020f4565b604082019050919050565b60006020820190508181036000830152620021858162002143565b9050919050565b7f5374617274757020697320726567697374657265642100000000000000000000600082015250565b6000620021c460168362001778565b9150620021d1826200218c565b602082019050919050565b60006020820190508181036000830152620021f781620021b5565b9050919050565b60006040820190506200221560008301856200162a565b6200222460208301846200162a565b939250505056fe60806040523480156200001157600080fd5b5060405162001806380380620018068339818101604052810190620000379190620004d0565b620000576200004b6200017f60201b60201c565b6200018760201b60201c565b88600160006101000a81548173ffffffffffffffffffffffffffffffffffffffff021916908373ffffffffffffffffffffffffffffffffffffffff16021790555087600281905550426003819055506000600460006101000a81548160ff021916908315150217905550866005819055508560068190555084600781905550836008819055508260098190555081600e81905550620001026003806004600c6200024b60201b60201c565b80600f819055507fd912e0db3997b8efa782c542ab3e167df8ac40330751f5c28e1d35632d6ffadf600160009054906101000a900473ffffffffffffffffffffffffffffffffffffffff16600254600354600554604051620001689493929190620005d1565b60405180910390a150505050505050505062000822565b600033905090565b60008060009054906101000a900473ffffffffffffffffffffffffffffffffffffffff169050816000806101000a81548173ffffffffffffffffffffffffffffffffffffffff021916908373ffffffffffffffffffffffffffffffffffffffff1602179055508173ffffffffffffffffffffffffffffffffffffffff168173ffffffffffffffffffffffffffffffffffffffff167f8be0079c531659141344cd1fd0a4f28419497f9722a3daafe3b4186f6b6457e060405160405180910390a35050565b6200025b6200017f60201b60201c565b73ffffffffffffffffffffffffffffffffffffffff1662000281620003ea60201b60201c565b73ffffffffffffffffffffffffffffffffffffffff1614620002da576040517f08c379a0000000000000000000000000000000000000000000000000000000008152600401620002d1906200067f565b60405180910390fd5b6000620002f684866200041360201b620008dd1790919060201c565b905060006200031483856200041360201b620008dd1790919060201c565b905060006200033282846200041360201b620008dd1790919060201c565b9050600e548111156200037c576040517f08c379a0000000000000000000000000000000000000000000000000000000008152600401620003739062000717565b60405180910390fd5b86600a8190555085600b8190555084600c8190555083600d819055507fd9d73219186308fb5cd0317d12fd0e326d925501063d4596d5e84dd1708c8ffa33600a54600b54600c54600d54604051620003d995949392919062000739565b60405180910390a150505050505050565b60008060009054906101000a900473ffffffffffffffffffffffffffffffffffffffff16905090565b60008183620004239190620007c5565b905092915050565b600080fd5b600073ffffffffffffffffffffffffffffffffffffffff82169050919050565b60006200045d8262000430565b9050919050565b6200046f8162000450565b81146200047b57600080fd5b50565b6000815190506200048f8162000464565b92915050565b6000819050919050565b620004aa8162000495565b8114620004b657600080fd5b50565b600081519050620004ca816200049f565b92915050565b60008060008060008060008060006101208a8c031215620004f657620004f56200042b565b5b6000620005068c828d016200047e565b9950506020620005198c828d01620004b9565b98505060406200052c8c828d01620004b9565b97505060606200053f8c828d01620004b9565b9650506080620005528c828d01620004b9565b95505060a0620005658c828d01620004b9565b94505060c0620005788c828d01620004b9565b93505060e06200058b8c828d01620004b9565b9250506101006200059f8c828d01620004b9565b9150509295985092959850929598565b620005ba8162000450565b82525050565b620005cb8162000495565b82525050565b6000608082019050620005e86000830187620005af565b620005f76020830186620005c0565b620006066040830185620005c0565b620006156060830184620005c0565b95945050505050565b600082825260208201905092915050565b7f4f776e61626c653a2063616c6c6572206973206e6f7420746865206f776e6572600082015250565b6000620006676020836200061e565b915062000674826200062f565b602082019050919050565b600060208201905081810360008301526200069a8162000658565b9050919050565b7f53686f756c64206265206c657373206f7220657175616c20746f206d6178696d60008201527f756d2070726f6a6563742074696d650000000000000000000000000000000000602082015250565b6000620006ff602f836200061e565b91506200070c82620006a1565b604082019050919050565b600060208201905081810360008301526200073281620006f0565b9050919050565b600060a082019050620007506000830188620005af565b6200075f6020830187620005c0565b6200076e6040830186620005c0565b6200077d6060830185620005c0565b6200078c6080830184620005c0565b9695505050505050565b7f4e487b7100000000000000000000000000000000000000000000000000000000600052601160045260246000fd5b6000620007d28262000495565b9150620007df8362000495565b9250827fffffffffffffffffffffffffffffffffffffffffffffffffffffffffffffffff0382111562000817576200081662000796565b5b828201905092915050565b610fd480620008326000396000f3fe608060405234801561001057600080fd5b50600436106101375760003560e01c806374cf105e116100b85780638da5cb5b1161007c5780638da5cb5b146102d4578063b19ea0a6146102f2578063b2e062c014610310578063b2e595271461032e578063d35f33bf1461034c578063f2fde38b1461036a57610137565b806374cf105e1461023e578063762672241461025c5780637c3a00fd1461027a5780637e28f99c1461029857806383fe2b3d146102b657610137565b80634f554dea116100ff5780634f554dea146101bc57806351ff4847146101da578063589ac562146101f85780636abb373214610216578063715018a61461023457610137565b80631b48a3211461013c578063323046b11461015a578063368d883014610178578063390c193d146101965780634f4d5c10146101b2575b600080fd5b610144610386565b60405161015191906109d8565b60405180910390f35b61016261038c565b60405161016f91906109d8565b60405180910390f35b610180610392565b60405161018d91906109d8565b60405180910390f35b6101b060048036038101906101ab9190610a24565b610398565b005b6101ba61050a565b005b6101c461068f565b6040516101d191906109d8565b60405180910390f35b6101e2610695565b6040516101ef9190610aa6565b60405180910390f35b6102006106a8565b60405161020d91906109d8565b60405180910390f35b61021e6106ae565b60405161022b9190610b02565b60405180910390f35b61023c6106d4565b005b61024661075c565b60405161025391906109d8565b60405180910390f35b610264610762565b60405161027191906109d8565b60405180910390f35b610282610768565b60405161028f91906109d8565b60405180910390f35b6102a061076e565b6040516102ad91906109d8565b60405180910390f35b6102be610774565b6040516102cb91906109d8565b60405180910390f35b6102dc61077a565b6040516102e99190610b02565b60405180910390f35b6102fa6107a3565b60405161030791906109d8565b60405180910390f35b6103186107a9565b60405161032591906109d8565b60405180910390f35b6103366107da565b60405161034391906109d8565b60405180910390f35b6103546107e0565b60405161036191906109d8565b60405180910390f35b610384600480360381019061037f9190610b49565b6107e6565b005b60025481565b60035481565b600a5481565b6103a06108f3565b73ffffffffffffffffffffffffffffffffffffffff166103be61077a565b73ffffffffffffffffffffffffffffffffffffffff1614610414576040517f08c379a000000000000000000000000000000000000000000000000000000000815260040161040b90610bd3565b60405180910390fd5b600061042984866108dd90919063ffffffff16565b9050600061044083856108dd90919063ffffffff16565b9050600061045782846108dd90919063ffffffff16565b9050600e5481111561049e576040517f08c379a000000000000000000000000000000000000000000000000000000000815260040161049590610c65565b60405180910390fd5b86600a8190555085600b8190555084600c8190555083600d819055507fd9d73219186308fb5cd0317d12fd0e326d925501063d4596d5e84dd1708c8ffa33600a54600b54600c54600d546040516104f9959493929190610c85565b60405180910390a150505050505050565b3373ffffffffffffffffffffffffffffffffffffffff16600160009054906101000a900473ffffffffffffffffffffffffffffffffffffffff1673ffffffffffffffffffffffffffffffffffffffff161461059a576040517f08c379a000000000000000000000000000000000000000000000000000000000815260040161059190610d24565b60405180910390fd5b600460009054906101000a900460ff16156105ea576040517f08c379a00000000000000000000000000000000000000000000000000000000081526004016105e190610d90565b60405180910390fd5b60006105f46107a9565b11610634576040517f08c379a000000000000000000000000000000000000000000000000000000000815260040161062b90610e22565b60405180910390fd5b6001600460006101000a81548160ff0219169083151502179055507f51a1a099cba9a81d06bf524f39eed0ce75f3ffdcdf2a0fcc2f83f04f80d65aca33600133426040516106859493929190610e42565b60405180910390a1565b600c5481565b600460009054906101000a900460ff1681565b60095481565b600160009054906101000a900473ffffffffffffffffffffffffffffffffffffffff1681565b6106dc6108f3565b73ffffffffffffffffffffffffffffffffffffffff166106fa61077a565b73ffffffffffffffffffffffffffffffffffffffff1614610750576040517f08c379a000000000000000000000000000000000000000000000000000000000815260040161074790610bd3565b60405180910390fd5b61075a60006108fb565b565b600e5481565b60085481565b60055481565b60075481565b600f5481565b60008060009054906101000a900473ffffffffffffffffffffffffffffffffffffffff16905090565b600d5481565b6000600d54600c54600b54600a546107c19190610eb6565b6107cb9190610eb6565b6107d59190610eb6565b905090565b600b5481565b60065481565b6107ee6108f3565b73ffffffffffffffffffffffffffffffffffffffff1661080c61077a565b73ffffffffffffffffffffffffffffffffffffffff1614610862576040517f08c379a000000000000000000000000000000000000000000000000000000000815260040161085990610bd3565b60405180910390fd5b600073ffffffffffffffffffffffffffffffffffffffff168173ffffffffffffffffffffffffffffffffffffffff16036108d1576040517f08c379a00000000000000000000000000000000000000000000000000000000081526004016108c890610f7e565b60405180910390fd5b6108da816108fb565b50565b600081836108eb9190610eb6565b905092915050565b600033905090565b60008060009054906101000a900473ffffffffffffffffffffffffffffffffffffffff169050816000806101000a81548173ffffffffffffffffffffffffffffffffffffffff021916908373ffffffffffffffffffffffffffffffffffffffff1602179055508173ffffffffffffffffffffffffffffffffffffffff168173ffffffffffffffffffffffffffffffffffffffff167f8be0079c531659141344cd1fd0a4f28419497f9722a3daafe3b4186f6b6457e060405160405180910390a35050565b6000819050919050565b6109d2816109bf565b82525050565b60006020820190506109ed60008301846109c9565b92915050565b600080fd5b610a01816109bf565b8114610a0c57600080fd5b50565b600081359050610a1e816109f8565b92915050565b60008060008060808587031215610a3e57610a3d6109f3565b5b6000610a4c87828801610a0f565b9450506020610a5d87828801610a0f565b9350506040610a6e87828801610a0f565b9250506060610a7f87828801610a0f565b91505092959194509250565b60008115159050919050565b610aa081610a8b565b82525050565b6000602082019050610abb6000830184610a97565b92915050565b600073ffffffffffffffffffffffffffffffffffffffff82169050919050565b6000610aec82610ac1565b9050919050565b610afc81610ae1565b82525050565b6000602082019050610b176000830184610af3565b92915050565b610b2681610ae1565b8114610b3157600080fd5b50565b600081359050610b4381610b1d565b92915050565b600060208284031215610b5f57610b5e6109f3565b5b6000610b6d84828501610b34565b91505092915050565b600082825260208201905092915050565b7f4f776e61626c653a2063616c6c6572206973206e6f7420746865206f776e6572600082015250565b6000610bbd602083610b76565b9150610bc882610b87565b602082019050919050565b60006020820190508181036000830152610bec81610bb0565b9050919050565b7f53686f756c64206265206c657373206f7220657175616c20746f206d6178696d60008201527f756d2070726f6a6563742074696d650000000000000000000000000000000000602082015250565b6000610c4f602f83610b76565b9150610c5a82610bf3565b604082019050919050565b60006020820190508181036000830152610c7e81610c42565b9050919050565b600060a082019050610c9a6000830188610af3565b610ca760208301876109c9565b610cb460408301866109c9565b610cc160608301856109c9565b610cce60808301846109c9565b9695505050505050565b7f4f6e6c7920737461727475702073686f756c6420616363657074210000000000600082015250565b6000610d0e601b83610b76565b9150610d1982610cd8565b602082019050919050565b60006020820190508181036000830152610d3d81610d01565b9050919050565b7f436f6e747261637420686173206265656e207369676e65642100000000000000600082015250565b6000610d7a601983610b76565b9150610d8582610d44565b602082019050919050565b60006020820190508181036000830152610da981610d6d565b9050919050565b7f546f74616c206d6f6e7468732073686f756c642062652067726561746572207460008201527f68616e207a65726f210000000000000000000000000000000000000000000000602082015250565b6000610e0c602983610b76565b9150610e1782610db0565b604082019050919050565b60006020820190508181036000830152610e3b81610dff565b9050919050565b6000608082019050610e576000830187610af3565b610e646020830186610a97565b610e716040830185610af3565b610e7e60608301846109c9565b95945050505050565b7f4e487b7100000000000000000000000000000000000000000000000000000000600052601160045260246000fd5b6000610ec1826109bf565b9150610ecc836109bf565b9250827fffffffffffffffffffffffffffffffffffffffffffffffffffffffffffffffff03821115610f0157610f00610e87565b5b828201905092915050565b7f4f776e61626c653a206e6577206f776e657220697320746865207a65726f206160008201527f6464726573730000000000000000000000000000000000000000000000000000602082015250565b6000610f68602683610b76565b9150610f7382610f0c565b604082019050919050565b60006020820190508181036000830152610f9781610f5b565b905091905056fea2646970667358221220084ff8e251016e7f302babd41bbbe8559a6808b415158c9bfcb41bf69a8e35f764736f6c634300080e0033a2646970667358221220d1bce0d7217d9ba849440c5e9c64d0b7793aa6ff85dc968d27321839be534c9564736f6c634300080e0033",
  "immutableReferences": {},
  "source": "// SPDX-License-Identifier: MIT\r\npragma solidity ^0.8.14;\r\n\r\nimport \"./StartupContract.sol\";\r\nimport \"@openzeppelin/contracts/access/Ownable.sol\";\r\nimport \"@openzeppelin/contracts/token/ERC20/IERC20.sol\";\r\n\r\ncontract StartupsHandler is Ownable {\r\n    \r\n    struct Startup{\r\n        string name;     //Startup's startupName\r\n        uint registerDate;  //Register Date\r\n        bool status;        //startup's status: true or false;\r\n        bool hasContract;\r\n        address startupContractAddress;\r\n        uint amountTermal;\r\n        uint daiReceived;\r\n        uint daiReturned;\r\n        uint termalReturned;\r\n        address token;\r\n    }\r\n\r\n    struct token\r\n    {\r\n        address tokenAddress;\r\n        uint balance;\r\n    }\r\n    mapping(address => token) public startupToken;\r\n\r\n    mapping (address => Startup) public startups;\r\n    address[] public startupList;\r\n    \r\n    event LogCreateStartup(address _newStartupAddress, address _owner);\r\n    event LogNewStartupStatus(address _owner, address _startupAddress, bool _status);\r\n    event LogReturnTermal(address _sender, address _contract, uint _amount);\r\n\r\n    constructor() {}\r\n\r\n    function createStartup(\r\n            address _startupWallet, \r\n            string memory _startupName,\r\n            address tokenAddress\r\n            )\r\n        onlyOwner()\r\n        external\r\n    {\r\n        require(!startups[_startupWallet].status, \"Startup is registered!\");\r\n        startups[_startupWallet] = Startup(_startupName, block.timestamp, true, false, address(0), 0, 0, 0, 0, tokenAddress);\r\n        startupList.push(_startupWallet);\r\n        emit LogCreateStartup(_startupWallet, msg.sender);\r\n    }\r\n\r\n    function createStartupContract(\r\n            address _startupWallet, \r\n            uint _initialLoan,\r\n            uint _interestRate,\r\n            uint _maxConvertionRate,\r\n            uint _minConvertionRate,\r\n            uint _termalCoinPercentage,\r\n            uint _stableCoinPercentage,\r\n            uint _maxProjectime,\r\n            uint _activeFee\r\n        )\r\n        onlyOwner()\r\n        external\r\n    {\r\n        require(isValidStartup(_startupWallet), \"Startup profile is not a valid contract\");\r\n        require(!startups[_startupWallet].hasContract, \"Startup has a contract\");\r\n        \r\n        StartupContract newStartupContract = new StartupContract(\r\n                _startupWallet, \r\n                _initialLoan, \r\n                _interestRate, \r\n                _maxConvertionRate, \r\n                _minConvertionRate, \r\n                _termalCoinPercentage, \r\n                _stableCoinPercentage, \r\n                _maxProjectime,\r\n                _activeFee\r\n                );\r\n        startups[_startupWallet].hasContract = true;\r\n        startups[_startupWallet].startupContractAddress = address(newStartupContract);\r\n        newStartupContract.transferOwnership(msg.sender);\r\n    }\r\n    \r\n    function isValidStartup(address _startupAddress)\r\n        public\r\n        view\r\n        returns(bool)\r\n    {\r\n        return startups[_startupAddress].status;\r\n    }\r\n    \r\n    function getTotalStartups()\r\n        external\r\n        view\r\n        returns (uint)\r\n    {\r\n        return startupList.length;\r\n    }\r\n\r\n    //This function validate the startup's status before changing it.\r\n    function newStartupStatus(address _startupAddress, bool _status)\r\n        onlyOwner()\r\n        public\r\n    {\r\n        require(startups[_startupAddress].status != _status, \"New investor's status should be different!\");\r\n        startups[_startupAddress].status = _status;\r\n        emit LogNewStartupStatus(msg.sender, _startupAddress, _status);\r\n    }\r\n\r\n    function getStartupTokenAddress(address _startup)\r\n        public\r\n        view\r\n        returns (address)\r\n    {\r\n        require(isValidStartup(_startup), \"Startup is not registered!\");\r\n        \r\n        return startups[_startup].token;\r\n    }\r\n\r\n    function getSignatureStatus(address _startup)\r\n        public\r\n        view\r\n        returns (bool)\r\n    {\r\n        require(isValidStartup(_startup), \"Startup is not registered!\");\r\n        return StartupContract(startups[_startup].startupContractAddress).signature();\r\n    }\r\n\r\n    function addDepositDai(address _receiver, uint _amount) external {\r\n        require(isValidStartup(_receiver), \"Investor is not registered!\");\r\n        \r\n        startups[_receiver].daiReceived += _amount;\r\n    }\r\n\r\n    function addReturnedDai(address _receiver, uint _amount) external {\r\n        require(isValidStartup(_receiver), \"Startup is not registered!\");\r\n        \r\n        startups[_receiver].daiReturned += _amount;\r\n    }\r\n\r\n    function addReturnedTermal(address _receiver, uint _amount) external {\r\n        require(isValidStartup(_receiver), \"Startup is not registered!\");\r\n        \r\n        startups[_receiver].termalReturned += _amount;\r\n    }\r\n\r\n}",
  "sourcePath": "/Users/gimer/Projects/TermalPolygon/contracts/StartupsHandler.sol",
  "compiler": {
    "name": "solc",
    "version": "0.8.14+commit.80d49f37.Emscripten.clang"
  },
  "schemaVersion": "3.4.4",
  "updatedAt": "2022-11-01T07:57:31.052Z",
  "networkType": "ethereum",
  "devdoc": {
    "kind": "dev",
    "methods": {
      "owner()": {
        "details": "Returns the address of the current owner."
      },
      "renounceOwnership()": {
        "details": "Leaves the contract without owner. It will not be possible to call `onlyOwner` functions anymore. Can only be called by the current owner. NOTE: Renouncing ownership will leave the contract without an owner, thereby removing any functionality that is only available to the owner."
      },
      "transferOwnership(address)": {
        "details": "Transfers ownership of the contract to a new account (`newOwner`). Can only be called by the current owner."
      }
    },
    "version": 1
  },
  "userdoc": {
    "kind": "user",
    "methods": {},
    "version": 1
  }
}