{
  "contractName": "StartupContract",
  "abi": [
    {
      "inputs": [
        {
          "internalType": "address",
          "name": "_startupWallet",
          "type": "address"
        },
        {
          "internalType": "uint256",
          "name": "_initialLoan",
          "type": "uint256"
        },
        {
          "internalType": "uint256",
          "name": "_interestRate",
          "type": "uint256"
        },
        {
          "internalType": "uint256",
          "name": "_maxConvertionRate",
          "type": "uint256"
        },
        {
          "internalType": "uint256",
          "name": "_minConvertionRate",
          "type": "uint256"
        },
        {
          "internalType": "uint256",
          "name": "_termalCoinPercentage",
          "type": "uint256"
        },
        {
          "internalType": "uint256",
          "name": "_stableCoinPercentage",
          "type": "uint256"
        },
        {
          "internalType": "uint256",
          "name": "_maxProjectTime",
          "type": "uint256"
        }
      ],
      "stateMutability": "nonpayable",
      "type": "constructor"
    },
    {
      "anonymous": false,
      "inputs": [
        {
          "indexed": false,
          "internalType": "address",
          "name": "_startupProfile",
          "type": "address"
        },
        {
          "indexed": false,
          "internalType": "uint256",
          "name": "_initialLoan",
          "type": "uint256"
        },
        {
          "indexed": false,
          "internalType": "uint256",
          "name": "_date",
          "type": "uint256"
        },
        {
          "indexed": false,
          "internalType": "uint256",
          "name": "_interestRate",
          "type": "uint256"
        }
      ],
      "name": "LogContractCreation",
      "type": "event"
    },
    {
      "anonymous": false,
      "inputs": [
        {
          "indexed": false,
          "internalType": "address",
          "name": "_owner",
          "type": "address"
        },
        {
          "indexed": false,
          "internalType": "uint256",
          "name": "_fundingMonths",
          "type": "uint256"
        },
        {
          "indexed": false,
          "internalType": "uint256",
          "name": "_honeymoon",
          "type": "uint256"
        },
        {
          "indexed": false,
          "internalType": "uint256",
          "name": "_interestOnly",
          "type": "uint256"
        },
        {
          "indexed": false,
          "internalType": "uint256",
          "name": "_interestAndCapital",
          "type": "uint256"
        }
      ],
      "name": "LogSetMonths",
      "type": "event"
    },
    {
      "anonymous": false,
      "inputs": [
        {
          "indexed": false,
          "internalType": "address",
          "name": "_owner",
          "type": "address"
        },
        {
          "indexed": false,
          "internalType": "address",
          "name": "_newOwner",
          "type": "address"
        }
      ],
      "name": "LogSetNewOwner",
      "type": "event"
    },
    {
      "anonymous": false,
      "inputs": [
        {
          "indexed": false,
          "internalType": "address",
          "name": "_sender",
          "type": "address"
        },
        {
          "indexed": false,
          "internalType": "bool",
          "name": "_signature",
          "type": "bool"
        },
        {
          "indexed": false,
          "internalType": "address",
          "name": "_startupProfile",
          "type": "address"
        },
        {
          "indexed": false,
          "internalType": "uint256",
          "name": "",
          "type": "uint256"
        }
      ],
      "name": "LogStartupSingature",
      "type": "event"
    },
    {
      "anonymous": false,
      "inputs": [
        {
          "indexed": true,
          "internalType": "address",
          "name": "previousOwner",
          "type": "address"
        },
        {
          "indexed": true,
          "internalType": "address",
          "name": "newOwner",
          "type": "address"
        }
      ],
      "name": "OwnershipTransferred",
      "type": "event"
    },
    {
      "inputs": [],
      "name": "date",
      "outputs": [
        {
          "internalType": "uint256",
          "name": "",
          "type": "uint256"
        }
      ],
      "stateMutability": "view",
      "type": "function"
    },
    {
      "inputs": [],
      "name": "fundingMonths",
      "outputs": [
        {
          "internalType": "uint256",
          "name": "",
          "type": "uint256"
        }
      ],
      "stateMutability": "view",
      "type": "function"
    },
    {
      "inputs": [],
      "name": "honeymoon",
      "outputs": [
        {
          "internalType": "uint256",
          "name": "",
          "type": "uint256"
        }
      ],
      "stateMutability": "view",
      "type": "function"
    },
    {
      "inputs": [],
      "name": "initialLoan",
      "outputs": [
        {
          "internalType": "uint256",
          "name": "",
          "type": "uint256"
        }
      ],
      "stateMutability": "view",
      "type": "function"
    },
    {
      "inputs": [],
      "name": "interestAndCapital",
      "outputs": [
        {
          "internalType": "uint256",
          "name": "",
          "type": "uint256"
        }
      ],
      "stateMutability": "view",
      "type": "function"
    },
    {
      "inputs": [],
      "name": "interestOnly",
      "outputs": [
        {
          "internalType": "uint256",
          "name": "",
          "type": "uint256"
        }
      ],
      "stateMutability": "view",
      "type": "function"
    },
    {
      "inputs": [],
      "name": "interestRate",
      "outputs": [
        {
          "internalType": "uint256",
          "name": "",
          "type": "uint256"
        }
      ],
      "stateMutability": "view",
      "type": "function"
    },
    {
      "inputs": [],
      "name": "maxConvertionRate",
      "outputs": [
        {
          "internalType": "uint256",
          "name": "",
          "type": "uint256"
        }
      ],
      "stateMutability": "view",
      "type": "function"
    },
    {
      "inputs": [],
      "name": "maxProjectTime",
      "outputs": [
        {
          "internalType": "uint256",
          "name": "",
          "type": "uint256"
        }
      ],
      "stateMutability": "view",
      "type": "function"
    },
    {
      "inputs": [],
      "name": "minConvertionRate",
      "outputs": [
        {
          "internalType": "uint256",
          "name": "",
          "type": "uint256"
        }
      ],
      "stateMutability": "view",
      "type": "function"
    },
    {
      "inputs": [],
      "name": "owner",
      "outputs": [
        {
          "internalType": "address",
          "name": "",
          "type": "address"
        }
      ],
      "stateMutability": "view",
      "type": "function"
    },
    {
      "inputs": [],
      "name": "renounceOwnership",
      "outputs": [],
      "stateMutability": "nonpayable",
      "type": "function"
    },
    {
      "inputs": [],
      "name": "signature",
      "outputs": [
        {
          "internalType": "bool",
          "name": "",
          "type": "bool"
        }
      ],
      "stateMutability": "view",
      "type": "function"
    },
    {
      "inputs": [],
      "name": "stableCoinPercentage",
      "outputs": [
        {
          "internalType": "uint256",
          "name": "",
          "type": "uint256"
        }
      ],
      "stateMutability": "view",
      "type": "function"
    },
    {
      "inputs": [],
      "name": "startupWallet",
      "outputs": [
        {
          "internalType": "address",
          "name": "",
          "type": "address"
        }
      ],
      "stateMutability": "view",
      "type": "function"
    },
    {
      "inputs": [],
      "name": "termalCoinPercentage",
      "outputs": [
        {
          "internalType": "uint256",
          "name": "",
          "type": "uint256"
        }
      ],
      "stateMutability": "view",
      "type": "function"
    },
    {
      "inputs": [
        {
          "internalType": "address",
          "name": "newOwner",
          "type": "address"
        }
      ],
      "name": "transferOwnership",
      "outputs": [],
      "stateMutability": "nonpayable",
      "type": "function"
    },
    {
      "inputs": [
        {
          "internalType": "uint256",
          "name": "_fundingMonths",
          "type": "uint256"
        },
        {
          "internalType": "uint256",
          "name": "_honeymoon",
          "type": "uint256"
        },
        {
          "internalType": "uint256",
          "name": "_interestOnly",
          "type": "uint256"
        },
        {
          "internalType": "uint256",
          "name": "_interestAndCapital",
          "type": "uint256"
        }
      ],
      "name": "setMonths",
      "outputs": [],
      "stateMutability": "nonpayable",
      "type": "function"
    },
    {
      "inputs": [],
      "name": "getTotalMonths",
      "outputs": [
        {
          "internalType": "uint256",
          "name": "",
          "type": "uint256"
        }
      ],
      "stateMutability": "view",
      "type": "function"
    },
    {
      "inputs": [],
      "name": "startupSignature",
      "outputs": [],
      "stateMutability": "nonpayable",
      "type": "function"
    }
  ],
  "bytecode": "0x60806040523480156200001157600080fd5b506040516200173f3803806200173f833981810160405281019062000037919062000452565b620000576200004b6200017860201b60201c565b6200018060201b60201c565b87600160006101000a81548173ffffffffffffffffffffffffffffffffffffffff021916908373ffffffffffffffffffffffffffffffffffffffff16021790555086600281905550426003819055506000600460006101000a81548160ff021916908315150217905550856005819055508460068190555083600781905550826008819055508160098190555080600e8190555062000103600360026003600a6200024460201b60201c565b7fd912e0db3997b8efa782c542ab3e167df8ac40330751f5c28e1d35632d6ffadf600160009054906101000a900473ffffffffffffffffffffffffffffffffffffffff16600254600354600554604051620001629493929190620005e1565b60405180910390a15050505050505050620007de565b600033905090565b60008060009054906101000a900473ffffffffffffffffffffffffffffffffffffffff169050816000806101000a81548173ffffffffffffffffffffffffffffffffffffffff021916908373ffffffffffffffffffffffffffffffffffffffff1602179055508173ffffffffffffffffffffffffffffffffffffffff168173ffffffffffffffffffffffffffffffffffffffff167f8be0079c531659141344cd1fd0a4f28419497f9722a3daafe3b4186f6b6457e060405160405180910390a35050565b620002546200017860201b60201c565b73ffffffffffffffffffffffffffffffffffffffff166200027a620003e360201b60201c565b73ffffffffffffffffffffffffffffffffffffffff1614620002d3576040517f08c379a0000000000000000000000000000000000000000000000000000000008152600401620002ca906200068b565b60405180910390fd5b6000620002ef84866200040c60201b620008af1790919060201c565b905060006200030d83856200040c60201b620008af1790919060201c565b905060006200032b82846200040c60201b620008af1790919060201c565b9050600e5481111562000375576040517f08c379a00000000000000000000000000000000000000000000000000000000081526004016200036c90620006ad565b60405180910390fd5b86600a8190555085600b8190555084600c8190555083600d819055507fd9d73219186308fb5cd0317d12fd0e326d925501063d4596d5e84dd1708c8ffa33600a54600b54600c54600d54604051620003d29594939291906200062e565b60405180910390a150505050505050565b60008060009054906101000a900473ffffffffffffffffffffffffffffffffffffffff16905090565b600081836200041c9190620006e0565b905092915050565b6000815190506200043581620007aa565b92915050565b6000815190506200044c81620007c4565b92915050565b600080600080600080600080610100898b0312156200047057600080fd5b6000620004808b828c0162000424565b9850506020620004938b828c016200043b565b9750506040620004a68b828c016200043b565b9650506060620004b98b828c016200043b565b9550506080620004cc8b828c016200043b565b94505060a0620004df8b828c016200043b565b93505060c0620004f28b828c016200043b565b92505060e0620005058b828c016200043b565b9150509295985092959890939650565b62000520816200073d565b82525050565b600062000535602083620006cf565b91507f4f776e61626c653a2063616c6c6572206973206e6f7420746865206f776e65726000830152602082019050919050565b600062000577602f83620006cf565b91507f53686f756c64206265206c657373206f7220657175616c20746f206d6178696d60008301527f756d2070726f6a6563742074696d6500000000000000000000000000000000006020830152604082019050919050565b620005db8162000771565b82525050565b6000608082019050620005f8600083018762000515565b620006076020830186620005d0565b620006166040830185620005d0565b620006256060830184620005d0565b95945050505050565b600060a08201905062000645600083018862000515565b620006546020830187620005d0565b620006636040830186620005d0565b620006726060830185620005d0565b620006816080830184620005d0565b9695505050505050565b60006020820190508181036000830152620006a68162000526565b9050919050565b60006020820190508181036000830152620006c88162000568565b9050919050565b600082825260208201905092915050565b6000620006ed8262000771565b9150620006fa8362000771565b9250827fffffffffffffffffffffffffffffffffffffffffffffffffffffffffffffffff038211156200073257620007316200077b565b5b828201905092915050565b60006200074a8262000751565b9050919050565b600073ffffffffffffffffffffffffffffffffffffffff82169050919050565b6000819050919050565b7f4e487b7100000000000000000000000000000000000000000000000000000000600052601160045260246000fd5b620007b5816200073d565b8114620007c157600080fd5b50565b620007cf8162000771565b8114620007db57600080fd5b50565b610f5180620007ee6000396000f3fe608060405234801561001057600080fd5b506004361061012c5760003560e01c806374cf105e116100ad578063b19ea0a611610071578063b19ea0a6146102c9578063b2e062c0146102e7578063b2e5952714610305578063d35f33bf14610323578063f2fde38b146103415761012c565b806374cf105e1461023357806376267224146102515780637c3a00fd1461026f5780637e28f99c1461028d5780638da5cb5b146102ab5761012c565b80634f554dea116100f45780634f554dea146101b157806351ff4847146101cf578063589ac562146101ed5780636abb37321461020b578063715018a6146102295761012c565b80631b48a32114610131578063323046b11461014f578063368d88301461016d578063390c193d1461018b5780634f4d5c10146101a7575b600080fd5b61013961035d565b6040516101469190610df4565b60405180910390f35b610157610363565b6040516101649190610df4565b60405180910390f35b610175610369565b6040516101829190610df4565b60405180910390f35b6101a560048036038101906101a091906109e4565b61036f565b005b6101af6104e1565b005b6101b9610666565b6040516101c69190610df4565b60405180910390f35b6101d761066c565b6040516101e49190610d19565b60405180910390f35b6101f561067f565b6040516102029190610df4565b60405180910390f35b610213610685565b6040516102209190610c66565b60405180910390f35b6102316106ab565b005b61023b610733565b6040516102489190610df4565b60405180910390f35b610259610739565b6040516102669190610df4565b60405180910390f35b61027761073f565b6040516102849190610df4565b60405180910390f35b610295610745565b6040516102a29190610df4565b60405180910390f35b6102b361074b565b6040516102c09190610c66565b60405180910390f35b6102d1610774565b6040516102de9190610df4565b60405180910390f35b6102ef61077a565b6040516102fc9190610df4565b60405180910390f35b61030d6107ab565b60405161031a9190610df4565b60405180910390f35b61032b6107b1565b6040516103389190610df4565b60405180910390f35b61035b600480360381019061035691906109bb565b6107b7565b005b60025481565b60035481565b600a5481565b6103776108c5565b73ffffffffffffffffffffffffffffffffffffffff1661039561074b565b73ffffffffffffffffffffffffffffffffffffffff16146103eb576040517f08c379a00000000000000000000000000000000000000000000000000000000081526004016103e290610d74565b60405180910390fd5b600061040084866108af90919063ffffffff16565b9050600061041783856108af90919063ffffffff16565b9050600061042e82846108af90919063ffffffff16565b9050600e54811115610475576040517f08c379a000000000000000000000000000000000000000000000000000000000815260040161046c90610db4565b60405180910390fd5b86600a8190555085600b8190555084600c8190555083600d819055507fd9d73219186308fb5cd0317d12fd0e326d925501063d4596d5e84dd1708c8ffa33600a54600b54600c54600d546040516104d0959493929190610cc6565b60405180910390a150505050505050565b3373ffffffffffffffffffffffffffffffffffffffff16600160009054906101000a900473ffffffffffffffffffffffffffffffffffffffff1673ffffffffffffffffffffffffffffffffffffffff1614610571576040517f08c379a000000000000000000000000000000000000000000000000000000000815260040161056890610dd4565b60405180910390fd5b600460009054906101000a900460ff16156105c1576040517f08c379a00000000000000000000000000000000000000000000000000000000081526004016105b890610d54565b60405180910390fd5b60006105cb61077a565b1161060b576040517f08c379a000000000000000000000000000000000000000000000000000000000815260040161060290610d94565b60405180910390fd5b6001600460006101000a81548160ff0219169083151502179055507f51a1a099cba9a81d06bf524f39eed0ce75f3ffdcdf2a0fcc2f83f04f80d65aca336001334260405161065c9493929190610c81565b60405180910390a1565b600c5481565b600460009054906101000a900460ff1681565b60095481565b600160009054906101000a900473ffffffffffffffffffffffffffffffffffffffff1681565b6106b36108c5565b73ffffffffffffffffffffffffffffffffffffffff166106d161074b565b73ffffffffffffffffffffffffffffffffffffffff1614610727576040517f08c379a000000000000000000000000000000000000000000000000000000000815260040161071e90610d74565b60405180910390fd5b61073160006108cd565b565b600e5481565b60085481565b60055481565b60075481565b60008060009054906101000a900473ffffffffffffffffffffffffffffffffffffffff16905090565b600d5481565b6000600d54600c54600b54600a546107929190610e20565b61079c9190610e20565b6107a69190610e20565b905090565b600b5481565b60065481565b6107bf6108c5565b73ffffffffffffffffffffffffffffffffffffffff166107dd61074b565b73ffffffffffffffffffffffffffffffffffffffff1614610833576040517f08c379a000000000000000000000000000000000000000000000000000000000815260040161082a90610d74565b60405180910390fd5b600073ffffffffffffffffffffffffffffffffffffffff168173ffffffffffffffffffffffffffffffffffffffff1614156108a3576040517f08c379a000000000000000000000000000000000000000000000000000000000815260040161089a90610d34565b60405180910390fd5b6108ac816108cd565b50565b600081836108bd9190610e20565b905092915050565b600033905090565b60008060009054906101000a900473ffffffffffffffffffffffffffffffffffffffff169050816000806101000a81548173ffffffffffffffffffffffffffffffffffffffff021916908373ffffffffffffffffffffffffffffffffffffffff1602179055508173ffffffffffffffffffffffffffffffffffffffff168173ffffffffffffffffffffffffffffffffffffffff167f8be0079c531659141344cd1fd0a4f28419497f9722a3daafe3b4186f6b6457e060405160405180910390a35050565b6000813590506109a081610eed565b92915050565b6000813590506109b581610f04565b92915050565b6000602082840312156109cd57600080fd5b60006109db84828501610991565b91505092915050565b600080600080608085870312156109fa57600080fd5b6000610a08878288016109a6565b9450506020610a19878288016109a6565b9350506040610a2a878288016109a6565b9250506060610a3b878288016109a6565b91505092959194509250565b610a5081610e76565b82525050565b610a5f81610e88565b82525050565b6000610a72602683610e0f565b91507f4f776e61626c653a206e6577206f776e657220697320746865207a65726f206160008301527f64647265737300000000000000000000000000000000000000000000000000006020830152604082019050919050565b6000610ad8601983610e0f565b91507f436f6e747261637420686173206265656e207369676e656421000000000000006000830152602082019050919050565b6000610b18602083610e0f565b91507f4f776e61626c653a2063616c6c6572206973206e6f7420746865206f776e65726000830152602082019050919050565b6000610b58602983610e0f565b91507f546f74616c206d6f6e7468732073686f756c642062652067726561746572207460008301527f68616e207a65726f2100000000000000000000000000000000000000000000006020830152604082019050919050565b6000610bbe602f83610e0f565b91507f53686f756c64206265206c657373206f7220657175616c20746f206d6178696d60008301527f756d2070726f6a6563742074696d6500000000000000000000000000000000006020830152604082019050919050565b6000610c24601b83610e0f565b91507f4f6e6c7920737461727475702073686f756c64206163636570742100000000006000830152602082019050919050565b610c6081610eb4565b82525050565b6000602082019050610c7b6000830184610a47565b92915050565b6000608082019050610c966000830187610a47565b610ca36020830186610a56565b610cb06040830185610a47565b610cbd6060830184610c57565b95945050505050565b600060a082019050610cdb6000830188610a47565b610ce86020830187610c57565b610cf56040830186610c57565b610d026060830185610c57565b610d0f6080830184610c57565b9695505050505050565b6000602082019050610d2e6000830184610a56565b92915050565b60006020820190508181036000830152610d4d81610a65565b9050919050565b60006020820190508181036000830152610d6d81610acb565b9050919050565b60006020820190508181036000830152610d8d81610b0b565b9050919050565b60006020820190508181036000830152610dad81610b4b565b9050919050565b60006020820190508181036000830152610dcd81610bb1565b9050919050565b60006020820190508181036000830152610ded81610c17565b9050919050565b6000602082019050610e096000830184610c57565b92915050565b600082825260208201905092915050565b6000610e2b82610eb4565b9150610e3683610eb4565b9250827fffffffffffffffffffffffffffffffffffffffffffffffffffffffffffffffff03821115610e6b57610e6a610ebe565b5b828201905092915050565b6000610e8182610e94565b9050919050565b60008115159050919050565b600073ffffffffffffffffffffffffffffffffffffffff82169050919050565b6000819050919050565b7f4e487b7100000000000000000000000000000000000000000000000000000000600052601160045260246000fd5b610ef681610e76565b8114610f0157600080fd5b50565b610f0d81610eb4565b8114610f1857600080fd5b5056fea26469706673582212207419a97371b91a9a6dd68a1c17d6c527f87dbabf1534cf95f157b4994117cde264736f6c63430008000033",
  "immutableReferences": {},
  "source": "// SPDX-License-Identifier: MIT\r\npragma solidity ^0.8.0;\r\n\r\nimport \"@openzeppelin/contracts/access/Ownable.sol\";\r\nimport \"@openzeppelin/contracts/utils/math/SafeMath.sol\";\r\n\r\ncontract StartupContract is Ownable {\r\n    using SafeMath for uint256;\r\n\r\n    address public startupWallet;\r\n    uint public initialLoan; //Amount in USD\r\n    uint public date;\r\n    bool public signature;\r\n    uint public interestRate; //% management fee\r\n    uint public maxConvertionRate;\r\n    uint public minConvertionRate;\r\n    uint public termalCoinPercentage;\r\n    uint public stableCoinPercentage;\r\n    uint public fundingMonths; \r\n    uint public honeymoon; //Months without payments\r\n    uint public interestOnly; //Interest only Months\r\n    uint public interestAndCapital; //Interes and capital payments\r\n    uint public maxProjectTime;\r\n    \r\n    event LogContractCreation(address _startupProfile, uint _initialLoan, uint _date, uint _interestRate);\r\n    event LogStartupSingature(address _sender, bool _signature, address _startupProfile, uint);\r\n    event LogSetNewOwner(address _owner, address _newOwner);\r\n    \r\n    event LogSetMonths(address _owner, uint _fundingMonths, uint _honeymoon, uint _interestOnly, uint _interestAndCapital);\r\n    \r\n  \r\n    constructor(\r\n            address _startupWallet,\r\n            uint _initialLoan,          // Funding total amount\r\n            uint _interestRate,         // %Management fee\r\n            uint _maxConvertionRate,\r\n            uint _minConvertionRate,\r\n            uint _termalCoinPercentage,\r\n            uint _stableCoinPercentage,\r\n            uint _maxProjectTime\r\n            )\r\n        {\r\n            startupWallet = _startupWallet;\r\n            initialLoan = _initialLoan;\r\n            date = block.timestamp;\r\n            signature = false; // This is false until startup accepts the contract.\r\n            interestRate = _interestRate;\r\n            maxConvertionRate = _maxConvertionRate;\r\n            minConvertionRate = _minConvertionRate;\r\n            termalCoinPercentage = _termalCoinPercentage;\r\n            stableCoinPercentage = _stableCoinPercentage;\r\n            maxProjectTime = _maxProjectTime;\r\n            setMonths(3, 2, 3, 10); \r\n            emit LogContractCreation(startupWallet, initialLoan, date, interestRate);\r\n        }\r\n\r\n    function setMonths(uint _fundingMonths, uint _honeymoon, uint _interestOnly, uint _interestAndCapital)\r\n        onlyOwner()\r\n        public\r\n    {\r\n        uint sum1 = _fundingMonths.add(_honeymoon);\r\n        uint sum2 = _interestOnly.add(_interestAndCapital);\r\n        uint sum3 = sum1.add(sum2);\r\n\r\n        require(sum3 <= maxProjectTime, \"Should be less or equal to maximum project time\");\r\n        \r\n        fundingMonths = _fundingMonths;\r\n        honeymoon = _honeymoon;\r\n        interestOnly = _interestOnly;\r\n        interestAndCapital = _interestAndCapital;\r\n\r\n        emit LogSetMonths(msg.sender, fundingMonths, honeymoon, interestOnly, interestAndCapital);\r\n    }\r\n\r\n    //Total contract duration\r\n    function getTotalMonths() \r\n        public \r\n        view\r\n        returns (uint)\r\n    {\r\n        return (fundingMonths + honeymoon + interestOnly + interestAndCapital);\r\n    }\r\n\r\n    //Startup has to sign to accept the contract\r\n    function startupSignature()\r\n        external\r\n    {\r\n        require(startupWallet == msg.sender, \"Only startup should accept!\");\r\n        require(!signature, \"Contract has been signed!\");\r\n        require(getTotalMonths() > 0, \"Total months should be greater than zero!\" );\r\n        signature = true;\r\n\r\n        emit LogStartupSingature(msg.sender, true, msg.sender, block.timestamp);\r\n    }\r\n}",
  "sourcePath": "C:\\Users\\gimer\\Projects\\Termal-2.0\\contracts\\StartupContract.sol",
  "compiler": {
    "name": "solc",
    "version": "0.8.0+commit.c7dfd78e.Emscripten.clang"
  },
  "schemaVersion": "3.4.3",
  "updatedAt": "2021-12-17T05:27:58.587Z",
  "devdoc": {
    "kind": "dev",
    "methods": {
      "owner()": {
        "details": "Returns the address of the current owner."
      },
      "renounceOwnership()": {
        "details": "Leaves the contract without owner. It will not be possible to call `onlyOwner` functions anymore. Can only be called by the current owner. NOTE: Renouncing ownership will leave the contract without an owner, thereby removing any functionality that is only available to the owner."
      },
      "transferOwnership(address)": {
        "details": "Transfers ownership of the contract to a new account (`newOwner`). Can only be called by the current owner."
      }
    },
    "version": 1
  },
  "userdoc": {
    "kind": "user",
    "methods": {},
    "version": 1
  }
}