{
  "contractName": "StartupsHandler",
  "abi": [
    {
      "inputs": [],
      "stateMutability": "nonpayable",
      "type": "constructor"
    },
    {
      "anonymous": false,
      "inputs": [
        {
          "indexed": false,
          "internalType": "address",
          "name": "_newStartupAddress",
          "type": "address"
        },
        {
          "indexed": false,
          "internalType": "address",
          "name": "_owner",
          "type": "address"
        }
      ],
      "name": "LogCreateStartup",
      "type": "event"
    },
    {
      "anonymous": false,
      "inputs": [
        {
          "indexed": false,
          "internalType": "address",
          "name": "_owner",
          "type": "address"
        },
        {
          "indexed": false,
          "internalType": "address",
          "name": "_startupAddress",
          "type": "address"
        },
        {
          "indexed": false,
          "internalType": "bool",
          "name": "_status",
          "type": "bool"
        }
      ],
      "name": "LogNewStartupStatus",
      "type": "event"
    },
    {
      "anonymous": false,
      "inputs": [
        {
          "indexed": false,
          "internalType": "address",
          "name": "_sender",
          "type": "address"
        },
        {
          "indexed": false,
          "internalType": "address",
          "name": "_contract",
          "type": "address"
        },
        {
          "indexed": false,
          "internalType": "uint256",
          "name": "_amount",
          "type": "uint256"
        }
      ],
      "name": "LogReturnTermal",
      "type": "event"
    },
    {
      "anonymous": false,
      "inputs": [
        {
          "indexed": true,
          "internalType": "address",
          "name": "previousOwner",
          "type": "address"
        },
        {
          "indexed": true,
          "internalType": "address",
          "name": "newOwner",
          "type": "address"
        }
      ],
      "name": "OwnershipTransferred",
      "type": "event"
    },
    {
      "inputs": [],
      "name": "owner",
      "outputs": [
        {
          "internalType": "address",
          "name": "",
          "type": "address"
        }
      ],
      "stateMutability": "view",
      "type": "function",
      "constant": true
    },
    {
      "inputs": [],
      "name": "renounceOwnership",
      "outputs": [],
      "stateMutability": "nonpayable",
      "type": "function"
    },
    {
      "inputs": [
        {
          "internalType": "uint256",
          "name": "",
          "type": "uint256"
        }
      ],
      "name": "startupList",
      "outputs": [
        {
          "internalType": "address",
          "name": "",
          "type": "address"
        }
      ],
      "stateMutability": "view",
      "type": "function",
      "constant": true
    },
    {
      "inputs": [
        {
          "internalType": "address",
          "name": "",
          "type": "address"
        }
      ],
      "name": "startups",
      "outputs": [
        {
          "internalType": "string",
          "name": "name",
          "type": "string"
        },
        {
          "internalType": "uint256",
          "name": "registerDate",
          "type": "uint256"
        },
        {
          "internalType": "bool",
          "name": "status",
          "type": "bool"
        },
        {
          "internalType": "bool",
          "name": "hasContract",
          "type": "bool"
        },
        {
          "internalType": "address",
          "name": "startupContractAddress",
          "type": "address"
        },
        {
          "internalType": "uint256",
          "name": "amountTermal",
          "type": "uint256"
        },
        {
          "internalType": "uint256",
          "name": "daiReceived",
          "type": "uint256"
        },
        {
          "internalType": "uint256",
          "name": "daiReturned",
          "type": "uint256"
        },
        {
          "internalType": "uint256",
          "name": "termalReturned",
          "type": "uint256"
        }
      ],
      "stateMutability": "view",
      "type": "function",
      "constant": true
    },
    {
      "inputs": [
        {
          "internalType": "address",
          "name": "newOwner",
          "type": "address"
        }
      ],
      "name": "transferOwnership",
      "outputs": [],
      "stateMutability": "nonpayable",
      "type": "function"
    },
    {
      "inputs": [
        {
          "internalType": "address",
          "name": "_startupWallet",
          "type": "address"
        },
        {
          "internalType": "string",
          "name": "_startupName",
          "type": "string"
        }
      ],
      "name": "createStartup",
      "outputs": [],
      "stateMutability": "nonpayable",
      "type": "function"
    },
    {
      "inputs": [
        {
          "internalType": "address",
          "name": "_startupWallet",
          "type": "address"
        },
        {
          "internalType": "uint256",
          "name": "_initialLoan",
          "type": "uint256"
        },
        {
          "internalType": "uint256",
          "name": "_interestRate",
          "type": "uint256"
        },
        {
          "internalType": "uint256",
          "name": "_maxConvertionRate",
          "type": "uint256"
        },
        {
          "internalType": "uint256",
          "name": "_minConvertionRate",
          "type": "uint256"
        },
        {
          "internalType": "uint256",
          "name": "_termalCoinPercentage",
          "type": "uint256"
        },
        {
          "internalType": "uint256",
          "name": "_stableCoinPercentage",
          "type": "uint256"
        },
        {
          "internalType": "uint256",
          "name": "_maxProjectime",
          "type": "uint256"
        }
      ],
      "name": "createStartupContract",
      "outputs": [],
      "stateMutability": "nonpayable",
      "type": "function"
    },
    {
      "inputs": [
        {
          "internalType": "address",
          "name": "_startupAddress",
          "type": "address"
        }
      ],
      "name": "isValidStartup",
      "outputs": [
        {
          "internalType": "bool",
          "name": "",
          "type": "bool"
        }
      ],
      "stateMutability": "view",
      "type": "function",
      "constant": true
    },
    {
      "inputs": [],
      "name": "getTotalStartups",
      "outputs": [
        {
          "internalType": "uint256",
          "name": "",
          "type": "uint256"
        }
      ],
      "stateMutability": "view",
      "type": "function",
      "constant": true
    },
    {
      "inputs": [
        {
          "internalType": "address",
          "name": "_startupAddress",
          "type": "address"
        },
        {
          "internalType": "bool",
          "name": "_status",
          "type": "bool"
        }
      ],
      "name": "newStartupStatus",
      "outputs": [],
      "stateMutability": "nonpayable",
      "type": "function"
    },
    {
      "inputs": [
        {
          "internalType": "address",
          "name": "_investor",
          "type": "address"
        }
      ],
      "name": "getSignatureStatus",
      "outputs": [
        {
          "internalType": "bool",
          "name": "",
          "type": "bool"
        }
      ],
      "stateMutability": "view",
      "type": "function",
      "constant": true
    },
    {
      "inputs": [
        {
          "internalType": "address",
          "name": "_receiver",
          "type": "address"
        },
        {
          "internalType": "uint256",
          "name": "_amount",
          "type": "uint256"
        }
      ],
      "name": "addDepositDai",
      "outputs": [],
      "stateMutability": "nonpayable",
      "type": "function"
    },
    {
      "inputs": [
        {
          "internalType": "address",
          "name": "_receiver",
          "type": "address"
        },
        {
          "internalType": "uint256",
          "name": "_amount",
          "type": "uint256"
        }
      ],
      "name": "addReturnedDai",
      "outputs": [],
      "stateMutability": "nonpayable",
      "type": "function"
    },
    {
      "inputs": [
        {
          "internalType": "address",
          "name": "_receiver",
          "type": "address"
        },
        {
          "internalType": "uint256",
          "name": "_amount",
          "type": "uint256"
        }
      ],
      "name": "addReturnedTermal",
      "outputs": [],
      "stateMutability": "nonpayable",
      "type": "function"
    }
  ],
  "bytecode": "0x608060405234801561001057600080fd5b5061002d61002261003260201b60201c565b61003a60201b60201c565b6100fe565b600033905090565b60008060009054906101000a900473ffffffffffffffffffffffffffffffffffffffff169050816000806101000a81548173ffffffffffffffffffffffffffffffffffffffff021916908373ffffffffffffffffffffffffffffffffffffffff1602179055508173ffffffffffffffffffffffffffffffffffffffff168173ffffffffffffffffffffffffffffffffffffffff167f8be0079c531659141344cd1fd0a4f28419497f9722a3daafe3b4186f6b6457e060405160405180910390a35050565b6136e4806200010e6000396000f3fe60806040523480156200001157600080fd5b5060043610620001005760003560e01c8063b82e412c1162000099578063e0bb8e6b116200006f578063e0bb8e6b1462000295578063ed6ba4dd14620002b5578063f2fde38b14620002d5578063fed8c23614620002f55762000100565b8063b82e412c1462000217578063c63208a41462000255578063d3cd379b14620002755762000100565b80632aec4e6a11620000db5780632aec4e6a1462000193578063715018a614620001b357806375126d6414620001bf5780638da5cb5b14620001f55762000100565b806301670f5d146200010557806303bd9430146200012757806324a9caa0146200015d575b600080fd5b6200010f62000315565b6040516200011e919062001315565b60405180910390f35b6200014560048036038101906200013f919062001377565b62000322565b604051620001549190620013ee565b60405180910390f35b6200017b60048036038101906200017591906200143c565b62000362565b6040516200018a91906200148b565b60405180910390f35b620001b16004803603810190620001ab9190620014d9565b620003bb565b005b620001bd62000572565b005b620001dd6004803603810190620001d791906200143c565b62000603565b604051620001ec91906200148b565b60405180910390f35b620001ff620006f0565b6040516200020e9190620013ee565b60405180910390f35b6200023560048036038101906200022f91906200143c565b62000719565b6040516200024c99989796959493929190620015c4565b60405180910390f35b6200027360048036038101906200026d91906200166a565b62000831565b005b6200029360048036038101906200028d9190620016b1565b620008dd565b005b620002b36004803603810190620002ad9190620018cb565b62000be0565b005b620002d36004803603810190620002cd91906200166a565b62000f14565b005b620002f36004803603810190620002ed91906200143c565b62000fc0565b005b6200031360048036038101906200030d91906200166a565b620010c4565b005b6000600280549050905090565b600281815481106200033357600080fd5b906000526020600020016000915054906101000a900473ffffffffffffffffffffffffffffffffffffffff1681565b6000600160008373ffffffffffffffffffffffffffffffffffffffff1673ffffffffffffffffffffffffffffffffffffffff16815260200190815260200160002060020160009054906101000a900460ff169050919050565b620003c562001170565b73ffffffffffffffffffffffffffffffffffffffff16620003e5620006f0565b73ffffffffffffffffffffffffffffffffffffffff16146200043e576040517f08c379a0000000000000000000000000000000000000000000000000000000008152600401620004359062001981565b60405180910390fd5b801515600160008473ffffffffffffffffffffffffffffffffffffffff1673ffffffffffffffffffffffffffffffffffffffff16815260200190815260200160002060020160009054906101000a900460ff1615151415620004d7576040517f08c379a0000000000000000000000000000000000000000000000000000000008152600401620004ce9062001a19565b60405180910390fd5b80600160008473ffffffffffffffffffffffffffffffffffffffff1673ffffffffffffffffffffffffffffffffffffffff16815260200190815260200160002060020160006101000a81548160ff0219169083151502179055507f8083c265edfbf4990ea1d34acae1ca957ae66839c462c223de6cdb26f30cfbd4338383604051620005669392919062001a3b565b60405180910390a15050565b6200057c62001170565b73ffffffffffffffffffffffffffffffffffffffff166200059c620006f0565b73ffffffffffffffffffffffffffffffffffffffff1614620005f5576040517f08c379a0000000000000000000000000000000000000000000000000000000008152600401620005ec9062001981565b60405180910390fd5b62000601600062001178565b565b6000600160008373ffffffffffffffffffffffffffffffffffffffff1673ffffffffffffffffffffffffffffffffffffffff16815260200190815260200160002060020160029054906101000a900473ffffffffffffffffffffffffffffffffffffffff1673ffffffffffffffffffffffffffffffffffffffff166351ff48476040518163ffffffff1660e01b815260040160206040518083038186803b158015620006ae57600080fd5b505afa158015620006c3573d6000803e3d6000fd5b505050506040513d601f19601f82011682018060405250810190620006e9919062001a8f565b9050919050565b60008060009054906101000a900473ffffffffffffffffffffffffffffffffffffffff16905090565b60016020528060005260406000206000915090508060000180546200073e9062001af0565b80601f01602080910402602001604051908101604052809291908181526020018280546200076c9062001af0565b8015620007bd5780601f106200079157610100808354040283529160200191620007bd565b820191906000526020600020905b8154815290600101906020018083116200079f57829003601f168201915b5050505050908060010154908060020160009054906101000a900460ff16908060020160019054906101000a900460ff16908060020160029054906101000a900473ffffffffffffffffffffffffffffffffffffffff16908060030154908060040154908060050154908060060154905089565b6200083c8262000362565b6200087e576040517f08c379a0000000000000000000000000000000000000000000000000000000008152600401620008759062001b76565b60405180910390fd5b80600160008473ffffffffffffffffffffffffffffffffffffffff1673ffffffffffffffffffffffffffffffffffffffff1681526020019081526020016000206004016000828254620008d2919062001bc7565b925050819055505050565b620008e762001170565b73ffffffffffffffffffffffffffffffffffffffff1662000907620006f0565b73ffffffffffffffffffffffffffffffffffffffff161462000960576040517f08c379a0000000000000000000000000000000000000000000000000000000008152600401620009579062001981565b60405180910390fd5b6200096b8862000362565b620009ad576040517f08c379a0000000000000000000000000000000000000000000000000000000008152600401620009a49062001c9a565b60405180910390fd5b600160008973ffffffffffffffffffffffffffffffffffffffff1673ffffffffffffffffffffffffffffffffffffffff16815260200190815260200160002060020160019054906101000a900460ff161562000a40576040517f08c379a000000000000000000000000000000000000000000000000000000000815260040162000a379062001d0c565b60405180910390fd5b6000888888888888888860405162000a58906200123c565b62000a6b98979695949392919062001d2e565b604051809103906000f08015801562000a88573d6000803e3d6000fd5b50905060018060008b73ffffffffffffffffffffffffffffffffffffffff1673ffffffffffffffffffffffffffffffffffffffff16815260200190815260200160002060020160016101000a81548160ff02191690831515021790555080600160008b73ffffffffffffffffffffffffffffffffffffffff1673ffffffffffffffffffffffffffffffffffffffff16815260200190815260200160002060020160026101000a81548173ffffffffffffffffffffffffffffffffffffffff021916908373ffffffffffffffffffffffffffffffffffffffff1602179055508073ffffffffffffffffffffffffffffffffffffffff1663f2fde38b336040518263ffffffff1660e01b815260040162000ba19190620013ee565b600060405180830381600087803b15801562000bbc57600080fd5b505af115801562000bd1573d6000803e3d6000fd5b50505050505050505050505050565b62000bea62001170565b73ffffffffffffffffffffffffffffffffffffffff1662000c0a620006f0565b73ffffffffffffffffffffffffffffffffffffffff161462000c63576040517f08c379a000000000000000000000000000000000000000000000000000000000815260040162000c5a9062001981565b60405180910390fd5b600160008373ffffffffffffffffffffffffffffffffffffffff1673ffffffffffffffffffffffffffffffffffffffff16815260200190815260200160002060020160009054906101000a900460ff161562000cf6576040517f08c379a000000000000000000000000000000000000000000000000000000000815260040162000ced9062001e0c565b60405180910390fd5b604051806101200160405280828152602001428152602001600115158152602001600015158152602001600073ffffffffffffffffffffffffffffffffffffffff1681526020016000815260200160008152602001600081526020016000815250600160008473ffffffffffffffffffffffffffffffffffffffff1673ffffffffffffffffffffffffffffffffffffffff168152602001908152602001600020600082015181600001908051906020019062000db49291906200124a565b506020820151816001015560408201518160020160006101000a81548160ff02191690831515021790555060608201518160020160016101000a81548160ff02191690831515021790555060808201518160020160026101000a81548173ffffffffffffffffffffffffffffffffffffffff021916908373ffffffffffffffffffffffffffffffffffffffff16021790555060a0820151816003015560c0820151816004015560e0820151816005015561010082015181600601559050506002829080600181540180825580915050600190039060005260206000200160009091909190916101000a81548173ffffffffffffffffffffffffffffffffffffffff021916908373ffffffffffffffffffffffffffffffffffffffff1602179055507f9c01fa4ff82148506de685ddc052bf11c9682218084bc9850ee6865937631cbf823360405162000f0892919062001e2e565b60405180910390a15050565b62000f1f8262000362565b62000f61576040517f08c379a000000000000000000000000000000000000000000000000000000000815260040162000f589062001b76565b60405180910390fd5b80600160008473ffffffffffffffffffffffffffffffffffffffff1673ffffffffffffffffffffffffffffffffffffffff168152602001908152602001600020600501600082825462000fb5919062001bc7565b925050819055505050565b62000fca62001170565b73ffffffffffffffffffffffffffffffffffffffff1662000fea620006f0565b73ffffffffffffffffffffffffffffffffffffffff161462001043576040517f08c379a00000000000000000000000000000000000000000000000000000000081526004016200103a9062001981565b60405180910390fd5b600073ffffffffffffffffffffffffffffffffffffffff168173ffffffffffffffffffffffffffffffffffffffff161415620010b6576040517f08c379a0000000000000000000000000000000000000000000000000000000008152600401620010ad9062001ed1565b60405180910390fd5b620010c18162001178565b50565b620010cf8262000362565b62001111576040517f08c379a0000000000000000000000000000000000000000000000000000000008152600401620011089062001b76565b60405180910390fd5b80600160008473ffffffffffffffffffffffffffffffffffffffff1673ffffffffffffffffffffffffffffffffffffffff168152602001908152602001600020600601600082825462001165919062001bc7565b925050819055505050565b600033905090565b60008060009054906101000a900473ffffffffffffffffffffffffffffffffffffffff169050816000806101000a81548173ffffffffffffffffffffffffffffffffffffffff021916908373ffffffffffffffffffffffffffffffffffffffff1602179055508173ffffffffffffffffffffffffffffffffffffffff168173ffffffffffffffffffffffffffffffffffffffff167f8be0079c531659141344cd1fd0a4f28419497f9722a3daafe3b4186f6b6457e060405160405180910390a35050565b6117bb8062001ef483390190565b828054620012589062001af0565b90600052602060002090601f0160209004810192826200127c5760008555620012c8565b82601f106200129757805160ff1916838001178555620012c8565b82800160010185558215620012c8579182015b82811115620012c7578251825591602001919060010190620012aa565b5b509050620012d79190620012db565b5090565b5b80821115620012f6576000816000905550600101620012dc565b5090565b6000819050919050565b6200130f81620012fa565b82525050565b60006020820190506200132c600083018462001304565b92915050565b6000604051905090565b600080fd5b600080fd5b6200135181620012fa565b81146200135d57600080fd5b50565b600081359050620013718162001346565b92915050565b60006020828403121562001390576200138f6200133c565b5b6000620013a08482850162001360565b91505092915050565b600073ffffffffffffffffffffffffffffffffffffffff82169050919050565b6000620013d682620013a9565b9050919050565b620013e881620013c9565b82525050565b6000602082019050620014056000830184620013dd565b92915050565b6200141681620013c9565b81146200142257600080fd5b50565b60008135905062001436816200140b565b92915050565b6000602082840312156200145557620014546200133c565b5b6000620014658482850162001425565b91505092915050565b60008115159050919050565b62001485816200146e565b82525050565b6000602082019050620014a260008301846200147a565b92915050565b620014b3816200146e565b8114620014bf57600080fd5b50565b600081359050620014d381620014a8565b92915050565b60008060408385031215620014f357620014f26200133c565b5b6000620015038582860162001425565b92505060206200151685828601620014c2565b9150509250929050565b600081519050919050565b600082825260208201905092915050565b60005b838110156200155c5780820151818401526020810190506200153f565b838111156200156c576000848401525b50505050565b6000601f19601f8301169050919050565b6000620015908262001520565b6200159c81856200152b565b9350620015ae8185602086016200153c565b620015b98162001572565b840191505092915050565b6000610120820190508181036000830152620015e1818c62001583565b9050620015f2602083018b62001304565b62001601604083018a6200147a565b6200161060608301896200147a565b6200161f6080830188620013dd565b6200162e60a083018762001304565b6200163d60c083018662001304565b6200164c60e083018562001304565b6200165c61010083018462001304565b9a9950505050505050505050565b600080604083850312156200168457620016836200133c565b5b6000620016948582860162001425565b9250506020620016a78582860162001360565b9150509250929050565b600080600080600080600080610100898b031215620016d557620016d46200133c565b5b6000620016e58b828c0162001425565b9850506020620016f88b828c0162001360565b97505060406200170b8b828c0162001360565b96505060606200171e8b828c0162001360565b9550506080620017318b828c0162001360565b94505060a0620017448b828c0162001360565b93505060c0620017578b828c0162001360565b92505060e06200176a8b828c0162001360565b9150509295985092959890939650565b600080fd5b600080fd5b7f4e487b7100000000000000000000000000000000000000000000000000000000600052604160045260246000fd5b620017be8262001572565b810181811067ffffffffffffffff82111715620017e057620017df62001784565b5b80604052505050565b6000620017f562001332565b9050620018038282620017b3565b919050565b600067ffffffffffffffff82111562001826576200182562001784565b5b620018318262001572565b9050602081019050919050565b82818337600083830152505050565b6000620018646200185e8462001808565b620017e9565b9050828152602081018484840111156200188357620018826200177f565b5b620018908482856200183e565b509392505050565b600082601f830112620018b057620018af6200177a565b5b8135620018c28482602086016200184d565b91505092915050565b60008060408385031215620018e557620018e46200133c565b5b6000620018f58582860162001425565b925050602083013567ffffffffffffffff81111562001919576200191862001341565b5b620019278582860162001898565b9150509250929050565b7f4f776e61626c653a2063616c6c6572206973206e6f7420746865206f776e6572600082015250565b6000620019696020836200152b565b9150620019768262001931565b602082019050919050565b600060208201905081810360008301526200199c816200195a565b9050919050565b7f4e657720696e766573746f722773207374617475732073686f756c642062652060008201527f646966666572656e742100000000000000000000000000000000000000000000602082015250565b600062001a01602a836200152b565b915062001a0e82620019a3565b604082019050919050565b6000602082019050818103600083015262001a3481620019f2565b9050919050565b600060608201905062001a526000830186620013dd565b62001a616020830185620013dd565b62001a7060408301846200147a565b949350505050565b60008151905062001a8981620014a8565b92915050565b60006020828403121562001aa85762001aa76200133c565b5b600062001ab88482850162001a78565b91505092915050565b7f4e487b7100000000000000000000000000000000000000000000000000000000600052602260045260246000fd5b6000600282049050600182168062001b0957607f821691505b6020821081141562001b205762001b1f62001ac1565b5b50919050565b7f496e766573746f72206e6f742072656769737465726564210000000000000000600082015250565b600062001b5e6018836200152b565b915062001b6b8262001b26565b602082019050919050565b6000602082019050818103600083015262001b918162001b4f565b9050919050565b7f4e487b7100000000000000000000000000000000000000000000000000000000600052601160045260246000fd5b600062001bd482620012fa565b915062001be183620012fa565b9250827fffffffffffffffffffffffffffffffffffffffffffffffffffffffffffffffff0382111562001c195762001c1862001b98565b5b828201905092915050565b7f537461727475702070726f66696c65206973206e6f7420612076616c6964206360008201527f6f6e747261637400000000000000000000000000000000000000000000000000602082015250565b600062001c826027836200152b565b915062001c8f8262001c24565b604082019050919050565b6000602082019050818103600083015262001cb58162001c73565b9050919050565b7f5374617274757020686173206120636f6e747261637400000000000000000000600082015250565b600062001cf46016836200152b565b915062001d018262001cbc565b602082019050919050565b6000602082019050818103600083015262001d278162001ce5565b9050919050565b60006101008201905062001d46600083018b620013dd565b62001d55602083018a62001304565b62001d64604083018962001304565b62001d73606083018862001304565b62001d82608083018762001304565b62001d9160a083018662001304565b62001da060c083018562001304565b62001daf60e083018462001304565b9998505050505050505050565b7f5374617274757020697320726567697374657265642100000000000000000000600082015250565b600062001df46016836200152b565b915062001e018262001dbc565b602082019050919050565b6000602082019050818103600083015262001e278162001de5565b9050919050565b600060408201905062001e456000830185620013dd565b62001e546020830184620013dd565b9392505050565b7f4f776e61626c653a206e6577206f776e657220697320746865207a65726f206160008201527f6464726573730000000000000000000000000000000000000000000000000000602082015250565b600062001eb96026836200152b565b915062001ec68262001e5b565b604082019050919050565b6000602082019050818103600083015262001eec8162001eaa565b905091905056fe60806040523480156200001157600080fd5b50604051620017bb380380620017bb8339818101604052810190620000379190620004c9565b620000576200004b6200017860201b60201c565b6200018060201b60201c565b87600160006101000a81548173ffffffffffffffffffffffffffffffffffffffff021916908373ffffffffffffffffffffffffffffffffffffffff16021790555086600281905550426003819055506000600460006101000a81548160ff021916908315150217905550856005819055508460068190555083600781905550826008819055508160098190555080600e8190555062000103600360026003600a6200024460201b60201c565b7fd912e0db3997b8efa782c542ab3e167df8ac40330751f5c28e1d35632d6ffadf600160009054906101000a900473ffffffffffffffffffffffffffffffffffffffff16600254600354600554604051620001629493929190620005b4565b60405180910390a1505050505050505062000805565b600033905090565b60008060009054906101000a900473ffffffffffffffffffffffffffffffffffffffff169050816000806101000a81548173ffffffffffffffffffffffffffffffffffffffff021916908373ffffffffffffffffffffffffffffffffffffffff1602179055508173ffffffffffffffffffffffffffffffffffffffff168173ffffffffffffffffffffffffffffffffffffffff167f8be0079c531659141344cd1fd0a4f28419497f9722a3daafe3b4186f6b6457e060405160405180910390a35050565b620002546200017860201b60201c565b73ffffffffffffffffffffffffffffffffffffffff166200027a620003e360201b60201c565b73ffffffffffffffffffffffffffffffffffffffff1614620002d3576040517f08c379a0000000000000000000000000000000000000000000000000000000008152600401620002ca9062000662565b60405180910390fd5b6000620002ef84866200040c60201b620008af1790919060201c565b905060006200030d83856200040c60201b620008af1790919060201c565b905060006200032b82846200040c60201b620008af1790919060201c565b9050600e5481111562000375576040517f08c379a00000000000000000000000000000000000000000000000000000000081526004016200036c90620006fa565b60405180910390fd5b86600a8190555085600b8190555084600c8190555083600d819055507fd9d73219186308fb5cd0317d12fd0e326d925501063d4596d5e84dd1708c8ffa33600a54600b54600c54600d54604051620003d29594939291906200071c565b60405180910390a150505050505050565b60008060009054906101000a900473ffffffffffffffffffffffffffffffffffffffff16905090565b600081836200041c9190620007a8565b905092915050565b600080fd5b600073ffffffffffffffffffffffffffffffffffffffff82169050919050565b6000620004568262000429565b9050919050565b620004688162000449565b81146200047457600080fd5b50565b60008151905062000488816200045d565b92915050565b6000819050919050565b620004a3816200048e565b8114620004af57600080fd5b50565b600081519050620004c38162000498565b92915050565b600080600080600080600080610100898b031215620004ed57620004ec62000424565b5b6000620004fd8b828c0162000477565b9850506020620005108b828c01620004b2565b9750506040620005238b828c01620004b2565b9650506060620005368b828c01620004b2565b9550506080620005498b828c01620004b2565b94505060a06200055c8b828c01620004b2565b93505060c06200056f8b828c01620004b2565b92505060e0620005828b828c01620004b2565b9150509295985092959890939650565b6200059d8162000449565b82525050565b620005ae816200048e565b82525050565b6000608082019050620005cb600083018762000592565b620005da6020830186620005a3565b620005e96040830185620005a3565b620005f86060830184620005a3565b95945050505050565b600082825260208201905092915050565b7f4f776e61626c653a2063616c6c6572206973206e6f7420746865206f776e6572600082015250565b60006200064a60208362000601565b9150620006578262000612565b602082019050919050565b600060208201905081810360008301526200067d816200063b565b9050919050565b7f53686f756c64206265206c657373206f7220657175616c20746f206d6178696d60008201527f756d2070726f6a6563742074696d650000000000000000000000000000000000602082015250565b6000620006e2602f8362000601565b9150620006ef8262000684565b604082019050919050565b600060208201905081810360008301526200071581620006d3565b9050919050565b600060a08201905062000733600083018862000592565b620007426020830187620005a3565b620007516040830186620005a3565b620007606060830185620005a3565b6200076f6080830184620005a3565b9695505050505050565b7f4e487b7100000000000000000000000000000000000000000000000000000000600052601160045260246000fd5b6000620007b5826200048e565b9150620007c2836200048e565b9250827fffffffffffffffffffffffffffffffffffffffffffffffffffffffffffffffff03821115620007fa57620007f962000779565b5b828201905092915050565b610fa680620008156000396000f3fe608060405234801561001057600080fd5b506004361061012c5760003560e01c806374cf105e116100ad578063b19ea0a611610071578063b19ea0a6146102c9578063b2e062c0146102e7578063b2e5952714610305578063d35f33bf14610323578063f2fde38b146103415761012c565b806374cf105e1461023357806376267224146102515780637c3a00fd1461026f5780637e28f99c1461028d5780638da5cb5b146102ab5761012c565b80634f554dea116100f45780634f554dea146101b157806351ff4847146101cf578063589ac562146101ed5780636abb37321461020b578063715018a6146102295761012c565b80631b48a32114610131578063323046b11461014f578063368d88301461016d578063390c193d1461018b5780634f4d5c10146101a7575b600080fd5b61013961035d565b60405161014691906109aa565b60405180910390f35b610157610363565b60405161016491906109aa565b60405180910390f35b610175610369565b60405161018291906109aa565b60405180910390f35b6101a560048036038101906101a091906109f6565b61036f565b005b6101af6104e1565b005b6101b9610666565b6040516101c691906109aa565b60405180910390f35b6101d761066c565b6040516101e49190610a78565b60405180910390f35b6101f561067f565b60405161020291906109aa565b60405180910390f35b610213610685565b6040516102209190610ad4565b60405180910390f35b6102316106ab565b005b61023b610733565b60405161024891906109aa565b60405180910390f35b610259610739565b60405161026691906109aa565b60405180910390f35b61027761073f565b60405161028491906109aa565b60405180910390f35b610295610745565b6040516102a291906109aa565b60405180910390f35b6102b361074b565b6040516102c09190610ad4565b60405180910390f35b6102d1610774565b6040516102de91906109aa565b60405180910390f35b6102ef61077a565b6040516102fc91906109aa565b60405180910390f35b61030d6107ab565b60405161031a91906109aa565b60405180910390f35b61032b6107b1565b60405161033891906109aa565b60405180910390f35b61035b60048036038101906103569190610b1b565b6107b7565b005b60025481565b60035481565b600a5481565b6103776108c5565b73ffffffffffffffffffffffffffffffffffffffff1661039561074b565b73ffffffffffffffffffffffffffffffffffffffff16146103eb576040517f08c379a00000000000000000000000000000000000000000000000000000000081526004016103e290610ba5565b60405180910390fd5b600061040084866108af90919063ffffffff16565b9050600061041783856108af90919063ffffffff16565b9050600061042e82846108af90919063ffffffff16565b9050600e54811115610475576040517f08c379a000000000000000000000000000000000000000000000000000000000815260040161046c90610c37565b60405180910390fd5b86600a8190555085600b8190555084600c8190555083600d819055507fd9d73219186308fb5cd0317d12fd0e326d925501063d4596d5e84dd1708c8ffa33600a54600b54600c54600d546040516104d0959493929190610c57565b60405180910390a150505050505050565b3373ffffffffffffffffffffffffffffffffffffffff16600160009054906101000a900473ffffffffffffffffffffffffffffffffffffffff1673ffffffffffffffffffffffffffffffffffffffff1614610571576040517f08c379a000000000000000000000000000000000000000000000000000000000815260040161056890610cf6565b60405180910390fd5b600460009054906101000a900460ff16156105c1576040517f08c379a00000000000000000000000000000000000000000000000000000000081526004016105b890610d62565b60405180910390fd5b60006105cb61077a565b1161060b576040517f08c379a000000000000000000000000000000000000000000000000000000000815260040161060290610df4565b60405180910390fd5b6001600460006101000a81548160ff0219169083151502179055507f51a1a099cba9a81d06bf524f39eed0ce75f3ffdcdf2a0fcc2f83f04f80d65aca336001334260405161065c9493929190610e14565b60405180910390a1565b600c5481565b600460009054906101000a900460ff1681565b60095481565b600160009054906101000a900473ffffffffffffffffffffffffffffffffffffffff1681565b6106b36108c5565b73ffffffffffffffffffffffffffffffffffffffff166106d161074b565b73ffffffffffffffffffffffffffffffffffffffff1614610727576040517f08c379a000000000000000000000000000000000000000000000000000000000815260040161071e90610ba5565b60405180910390fd5b61073160006108cd565b565b600e5481565b60085481565b60055481565b60075481565b60008060009054906101000a900473ffffffffffffffffffffffffffffffffffffffff16905090565b600d5481565b6000600d54600c54600b54600a546107929190610e88565b61079c9190610e88565b6107a69190610e88565b905090565b600b5481565b60065481565b6107bf6108c5565b73ffffffffffffffffffffffffffffffffffffffff166107dd61074b565b73ffffffffffffffffffffffffffffffffffffffff1614610833576040517f08c379a000000000000000000000000000000000000000000000000000000000815260040161082a90610ba5565b60405180910390fd5b600073ffffffffffffffffffffffffffffffffffffffff168173ffffffffffffffffffffffffffffffffffffffff1614156108a3576040517f08c379a000000000000000000000000000000000000000000000000000000000815260040161089a90610f50565b60405180910390fd5b6108ac816108cd565b50565b600081836108bd9190610e88565b905092915050565b600033905090565b60008060009054906101000a900473ffffffffffffffffffffffffffffffffffffffff169050816000806101000a81548173ffffffffffffffffffffffffffffffffffffffff021916908373ffffffffffffffffffffffffffffffffffffffff1602179055508173ffffffffffffffffffffffffffffffffffffffff168173ffffffffffffffffffffffffffffffffffffffff167f8be0079c531659141344cd1fd0a4f28419497f9722a3daafe3b4186f6b6457e060405160405180910390a35050565b6000819050919050565b6109a481610991565b82525050565b60006020820190506109bf600083018461099b565b92915050565b600080fd5b6109d381610991565b81146109de57600080fd5b50565b6000813590506109f0816109ca565b92915050565b60008060008060808587031215610a1057610a0f6109c5565b5b6000610a1e878288016109e1565b9450506020610a2f878288016109e1565b9350506040610a40878288016109e1565b9250506060610a51878288016109e1565b91505092959194509250565b60008115159050919050565b610a7281610a5d565b82525050565b6000602082019050610a8d6000830184610a69565b92915050565b600073ffffffffffffffffffffffffffffffffffffffff82169050919050565b6000610abe82610a93565b9050919050565b610ace81610ab3565b82525050565b6000602082019050610ae96000830184610ac5565b92915050565b610af881610ab3565b8114610b0357600080fd5b50565b600081359050610b1581610aef565b92915050565b600060208284031215610b3157610b306109c5565b5b6000610b3f84828501610b06565b91505092915050565b600082825260208201905092915050565b7f4f776e61626c653a2063616c6c6572206973206e6f7420746865206f776e6572600082015250565b6000610b8f602083610b48565b9150610b9a82610b59565b602082019050919050565b60006020820190508181036000830152610bbe81610b82565b9050919050565b7f53686f756c64206265206c657373206f7220657175616c20746f206d6178696d60008201527f756d2070726f6a6563742074696d650000000000000000000000000000000000602082015250565b6000610c21602f83610b48565b9150610c2c82610bc5565b604082019050919050565b60006020820190508181036000830152610c5081610c14565b9050919050565b600060a082019050610c6c6000830188610ac5565b610c79602083018761099b565b610c86604083018661099b565b610c93606083018561099b565b610ca0608083018461099b565b9695505050505050565b7f4f6e6c7920737461727475702073686f756c6420616363657074210000000000600082015250565b6000610ce0601b83610b48565b9150610ceb82610caa565b602082019050919050565b60006020820190508181036000830152610d0f81610cd3565b9050919050565b7f436f6e747261637420686173206265656e207369676e65642100000000000000600082015250565b6000610d4c601983610b48565b9150610d5782610d16565b602082019050919050565b60006020820190508181036000830152610d7b81610d3f565b9050919050565b7f546f74616c206d6f6e7468732073686f756c642062652067726561746572207460008201527f68616e207a65726f210000000000000000000000000000000000000000000000602082015250565b6000610dde602983610b48565b9150610de982610d82565b604082019050919050565b60006020820190508181036000830152610e0d81610dd1565b9050919050565b6000608082019050610e296000830187610ac5565b610e366020830186610a69565b610e436040830185610ac5565b610e50606083018461099b565b95945050505050565b7f4e487b7100000000000000000000000000000000000000000000000000000000600052601160045260246000fd5b6000610e9382610991565b9150610e9e83610991565b9250827fffffffffffffffffffffffffffffffffffffffffffffffffffffffffffffffff03821115610ed357610ed2610e59565b5b828201905092915050565b7f4f776e61626c653a206e6577206f776e657220697320746865207a65726f206160008201527f6464726573730000000000000000000000000000000000000000000000000000602082015250565b6000610f3a602683610b48565b9150610f4582610ede565b604082019050919050565b60006020820190508181036000830152610f6981610f2d565b905091905056fea2646970667358221220c660e6e0773fc242967496f969506be0423ad2c70a8eaa69e36426c6f068572b64736f6c63430008090033a2646970667358221220d18c65cb9318edc402b6601e4884192e96146f5f4315009950ff6c4e47dbe7f964736f6c63430008090033",
  "immutableReferences": {},
  "source": "// SPDX-License-Identifier: MIT\r\npragma solidity ^0.8.0;\r\n\r\nimport \"./StartupContract.sol\";\r\nimport \"@openzeppelin/contracts/access/Ownable.sol\";\r\n\r\ncontract StartupsHandler is Ownable {\r\n    \r\n    struct Startup{\r\n        string name;     //Startup's startupName\r\n        uint registerDate;  //Register Date\r\n        bool status;        //startup's status: true or false;\r\n        bool hasContract;\r\n        address startupContractAddress;\r\n        uint amountTermal;\r\n        uint daiReceived;\r\n        uint daiReturned;\r\n        uint termalReturned;\r\n    }\r\n\r\n    mapping (address => Startup) public startups;\r\n    address[] public startupList;\r\n    \r\n    event LogCreateStartup(address _newStartupAddress, address _owner);\r\n    event LogNewStartupStatus(address _owner, address _startupAddress, bool _status);\r\n    event LogReturnTermal(address _sender, address _contract, uint _amount);\r\n\r\n    constructor() {}\r\n\r\n    function createStartup(\r\n            address _startupWallet, \r\n            string memory _startupName\r\n            )\r\n        onlyOwner()\r\n        external\r\n    {\r\n        require(!startups[_startupWallet].status, \"Startup is registered!\");\r\n        startups[_startupWallet] = Startup(_startupName, block.timestamp, true, false, address(0), 0, 0, 0, 0);\r\n        startupList.push(_startupWallet);\r\n        emit LogCreateStartup(_startupWallet, msg.sender);\r\n    }\r\n\r\n    function createStartupContract(\r\n            address _startupWallet, \r\n            uint _initialLoan,\r\n            uint _interestRate,\r\n            uint _maxConvertionRate,\r\n            uint _minConvertionRate,\r\n            uint _termalCoinPercentage,\r\n            uint _stableCoinPercentage,\r\n            uint _maxProjectime\r\n        )\r\n        onlyOwner()\r\n        external\r\n    {\r\n        require(isValidStartup(_startupWallet), \"Startup profile is not a valid contract\");\r\n        require(!startups[_startupWallet].hasContract, \"Startup has a contract\");\r\n        \r\n        StartupContract newStartupContract = new StartupContract(\r\n                _startupWallet, \r\n                _initialLoan, \r\n                _interestRate, \r\n                _maxConvertionRate, \r\n                _minConvertionRate, \r\n                _termalCoinPercentage, \r\n                _stableCoinPercentage, \r\n                _maxProjectime\r\n                );\r\n        startups[_startupWallet].hasContract = true;\r\n        startups[_startupWallet].startupContractAddress = address(newStartupContract);\r\n        newStartupContract.transferOwnership(msg.sender);\r\n    }\r\n    \r\n    function isValidStartup(address _startupAddress)\r\n        public\r\n        view\r\n        returns(bool)\r\n    {\r\n        return startups[_startupAddress].status;\r\n    }\r\n    \r\n    function getTotalStartups()\r\n        external\r\n        view\r\n        returns (uint)\r\n    {\r\n        return startupList.length;\r\n    }\r\n\r\n    //This function validate the startup's status before changing it.\r\n    function newStartupStatus(address _startupAddress, bool _status)\r\n        onlyOwner()\r\n        public\r\n    {\r\n        require(startups[_startupAddress].status != _status, \"New investor's status should be different!\");\r\n        startups[_startupAddress].status = _status;\r\n        emit LogNewStartupStatus(msg.sender, _startupAddress, _status);\r\n    }\r\n\r\n    function getSignatureStatus(address _investor)\r\n        public\r\n        view\r\n        returns (bool)\r\n    {\r\n        return StartupContract(startups[_investor].startupContractAddress).signature();\r\n    }\r\n\r\n    function addDepositDai(address _receiver, uint _amount) external {\r\n        require(isValidStartup(_receiver), \"Investor not registered!\");\r\n        \r\n        startups[_receiver].daiReceived += _amount;\r\n    }\r\n\r\n    function addReturnedDai(address _receiver, uint _amount) external {\r\n        require(isValidStartup(_receiver), \"Investor not registered!\");\r\n        \r\n        startups[_receiver].daiReturned += _amount;\r\n    }\r\n\r\n    function addReturnedTermal(address _receiver, uint _amount) external {\r\n        require(isValidStartup(_receiver), \"Investor not registered!\");\r\n        \r\n        startups[_receiver].termalReturned += _amount;\r\n    }\r\n\r\n}",
  "sourcePath": "/Users/gimer/Projects/TermalPolygon/contracts/StartupsHandler.sol",
  "compiler": {
    "name": "solc",
    "version": "0.8.9+commit.e5eed63a.Emscripten.clang"
  },
  "schemaVersion": "3.4.4",
  "updatedAt": "2022-02-03T06:40:19.031Z",
  "networkType": "ethereum",
  "devdoc": {
    "kind": "dev",
    "methods": {
      "owner()": {
        "details": "Returns the address of the current owner."
      },
      "renounceOwnership()": {
        "details": "Leaves the contract without owner. It will not be possible to call `onlyOwner` functions anymore. Can only be called by the current owner. NOTE: Renouncing ownership will leave the contract without an owner, thereby removing any functionality that is only available to the owner."
      },
      "transferOwnership(address)": {
        "details": "Transfers ownership of the contract to a new account (`newOwner`). Can only be called by the current owner."
      }
    },
    "version": 1
  },
  "userdoc": {
    "kind": "user",
    "methods": {},
    "version": 1
  }
}