{
  "contractName": "StartupContract",
  "abi": [
    {
      "inputs": [
        {
          "internalType": "address",
          "name": "_startupWallet",
          "type": "address"
        },
        {
          "internalType": "uint256",
          "name": "_initialLoan",
          "type": "uint256"
        },
        {
          "internalType": "uint256",
          "name": "_interestRate",
          "type": "uint256"
        },
        {
          "internalType": "uint256",
          "name": "_maxConvertionRate",
          "type": "uint256"
        },
        {
          "internalType": "uint256",
          "name": "_minConvertionRate",
          "type": "uint256"
        },
        {
          "internalType": "uint256",
          "name": "_termalCoinPercentage",
          "type": "uint256"
        },
        {
          "internalType": "uint256",
          "name": "_stableCoinPercentage",
          "type": "uint256"
        },
        {
          "internalType": "uint256",
          "name": "_maxProjectTime",
          "type": "uint256"
        }
      ],
      "stateMutability": "nonpayable",
      "type": "constructor"
    },
    {
      "anonymous": false,
      "inputs": [
        {
          "indexed": false,
          "internalType": "address",
          "name": "_startupProfile",
          "type": "address"
        },
        {
          "indexed": false,
          "internalType": "uint256",
          "name": "_initialLoan",
          "type": "uint256"
        },
        {
          "indexed": false,
          "internalType": "uint256",
          "name": "_date",
          "type": "uint256"
        },
        {
          "indexed": false,
          "internalType": "uint256",
          "name": "_interestRate",
          "type": "uint256"
        }
      ],
      "name": "LogContractCreation",
      "type": "event"
    },
    {
      "anonymous": false,
      "inputs": [
        {
          "indexed": false,
          "internalType": "address",
          "name": "_owner",
          "type": "address"
        },
        {
          "indexed": false,
          "internalType": "uint256",
          "name": "_fundingMonths",
          "type": "uint256"
        },
        {
          "indexed": false,
          "internalType": "uint256",
          "name": "_honeymoon",
          "type": "uint256"
        },
        {
          "indexed": false,
          "internalType": "uint256",
          "name": "_interestOnly",
          "type": "uint256"
        },
        {
          "indexed": false,
          "internalType": "uint256",
          "name": "_interestAndCapital",
          "type": "uint256"
        }
      ],
      "name": "LogSetMonths",
      "type": "event"
    },
    {
      "anonymous": false,
      "inputs": [
        {
          "indexed": false,
          "internalType": "address",
          "name": "_owner",
          "type": "address"
        },
        {
          "indexed": false,
          "internalType": "address",
          "name": "_newOwner",
          "type": "address"
        }
      ],
      "name": "LogSetNewOwner",
      "type": "event"
    },
    {
      "anonymous": false,
      "inputs": [
        {
          "indexed": false,
          "internalType": "address",
          "name": "_sender",
          "type": "address"
        },
        {
          "indexed": false,
          "internalType": "bool",
          "name": "_signature",
          "type": "bool"
        },
        {
          "indexed": false,
          "internalType": "address",
          "name": "_startupProfile",
          "type": "address"
        },
        {
          "indexed": false,
          "internalType": "uint256",
          "name": "",
          "type": "uint256"
        }
      ],
      "name": "LogStartupSingature",
      "type": "event"
    },
    {
      "anonymous": false,
      "inputs": [
        {
          "indexed": true,
          "internalType": "address",
          "name": "previousOwner",
          "type": "address"
        },
        {
          "indexed": true,
          "internalType": "address",
          "name": "newOwner",
          "type": "address"
        }
      ],
      "name": "OwnershipTransferred",
      "type": "event"
    },
    {
      "inputs": [],
      "name": "date",
      "outputs": [
        {
          "internalType": "uint256",
          "name": "",
          "type": "uint256"
        }
      ],
      "stateMutability": "view",
      "type": "function"
    },
    {
      "inputs": [],
      "name": "fundingMonths",
      "outputs": [
        {
          "internalType": "uint256",
          "name": "",
          "type": "uint256"
        }
      ],
      "stateMutability": "view",
      "type": "function"
    },
    {
      "inputs": [],
      "name": "honeymoon",
      "outputs": [
        {
          "internalType": "uint256",
          "name": "",
          "type": "uint256"
        }
      ],
      "stateMutability": "view",
      "type": "function"
    },
    {
      "inputs": [],
      "name": "initialLoan",
      "outputs": [
        {
          "internalType": "uint256",
          "name": "",
          "type": "uint256"
        }
      ],
      "stateMutability": "view",
      "type": "function"
    },
    {
      "inputs": [],
      "name": "interestAndCapital",
      "outputs": [
        {
          "internalType": "uint256",
          "name": "",
          "type": "uint256"
        }
      ],
      "stateMutability": "view",
      "type": "function"
    },
    {
      "inputs": [],
      "name": "interestOnly",
      "outputs": [
        {
          "internalType": "uint256",
          "name": "",
          "type": "uint256"
        }
      ],
      "stateMutability": "view",
      "type": "function"
    },
    {
      "inputs": [],
      "name": "interestRate",
      "outputs": [
        {
          "internalType": "uint256",
          "name": "",
          "type": "uint256"
        }
      ],
      "stateMutability": "view",
      "type": "function"
    },
    {
      "inputs": [],
      "name": "maxConvertionRate",
      "outputs": [
        {
          "internalType": "uint256",
          "name": "",
          "type": "uint256"
        }
      ],
      "stateMutability": "view",
      "type": "function"
    },
    {
      "inputs": [],
      "name": "maxProjectTime",
      "outputs": [
        {
          "internalType": "uint256",
          "name": "",
          "type": "uint256"
        }
      ],
      "stateMutability": "view",
      "type": "function"
    },
    {
      "inputs": [],
      "name": "minConvertionRate",
      "outputs": [
        {
          "internalType": "uint256",
          "name": "",
          "type": "uint256"
        }
      ],
      "stateMutability": "view",
      "type": "function"
    },
    {
      "inputs": [],
      "name": "owner",
      "outputs": [
        {
          "internalType": "address",
          "name": "",
          "type": "address"
        }
      ],
      "stateMutability": "view",
      "type": "function"
    },
    {
      "inputs": [],
      "name": "renounceOwnership",
      "outputs": [],
      "stateMutability": "nonpayable",
      "type": "function"
    },
    {
      "inputs": [],
      "name": "signature",
      "outputs": [
        {
          "internalType": "bool",
          "name": "",
          "type": "bool"
        }
      ],
      "stateMutability": "view",
      "type": "function"
    },
    {
      "inputs": [],
      "name": "stableCoinPercentage",
      "outputs": [
        {
          "internalType": "uint256",
          "name": "",
          "type": "uint256"
        }
      ],
      "stateMutability": "view",
      "type": "function"
    },
    {
      "inputs": [],
      "name": "startupWallet",
      "outputs": [
        {
          "internalType": "address",
          "name": "",
          "type": "address"
        }
      ],
      "stateMutability": "view",
      "type": "function"
    },
    {
      "inputs": [],
      "name": "termalCoinPercentage",
      "outputs": [
        {
          "internalType": "uint256",
          "name": "",
          "type": "uint256"
        }
      ],
      "stateMutability": "view",
      "type": "function"
    },
    {
      "inputs": [
        {
          "internalType": "address",
          "name": "newOwner",
          "type": "address"
        }
      ],
      "name": "transferOwnership",
      "outputs": [],
      "stateMutability": "nonpayable",
      "type": "function"
    },
    {
      "inputs": [
        {
          "internalType": "uint256",
          "name": "_fundingMonths",
          "type": "uint256"
        },
        {
          "internalType": "uint256",
          "name": "_honeymoon",
          "type": "uint256"
        },
        {
          "internalType": "uint256",
          "name": "_interestOnly",
          "type": "uint256"
        },
        {
          "internalType": "uint256",
          "name": "_interestAndCapital",
          "type": "uint256"
        }
      ],
      "name": "setMonths",
      "outputs": [],
      "stateMutability": "nonpayable",
      "type": "function"
    },
    {
      "inputs": [],
      "name": "getTotalMonths",
      "outputs": [
        {
          "internalType": "uint256",
          "name": "",
          "type": "uint256"
        }
      ],
      "stateMutability": "view",
      "type": "function"
    },
    {
      "inputs": [],
      "name": "startupSignature",
      "outputs": [],
      "stateMutability": "nonpayable",
      "type": "function"
    }
  ],
  "bytecode": "0x60806040523480156200001157600080fd5b50604051620017bb380380620017bb8339818101604052810190620000379190620004c9565b620000576200004b6200017860201b60201c565b6200018060201b60201c565b87600160006101000a81548173ffffffffffffffffffffffffffffffffffffffff021916908373ffffffffffffffffffffffffffffffffffffffff16021790555086600281905550426003819055506000600460006101000a81548160ff021916908315150217905550856005819055508460068190555083600781905550826008819055508160098190555080600e8190555062000103600360026003600a6200024460201b60201c565b7fd912e0db3997b8efa782c542ab3e167df8ac40330751f5c28e1d35632d6ffadf600160009054906101000a900473ffffffffffffffffffffffffffffffffffffffff16600254600354600554604051620001629493929190620005b4565b60405180910390a1505050505050505062000805565b600033905090565b60008060009054906101000a900473ffffffffffffffffffffffffffffffffffffffff169050816000806101000a81548173ffffffffffffffffffffffffffffffffffffffff021916908373ffffffffffffffffffffffffffffffffffffffff1602179055508173ffffffffffffffffffffffffffffffffffffffff168173ffffffffffffffffffffffffffffffffffffffff167f8be0079c531659141344cd1fd0a4f28419497f9722a3daafe3b4186f6b6457e060405160405180910390a35050565b620002546200017860201b60201c565b73ffffffffffffffffffffffffffffffffffffffff166200027a620003e360201b60201c565b73ffffffffffffffffffffffffffffffffffffffff1614620002d3576040517f08c379a0000000000000000000000000000000000000000000000000000000008152600401620002ca9062000662565b60405180910390fd5b6000620002ef84866200040c60201b620008af1790919060201c565b905060006200030d83856200040c60201b620008af1790919060201c565b905060006200032b82846200040c60201b620008af1790919060201c565b9050600e5481111562000375576040517f08c379a00000000000000000000000000000000000000000000000000000000081526004016200036c90620006fa565b60405180910390fd5b86600a8190555085600b8190555084600c8190555083600d819055507fd9d73219186308fb5cd0317d12fd0e326d925501063d4596d5e84dd1708c8ffa33600a54600b54600c54600d54604051620003d29594939291906200071c565b60405180910390a150505050505050565b60008060009054906101000a900473ffffffffffffffffffffffffffffffffffffffff16905090565b600081836200041c9190620007a8565b905092915050565b600080fd5b600073ffffffffffffffffffffffffffffffffffffffff82169050919050565b6000620004568262000429565b9050919050565b620004688162000449565b81146200047457600080fd5b50565b60008151905062000488816200045d565b92915050565b6000819050919050565b620004a3816200048e565b8114620004af57600080fd5b50565b600081519050620004c38162000498565b92915050565b600080600080600080600080610100898b031215620004ed57620004ec62000424565b5b6000620004fd8b828c0162000477565b9850506020620005108b828c01620004b2565b9750506040620005238b828c01620004b2565b9650506060620005368b828c01620004b2565b9550506080620005498b828c01620004b2565b94505060a06200055c8b828c01620004b2565b93505060c06200056f8b828c01620004b2565b92505060e0620005828b828c01620004b2565b9150509295985092959890939650565b6200059d8162000449565b82525050565b620005ae816200048e565b82525050565b6000608082019050620005cb600083018762000592565b620005da6020830186620005a3565b620005e96040830185620005a3565b620005f86060830184620005a3565b95945050505050565b600082825260208201905092915050565b7f4f776e61626c653a2063616c6c6572206973206e6f7420746865206f776e6572600082015250565b60006200064a60208362000601565b9150620006578262000612565b602082019050919050565b600060208201905081810360008301526200067d816200063b565b9050919050565b7f53686f756c64206265206c657373206f7220657175616c20746f206d6178696d60008201527f756d2070726f6a6563742074696d650000000000000000000000000000000000602082015250565b6000620006e2602f8362000601565b9150620006ef8262000684565b604082019050919050565b600060208201905081810360008301526200071581620006d3565b9050919050565b600060a08201905062000733600083018862000592565b620007426020830187620005a3565b620007516040830186620005a3565b620007606060830185620005a3565b6200076f6080830184620005a3565b9695505050505050565b7f4e487b7100000000000000000000000000000000000000000000000000000000600052601160045260246000fd5b6000620007b5826200048e565b9150620007c2836200048e565b9250827fffffffffffffffffffffffffffffffffffffffffffffffffffffffffffffffff03821115620007fa57620007f962000779565b5b828201905092915050565b610fa680620008156000396000f3fe608060405234801561001057600080fd5b506004361061012c5760003560e01c806374cf105e116100ad578063b19ea0a611610071578063b19ea0a6146102c9578063b2e062c0146102e7578063b2e5952714610305578063d35f33bf14610323578063f2fde38b146103415761012c565b806374cf105e1461023357806376267224146102515780637c3a00fd1461026f5780637e28f99c1461028d5780638da5cb5b146102ab5761012c565b80634f554dea116100f45780634f554dea146101b157806351ff4847146101cf578063589ac562146101ed5780636abb37321461020b578063715018a6146102295761012c565b80631b48a32114610131578063323046b11461014f578063368d88301461016d578063390c193d1461018b5780634f4d5c10146101a7575b600080fd5b61013961035d565b60405161014691906109aa565b60405180910390f35b610157610363565b60405161016491906109aa565b60405180910390f35b610175610369565b60405161018291906109aa565b60405180910390f35b6101a560048036038101906101a091906109f6565b61036f565b005b6101af6104e1565b005b6101b9610666565b6040516101c691906109aa565b60405180910390f35b6101d761066c565b6040516101e49190610a78565b60405180910390f35b6101f561067f565b60405161020291906109aa565b60405180910390f35b610213610685565b6040516102209190610ad4565b60405180910390f35b6102316106ab565b005b61023b610733565b60405161024891906109aa565b60405180910390f35b610259610739565b60405161026691906109aa565b60405180910390f35b61027761073f565b60405161028491906109aa565b60405180910390f35b610295610745565b6040516102a291906109aa565b60405180910390f35b6102b361074b565b6040516102c09190610ad4565b60405180910390f35b6102d1610774565b6040516102de91906109aa565b60405180910390f35b6102ef61077a565b6040516102fc91906109aa565b60405180910390f35b61030d6107ab565b60405161031a91906109aa565b60405180910390f35b61032b6107b1565b60405161033891906109aa565b60405180910390f35b61035b60048036038101906103569190610b1b565b6107b7565b005b60025481565b60035481565b600a5481565b6103776108c5565b73ffffffffffffffffffffffffffffffffffffffff1661039561074b565b73ffffffffffffffffffffffffffffffffffffffff16146103eb576040517f08c379a00000000000000000000000000000000000000000000000000000000081526004016103e290610ba5565b60405180910390fd5b600061040084866108af90919063ffffffff16565b9050600061041783856108af90919063ffffffff16565b9050600061042e82846108af90919063ffffffff16565b9050600e54811115610475576040517f08c379a000000000000000000000000000000000000000000000000000000000815260040161046c90610c37565b60405180910390fd5b86600a8190555085600b8190555084600c8190555083600d819055507fd9d73219186308fb5cd0317d12fd0e326d925501063d4596d5e84dd1708c8ffa33600a54600b54600c54600d546040516104d0959493929190610c57565b60405180910390a150505050505050565b3373ffffffffffffffffffffffffffffffffffffffff16600160009054906101000a900473ffffffffffffffffffffffffffffffffffffffff1673ffffffffffffffffffffffffffffffffffffffff1614610571576040517f08c379a000000000000000000000000000000000000000000000000000000000815260040161056890610cf6565b60405180910390fd5b600460009054906101000a900460ff16156105c1576040517f08c379a00000000000000000000000000000000000000000000000000000000081526004016105b890610d62565b60405180910390fd5b60006105cb61077a565b1161060b576040517f08c379a000000000000000000000000000000000000000000000000000000000815260040161060290610df4565b60405180910390fd5b6001600460006101000a81548160ff0219169083151502179055507f51a1a099cba9a81d06bf524f39eed0ce75f3ffdcdf2a0fcc2f83f04f80d65aca336001334260405161065c9493929190610e14565b60405180910390a1565b600c5481565b600460009054906101000a900460ff1681565b60095481565b600160009054906101000a900473ffffffffffffffffffffffffffffffffffffffff1681565b6106b36108c5565b73ffffffffffffffffffffffffffffffffffffffff166106d161074b565b73ffffffffffffffffffffffffffffffffffffffff1614610727576040517f08c379a000000000000000000000000000000000000000000000000000000000815260040161071e90610ba5565b60405180910390fd5b61073160006108cd565b565b600e5481565b60085481565b60055481565b60075481565b60008060009054906101000a900473ffffffffffffffffffffffffffffffffffffffff16905090565b600d5481565b6000600d54600c54600b54600a546107929190610e88565b61079c9190610e88565b6107a69190610e88565b905090565b600b5481565b60065481565b6107bf6108c5565b73ffffffffffffffffffffffffffffffffffffffff166107dd61074b565b73ffffffffffffffffffffffffffffffffffffffff1614610833576040517f08c379a000000000000000000000000000000000000000000000000000000000815260040161082a90610ba5565b60405180910390fd5b600073ffffffffffffffffffffffffffffffffffffffff168173ffffffffffffffffffffffffffffffffffffffff1614156108a3576040517f08c379a000000000000000000000000000000000000000000000000000000000815260040161089a90610f50565b60405180910390fd5b6108ac816108cd565b50565b600081836108bd9190610e88565b905092915050565b600033905090565b60008060009054906101000a900473ffffffffffffffffffffffffffffffffffffffff169050816000806101000a81548173ffffffffffffffffffffffffffffffffffffffff021916908373ffffffffffffffffffffffffffffffffffffffff1602179055508173ffffffffffffffffffffffffffffffffffffffff168173ffffffffffffffffffffffffffffffffffffffff167f8be0079c531659141344cd1fd0a4f28419497f9722a3daafe3b4186f6b6457e060405160405180910390a35050565b6000819050919050565b6109a481610991565b82525050565b60006020820190506109bf600083018461099b565b92915050565b600080fd5b6109d381610991565b81146109de57600080fd5b50565b6000813590506109f0816109ca565b92915050565b60008060008060808587031215610a1057610a0f6109c5565b5b6000610a1e878288016109e1565b9450506020610a2f878288016109e1565b9350506040610a40878288016109e1565b9250506060610a51878288016109e1565b91505092959194509250565b60008115159050919050565b610a7281610a5d565b82525050565b6000602082019050610a8d6000830184610a69565b92915050565b600073ffffffffffffffffffffffffffffffffffffffff82169050919050565b6000610abe82610a93565b9050919050565b610ace81610ab3565b82525050565b6000602082019050610ae96000830184610ac5565b92915050565b610af881610ab3565b8114610b0357600080fd5b50565b600081359050610b1581610aef565b92915050565b600060208284031215610b3157610b306109c5565b5b6000610b3f84828501610b06565b91505092915050565b600082825260208201905092915050565b7f4f776e61626c653a2063616c6c6572206973206e6f7420746865206f776e6572600082015250565b6000610b8f602083610b48565b9150610b9a82610b59565b602082019050919050565b60006020820190508181036000830152610bbe81610b82565b9050919050565b7f53686f756c64206265206c657373206f7220657175616c20746f206d6178696d60008201527f756d2070726f6a6563742074696d650000000000000000000000000000000000602082015250565b6000610c21602f83610b48565b9150610c2c82610bc5565b604082019050919050565b60006020820190508181036000830152610c5081610c14565b9050919050565b600060a082019050610c6c6000830188610ac5565b610c79602083018761099b565b610c86604083018661099b565b610c93606083018561099b565b610ca0608083018461099b565b9695505050505050565b7f4f6e6c7920737461727475702073686f756c6420616363657074210000000000600082015250565b6000610ce0601b83610b48565b9150610ceb82610caa565b602082019050919050565b60006020820190508181036000830152610d0f81610cd3565b9050919050565b7f436f6e747261637420686173206265656e207369676e65642100000000000000600082015250565b6000610d4c601983610b48565b9150610d5782610d16565b602082019050919050565b60006020820190508181036000830152610d7b81610d3f565b9050919050565b7f546f74616c206d6f6e7468732073686f756c642062652067726561746572207460008201527f68616e207a65726f210000000000000000000000000000000000000000000000602082015250565b6000610dde602983610b48565b9150610de982610d82565b604082019050919050565b60006020820190508181036000830152610e0d81610dd1565b9050919050565b6000608082019050610e296000830187610ac5565b610e366020830186610a69565b610e436040830185610ac5565b610e50606083018461099b565b95945050505050565b7f4e487b7100000000000000000000000000000000000000000000000000000000600052601160045260246000fd5b6000610e9382610991565b9150610e9e83610991565b9250827fffffffffffffffffffffffffffffffffffffffffffffffffffffffffffffffff03821115610ed357610ed2610e59565b5b828201905092915050565b7f4f776e61626c653a206e6577206f776e657220697320746865207a65726f206160008201527f6464726573730000000000000000000000000000000000000000000000000000602082015250565b6000610f3a602683610b48565b9150610f4582610ede565b604082019050919050565b60006020820190508181036000830152610f6981610f2d565b905091905056fea2646970667358221220c660e6e0773fc242967496f969506be0423ad2c70a8eaa69e36426c6f068572b64736f6c63430008090033",
  "immutableReferences": {},
  "source": "// SPDX-License-Identifier: MIT\r\npragma solidity ^0.8.0;\r\n\r\nimport \"@openzeppelin/contracts/access/Ownable.sol\";\r\nimport \"@openzeppelin/contracts/utils/math/SafeMath.sol\";\r\n\r\ncontract StartupContract is Ownable {\r\n    using SafeMath for uint256;\r\n\r\n    address public startupWallet;\r\n    uint public initialLoan; //Amount in USD\r\n    uint public date;\r\n    bool public signature;\r\n    uint public interestRate; //% management fee\r\n    uint public maxConvertionRate;\r\n    uint public minConvertionRate;\r\n    uint public termalCoinPercentage;\r\n    uint public stableCoinPercentage;\r\n    uint public fundingMonths; \r\n    uint public honeymoon; //Months without payments\r\n    uint public interestOnly; //Interest only Months\r\n    uint public interestAndCapital; //Interes and capital payments\r\n    uint public maxProjectTime;\r\n    \r\n    event LogContractCreation(address _startupProfile, uint _initialLoan, uint _date, uint _interestRate);\r\n    event LogStartupSingature(address _sender, bool _signature, address _startupProfile, uint);\r\n    event LogSetNewOwner(address _owner, address _newOwner);\r\n    \r\n    event LogSetMonths(address _owner, uint _fundingMonths, uint _honeymoon, uint _interestOnly, uint _interestAndCapital);\r\n    \r\n    constructor(\r\n            address _startupWallet,\r\n            uint _initialLoan,          // Funding total amount\r\n            uint _interestRate,         // %Management fee\r\n            uint _maxConvertionRate,\r\n            uint _minConvertionRate,\r\n            uint _termalCoinPercentage,\r\n            uint _stableCoinPercentage,\r\n            uint _maxProjectTime\r\n            )\r\n        {\r\n            startupWallet = _startupWallet;\r\n            initialLoan = _initialLoan;\r\n            date = block.timestamp;\r\n            signature = false; // This is false until startup accepts the contract.\r\n            interestRate = _interestRate;\r\n            maxConvertionRate = _maxConvertionRate;\r\n            minConvertionRate = _minConvertionRate;\r\n            termalCoinPercentage = _termalCoinPercentage;\r\n            stableCoinPercentage = _stableCoinPercentage;\r\n            maxProjectTime = _maxProjectTime;\r\n            setMonths(3, 2, 3, 10); \r\n            emit LogContractCreation(startupWallet, initialLoan, date, interestRate);\r\n        }\r\n\r\n    function setMonths(uint _fundingMonths, uint _honeymoon, uint _interestOnly, uint _interestAndCapital)\r\n        onlyOwner()\r\n        public\r\n    {\r\n        uint sum1 = _fundingMonths.add(_honeymoon);\r\n        uint sum2 = _interestOnly.add(_interestAndCapital);\r\n        uint sum3 = sum1.add(sum2);\r\n\r\n        require(sum3 <= maxProjectTime, \"Should be less or equal to maximum project time\");\r\n        \r\n        fundingMonths = _fundingMonths;\r\n        honeymoon = _honeymoon;\r\n        interestOnly = _interestOnly;\r\n        interestAndCapital = _interestAndCapital;\r\n\r\n        emit LogSetMonths(msg.sender, fundingMonths, honeymoon, interestOnly, interestAndCapital);\r\n    }\r\n\r\n    //Total contract duration\r\n    function getTotalMonths() \r\n        public \r\n        view\r\n        returns (uint)\r\n    {\r\n        return (fundingMonths + honeymoon + interestOnly + interestAndCapital);\r\n    }\r\n\r\n    //Startup has to sign to accept the contract\r\n    function startupSignature()\r\n        external\r\n    {\r\n        require(startupWallet == msg.sender, \"Only startup should accept!\");\r\n        require(!signature, \"Contract has been signed!\");\r\n        require(getTotalMonths() > 0, \"Total months should be greater than zero!\" );\r\n        signature = true;\r\n\r\n        emit LogStartupSingature(msg.sender, true, msg.sender, block.timestamp);\r\n    }\r\n}",
  "sourcePath": "/Users/gimer/Projects/TermalPolygon/contracts/StartupContract.sol",
  "compiler": {
    "name": "solc",
    "version": "0.8.9+commit.e5eed63a.Emscripten.clang"
  },
  "schemaVersion": "3.4.4",
  "updatedAt": "2022-02-01T21:48:06.787Z",
  "devdoc": {
    "kind": "dev",
    "methods": {
      "owner()": {
        "details": "Returns the address of the current owner."
      },
      "renounceOwnership()": {
        "details": "Leaves the contract without owner. It will not be possible to call `onlyOwner` functions anymore. Can only be called by the current owner. NOTE: Renouncing ownership will leave the contract without an owner, thereby removing any functionality that is only available to the owner."
      },
      "transferOwnership(address)": {
        "details": "Transfers ownership of the contract to a new account (`newOwner`). Can only be called by the current owner."
      }
    },
    "version": 1
  },
  "userdoc": {
    "kind": "user",
    "methods": {},
    "version": 1
  }
}