{
  "contractName": "StartupHandler",
  "abi": [
    {
      "inputs": [],
      "stateMutability": "nonpayable",
      "type": "constructor"
    },
    {
      "anonymous": false,
      "inputs": [
        {
          "indexed": false,
          "internalType": "address",
          "name": "_newStartupAddress",
          "type": "address"
        },
        {
          "indexed": false,
          "internalType": "address",
          "name": "_owner",
          "type": "address"
        }
      ],
      "name": "LogCreateStartup",
      "type": "event"
    },
    {
      "anonymous": false,
      "inputs": [
        {
          "indexed": false,
          "internalType": "address",
          "name": "_owner",
          "type": "address"
        },
        {
          "indexed": false,
          "internalType": "address",
          "name": "_startupAddress",
          "type": "address"
        },
        {
          "indexed": false,
          "internalType": "bool",
          "name": "_status",
          "type": "bool"
        }
      ],
      "name": "LogNewStartupStatus",
      "type": "event"
    },
    {
      "anonymous": false,
      "inputs": [
        {
          "indexed": false,
          "internalType": "address",
          "name": "_sender",
          "type": "address"
        },
        {
          "indexed": false,
          "internalType": "address",
          "name": "_contract",
          "type": "address"
        },
        {
          "indexed": false,
          "internalType": "uint256",
          "name": "_amount",
          "type": "uint256"
        }
      ],
      "name": "LogReturnTermal",
      "type": "event"
    },
    {
      "anonymous": false,
      "inputs": [
        {
          "indexed": true,
          "internalType": "address",
          "name": "previousOwner",
          "type": "address"
        },
        {
          "indexed": true,
          "internalType": "address",
          "name": "newOwner",
          "type": "address"
        }
      ],
      "name": "OwnershipTransferred",
      "type": "event"
    },
    {
      "inputs": [],
      "name": "owner",
      "outputs": [
        {
          "internalType": "address",
          "name": "",
          "type": "address"
        }
      ],
      "stateMutability": "view",
      "type": "function"
    },
    {
      "inputs": [],
      "name": "renounceOwnership",
      "outputs": [],
      "stateMutability": "nonpayable",
      "type": "function"
    },
    {
      "inputs": [
        {
          "internalType": "uint256",
          "name": "",
          "type": "uint256"
        }
      ],
      "name": "startupList",
      "outputs": [
        {
          "internalType": "address",
          "name": "",
          "type": "address"
        }
      ],
      "stateMutability": "view",
      "type": "function"
    },
    {
      "inputs": [
        {
          "internalType": "address",
          "name": "",
          "type": "address"
        }
      ],
      "name": "startups",
      "outputs": [
        {
          "internalType": "string",
          "name": "name",
          "type": "string"
        },
        {
          "internalType": "uint256",
          "name": "registerDate",
          "type": "uint256"
        },
        {
          "internalType": "bool",
          "name": "status",
          "type": "bool"
        },
        {
          "internalType": "bool",
          "name": "hasContract",
          "type": "bool"
        },
        {
          "internalType": "address",
          "name": "startupContractAddress",
          "type": "address"
        },
        {
          "internalType": "uint256",
          "name": "amountTermal",
          "type": "uint256"
        },
        {
          "internalType": "uint256",
          "name": "daiReceived",
          "type": "uint256"
        },
        {
          "internalType": "uint256",
          "name": "daiReturned",
          "type": "uint256"
        },
        {
          "internalType": "uint256",
          "name": "termalReturned",
          "type": "uint256"
        }
      ],
      "stateMutability": "view",
      "type": "function"
    },
    {
      "inputs": [
        {
          "internalType": "address",
          "name": "newOwner",
          "type": "address"
        }
      ],
      "name": "transferOwnership",
      "outputs": [],
      "stateMutability": "nonpayable",
      "type": "function"
    },
    {
      "inputs": [
        {
          "internalType": "address",
          "name": "_startupWallet",
          "type": "address"
        },
        {
          "internalType": "string",
          "name": "_startupName",
          "type": "string"
        }
      ],
      "name": "createStartup",
      "outputs": [],
      "stateMutability": "nonpayable",
      "type": "function"
    },
    {
      "inputs": [
        {
          "internalType": "address",
          "name": "_startupWallet",
          "type": "address"
        },
        {
          "internalType": "uint256",
          "name": "_initialLoan",
          "type": "uint256"
        },
        {
          "internalType": "uint256",
          "name": "_interestRate",
          "type": "uint256"
        },
        {
          "internalType": "uint256",
          "name": "_maxConvertionRate",
          "type": "uint256"
        },
        {
          "internalType": "uint256",
          "name": "_minConvertionRate",
          "type": "uint256"
        },
        {
          "internalType": "uint256",
          "name": "_termalCoinPercentage",
          "type": "uint256"
        },
        {
          "internalType": "uint256",
          "name": "_stableCoinPercentage",
          "type": "uint256"
        },
        {
          "internalType": "uint256",
          "name": "_maxProjectime",
          "type": "uint256"
        }
      ],
      "name": "createStartupContract",
      "outputs": [],
      "stateMutability": "nonpayable",
      "type": "function"
    },
    {
      "inputs": [
        {
          "internalType": "address",
          "name": "_startupAddress",
          "type": "address"
        }
      ],
      "name": "isValidStartup",
      "outputs": [
        {
          "internalType": "bool",
          "name": "",
          "type": "bool"
        }
      ],
      "stateMutability": "view",
      "type": "function"
    },
    {
      "inputs": [],
      "name": "getTotalStartups",
      "outputs": [
        {
          "internalType": "uint256",
          "name": "",
          "type": "uint256"
        }
      ],
      "stateMutability": "view",
      "type": "function"
    },
    {
      "inputs": [
        {
          "internalType": "address",
          "name": "_startupAddress",
          "type": "address"
        },
        {
          "internalType": "bool",
          "name": "_status",
          "type": "bool"
        }
      ],
      "name": "newStartupStatus",
      "outputs": [],
      "stateMutability": "nonpayable",
      "type": "function"
    }
  ],
  "bytecode": "0x608060405234801561001057600080fd5b5061002d61002261003260201b60201c565b61003a60201b60201c565b6100fe565b600033905090565b60008060009054906101000a900473ffffffffffffffffffffffffffffffffffffffff169050816000806101000a81548173ffffffffffffffffffffffffffffffffffffffff021916908373ffffffffffffffffffffffffffffffffffffffff1602179055508173ffffffffffffffffffffffffffffffffffffffff168173ffffffffffffffffffffffffffffffffffffffff167f8be0079c531659141344cd1fd0a4f28419497f9722a3daafe3b4186f6b6457e060405160405180910390a35050565b61317b8061010d6000396000f3fe60806040523480156200001157600080fd5b5060043610620000ac5760003560e01c80638da5cb5b116200006f5780638da5cb5b146200016b578063b82e412c146200018d578063d3cd379b14620001cb578063e0bb8e6b14620001eb578063f2fde38b146200020b57620000ac565b806301670f5d14620000b157806303bd943014620000d357806324a9caa014620001095780632aec4e6a146200013f578063715018a6146200015f575b600080fd5b620000bb6200022b565b604051620000ca919062000f3a565b60405180910390f35b620000f16004803603810190620000eb919062000f9c565b62000238565b60405162000100919062001013565b60405180910390f35b62000127600480360381019062000121919062001061565b62000278565b604051620001369190620010b0565b60405180910390f35b6200015d6004803603810190620001579190620010fe565b620002d1565b005b6200016962000488565b005b6200017562000519565b60405162000184919062001013565b60405180910390f35b620001ab6004803603810190620001a5919062001061565b62000542565b604051620001c299989796959493929190620011e9565b60405180910390f35b620001e96004803603810190620001e391906200128f565b6200065a565b005b620002096004803603810190620002039190620014a9565b6200095d565b005b62000229600480360381019062000223919062001061565b62000c91565b005b6000600280549050905090565b600281815481106200024957600080fd5b906000526020600020016000915054906101000a900473ffffffffffffffffffffffffffffffffffffffff1681565b6000600160008373ffffffffffffffffffffffffffffffffffffffff1673ffffffffffffffffffffffffffffffffffffffff16815260200190815260200160002060020160009054906101000a900460ff169050919050565b620002db62000d95565b73ffffffffffffffffffffffffffffffffffffffff16620002fb62000519565b73ffffffffffffffffffffffffffffffffffffffff161462000354576040517f08c379a00000000000000000000000000000000000000000000000000000000081526004016200034b906200155f565b60405180910390fd5b801515600160008473ffffffffffffffffffffffffffffffffffffffff1673ffffffffffffffffffffffffffffffffffffffff16815260200190815260200160002060020160009054906101000a900460ff1615151415620003ed576040517f08c379a0000000000000000000000000000000000000000000000000000000008152600401620003e490620015f7565b60405180910390fd5b80600160008473ffffffffffffffffffffffffffffffffffffffff1673ffffffffffffffffffffffffffffffffffffffff16815260200190815260200160002060020160006101000a81548160ff0219169083151502179055507f8083c265edfbf4990ea1d34acae1ca957ae66839c462c223de6cdb26f30cfbd43383836040516200047c9392919062001619565b60405180910390a15050565b6200049262000d95565b73ffffffffffffffffffffffffffffffffffffffff16620004b262000519565b73ffffffffffffffffffffffffffffffffffffffff16146200050b576040517f08c379a000000000000000000000000000000000000000000000000000000000815260040162000502906200155f565b60405180910390fd5b62000517600062000d9d565b565b60008060009054906101000a900473ffffffffffffffffffffffffffffffffffffffff16905090565b6001602052806000526040600020600091509050806000018054620005679062001685565b80601f0160208091040260200160405190810160405280929190818152602001828054620005959062001685565b8015620005e65780601f10620005ba57610100808354040283529160200191620005e6565b820191906000526020600020905b815481529060010190602001808311620005c857829003601f168201915b5050505050908060010154908060020160009054906101000a900460ff16908060020160019054906101000a900460ff16908060020160029054906101000a900473ffffffffffffffffffffffffffffffffffffffff16908060030154908060040154908060050154908060060154905089565b6200066462000d95565b73ffffffffffffffffffffffffffffffffffffffff166200068462000519565b73ffffffffffffffffffffffffffffffffffffffff1614620006dd576040517f08c379a0000000000000000000000000000000000000000000000000000000008152600401620006d4906200155f565b60405180910390fd5b620006e88862000278565b6200072a576040517f08c379a0000000000000000000000000000000000000000000000000000000008152600401620007219062001731565b60405180910390fd5b600160008973ffffffffffffffffffffffffffffffffffffffff1673ffffffffffffffffffffffffffffffffffffffff16815260200190815260200160002060020160019054906101000a900460ff1615620007bd576040517f08c379a0000000000000000000000000000000000000000000000000000000008152600401620007b490620017a3565b60405180910390fd5b60008888888888888888604051620007d59062000e61565b620007e8989796959493929190620017c5565b604051809103906000f08015801562000805573d6000803e3d6000fd5b50905060018060008b73ffffffffffffffffffffffffffffffffffffffff1673ffffffffffffffffffffffffffffffffffffffff16815260200190815260200160002060020160016101000a81548160ff02191690831515021790555080600160008b73ffffffffffffffffffffffffffffffffffffffff1673ffffffffffffffffffffffffffffffffffffffff16815260200190815260200160002060020160026101000a81548173ffffffffffffffffffffffffffffffffffffffff021916908373ffffffffffffffffffffffffffffffffffffffff1602179055508073ffffffffffffffffffffffffffffffffffffffff1663f2fde38b336040518263ffffffff1660e01b81526004016200091e919062001013565b600060405180830381600087803b1580156200093957600080fd5b505af11580156200094e573d6000803e3d6000fd5b50505050505050505050505050565b6200096762000d95565b73ffffffffffffffffffffffffffffffffffffffff166200098762000519565b73ffffffffffffffffffffffffffffffffffffffff1614620009e0576040517f08c379a0000000000000000000000000000000000000000000000000000000008152600401620009d7906200155f565b60405180910390fd5b600160008373ffffffffffffffffffffffffffffffffffffffff1673ffffffffffffffffffffffffffffffffffffffff16815260200190815260200160002060020160009054906101000a900460ff161562000a73576040517f08c379a000000000000000000000000000000000000000000000000000000000815260040162000a6a90620018a3565b60405180910390fd5b604051806101200160405280828152602001428152602001600115158152602001600015158152602001600073ffffffffffffffffffffffffffffffffffffffff1681526020016000815260200160008152602001600081526020016000815250600160008473ffffffffffffffffffffffffffffffffffffffff1673ffffffffffffffffffffffffffffffffffffffff168152602001908152602001600020600082015181600001908051906020019062000b3192919062000e6f565b506020820151816001015560408201518160020160006101000a81548160ff02191690831515021790555060608201518160020160016101000a81548160ff02191690831515021790555060808201518160020160026101000a81548173ffffffffffffffffffffffffffffffffffffffff021916908373ffffffffffffffffffffffffffffffffffffffff16021790555060a0820151816003015560c0820151816004015560e0820151816005015561010082015181600601559050506002829080600181540180825580915050600190039060005260206000200160009091909190916101000a81548173ffffffffffffffffffffffffffffffffffffffff021916908373ffffffffffffffffffffffffffffffffffffffff1602179055507f9c01fa4ff82148506de685ddc052bf11c9682218084bc9850ee6865937631cbf823360405162000c85929190620018c5565b60405180910390a15050565b62000c9b62000d95565b73ffffffffffffffffffffffffffffffffffffffff1662000cbb62000519565b73ffffffffffffffffffffffffffffffffffffffff161462000d14576040517f08c379a000000000000000000000000000000000000000000000000000000000815260040162000d0b906200155f565b60405180910390fd5b600073ffffffffffffffffffffffffffffffffffffffff168173ffffffffffffffffffffffffffffffffffffffff16141562000d87576040517f08c379a000000000000000000000000000000000000000000000000000000000815260040162000d7e9062001968565b60405180910390fd5b62000d928162000d9d565b50565b600033905090565b60008060009054906101000a900473ffffffffffffffffffffffffffffffffffffffff169050816000806101000a81548173ffffffffffffffffffffffffffffffffffffffff021916908373ffffffffffffffffffffffffffffffffffffffff1602179055508173ffffffffffffffffffffffffffffffffffffffff168173ffffffffffffffffffffffffffffffffffffffff167f8be0079c531659141344cd1fd0a4f28419497f9722a3daafe3b4186f6b6457e060405160405180910390a35050565b6117bb806200198b83390190565b82805462000e7d9062001685565b90600052602060002090601f01602090048101928262000ea1576000855562000eed565b82601f1062000ebc57805160ff191683800117855562000eed565b8280016001018555821562000eed579182015b8281111562000eec57825182559160200191906001019062000ecf565b5b50905062000efc919062000f00565b5090565b5b8082111562000f1b57600081600090555060010162000f01565b5090565b6000819050919050565b62000f348162000f1f565b82525050565b600060208201905062000f51600083018462000f29565b92915050565b6000604051905090565b600080fd5b600080fd5b62000f768162000f1f565b811462000f8257600080fd5b50565b60008135905062000f968162000f6b565b92915050565b60006020828403121562000fb55762000fb462000f61565b5b600062000fc58482850162000f85565b91505092915050565b600073ffffffffffffffffffffffffffffffffffffffff82169050919050565b600062000ffb8262000fce565b9050919050565b6200100d8162000fee565b82525050565b60006020820190506200102a600083018462001002565b92915050565b6200103b8162000fee565b81146200104757600080fd5b50565b6000813590506200105b8162001030565b92915050565b6000602082840312156200107a576200107962000f61565b5b60006200108a848285016200104a565b91505092915050565b60008115159050919050565b620010aa8162001093565b82525050565b6000602082019050620010c760008301846200109f565b92915050565b620010d88162001093565b8114620010e457600080fd5b50565b600081359050620010f881620010cd565b92915050565b6000806040838503121562001118576200111762000f61565b5b600062001128858286016200104a565b92505060206200113b85828601620010e7565b9150509250929050565b600081519050919050565b600082825260208201905092915050565b60005b838110156200118157808201518184015260208101905062001164565b8381111562001191576000848401525b50505050565b6000601f19601f8301169050919050565b6000620011b58262001145565b620011c1818562001150565b9350620011d381856020860162001161565b620011de8162001197565b840191505092915050565b600061012082019050818103600083015262001206818c620011a8565b905062001217602083018b62000f29565b62001226604083018a6200109f565b6200123560608301896200109f565b62001244608083018862001002565b6200125360a083018762000f29565b6200126260c083018662000f29565b6200127160e083018562000f29565b6200128161010083018462000f29565b9a9950505050505050505050565b600080600080600080600080610100898b031215620012b357620012b262000f61565b5b6000620012c38b828c016200104a565b9850506020620012d68b828c0162000f85565b9750506040620012e98b828c0162000f85565b9650506060620012fc8b828c0162000f85565b95505060806200130f8b828c0162000f85565b94505060a0620013228b828c0162000f85565b93505060c0620013358b828c0162000f85565b92505060e0620013488b828c0162000f85565b9150509295985092959890939650565b600080fd5b600080fd5b7f4e487b7100000000000000000000000000000000000000000000000000000000600052604160045260246000fd5b6200139c8262001197565b810181811067ffffffffffffffff82111715620013be57620013bd62001362565b5b80604052505050565b6000620013d362000f57565b9050620013e1828262001391565b919050565b600067ffffffffffffffff82111562001404576200140362001362565b5b6200140f8262001197565b9050602081019050919050565b82818337600083830152505050565b6000620014426200143c84620013e6565b620013c7565b9050828152602081018484840111156200146157620014606200135d565b5b6200146e8482856200141c565b509392505050565b600082601f8301126200148e576200148d62001358565b5b8135620014a08482602086016200142b565b91505092915050565b60008060408385031215620014c357620014c262000f61565b5b6000620014d3858286016200104a565b925050602083013567ffffffffffffffff811115620014f757620014f662000f66565b5b620015058582860162001476565b9150509250929050565b7f4f776e61626c653a2063616c6c6572206973206e6f7420746865206f776e6572600082015250565b60006200154760208362001150565b915062001554826200150f565b602082019050919050565b600060208201905081810360008301526200157a8162001538565b9050919050565b7f4e657720696e766573746f722773207374617475732073686f756c642062652060008201527f646966666572656e742100000000000000000000000000000000000000000000602082015250565b6000620015df602a8362001150565b9150620015ec8262001581565b604082019050919050565b600060208201905081810360008301526200161281620015d0565b9050919050565b600060608201905062001630600083018662001002565b6200163f602083018562001002565b6200164e60408301846200109f565b949350505050565b7f4e487b7100000000000000000000000000000000000000000000000000000000600052602260045260246000fd5b600060028204905060018216806200169e57607f821691505b60208210811415620016b557620016b462001656565b5b50919050565b7f537461727475702070726f66696c65206973206e6f7420612076616c6964206360008201527f6f6e747261637400000000000000000000000000000000000000000000000000602082015250565b60006200171960278362001150565b91506200172682620016bb565b604082019050919050565b600060208201905081810360008301526200174c816200170a565b9050919050565b7f5374617274757020686173206120636f6e747261637400000000000000000000600082015250565b60006200178b60168362001150565b9150620017988262001753565b602082019050919050565b60006020820190508181036000830152620017be816200177c565b9050919050565b600061010082019050620017dd600083018b62001002565b620017ec602083018a62000f29565b620017fb604083018962000f29565b6200180a606083018862000f29565b62001819608083018762000f29565b6200182860a083018662000f29565b6200183760c083018562000f29565b6200184660e083018462000f29565b9998505050505050505050565b7f5374617274757020697320726567697374657265642100000000000000000000600082015250565b60006200188b60168362001150565b9150620018988262001853565b602082019050919050565b60006020820190508181036000830152620018be816200187c565b9050919050565b6000604082019050620018dc600083018562001002565b620018eb602083018462001002565b9392505050565b7f4f776e61626c653a206e6577206f776e657220697320746865207a65726f206160008201527f6464726573730000000000000000000000000000000000000000000000000000602082015250565b60006200195060268362001150565b91506200195d82620018f2565b604082019050919050565b60006020820190508181036000830152620019838162001941565b905091905056fe60806040523480156200001157600080fd5b50604051620017bb380380620017bb8339818101604052810190620000379190620004c9565b620000576200004b6200017860201b60201c565b6200018060201b60201c565b87600160006101000a81548173ffffffffffffffffffffffffffffffffffffffff021916908373ffffffffffffffffffffffffffffffffffffffff16021790555086600281905550426003819055506000600460006101000a81548160ff021916908315150217905550856005819055508460068190555083600781905550826008819055508160098190555080600e8190555062000103600360026003600a6200024460201b60201c565b7fd912e0db3997b8efa782c542ab3e167df8ac40330751f5c28e1d35632d6ffadf600160009054906101000a900473ffffffffffffffffffffffffffffffffffffffff16600254600354600554604051620001629493929190620005b4565b60405180910390a1505050505050505062000805565b600033905090565b60008060009054906101000a900473ffffffffffffffffffffffffffffffffffffffff169050816000806101000a81548173ffffffffffffffffffffffffffffffffffffffff021916908373ffffffffffffffffffffffffffffffffffffffff1602179055508173ffffffffffffffffffffffffffffffffffffffff168173ffffffffffffffffffffffffffffffffffffffff167f8be0079c531659141344cd1fd0a4f28419497f9722a3daafe3b4186f6b6457e060405160405180910390a35050565b620002546200017860201b60201c565b73ffffffffffffffffffffffffffffffffffffffff166200027a620003e360201b60201c565b73ffffffffffffffffffffffffffffffffffffffff1614620002d3576040517f08c379a0000000000000000000000000000000000000000000000000000000008152600401620002ca9062000662565b60405180910390fd5b6000620002ef84866200040c60201b620008af1790919060201c565b905060006200030d83856200040c60201b620008af1790919060201c565b905060006200032b82846200040c60201b620008af1790919060201c565b9050600e5481111562000375576040517f08c379a00000000000000000000000000000000000000000000000000000000081526004016200036c90620006fa565b60405180910390fd5b86600a8190555085600b8190555084600c8190555083600d819055507fd9d73219186308fb5cd0317d12fd0e326d925501063d4596d5e84dd1708c8ffa33600a54600b54600c54600d54604051620003d29594939291906200071c565b60405180910390a150505050505050565b60008060009054906101000a900473ffffffffffffffffffffffffffffffffffffffff16905090565b600081836200041c9190620007a8565b905092915050565b600080fd5b600073ffffffffffffffffffffffffffffffffffffffff82169050919050565b6000620004568262000429565b9050919050565b620004688162000449565b81146200047457600080fd5b50565b60008151905062000488816200045d565b92915050565b6000819050919050565b620004a3816200048e565b8114620004af57600080fd5b50565b600081519050620004c38162000498565b92915050565b600080600080600080600080610100898b031215620004ed57620004ec62000424565b5b6000620004fd8b828c0162000477565b9850506020620005108b828c01620004b2565b9750506040620005238b828c01620004b2565b9650506060620005368b828c01620004b2565b9550506080620005498b828c01620004b2565b94505060a06200055c8b828c01620004b2565b93505060c06200056f8b828c01620004b2565b92505060e0620005828b828c01620004b2565b9150509295985092959890939650565b6200059d8162000449565b82525050565b620005ae816200048e565b82525050565b6000608082019050620005cb600083018762000592565b620005da6020830186620005a3565b620005e96040830185620005a3565b620005f86060830184620005a3565b95945050505050565b600082825260208201905092915050565b7f4f776e61626c653a2063616c6c6572206973206e6f7420746865206f776e6572600082015250565b60006200064a60208362000601565b9150620006578262000612565b602082019050919050565b600060208201905081810360008301526200067d816200063b565b9050919050565b7f53686f756c64206265206c657373206f7220657175616c20746f206d6178696d60008201527f756d2070726f6a6563742074696d650000000000000000000000000000000000602082015250565b6000620006e2602f8362000601565b9150620006ef8262000684565b604082019050919050565b600060208201905081810360008301526200071581620006d3565b9050919050565b600060a08201905062000733600083018862000592565b620007426020830187620005a3565b620007516040830186620005a3565b620007606060830185620005a3565b6200076f6080830184620005a3565b9695505050505050565b7f4e487b7100000000000000000000000000000000000000000000000000000000600052601160045260246000fd5b6000620007b5826200048e565b9150620007c2836200048e565b9250827fffffffffffffffffffffffffffffffffffffffffffffffffffffffffffffffff03821115620007fa57620007f962000779565b5b828201905092915050565b610fa680620008156000396000f3fe608060405234801561001057600080fd5b506004361061012c5760003560e01c806374cf105e116100ad578063b19ea0a611610071578063b19ea0a6146102c9578063b2e062c0146102e7578063b2e5952714610305578063d35f33bf14610323578063f2fde38b146103415761012c565b806374cf105e1461023357806376267224146102515780637c3a00fd1461026f5780637e28f99c1461028d5780638da5cb5b146102ab5761012c565b80634f554dea116100f45780634f554dea146101b157806351ff4847146101cf578063589ac562146101ed5780636abb37321461020b578063715018a6146102295761012c565b80631b48a32114610131578063323046b11461014f578063368d88301461016d578063390c193d1461018b5780634f4d5c10146101a7575b600080fd5b61013961035d565b60405161014691906109aa565b60405180910390f35b610157610363565b60405161016491906109aa565b60405180910390f35b610175610369565b60405161018291906109aa565b60405180910390f35b6101a560048036038101906101a091906109f6565b61036f565b005b6101af6104e1565b005b6101b9610666565b6040516101c691906109aa565b60405180910390f35b6101d761066c565b6040516101e49190610a78565b60405180910390f35b6101f561067f565b60405161020291906109aa565b60405180910390f35b610213610685565b6040516102209190610ad4565b60405180910390f35b6102316106ab565b005b61023b610733565b60405161024891906109aa565b60405180910390f35b610259610739565b60405161026691906109aa565b60405180910390f35b61027761073f565b60405161028491906109aa565b60405180910390f35b610295610745565b6040516102a291906109aa565b60405180910390f35b6102b361074b565b6040516102c09190610ad4565b60405180910390f35b6102d1610774565b6040516102de91906109aa565b60405180910390f35b6102ef61077a565b6040516102fc91906109aa565b60405180910390f35b61030d6107ab565b60405161031a91906109aa565b60405180910390f35b61032b6107b1565b60405161033891906109aa565b60405180910390f35b61035b60048036038101906103569190610b1b565b6107b7565b005b60025481565b60035481565b600a5481565b6103776108c5565b73ffffffffffffffffffffffffffffffffffffffff1661039561074b565b73ffffffffffffffffffffffffffffffffffffffff16146103eb576040517f08c379a00000000000000000000000000000000000000000000000000000000081526004016103e290610ba5565b60405180910390fd5b600061040084866108af90919063ffffffff16565b9050600061041783856108af90919063ffffffff16565b9050600061042e82846108af90919063ffffffff16565b9050600e54811115610475576040517f08c379a000000000000000000000000000000000000000000000000000000000815260040161046c90610c37565b60405180910390fd5b86600a8190555085600b8190555084600c8190555083600d819055507fd9d73219186308fb5cd0317d12fd0e326d925501063d4596d5e84dd1708c8ffa33600a54600b54600c54600d546040516104d0959493929190610c57565b60405180910390a150505050505050565b3373ffffffffffffffffffffffffffffffffffffffff16600160009054906101000a900473ffffffffffffffffffffffffffffffffffffffff1673ffffffffffffffffffffffffffffffffffffffff1614610571576040517f08c379a000000000000000000000000000000000000000000000000000000000815260040161056890610cf6565b60405180910390fd5b600460009054906101000a900460ff16156105c1576040517f08c379a00000000000000000000000000000000000000000000000000000000081526004016105b890610d62565b60405180910390fd5b60006105cb61077a565b1161060b576040517f08c379a000000000000000000000000000000000000000000000000000000000815260040161060290610df4565b60405180910390fd5b6001600460006101000a81548160ff0219169083151502179055507f51a1a099cba9a81d06bf524f39eed0ce75f3ffdcdf2a0fcc2f83f04f80d65aca336001334260405161065c9493929190610e14565b60405180910390a1565b600c5481565b600460009054906101000a900460ff1681565b60095481565b600160009054906101000a900473ffffffffffffffffffffffffffffffffffffffff1681565b6106b36108c5565b73ffffffffffffffffffffffffffffffffffffffff166106d161074b565b73ffffffffffffffffffffffffffffffffffffffff1614610727576040517f08c379a000000000000000000000000000000000000000000000000000000000815260040161071e90610ba5565b60405180910390fd5b61073160006108cd565b565b600e5481565b60085481565b60055481565b60075481565b60008060009054906101000a900473ffffffffffffffffffffffffffffffffffffffff16905090565b600d5481565b6000600d54600c54600b54600a546107929190610e88565b61079c9190610e88565b6107a69190610e88565b905090565b600b5481565b60065481565b6107bf6108c5565b73ffffffffffffffffffffffffffffffffffffffff166107dd61074b565b73ffffffffffffffffffffffffffffffffffffffff1614610833576040517f08c379a000000000000000000000000000000000000000000000000000000000815260040161082a90610ba5565b60405180910390fd5b600073ffffffffffffffffffffffffffffffffffffffff168173ffffffffffffffffffffffffffffffffffffffff1614156108a3576040517f08c379a000000000000000000000000000000000000000000000000000000000815260040161089a90610f50565b60405180910390fd5b6108ac816108cd565b50565b600081836108bd9190610e88565b905092915050565b600033905090565b60008060009054906101000a900473ffffffffffffffffffffffffffffffffffffffff169050816000806101000a81548173ffffffffffffffffffffffffffffffffffffffff021916908373ffffffffffffffffffffffffffffffffffffffff1602179055508173ffffffffffffffffffffffffffffffffffffffff168173ffffffffffffffffffffffffffffffffffffffff167f8be0079c531659141344cd1fd0a4f28419497f9722a3daafe3b4186f6b6457e060405160405180910390a35050565b6000819050919050565b6109a481610991565b82525050565b60006020820190506109bf600083018461099b565b92915050565b600080fd5b6109d381610991565b81146109de57600080fd5b50565b6000813590506109f0816109ca565b92915050565b60008060008060808587031215610a1057610a0f6109c5565b5b6000610a1e878288016109e1565b9450506020610a2f878288016109e1565b9350506040610a40878288016109e1565b9250506060610a51878288016109e1565b91505092959194509250565b60008115159050919050565b610a7281610a5d565b82525050565b6000602082019050610a8d6000830184610a69565b92915050565b600073ffffffffffffffffffffffffffffffffffffffff82169050919050565b6000610abe82610a93565b9050919050565b610ace81610ab3565b82525050565b6000602082019050610ae96000830184610ac5565b92915050565b610af881610ab3565b8114610b0357600080fd5b50565b600081359050610b1581610aef565b92915050565b600060208284031215610b3157610b306109c5565b5b6000610b3f84828501610b06565b91505092915050565b600082825260208201905092915050565b7f4f776e61626c653a2063616c6c6572206973206e6f7420746865206f776e6572600082015250565b6000610b8f602083610b48565b9150610b9a82610b59565b602082019050919050565b60006020820190508181036000830152610bbe81610b82565b9050919050565b7f53686f756c64206265206c657373206f7220657175616c20746f206d6178696d60008201527f756d2070726f6a6563742074696d650000000000000000000000000000000000602082015250565b6000610c21602f83610b48565b9150610c2c82610bc5565b604082019050919050565b60006020820190508181036000830152610c5081610c14565b9050919050565b600060a082019050610c6c6000830188610ac5565b610c79602083018761099b565b610c86604083018661099b565b610c93606083018561099b565b610ca0608083018461099b565b9695505050505050565b7f4f6e6c7920737461727475702073686f756c6420616363657074210000000000600082015250565b6000610ce0601b83610b48565b9150610ceb82610caa565b602082019050919050565b60006020820190508181036000830152610d0f81610cd3565b9050919050565b7f436f6e747261637420686173206265656e207369676e65642100000000000000600082015250565b6000610d4c601983610b48565b9150610d5782610d16565b602082019050919050565b60006020820190508181036000830152610d7b81610d3f565b9050919050565b7f546f74616c206d6f6e7468732073686f756c642062652067726561746572207460008201527f68616e207a65726f210000000000000000000000000000000000000000000000602082015250565b6000610dde602983610b48565b9150610de982610d82565b604082019050919050565b60006020820190508181036000830152610e0d81610dd1565b9050919050565b6000608082019050610e296000830187610ac5565b610e366020830186610a69565b610e436040830185610ac5565b610e50606083018461099b565b95945050505050565b7f4e487b7100000000000000000000000000000000000000000000000000000000600052601160045260246000fd5b6000610e9382610991565b9150610e9e83610991565b9250827fffffffffffffffffffffffffffffffffffffffffffffffffffffffffffffffff03821115610ed357610ed2610e59565b5b828201905092915050565b7f4f776e61626c653a206e6577206f776e657220697320746865207a65726f206160008201527f6464726573730000000000000000000000000000000000000000000000000000602082015250565b6000610f3a602683610b48565b9150610f4582610ede565b604082019050919050565b60006020820190508181036000830152610f6981610f2d565b905091905056fea2646970667358221220c660e6e0773fc242967496f969506be0423ad2c70a8eaa69e36426c6f068572b64736f6c63430008090033a2646970667358221220bd386ee37801b0ff54631d7664a124f6788666a5d0b649b85f65636934a5828364736f6c63430008090033",
  "immutableReferences": {},
  "source": "// SPDX-License-Identifier: MIT\r\npragma solidity ^0.8.0;\r\n\r\nimport \"./StartupContract.sol\";\r\nimport \"@openzeppelin/contracts/access/Ownable.sol\";\r\n\r\ncontract StartupHandler is Ownable {\r\n    \r\n    struct Startup{\r\n        string name;     //Startup's startupName\r\n        uint registerDate;  //Register Date\r\n        bool status;        //startup's status: true or false;\r\n        bool hasContract;\r\n        address startupContractAddress;\r\n        uint amountTermal;\r\n        uint daiReceived;\r\n        uint daiReturned;\r\n        uint termalReturned;\r\n    }\r\n\r\n    mapping (address => Startup) public startups;\r\n    address[] public startupList;\r\n    \r\n    event LogCreateStartup(address _newStartupAddress, address _owner);\r\n    event LogNewStartupStatus(address _owner, address _startupAddress, bool _status);\r\n    event LogReturnTermal(address _sender, address _contract, uint _amount);\r\n\r\n    constructor() {}\r\n\r\n    function createStartup(\r\n            address _startupWallet, \r\n            string memory _startupName\r\n            )\r\n        onlyOwner()\r\n        external\r\n    {\r\n        require(!startups[_startupWallet].status, \"Startup is registered!\");\r\n        startups[_startupWallet] = Startup(_startupName, block.timestamp, true, false, address(0), 0, 0, 0, 0);\r\n        startupList.push(_startupWallet);\r\n        emit LogCreateStartup(_startupWallet, msg.sender);\r\n    }\r\n\r\n    function createStartupContract(\r\n            address _startupWallet, \r\n            uint _initialLoan,\r\n            uint _interestRate,\r\n            uint _maxConvertionRate,\r\n            uint _minConvertionRate,\r\n            uint _termalCoinPercentage,\r\n            uint _stableCoinPercentage,\r\n            uint _maxProjectime\r\n        )\r\n        onlyOwner()\r\n        external\r\n    {\r\n        require(isValidStartup(_startupWallet), \"Startup profile is not a valid contract\");\r\n        require(!startups[_startupWallet].hasContract, \"Startup has a contract\");\r\n        \r\n        StartupContract newStartupContract = new StartupContract(\r\n                _startupWallet, \r\n                _initialLoan, \r\n                _interestRate, \r\n                _maxConvertionRate, \r\n                _minConvertionRate, \r\n                _termalCoinPercentage, \r\n                _stableCoinPercentage, \r\n                _maxProjectime\r\n                );\r\n        startups[_startupWallet].hasContract = true;\r\n        startups[_startupWallet].startupContractAddress = address(newStartupContract);\r\n        newStartupContract.transferOwnership(msg.sender);\r\n    }\r\n    \r\n    function isValidStartup(address _startupAddress)\r\n        public\r\n        view\r\n        returns(bool)\r\n    {\r\n        return startups[_startupAddress].status;\r\n    }\r\n    \r\n    function getTotalStartups()\r\n        external\r\n        view\r\n        returns (uint)\r\n    {\r\n        return startupList.length;\r\n    }\r\n\r\n    //This function validate the startup's status before changing it.\r\n    function newStartupStatus(address _startupAddress, bool _status)\r\n        onlyOwner()\r\n        public\r\n    {\r\n        require(startups[_startupAddress].status != _status, \"New investor's status should be different!\");\r\n        startups[_startupAddress].status = _status;\r\n        emit LogNewStartupStatus(msg.sender, _startupAddress, _status);\r\n    }    \r\n}",
  "sourcePath": "/Users/gimer/Projects/TermalPolygon/contracts/StartupsHandler.sol",
  "compiler": {
    "name": "solc",
    "version": "0.8.9+commit.e5eed63a.Emscripten.clang"
  },
  "schemaVersion": "3.4.4",
  "updatedAt": "2022-01-27T05:29:13.656Z",
  "devdoc": {
    "kind": "dev",
    "methods": {
      "owner()": {
        "details": "Returns the address of the current owner."
      },
      "renounceOwnership()": {
        "details": "Leaves the contract without owner. It will not be possible to call `onlyOwner` functions anymore. Can only be called by the current owner. NOTE: Renouncing ownership will leave the contract without an owner, thereby removing any functionality that is only available to the owner."
      },
      "transferOwnership(address)": {
        "details": "Transfers ownership of the contract to a new account (`newOwner`). Can only be called by the current owner."
      }
    },
    "version": 1
  },
  "userdoc": {
    "kind": "user",
    "methods": {},
    "version": 1
  }
}