{
  "contractName": "StartupContract",
  "abi": [
    {
      "inputs": [
        {
          "internalType": "address",
          "name": "_startupWallet",
          "type": "address"
        },
        {
          "internalType": "uint256",
          "name": "_initialLoan",
          "type": "uint256"
        },
        {
          "internalType": "uint256",
          "name": "_interestRate",
          "type": "uint256"
        },
        {
          "internalType": "uint256",
          "name": "_maxConvertionRate",
          "type": "uint256"
        },
        {
          "internalType": "uint256",
          "name": "_minConvertionRate",
          "type": "uint256"
        },
        {
          "internalType": "uint256",
          "name": "_termalCoinPercentage",
          "type": "uint256"
        },
        {
          "internalType": "uint256",
          "name": "_stableCoinPercentage",
          "type": "uint256"
        },
        {
          "internalType": "uint256",
          "name": "_maxProjectTime",
          "type": "uint256"
        },
        {
          "internalType": "uint256",
          "name": "_activeFee",
          "type": "uint256"
        }
      ],
      "stateMutability": "nonpayable",
      "type": "constructor"
    },
    {
      "anonymous": false,
      "inputs": [
        {
          "indexed": false,
          "internalType": "address",
          "name": "_startupProfile",
          "type": "address"
        },
        {
          "indexed": false,
          "internalType": "uint256",
          "name": "_initialLoan",
          "type": "uint256"
        },
        {
          "indexed": false,
          "internalType": "uint256",
          "name": "_date",
          "type": "uint256"
        },
        {
          "indexed": false,
          "internalType": "uint256",
          "name": "_interestRate",
          "type": "uint256"
        }
      ],
      "name": "LogContractCreation",
      "type": "event"
    },
    {
      "anonymous": false,
      "inputs": [
        {
          "indexed": false,
          "internalType": "address",
          "name": "_owner",
          "type": "address"
        },
        {
          "indexed": false,
          "internalType": "uint256",
          "name": "_fundingMonths",
          "type": "uint256"
        },
        {
          "indexed": false,
          "internalType": "uint256",
          "name": "_honeymoon",
          "type": "uint256"
        },
        {
          "indexed": false,
          "internalType": "uint256",
          "name": "_interestOnly",
          "type": "uint256"
        },
        {
          "indexed": false,
          "internalType": "uint256",
          "name": "_interestAndCapital",
          "type": "uint256"
        }
      ],
      "name": "LogSetMonths",
      "type": "event"
    },
    {
      "anonymous": false,
      "inputs": [
        {
          "indexed": false,
          "internalType": "address",
          "name": "_owner",
          "type": "address"
        },
        {
          "indexed": false,
          "internalType": "address",
          "name": "_newOwner",
          "type": "address"
        }
      ],
      "name": "LogSetNewOwner",
      "type": "event"
    },
    {
      "anonymous": false,
      "inputs": [
        {
          "indexed": false,
          "internalType": "address",
          "name": "_sender",
          "type": "address"
        },
        {
          "indexed": false,
          "internalType": "bool",
          "name": "_signature",
          "type": "bool"
        },
        {
          "indexed": false,
          "internalType": "address",
          "name": "_startupProfile",
          "type": "address"
        },
        {
          "indexed": false,
          "internalType": "uint256",
          "name": "",
          "type": "uint256"
        }
      ],
      "name": "LogStartupSingature",
      "type": "event"
    },
    {
      "anonymous": false,
      "inputs": [
        {
          "indexed": true,
          "internalType": "address",
          "name": "previousOwner",
          "type": "address"
        },
        {
          "indexed": true,
          "internalType": "address",
          "name": "newOwner",
          "type": "address"
        }
      ],
      "name": "OwnershipTransferred",
      "type": "event"
    },
    {
      "inputs": [],
      "name": "activeFee",
      "outputs": [
        {
          "internalType": "uint256",
          "name": "",
          "type": "uint256"
        }
      ],
      "stateMutability": "view",
      "type": "function"
    },
    {
      "inputs": [],
      "name": "date",
      "outputs": [
        {
          "internalType": "uint256",
          "name": "",
          "type": "uint256"
        }
      ],
      "stateMutability": "view",
      "type": "function"
    },
    {
      "inputs": [],
      "name": "fundingMonths",
      "outputs": [
        {
          "internalType": "uint256",
          "name": "",
          "type": "uint256"
        }
      ],
      "stateMutability": "view",
      "type": "function"
    },
    {
      "inputs": [],
      "name": "honeymoon",
      "outputs": [
        {
          "internalType": "uint256",
          "name": "",
          "type": "uint256"
        }
      ],
      "stateMutability": "view",
      "type": "function"
    },
    {
      "inputs": [],
      "name": "initialLoan",
      "outputs": [
        {
          "internalType": "uint256",
          "name": "",
          "type": "uint256"
        }
      ],
      "stateMutability": "view",
      "type": "function"
    },
    {
      "inputs": [],
      "name": "interestAndCapital",
      "outputs": [
        {
          "internalType": "uint256",
          "name": "",
          "type": "uint256"
        }
      ],
      "stateMutability": "view",
      "type": "function"
    },
    {
      "inputs": [],
      "name": "interestOnly",
      "outputs": [
        {
          "internalType": "uint256",
          "name": "",
          "type": "uint256"
        }
      ],
      "stateMutability": "view",
      "type": "function"
    },
    {
      "inputs": [],
      "name": "interestRate",
      "outputs": [
        {
          "internalType": "uint256",
          "name": "",
          "type": "uint256"
        }
      ],
      "stateMutability": "view",
      "type": "function"
    },
    {
      "inputs": [],
      "name": "maxConvertionRate",
      "outputs": [
        {
          "internalType": "uint256",
          "name": "",
          "type": "uint256"
        }
      ],
      "stateMutability": "view",
      "type": "function"
    },
    {
      "inputs": [],
      "name": "maxProjectTime",
      "outputs": [
        {
          "internalType": "uint256",
          "name": "",
          "type": "uint256"
        }
      ],
      "stateMutability": "view",
      "type": "function"
    },
    {
      "inputs": [],
      "name": "minConvertionRate",
      "outputs": [
        {
          "internalType": "uint256",
          "name": "",
          "type": "uint256"
        }
      ],
      "stateMutability": "view",
      "type": "function"
    },
    {
      "inputs": [],
      "name": "owner",
      "outputs": [
        {
          "internalType": "address",
          "name": "",
          "type": "address"
        }
      ],
      "stateMutability": "view",
      "type": "function"
    },
    {
      "inputs": [],
      "name": "renounceOwnership",
      "outputs": [],
      "stateMutability": "nonpayable",
      "type": "function"
    },
    {
      "inputs": [],
      "name": "signature",
      "outputs": [
        {
          "internalType": "bool",
          "name": "",
          "type": "bool"
        }
      ],
      "stateMutability": "view",
      "type": "function"
    },
    {
      "inputs": [],
      "name": "stableCoinPercentage",
      "outputs": [
        {
          "internalType": "uint256",
          "name": "",
          "type": "uint256"
        }
      ],
      "stateMutability": "view",
      "type": "function"
    },
    {
      "inputs": [],
      "name": "startupWallet",
      "outputs": [
        {
          "internalType": "address",
          "name": "",
          "type": "address"
        }
      ],
      "stateMutability": "view",
      "type": "function"
    },
    {
      "inputs": [],
      "name": "termalCoinPercentage",
      "outputs": [
        {
          "internalType": "uint256",
          "name": "",
          "type": "uint256"
        }
      ],
      "stateMutability": "view",
      "type": "function"
    },
    {
      "inputs": [
        {
          "internalType": "address",
          "name": "newOwner",
          "type": "address"
        }
      ],
      "name": "transferOwnership",
      "outputs": [],
      "stateMutability": "nonpayable",
      "type": "function"
    },
    {
      "inputs": [
        {
          "internalType": "uint256",
          "name": "_fundingMonths",
          "type": "uint256"
        },
        {
          "internalType": "uint256",
          "name": "_honeymoon",
          "type": "uint256"
        },
        {
          "internalType": "uint256",
          "name": "_interestOnly",
          "type": "uint256"
        },
        {
          "internalType": "uint256",
          "name": "_interestAndCapital",
          "type": "uint256"
        }
      ],
      "name": "setMonths",
      "outputs": [],
      "stateMutability": "nonpayable",
      "type": "function"
    },
    {
      "inputs": [],
      "name": "getTotalMonths",
      "outputs": [
        {
          "internalType": "uint256",
          "name": "",
          "type": "uint256"
        }
      ],
      "stateMutability": "view",
      "type": "function"
    },
    {
      "inputs": [],
      "name": "startupSignature",
      "outputs": [],
      "stateMutability": "nonpayable",
      "type": "function"
    }
  ],
  "bytecode": "0x60806040523480156200001157600080fd5b5060405162001806380380620018068339818101604052810190620000379190620004d0565b620000576200004b6200017f60201b60201c565b6200018760201b60201c565b88600160006101000a81548173ffffffffffffffffffffffffffffffffffffffff021916908373ffffffffffffffffffffffffffffffffffffffff16021790555087600281905550426003819055506000600460006101000a81548160ff021916908315150217905550866005819055508560068190555084600781905550836008819055508260098190555081600e81905550620001026003806004600c6200024b60201b60201c565b80600f819055507fd912e0db3997b8efa782c542ab3e167df8ac40330751f5c28e1d35632d6ffadf600160009054906101000a900473ffffffffffffffffffffffffffffffffffffffff16600254600354600554604051620001689493929190620005d1565b60405180910390a150505050505050505062000822565b600033905090565b60008060009054906101000a900473ffffffffffffffffffffffffffffffffffffffff169050816000806101000a81548173ffffffffffffffffffffffffffffffffffffffff021916908373ffffffffffffffffffffffffffffffffffffffff1602179055508173ffffffffffffffffffffffffffffffffffffffff168173ffffffffffffffffffffffffffffffffffffffff167f8be0079c531659141344cd1fd0a4f28419497f9722a3daafe3b4186f6b6457e060405160405180910390a35050565b6200025b6200017f60201b60201c565b73ffffffffffffffffffffffffffffffffffffffff1662000281620003ea60201b60201c565b73ffffffffffffffffffffffffffffffffffffffff1614620002da576040517f08c379a0000000000000000000000000000000000000000000000000000000008152600401620002d1906200067f565b60405180910390fd5b6000620002f684866200041360201b620008dd1790919060201c565b905060006200031483856200041360201b620008dd1790919060201c565b905060006200033282846200041360201b620008dd1790919060201c565b9050600e548111156200037c576040517f08c379a0000000000000000000000000000000000000000000000000000000008152600401620003739062000717565b60405180910390fd5b86600a8190555085600b8190555084600c8190555083600d819055507fd9d73219186308fb5cd0317d12fd0e326d925501063d4596d5e84dd1708c8ffa33600a54600b54600c54600d54604051620003d995949392919062000739565b60405180910390a150505050505050565b60008060009054906101000a900473ffffffffffffffffffffffffffffffffffffffff16905090565b60008183620004239190620007c5565b905092915050565b600080fd5b600073ffffffffffffffffffffffffffffffffffffffff82169050919050565b60006200045d8262000430565b9050919050565b6200046f8162000450565b81146200047b57600080fd5b50565b6000815190506200048f8162000464565b92915050565b6000819050919050565b620004aa8162000495565b8114620004b657600080fd5b50565b600081519050620004ca816200049f565b92915050565b60008060008060008060008060006101208a8c031215620004f657620004f56200042b565b5b6000620005068c828d016200047e565b9950506020620005198c828d01620004b9565b98505060406200052c8c828d01620004b9565b97505060606200053f8c828d01620004b9565b9650506080620005528c828d01620004b9565b95505060a0620005658c828d01620004b9565b94505060c0620005788c828d01620004b9565b93505060e06200058b8c828d01620004b9565b9250506101006200059f8c828d01620004b9565b9150509295985092959850929598565b620005ba8162000450565b82525050565b620005cb8162000495565b82525050565b6000608082019050620005e86000830187620005af565b620005f76020830186620005c0565b620006066040830185620005c0565b620006156060830184620005c0565b95945050505050565b600082825260208201905092915050565b7f4f776e61626c653a2063616c6c6572206973206e6f7420746865206f776e6572600082015250565b6000620006676020836200061e565b915062000674826200062f565b602082019050919050565b600060208201905081810360008301526200069a8162000658565b9050919050565b7f53686f756c64206265206c657373206f7220657175616c20746f206d6178696d60008201527f756d2070726f6a6563742074696d650000000000000000000000000000000000602082015250565b6000620006ff602f836200061e565b91506200070c82620006a1565b604082019050919050565b600060208201905081810360008301526200073281620006f0565b9050919050565b600060a082019050620007506000830188620005af565b6200075f6020830187620005c0565b6200076e6040830186620005c0565b6200077d6060830185620005c0565b6200078c6080830184620005c0565b9695505050505050565b7f4e487b7100000000000000000000000000000000000000000000000000000000600052601160045260246000fd5b6000620007d28262000495565b9150620007df8362000495565b9250827fffffffffffffffffffffffffffffffffffffffffffffffffffffffffffffffff0382111562000817576200081662000796565b5b828201905092915050565b610fd480620008326000396000f3fe608060405234801561001057600080fd5b50600436106101375760003560e01c806374cf105e116100b85780638da5cb5b1161007c5780638da5cb5b146102d4578063b19ea0a6146102f2578063b2e062c014610310578063b2e595271461032e578063d35f33bf1461034c578063f2fde38b1461036a57610137565b806374cf105e1461023e578063762672241461025c5780637c3a00fd1461027a5780637e28f99c1461029857806383fe2b3d146102b657610137565b80634f554dea116100ff5780634f554dea146101bc57806351ff4847146101da578063589ac562146101f85780636abb373214610216578063715018a61461023457610137565b80631b48a3211461013c578063323046b11461015a578063368d883014610178578063390c193d146101965780634f4d5c10146101b2575b600080fd5b610144610386565b60405161015191906109d8565b60405180910390f35b61016261038c565b60405161016f91906109d8565b60405180910390f35b610180610392565b60405161018d91906109d8565b60405180910390f35b6101b060048036038101906101ab9190610a24565b610398565b005b6101ba61050a565b005b6101c461068f565b6040516101d191906109d8565b60405180910390f35b6101e2610695565b6040516101ef9190610aa6565b60405180910390f35b6102006106a8565b60405161020d91906109d8565b60405180910390f35b61021e6106ae565b60405161022b9190610b02565b60405180910390f35b61023c6106d4565b005b61024661075c565b60405161025391906109d8565b60405180910390f35b610264610762565b60405161027191906109d8565b60405180910390f35b610282610768565b60405161028f91906109d8565b60405180910390f35b6102a061076e565b6040516102ad91906109d8565b60405180910390f35b6102be610774565b6040516102cb91906109d8565b60405180910390f35b6102dc61077a565b6040516102e99190610b02565b60405180910390f35b6102fa6107a3565b60405161030791906109d8565b60405180910390f35b6103186107a9565b60405161032591906109d8565b60405180910390f35b6103366107da565b60405161034391906109d8565b60405180910390f35b6103546107e0565b60405161036191906109d8565b60405180910390f35b610384600480360381019061037f9190610b49565b6107e6565b005b60025481565b60035481565b600a5481565b6103a06108f3565b73ffffffffffffffffffffffffffffffffffffffff166103be61077a565b73ffffffffffffffffffffffffffffffffffffffff1614610414576040517f08c379a000000000000000000000000000000000000000000000000000000000815260040161040b90610bd3565b60405180910390fd5b600061042984866108dd90919063ffffffff16565b9050600061044083856108dd90919063ffffffff16565b9050600061045782846108dd90919063ffffffff16565b9050600e5481111561049e576040517f08c379a000000000000000000000000000000000000000000000000000000000815260040161049590610c65565b60405180910390fd5b86600a8190555085600b8190555084600c8190555083600d819055507fd9d73219186308fb5cd0317d12fd0e326d925501063d4596d5e84dd1708c8ffa33600a54600b54600c54600d546040516104f9959493929190610c85565b60405180910390a150505050505050565b3373ffffffffffffffffffffffffffffffffffffffff16600160009054906101000a900473ffffffffffffffffffffffffffffffffffffffff1673ffffffffffffffffffffffffffffffffffffffff161461059a576040517f08c379a000000000000000000000000000000000000000000000000000000000815260040161059190610d24565b60405180910390fd5b600460009054906101000a900460ff16156105ea576040517f08c379a00000000000000000000000000000000000000000000000000000000081526004016105e190610d90565b60405180910390fd5b60006105f46107a9565b11610634576040517f08c379a000000000000000000000000000000000000000000000000000000000815260040161062b90610e22565b60405180910390fd5b6001600460006101000a81548160ff0219169083151502179055507f51a1a099cba9a81d06bf524f39eed0ce75f3ffdcdf2a0fcc2f83f04f80d65aca33600133426040516106859493929190610e42565b60405180910390a1565b600c5481565b600460009054906101000a900460ff1681565b60095481565b600160009054906101000a900473ffffffffffffffffffffffffffffffffffffffff1681565b6106dc6108f3565b73ffffffffffffffffffffffffffffffffffffffff166106fa61077a565b73ffffffffffffffffffffffffffffffffffffffff1614610750576040517f08c379a000000000000000000000000000000000000000000000000000000000815260040161074790610bd3565b60405180910390fd5b61075a60006108fb565b565b600e5481565b60085481565b60055481565b60075481565b600f5481565b60008060009054906101000a900473ffffffffffffffffffffffffffffffffffffffff16905090565b600d5481565b6000600d54600c54600b54600a546107c19190610eb6565b6107cb9190610eb6565b6107d59190610eb6565b905090565b600b5481565b60065481565b6107ee6108f3565b73ffffffffffffffffffffffffffffffffffffffff1661080c61077a565b73ffffffffffffffffffffffffffffffffffffffff1614610862576040517f08c379a000000000000000000000000000000000000000000000000000000000815260040161085990610bd3565b60405180910390fd5b600073ffffffffffffffffffffffffffffffffffffffff168173ffffffffffffffffffffffffffffffffffffffff16036108d1576040517f08c379a00000000000000000000000000000000000000000000000000000000081526004016108c890610f7e565b60405180910390fd5b6108da816108fb565b50565b600081836108eb9190610eb6565b905092915050565b600033905090565b60008060009054906101000a900473ffffffffffffffffffffffffffffffffffffffff169050816000806101000a81548173ffffffffffffffffffffffffffffffffffffffff021916908373ffffffffffffffffffffffffffffffffffffffff1602179055508173ffffffffffffffffffffffffffffffffffffffff168173ffffffffffffffffffffffffffffffffffffffff167f8be0079c531659141344cd1fd0a4f28419497f9722a3daafe3b4186f6b6457e060405160405180910390a35050565b6000819050919050565b6109d2816109bf565b82525050565b60006020820190506109ed60008301846109c9565b92915050565b600080fd5b610a01816109bf565b8114610a0c57600080fd5b50565b600081359050610a1e816109f8565b92915050565b60008060008060808587031215610a3e57610a3d6109f3565b5b6000610a4c87828801610a0f565b9450506020610a5d87828801610a0f565b9350506040610a6e87828801610a0f565b9250506060610a7f87828801610a0f565b91505092959194509250565b60008115159050919050565b610aa081610a8b565b82525050565b6000602082019050610abb6000830184610a97565b92915050565b600073ffffffffffffffffffffffffffffffffffffffff82169050919050565b6000610aec82610ac1565b9050919050565b610afc81610ae1565b82525050565b6000602082019050610b176000830184610af3565b92915050565b610b2681610ae1565b8114610b3157600080fd5b50565b600081359050610b4381610b1d565b92915050565b600060208284031215610b5f57610b5e6109f3565b5b6000610b6d84828501610b34565b91505092915050565b600082825260208201905092915050565b7f4f776e61626c653a2063616c6c6572206973206e6f7420746865206f776e6572600082015250565b6000610bbd602083610b76565b9150610bc882610b87565b602082019050919050565b60006020820190508181036000830152610bec81610bb0565b9050919050565b7f53686f756c64206265206c657373206f7220657175616c20746f206d6178696d60008201527f756d2070726f6a6563742074696d650000000000000000000000000000000000602082015250565b6000610c4f602f83610b76565b9150610c5a82610bf3565b604082019050919050565b60006020820190508181036000830152610c7e81610c42565b9050919050565b600060a082019050610c9a6000830188610af3565b610ca760208301876109c9565b610cb460408301866109c9565b610cc160608301856109c9565b610cce60808301846109c9565b9695505050505050565b7f4f6e6c7920737461727475702073686f756c6420616363657074210000000000600082015250565b6000610d0e601b83610b76565b9150610d1982610cd8565b602082019050919050565b60006020820190508181036000830152610d3d81610d01565b9050919050565b7f436f6e747261637420686173206265656e207369676e65642100000000000000600082015250565b6000610d7a601983610b76565b9150610d8582610d44565b602082019050919050565b60006020820190508181036000830152610da981610d6d565b9050919050565b7f546f74616c206d6f6e7468732073686f756c642062652067726561746572207460008201527f68616e207a65726f210000000000000000000000000000000000000000000000602082015250565b6000610e0c602983610b76565b9150610e1782610db0565b604082019050919050565b60006020820190508181036000830152610e3b81610dff565b9050919050565b6000608082019050610e576000830187610af3565b610e646020830186610a97565b610e716040830185610af3565b610e7e60608301846109c9565b95945050505050565b7f4e487b7100000000000000000000000000000000000000000000000000000000600052601160045260246000fd5b6000610ec1826109bf565b9150610ecc836109bf565b9250827fffffffffffffffffffffffffffffffffffffffffffffffffffffffffffffffff03821115610f0157610f00610e87565b5b828201905092915050565b7f4f776e61626c653a206e6577206f776e657220697320746865207a65726f206160008201527f6464726573730000000000000000000000000000000000000000000000000000602082015250565b6000610f68602683610b76565b9150610f7382610f0c565b604082019050919050565b60006020820190508181036000830152610f9781610f5b565b905091905056fea2646970667358221220084ff8e251016e7f302babd41bbbe8559a6808b415158c9bfcb41bf69a8e35f764736f6c634300080e0033",
  "immutableReferences": {},
  "source": "// SPDX-License-Identifier: MIT\r\npragma solidity ^0.8.14;\r\n\r\nimport \"@openzeppelin/contracts/access/Ownable.sol\";\r\nimport \"@openzeppelin/contracts/utils/math/SafeMath.sol\";\r\n\r\ncontract StartupContract is Ownable {\r\n    using SafeMath for uint256;\r\n\r\n    address public startupWallet;\r\n    uint public initialLoan; //Amount in USD\r\n    uint public date;\r\n    bool public signature;\r\n    uint public interestRate; //% management fee\r\n    uint public maxConvertionRate;\r\n    uint public minConvertionRate;\r\n    uint public termalCoinPercentage;\r\n    uint public stableCoinPercentage;\r\n    uint public fundingMonths; \r\n    uint public honeymoon; //Months without payments\r\n    uint public interestOnly; //Interest only Months\r\n    uint public interestAndCapital; //Interes and capital payments\r\n    uint public maxProjectTime;\r\n    uint public activeFee;\r\n    \r\n    event LogContractCreation(address _startupProfile, uint _initialLoan, uint _date, uint _interestRate);\r\n    event LogStartupSingature(address _sender, bool _signature, address _startupProfile, uint);\r\n    event LogSetNewOwner(address _owner, address _newOwner);\r\n    \r\n    event LogSetMonths(address _owner, uint _fundingMonths, uint _honeymoon, uint _interestOnly, uint _interestAndCapital);\r\n    \r\n    constructor(\r\n            address _startupWallet,\r\n            uint _initialLoan,          \r\n            uint _interestRate,         \r\n            uint _maxConvertionRate,\r\n            uint _minConvertionRate,\r\n            uint _termalCoinPercentage,\r\n            uint _stableCoinPercentage,\r\n            uint _maxProjectTime,\r\n            uint _activeFee\r\n            )\r\n        {\r\n            startupWallet = _startupWallet; // Startup public key\r\n            initialLoan = _initialLoan;     // Initial loan without interests\r\n            date = block.timestamp;         // Current date\r\n            signature = false;              // This is false until startup accepts the contract.\r\n            interestRate = _interestRate;   // Managemet feee\r\n            maxConvertionRate = _maxConvertionRate; // Maximum convertion rate\r\n            minConvertionRate = _minConvertionRate; // Minimum convertion rate\r\n            termalCoinPercentage = _termalCoinPercentage; // Percentage of termal coins granted to the startup\r\n            stableCoinPercentage = _stableCoinPercentage; // Percentage of the stable coin granted to the startup\r\n            maxProjectTime = _maxProjectTime;             // Maximum total duration of the program\r\n            setMonths(3, 3, 4, 12);                       // Standar number of months\r\n            activeFee = _activeFee;                       // Percentage interest per year\r\n            emit LogContractCreation(startupWallet, initialLoan, date, interestRate);\r\n        }\r\n\r\n    function setMonths(uint _fundingMonths, uint _honeymoon, uint _interestOnly, uint _interestAndCapital)\r\n        onlyOwner()\r\n        public\r\n    {\r\n        uint sum1 = _fundingMonths.add(_honeymoon);\r\n        uint sum2 = _interestOnly.add(_interestAndCapital);\r\n        uint sum3 = sum1.add(sum2);\r\n\r\n        require(sum3 <= maxProjectTime, \"Should be less or equal to maximum project time\");\r\n        \r\n        fundingMonths = _fundingMonths;\r\n        honeymoon = _honeymoon;\r\n        interestOnly = _interestOnly;\r\n        interestAndCapital = _interestAndCapital;\r\n\r\n        emit LogSetMonths(msg.sender, fundingMonths, honeymoon, interestOnly, interestAndCapital);\r\n    }\r\n\r\n    //Total contract duration\r\n    function getTotalMonths() \r\n        public \r\n        view\r\n        returns (uint)\r\n    {\r\n        return (fundingMonths + honeymoon + interestOnly + interestAndCapital);\r\n    }\r\n\r\n    //Startup has to sign to accept the contract\r\n    function startupSignature()\r\n        external\r\n    {\r\n        require(startupWallet == msg.sender, \"Only startup should accept!\");\r\n        require(!signature, \"Contract has been signed!\");\r\n        require(getTotalMonths() > 0, \"Total months should be greater than zero!\" );\r\n        signature = true;\r\n\r\n        emit LogStartupSingature(msg.sender, true, msg.sender, block.timestamp);\r\n    }\r\n}",
  "sourcePath": "/Users/gimer/Projects/TermalPolygon/contracts/StartupContract.sol",
  "compiler": {
    "name": "solc",
    "version": "0.8.14+commit.80d49f37.Emscripten.clang"
  },
  "schemaVersion": "3.4.7",
  "updatedAt": "2022-06-23T02:48:17.506Z",
  "devdoc": {
    "kind": "dev",
    "methods": {
      "owner()": {
        "details": "Returns the address of the current owner."
      },
      "renounceOwnership()": {
        "details": "Leaves the contract without owner. It will not be possible to call `onlyOwner` functions anymore. Can only be called by the current owner. NOTE: Renouncing ownership will leave the contract without an owner, thereby removing any functionality that is only available to the owner."
      },
      "transferOwnership(address)": {
        "details": "Transfers ownership of the contract to a new account (`newOwner`). Can only be called by the current owner."
      }
    },
    "version": 1
  },
  "userdoc": {
    "kind": "user",
    "methods": {},
    "version": 1
  }
}