{
  "contractName": "Termal",
  "abi": [
    {
      "inputs": [
        {
          "internalType": "address",
          "name": "_dai",
          "type": "address"
        },
        {
          "internalType": "address",
          "name": "_termalToken",
          "type": "address"
        }
      ],
      "stateMutability": "payable",
      "type": "constructor"
    },
    {
      "anonymous": false,
      "inputs": [
        {
          "indexed": false,
          "internalType": "address",
          "name": "_creator",
          "type": "address"
        },
        {
          "indexed": false,
          "internalType": "address",
          "name": "_investorAddress",
          "type": "address"
        },
        {
          "indexed": false,
          "internalType": "string",
          "name": "_investorName",
          "type": "string"
        },
        {
          "indexed": false,
          "internalType": "uint256",
          "name": "_registerDate",
          "type": "uint256"
        },
        {
          "indexed": false,
          "internalType": "bool",
          "name": "_status",
          "type": "bool"
        },
        {
          "indexed": false,
          "internalType": "uint256",
          "name": "_rating",
          "type": "uint256"
        },
        {
          "indexed": false,
          "internalType": "uint256",
          "name": "_amountInvested",
          "type": "uint256"
        }
      ],
      "name": "LogCreateInvestor",
      "type": "event"
    },
    {
      "anonymous": false,
      "inputs": [
        {
          "indexed": false,
          "internalType": "address",
          "name": "_newStartupAddress",
          "type": "address"
        },
        {
          "indexed": false,
          "internalType": "address",
          "name": "_owner",
          "type": "address"
        }
      ],
      "name": "LogCreateStartup",
      "type": "event"
    },
    {
      "anonymous": false,
      "inputs": [
        {
          "indexed": false,
          "internalType": "address",
          "name": "_sender",
          "type": "address"
        },
        {
          "indexed": false,
          "internalType": "address",
          "name": "_receipent",
          "type": "address"
        },
        {
          "indexed": false,
          "internalType": "uint256",
          "name": "_amount",
          "type": "uint256"
        }
      ],
      "name": "LogDepositDai",
      "type": "event"
    },
    {
      "anonymous": false,
      "inputs": [
        {
          "indexed": false,
          "internalType": "address",
          "name": "_owner",
          "type": "address"
        },
        {
          "indexed": false,
          "internalType": "address",
          "name": "_investorAddress",
          "type": "address"
        },
        {
          "indexed": false,
          "internalType": "bool",
          "name": "_status",
          "type": "bool"
        }
      ],
      "name": "LogNewInvestorStatus",
      "type": "event"
    },
    {
      "anonymous": false,
      "inputs": [
        {
          "indexed": false,
          "internalType": "address",
          "name": "_owner",
          "type": "address"
        },
        {
          "indexed": false,
          "internalType": "address",
          "name": "_startupAddress",
          "type": "address"
        },
        {
          "indexed": false,
          "internalType": "bool",
          "name": "_status",
          "type": "bool"
        }
      ],
      "name": "LogNewStartupStatus",
      "type": "event"
    },
    {
      "anonymous": false,
      "inputs": [
        {
          "indexed": true,
          "internalType": "address",
          "name": "previousOwner",
          "type": "address"
        },
        {
          "indexed": true,
          "internalType": "address",
          "name": "newOwner",
          "type": "address"
        }
      ],
      "name": "OwnershipTransferred",
      "type": "event"
    },
    {
      "inputs": [],
      "name": "daiToken",
      "outputs": [
        {
          "internalType": "contract IERC20",
          "name": "",
          "type": "address"
        }
      ],
      "stateMutability": "view",
      "type": "function"
    },
    {
      "inputs": [
        {
          "internalType": "uint256",
          "name": "",
          "type": "uint256"
        }
      ],
      "name": "investorList",
      "outputs": [
        {
          "internalType": "address",
          "name": "",
          "type": "address"
        }
      ],
      "stateMutability": "view",
      "type": "function"
    },
    {
      "inputs": [
        {
          "internalType": "address",
          "name": "",
          "type": "address"
        }
      ],
      "name": "investors",
      "outputs": [
        {
          "internalType": "string",
          "name": "name",
          "type": "string"
        },
        {
          "internalType": "uint256",
          "name": "registerDate",
          "type": "uint256"
        },
        {
          "internalType": "bool",
          "name": "status",
          "type": "bool"
        },
        {
          "internalType": "uint256",
          "name": "rating",
          "type": "uint256"
        },
        {
          "internalType": "uint256",
          "name": "amountInvested",
          "type": "uint256"
        },
        {
          "internalType": "uint256",
          "name": "termalReceived",
          "type": "uint256"
        },
        {
          "internalType": "bool",
          "name": "hasContract",
          "type": "bool"
        },
        {
          "internalType": "address",
          "name": "investorContractAddress",
          "type": "address"
        }
      ],
      "stateMutability": "view",
      "type": "function"
    },
    {
      "inputs": [],
      "name": "owner",
      "outputs": [
        {
          "internalType": "address",
          "name": "",
          "type": "address"
        }
      ],
      "stateMutability": "view",
      "type": "function"
    },
    {
      "inputs": [],
      "name": "renounceOwnership",
      "outputs": [],
      "stateMutability": "nonpayable",
      "type": "function"
    },
    {
      "inputs": [
        {
          "internalType": "uint256",
          "name": "",
          "type": "uint256"
        }
      ],
      "name": "startupList",
      "outputs": [
        {
          "internalType": "address",
          "name": "",
          "type": "address"
        }
      ],
      "stateMutability": "view",
      "type": "function"
    },
    {
      "inputs": [
        {
          "internalType": "address",
          "name": "",
          "type": "address"
        }
      ],
      "name": "startups",
      "outputs": [
        {
          "internalType": "string",
          "name": "name",
          "type": "string"
        },
        {
          "internalType": "uint256",
          "name": "registerDate",
          "type": "uint256"
        },
        {
          "internalType": "bool",
          "name": "status",
          "type": "bool"
        },
        {
          "internalType": "bool",
          "name": "hasContract",
          "type": "bool"
        },
        {
          "internalType": "address",
          "name": "startupContractAddress",
          "type": "address"
        },
        {
          "internalType": "uint256",
          "name": "amountTermal",
          "type": "uint256"
        },
        {
          "internalType": "uint256",
          "name": "daiReceived",
          "type": "uint256"
        },
        {
          "internalType": "uint256",
          "name": "daiReturned",
          "type": "uint256"
        }
      ],
      "stateMutability": "view",
      "type": "function"
    },
    {
      "inputs": [],
      "name": "termalToken",
      "outputs": [
        {
          "internalType": "contract IERC20",
          "name": "",
          "type": "address"
        }
      ],
      "stateMutability": "view",
      "type": "function"
    },
    {
      "inputs": [
        {
          "internalType": "address",
          "name": "newOwner",
          "type": "address"
        }
      ],
      "name": "transferOwnership",
      "outputs": [],
      "stateMutability": "nonpayable",
      "type": "function"
    },
    {
      "inputs": [
        {
          "internalType": "address",
          "name": "_startupWallet",
          "type": "address"
        },
        {
          "internalType": "uint256",
          "name": "_initialLoan",
          "type": "uint256"
        },
        {
          "internalType": "uint256",
          "name": "_interestRate",
          "type": "uint256"
        },
        {
          "internalType": "uint256",
          "name": "_maxConvertionRate",
          "type": "uint256"
        },
        {
          "internalType": "uint256",
          "name": "_minConvertionRate",
          "type": "uint256"
        },
        {
          "internalType": "uint256",
          "name": "_termalCoinPercentage",
          "type": "uint256"
        },
        {
          "internalType": "uint256",
          "name": "_stableCoinPercentage",
          "type": "uint256"
        },
        {
          "internalType": "uint256",
          "name": "_maxProjectime",
          "type": "uint256"
        }
      ],
      "name": "createStartupContract",
      "outputs": [],
      "stateMutability": "nonpayable",
      "type": "function"
    },
    {
      "inputs": [
        {
          "internalType": "address",
          "name": "_investorWallet",
          "type": "address"
        },
        {
          "internalType": "uint256",
          "name": "_investment",
          "type": "uint256"
        },
        {
          "internalType": "uint256",
          "name": "_managementFee",
          "type": "uint256"
        },
        {
          "internalType": "uint256",
          "name": "_termalCoinRatio",
          "type": "uint256"
        }
      ],
      "name": "createInvestorContract",
      "outputs": [],
      "stateMutability": "nonpayable",
      "type": "function"
    },
    {
      "inputs": [
        {
          "internalType": "uint256",
          "name": "_amount",
          "type": "uint256"
        }
      ],
      "name": "depositDai",
      "outputs": [],
      "stateMutability": "nonpayable",
      "type": "function"
    },
    {
      "inputs": [
        {
          "internalType": "uint256",
          "name": "_amount",
          "type": "uint256"
        }
      ],
      "name": "returnDaiStartup",
      "outputs": [],
      "stateMutability": "nonpayable",
      "type": "function"
    },
    {
      "inputs": [
        {
          "internalType": "address",
          "name": "_startupAddress",
          "type": "address"
        },
        {
          "internalType": "uint256",
          "name": "_amount",
          "type": "uint256"
        }
      ],
      "name": "transferDai",
      "outputs": [],
      "stateMutability": "nonpayable",
      "type": "function"
    },
    {
      "inputs": [
        {
          "internalType": "address",
          "name": "_receiver",
          "type": "address"
        },
        {
          "internalType": "uint256",
          "name": "_amount",
          "type": "uint256"
        }
      ],
      "name": "transferTermal",
      "outputs": [],
      "stateMutability": "nonpayable",
      "type": "function"
    },
    {
      "inputs": [],
      "name": "getDaiContractBalance",
      "outputs": [
        {
          "internalType": "uint256",
          "name": "",
          "type": "uint256"
        }
      ],
      "stateMutability": "view",
      "type": "function"
    },
    {
      "inputs": [],
      "name": "getTermalTotalSupply",
      "outputs": [
        {
          "internalType": "uint256",
          "name": "",
          "type": "uint256"
        }
      ],
      "stateMutability": "view",
      "type": "function"
    },
    {
      "inputs": [
        {
          "internalType": "address",
          "name": "_wallet",
          "type": "address"
        }
      ],
      "name": "getTermalBalance",
      "outputs": [
        {
          "internalType": "uint256",
          "name": "",
          "type": "uint256"
        }
      ],
      "stateMutability": "view",
      "type": "function"
    },
    {
      "inputs": [
        {
          "internalType": "address",
          "name": "_startupWallet",
          "type": "address"
        },
        {
          "internalType": "string",
          "name": "_startupName",
          "type": "string"
        }
      ],
      "name": "createStartup",
      "outputs": [],
      "stateMutability": "nonpayable",
      "type": "function"
    },
    {
      "inputs": [
        {
          "internalType": "address",
          "name": "_startupAddress",
          "type": "address"
        }
      ],
      "name": "isValidStartup",
      "outputs": [
        {
          "internalType": "bool",
          "name": "",
          "type": "bool"
        }
      ],
      "stateMutability": "view",
      "type": "function"
    },
    {
      "inputs": [],
      "name": "getTotalStartups",
      "outputs": [
        {
          "internalType": "uint256",
          "name": "",
          "type": "uint256"
        }
      ],
      "stateMutability": "view",
      "type": "function"
    },
    {
      "inputs": [
        {
          "internalType": "address",
          "name": "_investorAddress",
          "type": "address"
        },
        {
          "internalType": "string",
          "name": "_investorName",
          "type": "string"
        }
      ],
      "name": "createInvestor",
      "outputs": [],
      "stateMutability": "nonpayable",
      "type": "function"
    },
    {
      "inputs": [
        {
          "internalType": "address",
          "name": "_investorAddress",
          "type": "address"
        }
      ],
      "name": "isValidInvestor",
      "outputs": [
        {
          "internalType": "bool",
          "name": "",
          "type": "bool"
        }
      ],
      "stateMutability": "view",
      "type": "function"
    },
    {
      "inputs": [
        {
          "internalType": "address",
          "name": "_investorAddress",
          "type": "address"
        },
        {
          "internalType": "bool",
          "name": "_status",
          "type": "bool"
        }
      ],
      "name": "newInvestorStatus",
      "outputs": [],
      "stateMutability": "nonpayable",
      "type": "function"
    },
    {
      "inputs": [
        {
          "internalType": "address",
          "name": "_startupAddress",
          "type": "address"
        },
        {
          "internalType": "bool",
          "name": "_status",
          "type": "bool"
        }
      ],
      "name": "newStartupStatus",
      "outputs": [],
      "stateMutability": "nonpayable",
      "type": "function"
    },
    {
      "inputs": [],
      "name": "getTotalInvestors",
      "outputs": [
        {
          "internalType": "uint256",
          "name": "",
          "type": "uint256"
        }
      ],
      "stateMutability": "view",
      "type": "function"
    }
  ],
  "bytecode": "0x608060405260405162005fc838038062005fc88339818101604052810190620000299190620001b6565b620000496200003d620000d360201b60201c565b620000db60201b60201c565b81600260006101000a81548173ffffffffffffffffffffffffffffffffffffffff021916908373ffffffffffffffffffffffffffffffffffffffff16021790555080600160006101000a81548173ffffffffffffffffffffffffffffffffffffffff021916908373ffffffffffffffffffffffffffffffffffffffff160217905550505062000245565b600033905090565b60008060009054906101000a900473ffffffffffffffffffffffffffffffffffffffff169050816000806101000a81548173ffffffffffffffffffffffffffffffffffffffff021916908373ffffffffffffffffffffffffffffffffffffffff1602179055508173ffffffffffffffffffffffffffffffffffffffff168173ffffffffffffffffffffffffffffffffffffffff167f8be0079c531659141344cd1fd0a4f28419497f9722a3daafe3b4186f6b6457e060405160405180910390a35050565b600081519050620001b0816200022b565b92915050565b60008060408385031215620001ca57600080fd5b6000620001da858286016200019f565b9250506020620001ed858286016200019f565b9150509250929050565b600062000204826200020b565b9050919050565b600073ffffffffffffffffffffffffffffffffffffffff82169050919050565b6200023681620001f7565b81146200024257600080fd5b50565b615d7380620002556000396000f3fe60806040523480156200001157600080fd5b5060043610620001b45760003560e01c80636f7bc9be11620000f3578063be22f54611620000a5578063e0bb8e6b116200007b578063e0bb8e6b1462000519578063f2fde38b1462000539578063f48b39dd1462000559578063ff429ce4146200057957620001b4565b8063be22f54614620004b5578063d3cd379b14620004d7578063d7766d7914620004f757620001b4565b80636f7bc9be14620003cd578063715018a6146200040a5780638da5cb5b146200041657806397c9f8ca14620004385780639855089b1462000458578063b82e412c146200047857620001b4565b806324a9caa0116200016b57806335842f74116200014157806335842f7414620003355780634031673814620003555780635092538a14620003755780636db074b214620003ab57620001b4565b806324a9caa014620002bd5780632993118b14620002f35780632aec4e6a146200031557620001b4565b806301670f5d14620001b957806303bd943014620001db5780630452141b14620002115780630d49b360146200023157806312f9b48e14620002515780631e7d1d7a1462000287575b600080fd5b620001c36200059b565b604051620001d291906200366d565b60405180910390f35b620001f96004803603810190620001f3919062002b95565b620005a8565b604051620002089190620030dd565b60405180910390f35b6200022f60048036038101906200022991906200295e565b620005e8565b005b6200024f6004803603810190620002499190620029f9565b6200079f565b005b6200026f600480360381019062000269919062002b95565b620008dc565b6040516200027e9190620030dd565b60405180910390f35b620002a560048036038101906200029f919062002932565b6200091c565b604051620002b491906200366d565b60405180910390f35b620002db6004803603810190620002d5919062002932565b620009d6565b604051620002ea91906200332d565b60405180910390f35b620002fd62000a2f565b6040516200030c91906200366d565b60405180910390f35b6200033360048036038101906200032d91906200295e565b62000ada565b005b6200035360048036038101906200034d919062002b95565b62000c91565b005b6200037360048036038101906200036d919062002a3a565b62000f89565b005b6200039360048036038101906200038d919062002932565b62001281565b604051620003a291906200332d565b60405180910390f35b620003b5620012da565b604051620003c491906200366d565b60405180910390f35b620003eb6004803603810190620003e5919062002932565b62001392565b60405162000401989796959493929190620033fc565b60405180910390f35b62000414620014a4565b005b6200042062001535565b6040516200042f9190620030dd565b60405180910390f35b6200045660048036038101906200045091906200299f565b6200155e565b005b62000476600480360381019062000470919062002b95565b6200188c565b005b62000496600480360381019062000490919062002932565b62001a36565b604051620004ac98979695949392919062003367565b60405180910390f35b620004bf62001b48565b604051620004ce91906200334a565b60405180910390f35b620004f56004803603810190620004ef919062002aa6565b62001b6e565b005b6200050162001e72565b6040516200051091906200366d565b60405180910390f35b6200053760048036038101906200053191906200299f565b62001e7f565b005b62000557600480360381019062000551919062002932565b620021a1565b005b620005776004803603810190620005719190620029f9565b620022a5565b005b620005836200268f565b6040516200059291906200334a565b60405180910390f35b6000600680549050905090565b60068181548110620005b957600080fd5b906000526020600020016000915054906101000a900473ffffffffffffffffffffffffffffffffffffffff1681565b620005f2620026b5565b73ffffffffffffffffffffffffffffffffffffffff166200061262001535565b73ffffffffffffffffffffffffffffffffffffffff16146200066b576040517f08c379a0000000000000000000000000000000000000000000000000000000008152600401620006629062003607565b60405180910390fd5b801515600360008473ffffffffffffffffffffffffffffffffffffffff1673ffffffffffffffffffffffffffffffffffffffff16815260200190815260200160002060020160009054906101000a900460ff161515141562000704576040517f08c379a0000000000000000000000000000000000000000000000000000000008152600401620006fb9062003519565b60405180910390fd5b80600360008473ffffffffffffffffffffffffffffffffffffffff1673ffffffffffffffffffffffffffffffffffffffff16815260200190815260200160002060020160006101000a81548160ff0219169083151502179055507f332e0c190aecd762f1cefd9994a03dba54e64671f2e34cba060887bef73088aa338383604051620007939392919062003127565b60405180910390a15050565b620007a9620026b5565b73ffffffffffffffffffffffffffffffffffffffff16620007c962001535565b73ffffffffffffffffffffffffffffffffffffffff161462000822576040517f08c379a0000000000000000000000000000000000000000000000000000000008152600401620008199062003607565b60405180910390fd5b600160009054906101000a900473ffffffffffffffffffffffffffffffffffffffff1673ffffffffffffffffffffffffffffffffffffffff1663a9059cbb83836040518363ffffffff1660e01b81526004016200088192919062003225565b602060405180830381600087803b1580156200089c57600080fd5b505af1158015620008b1573d6000803e3d6000fd5b505050506040513d601f19601f82011682018060405250810190620008d7919062002b69565b505050565b60048181548110620008ed57600080fd5b906000526020600020016000915054906101000a900473ffffffffffffffffffffffffffffffffffffffff1681565b6000600160009054906101000a900473ffffffffffffffffffffffffffffffffffffffff1673ffffffffffffffffffffffffffffffffffffffff166370a08231836040518263ffffffff1660e01b81526004016200097b9190620030dd565b60206040518083038186803b1580156200099457600080fd5b505afa158015620009a9573d6000803e3d6000fd5b505050506040513d601f19601f82011682018060405250810190620009cf919062002bc1565b9050919050565b6000600560008373ffffffffffffffffffffffffffffffffffffffff1673ffffffffffffffffffffffffffffffffffffffff16815260200190815260200160002060020160009054906101000a900460ff169050919050565b6000600160009054906101000a900473ffffffffffffffffffffffffffffffffffffffff1673ffffffffffffffffffffffffffffffffffffffff166318160ddd6040518163ffffffff1660e01b815260040160206040518083038186803b15801562000a9a57600080fd5b505afa15801562000aaf573d6000803e3d6000fd5b505050506040513d601f19601f8201168201806040525081019062000ad5919062002bc1565b905090565b62000ae4620026b5565b73ffffffffffffffffffffffffffffffffffffffff1662000b0462001535565b73ffffffffffffffffffffffffffffffffffffffff161462000b5d576040517f08c379a000000000000000000000000000000000000000000000000000000000815260040162000b549062003607565b60405180910390fd5b801515600560008473ffffffffffffffffffffffffffffffffffffffff1673ffffffffffffffffffffffffffffffffffffffff16815260200190815260200160002060020160009054906101000a900460ff161515141562000bf6576040517f08c379a000000000000000000000000000000000000000000000000000000000815260040162000bed9062003519565b60405180910390fd5b80600560008473ffffffffffffffffffffffffffffffffffffffff1673ffffffffffffffffffffffffffffffffffffffff16815260200190815260200160002060020160006101000a81548160ff0219169083151502179055507f8083c265edfbf4990ea1d34acae1ca957ae66839c462c223de6cdb26f30cfbd433838360405162000c859392919062003127565b60405180910390a15050565b62000c9c3362001281565b62000cde576040517f08c379a000000000000000000000000000000000000000000000000000000000815260040162000cd590620035e5565b60405180910390fd5b7f23e248fbc0567b09072f72a9c78b7b93af8c706dcc39f7843962e4ebe5171f2633308360405162000d1393929190620031e8565b60405180910390a16000600260009054906101000a900473ffffffffffffffffffffffffffffffffffffffff1673ffffffffffffffffffffffffffffffffffffffff166323b872dd3330856040518463ffffffff1660e01b815260040162000d7e93929190620031e8565b602060405180830381600087803b15801562000d9957600080fd5b505af115801562000dae573d6000803e3d6000fd5b505050506040513d601f19601f8201168201806040525081019062000dd4919062002b69565b90508062000e19576040517f08c379a000000000000000000000000000000000000000000000000000000000815260040162000e10906200364b565b60405180910390fd5b81600360003373ffffffffffffffffffffffffffffffffffffffff1673ffffffffffffffffffffffffffffffffffffffff168152602001908152602001600020600401600082825462000e6d91906200370d565b92505081905550600160009054906101000a900473ffffffffffffffffffffffffffffffffffffffff1673ffffffffffffffffffffffffffffffffffffffff1663a9059cbb33846040518363ffffffff1660e01b815260040162000ed392919062003225565b602060405180830381600087803b15801562000eee57600080fd5b505af115801562000f03573d6000803e3d6000fd5b505050506040513d601f19601f8201168201806040525081019062000f29919062002b69565b5081600360003373ffffffffffffffffffffffffffffffffffffffff1673ffffffffffffffffffffffffffffffffffffffff168152602001908152602001600020600501600082825462000f7e91906200370d565b925050819055505050565b62000f93620026b5565b73ffffffffffffffffffffffffffffffffffffffff1662000fb362001535565b73ffffffffffffffffffffffffffffffffffffffff16146200100c576040517f08c379a0000000000000000000000000000000000000000000000000000000008152600401620010039062003607565b60405180910390fd5b620010178462001281565b62001059576040517f08c379a00000000000000000000000000000000000000000000000000000000081526004016200105090620034d5565b60405180910390fd5b600560008573ffffffffffffffffffffffffffffffffffffffff1673ffffffffffffffffffffffffffffffffffffffff16815260200190815260200160002060020160019054906101000a900460ff1615620010ec576040517f08c379a0000000000000000000000000000000000000000000000000000000008152600401620010e3906200357f565b60405180910390fd5b600084848484604051620011009062002781565b6200110f949392919062003252565b604051809103906000f0801580156200112c573d6000803e3d6000fd5b5090506001600560008773ffffffffffffffffffffffffffffffffffffffff1673ffffffffffffffffffffffffffffffffffffffff16815260200190815260200160002060020160016101000a81548160ff02191690831515021790555080600560008773ffffffffffffffffffffffffffffffffffffffff1673ffffffffffffffffffffffffffffffffffffffff16815260200190815260200160002060020160026101000a81548173ffffffffffffffffffffffffffffffffffffffff021916908373ffffffffffffffffffffffffffffffffffffffff1602179055508073ffffffffffffffffffffffffffffffffffffffff1663f2fde38b336040518263ffffffff1660e01b8152600401620012469190620030dd565b600060405180830381600087803b1580156200126157600080fd5b505af115801562001276573d6000803e3d6000fd5b505050505050505050565b6000600360008373ffffffffffffffffffffffffffffffffffffffff1673ffffffffffffffffffffffffffffffffffffffff16815260200190815260200160002060020160009054906101000a900460ff169050919050565b6000600260009054906101000a900473ffffffffffffffffffffffffffffffffffffffff1673ffffffffffffffffffffffffffffffffffffffff166370a08231306040518263ffffffff1660e01b8152600401620013399190620030dd565b60206040518083038186803b1580156200135257600080fd5b505afa15801562001367573d6000803e3d6000fd5b505050506040513d601f19601f820116820180604052508101906200138d919062002bc1565b905090565b6003602052806000526040600020600091509050806000018054620013b79062003835565b80601f0160208091040260200160405190810160405280929190818152602001828054620013e59062003835565b8015620014365780601f106200140a5761010080835404028352916020019162001436565b820191906000526020600020905b8154815290600101906020018083116200141857829003601f168201915b5050505050908060010154908060020160009054906101000a900460ff16908060030154908060040154908060050154908060060160009054906101000a900460ff16908060060160019054906101000a900473ffffffffffffffffffffffffffffffffffffffff16905088565b620014ae620026b5565b73ffffffffffffffffffffffffffffffffffffffff16620014ce62001535565b73ffffffffffffffffffffffffffffffffffffffff161462001527576040517f08c379a00000000000000000000000000000000000000000000000000000000081526004016200151e9062003607565b60405180910390fd5b620015336000620026bd565b565b60008060009054906101000a900473ffffffffffffffffffffffffffffffffffffffff16905090565b62001568620026b5565b73ffffffffffffffffffffffffffffffffffffffff166200158862001535565b73ffffffffffffffffffffffffffffffffffffffff1614620015e1576040517f08c379a0000000000000000000000000000000000000000000000000000000008152600401620015d89062003607565b60405180910390fd5b600360008373ffffffffffffffffffffffffffffffffffffffff1673ffffffffffffffffffffffffffffffffffffffff16815260200190815260200160002060020160009054906101000a900460ff161562001674576040517f08c379a00000000000000000000000000000000000000000000000000000000081526004016200166b906200355d565b60405180910390fd5b604051806101000160405280828152602001428152602001600115158152602001600081526020016000815260200160008152602001600015158152602001600073ffffffffffffffffffffffffffffffffffffffff16815250600360008473ffffffffffffffffffffffffffffffffffffffff1673ffffffffffffffffffffffffffffffffffffffff16815260200190815260200160002060008201518160000190805190602001906200172b9291906200278f565b506020820151816001015560408201518160020160006101000a81548160ff021916908315150217905550606082015181600301556080820151816004015560a0820151816005015560c08201518160060160006101000a81548160ff02191690831515021790555060e08201518160060160016101000a81548173ffffffffffffffffffffffffffffffffffffffff021916908373ffffffffffffffffffffffffffffffffffffffff1602179055509050506004829080600181540180825580915050600190039060005260206000200160009091909190916101000a81548173ffffffffffffffffffffffffffffffffffffffff021916908373ffffffffffffffffffffffffffffffffffffffff1602179055507f927948467456f386be96283ad93519b24ab0c6e7920614aec64789679078d1c433838342600160008060405162001880979695949392919062003164565b60405180910390a15050565b6200189733620009d6565b620018d9576040517f08c379a0000000000000000000000000000000000000000000000000000000008152600401620018d090620035a1565b60405180910390fd5b6000600260009054906101000a900473ffffffffffffffffffffffffffffffffffffffff1673ffffffffffffffffffffffffffffffffffffffff166323b872dd3330856040518463ffffffff1660e01b81526004016200193c93929190620031e8565b602060405180830381600087803b1580156200195757600080fd5b505af11580156200196c573d6000803e3d6000fd5b505050506040513d601f19601f8201168201806040525081019062001992919062002b69565b905080620019d7576040517f08c379a0000000000000000000000000000000000000000000000000000000008152600401620019ce906200364b565b60405180910390fd5b81600560003373ffffffffffffffffffffffffffffffffffffffff1673ffffffffffffffffffffffffffffffffffffffff168152602001908152602001600020600501600082825462001a2b91906200370d565b925050819055505050565b600560205280600052604060002060009150905080600001805462001a5b9062003835565b80601f016020809104026020016040519081016040528092919081815260200182805462001a899062003835565b801562001ada5780601f1062001aae5761010080835404028352916020019162001ada565b820191906000526020600020905b81548152906001019060200180831162001abc57829003601f168201915b5050505050908060010154908060020160009054906101000a900460ff16908060020160019054906101000a900460ff16908060020160029054906101000a900473ffffffffffffffffffffffffffffffffffffffff16908060030154908060040154908060050154905088565b600260009054906101000a900473ffffffffffffffffffffffffffffffffffffffff1681565b62001b78620026b5565b73ffffffffffffffffffffffffffffffffffffffff1662001b9862001535565b73ffffffffffffffffffffffffffffffffffffffff161462001bf1576040517f08c379a000000000000000000000000000000000000000000000000000000000815260040162001be89062003607565b60405180910390fd5b62001bfc88620009d6565b62001c3e576040517f08c379a000000000000000000000000000000000000000000000000000000000815260040162001c3590620035c3565b60405180910390fd5b600560008973ffffffffffffffffffffffffffffffffffffffff1673ffffffffffffffffffffffffffffffffffffffff16815260200190815260200160002060020160019054906101000a900460ff161562001cd1576040517f08c379a000000000000000000000000000000000000000000000000000000000815260040162001cc8906200357f565b60405180910390fd5b6000888888888888888860405162001ce99062002820565b62001cfc9897969594939291906200329f565b604051809103906000f08015801562001d19573d6000803e3d6000fd5b5090506001600560008b73ffffffffffffffffffffffffffffffffffffffff1673ffffffffffffffffffffffffffffffffffffffff16815260200190815260200160002060020160016101000a81548160ff02191690831515021790555080600560008b73ffffffffffffffffffffffffffffffffffffffff1673ffffffffffffffffffffffffffffffffffffffff16815260200190815260200160002060020160026101000a81548173ffffffffffffffffffffffffffffffffffffffff021916908373ffffffffffffffffffffffffffffffffffffffff1602179055508073ffffffffffffffffffffffffffffffffffffffff1663f2fde38b336040518263ffffffff1660e01b815260040162001e339190620030dd565b600060405180830381600087803b15801562001e4e57600080fd5b505af115801562001e63573d6000803e3d6000fd5b50505050505050505050505050565b6000600480549050905090565b62001e89620026b5565b73ffffffffffffffffffffffffffffffffffffffff1662001ea962001535565b73ffffffffffffffffffffffffffffffffffffffff161462001f02576040517f08c379a000000000000000000000000000000000000000000000000000000000815260040162001ef99062003607565b60405180910390fd5b600560008373ffffffffffffffffffffffffffffffffffffffff1673ffffffffffffffffffffffffffffffffffffffff16815260200190815260200160002060020160009054906101000a900460ff161562001f95576040517f08c379a000000000000000000000000000000000000000000000000000000000815260040162001f8c90620034b3565b60405180910390fd5b604051806101000160405280828152602001428152602001600115158152602001600015158152602001600073ffffffffffffffffffffffffffffffffffffffff16815260200160008152602001600081526020016000815250600560008473ffffffffffffffffffffffffffffffffffffffff1673ffffffffffffffffffffffffffffffffffffffff16815260200190815260200160002060008201518160000190805190602001906200204c9291906200278f565b506020820151816001015560408201518160020160006101000a81548160ff02191690831515021790555060608201518160020160016101000a81548160ff02191690831515021790555060808201518160020160026101000a81548173ffffffffffffffffffffffffffffffffffffffff021916908373ffffffffffffffffffffffffffffffffffffffff16021790555060a0820151816003015560c0820151816004015560e082015181600501559050506006829080600181540180825580915050600190039060005260206000200160009091909190916101000a81548173ffffffffffffffffffffffffffffffffffffffff021916908373ffffffffffffffffffffffffffffffffffffffff1602179055507f9c01fa4ff82148506de685ddc052bf11c9682218084bc9850ee6865937631cbf823360405162002195929190620030fa565b60405180910390a15050565b620021ab620026b5565b73ffffffffffffffffffffffffffffffffffffffff16620021cb62001535565b73ffffffffffffffffffffffffffffffffffffffff161462002224576040517f08c379a00000000000000000000000000000000000000000000000000000000081526004016200221b9062003607565b60405180910390fd5b600073ffffffffffffffffffffffffffffffffffffffff168173ffffffffffffffffffffffffffffffffffffffff16141562002297576040517f08c379a00000000000000000000000000000000000000000000000000000000081526004016200228e906200353b565b60405180910390fd5b620022a281620026bd565b50565b620022af620026b5565b73ffffffffffffffffffffffffffffffffffffffff16620022cf62001535565b73ffffffffffffffffffffffffffffffffffffffff161462002328576040517f08c379a00000000000000000000000000000000000000000000000000000000081526004016200231f9062003607565b60405180910390fd5b6200233382620009d6565b62002375576040517f08c379a00000000000000000000000000000000000000000000000000000000081526004016200236c9062003491565b60405180910390fd5b600560008373ffffffffffffffffffffffffffffffffffffffff1673ffffffffffffffffffffffffffffffffffffffff16815260200190815260200160002060020160019054906101000a900460ff1662002407576040517f08c379a0000000000000000000000000000000000000000000000000000000008152600401620023fe9062003629565b60405180910390fd5b6000600560008473ffffffffffffffffffffffffffffffffffffffff1673ffffffffffffffffffffffffffffffffffffffff16815260200190815260200160002060020160029054906101000a900473ffffffffffffffffffffffffffffffffffffffff1690508073ffffffffffffffffffffffffffffffffffffffff166351ff48476040518163ffffffff1660e01b815260040160206040518083038186803b158015620024b557600080fd5b505afa158015620024ca573d6000803e3d6000fd5b505050506040513d601f19601f82011682018060405250810190620024f0919062002b69565b62002532576040517f08c379a00000000000000000000000000000000000000000000000000000000081526004016200252990620034f7565b60405180910390fd5b6000600260009054906101000a900473ffffffffffffffffffffffffffffffffffffffff1673ffffffffffffffffffffffffffffffffffffffff1663a9059cbb85856040518363ffffffff1660e01b81526004016200259392919062003225565b602060405180830381600087803b158015620025ae57600080fd5b505af1158015620025c3573d6000803e3d6000fd5b505050506040513d601f19601f82011682018060405250810190620025e9919062002b69565b9050806200262e576040517f08c379a000000000000000000000000000000000000000000000000000000000815260040162002625906200364b565b60405180910390fd5b82600560008673ffffffffffffffffffffffffffffffffffffffff1673ffffffffffffffffffffffffffffffffffffffff16815260200190815260200160002060040160008282546200268291906200370d565b9250508190555050505050565b600160009054906101000a900473ffffffffffffffffffffffffffffffffffffffff1681565b600033905090565b60008060009054906101000a900473ffffffffffffffffffffffffffffffffffffffff169050816000806101000a81548173ffffffffffffffffffffffffffffffffffffffff021916908373ffffffffffffffffffffffffffffffffffffffff1602179055508173ffffffffffffffffffffffffffffffffffffffff168173ffffffffffffffffffffffffffffffffffffffff167f8be0079c531659141344cd1fd0a4f28419497f9722a3daafe3b4186f6b6457e060405160405180910390a35050565b610ca7806200395883390190565b8280546200279d9062003835565b90600052602060002090601f016020900481019282620027c157600085556200280d565b82601f10620027dc57805160ff19168380011785556200280d565b828001600101855582156200280d579182015b828111156200280c578251825591602001919060010190620027ef565b5b5090506200281c91906200282e565b5090565b61173f80620045ff83390190565b5b80821115620028495760008160009055506001016200282f565b5090565b6000620028646200285e84620036be565b6200368a565b9050828152602081018484840111156200287d57600080fd5b6200288a848285620037f0565b509392505050565b600081359050620028a38162003909565b92915050565b600081359050620028ba8162003923565b92915050565b600081519050620028d18162003923565b92915050565b600082601f830112620028e957600080fd5b8135620028fb8482602086016200284d565b91505092915050565b60008135905062002915816200393d565b92915050565b6000815190506200292c816200393d565b92915050565b6000602082840312156200294557600080fd5b6000620029558482850162002892565b91505092915050565b600080604083850312156200297257600080fd5b6000620029828582860162002892565b92505060206200299585828601620028a9565b9150509250929050565b60008060408385031215620029b357600080fd5b6000620029c38582860162002892565b925050602083013567ffffffffffffffff811115620029e157600080fd5b620029ef85828601620028d7565b9150509250929050565b6000806040838503121562002a0d57600080fd5b600062002a1d8582860162002892565b925050602062002a308582860162002904565b9150509250929050565b6000806000806080858703121562002a5157600080fd5b600062002a618782880162002892565b945050602062002a748782880162002904565b935050604062002a878782880162002904565b925050606062002a9a8782880162002904565b91505092959194509250565b600080600080600080600080610100898b03121562002ac457600080fd5b600062002ad48b828c0162002892565b985050602062002ae78b828c0162002904565b975050604062002afa8b828c0162002904565b965050606062002b0d8b828c0162002904565b955050608062002b208b828c0162002904565b94505060a062002b338b828c0162002904565b93505060c062002b468b828c0162002904565b92505060e062002b598b828c0162002904565b9150509295985092959890939650565b60006020828403121562002b7c57600080fd5b600062002b8c84828501620028c0565b91505092915050565b60006020828403121562002ba857600080fd5b600062002bb88482850162002904565b91505092915050565b60006020828403121562002bd457600080fd5b600062002be4848285016200291b565b91505092915050565b62002bf8816200376a565b82525050565b62002c09816200377e565b82525050565b62002c1a81620037b4565b82525050565b62002c2b81620037dc565b82525050565b600062002c3e82620036f1565b62002c4a8185620036fc565b935062002c5c818560208601620037ff565b62002c6781620038f8565b840191505092915050565b600062002c81601883620036fc565b91507f537461727475702073686f756c642062652076616c69642100000000000000006000830152602082019050919050565b600062002cc3601683620036fc565b91507f53746172747570206973207265676973746572656421000000000000000000006000830152602082019050919050565b600062002d05602783620036fc565b91507f496e766573746f722077616c6c6574206973206e6f7420612076616c6964206360008301527f6f6e7472616374000000000000000000000000000000000000000000000000006020830152604082019050919050565b600062002d6d602083620036fc565b91507f436f6e74726163742073686f756c64206265207369676e6564206669727374216000830152602082019050919050565b600062002daf602a83620036fc565b91507f4e657720696e766573746f722773207374617475732073686f756c642062652060008301527f646966666572656e7421000000000000000000000000000000000000000000006020830152604082019050919050565b600062002e17602683620036fc565b91507f4f776e61626c653a206e6577206f776e657220697320746865207a65726f206160008301527f64647265737300000000000000000000000000000000000000000000000000006020830152604082019050919050565b600062002e7f602183620036fc565b91507f496e766573746f7227732061646472657373206973207265676973746572656460008301527f21000000000000000000000000000000000000000000000000000000000000006020830152604082019050919050565b600062002ee7601683620036fc565b91507f5374617274757020686173206120636f6e7472616374000000000000000000006000830152602082019050919050565b600062002f29601a83620036fc565b91507f53746172747570206973206e6f742072656769737465726564210000000000006000830152602082019050919050565b600062002f6b602783620036fc565b91507f537461727475702070726f66696c65206973206e6f7420612076616c6964206360008301527f6f6e7472616374000000000000000000000000000000000000000000000000006020830152604082019050919050565b600062002fd3601883620036fc565b91507f496e766573746f72206e6f7420726567697374657265642100000000000000006000830152602082019050919050565b600062003015602083620036fc565b91507f4f776e61626c653a2063616c6c6572206973206e6f7420746865206f776e65726000830152602082019050919050565b600062003057601f83620036fc565b91507f537461727475702073686f756c642068617665206120636f6e747261637421006000830152602082019050919050565b600062003099600f83620036fc565b91507f4465706f736974206661696c65642100000000000000000000000000000000006000830152602082019050919050565b620030d781620037aa565b82525050565b6000602082019050620030f4600083018462002bed565b92915050565b600060408201905062003111600083018562002bed565b62003120602083018462002bed565b9392505050565b60006060820190506200313e600083018662002bed565b6200314d602083018562002bed565b6200315c604083018462002bfe565b949350505050565b600060e0820190506200317b600083018a62002bed565b6200318a602083018962002bed565b81810360408301526200319e818862002c31565b9050620031af6060830187620030cc565b620031be608083018662002bfe565b620031cd60a083018562002c20565b620031dc60c083018462002c20565b98975050505050505050565b6000606082019050620031ff600083018662002bed565b6200320e602083018562002bed565b6200321d6040830184620030cc565b949350505050565b60006040820190506200323c600083018562002bed565b6200324b6020830184620030cc565b9392505050565b600060808201905062003269600083018762002bed565b620032786020830186620030cc565b620032876040830185620030cc565b620032966060830184620030cc565b95945050505050565b600061010082019050620032b7600083018b62002bed565b620032c6602083018a620030cc565b620032d56040830189620030cc565b620032e46060830188620030cc565b620032f36080830187620030cc565b6200330260a0830186620030cc565b6200331160c0830185620030cc565b6200332060e0830184620030cc565b9998505050505050505050565b600060208201905062003344600083018462002bfe565b92915050565b600060208201905062003361600083018462002c0f565b92915050565b600061010082019050818103600083015262003384818b62002c31565b905062003395602083018a620030cc565b620033a4604083018962002bfe565b620033b3606083018862002bfe565b620033c2608083018762002bed565b620033d160a0830186620030cc565b620033e060c0830185620030cc565b620033ef60e0830184620030cc565b9998505050505050505050565b600061010082019050818103600083015262003419818b62002c31565b90506200342a602083018a620030cc565b62003439604083018962002bfe565b620034486060830188620030cc565b620034576080830187620030cc565b6200346660a0830186620030cc565b6200347560c083018562002bfe565b6200348460e083018462002bed565b9998505050505050505050565b60006020820190508181036000830152620034ac8162002c72565b9050919050565b60006020820190508181036000830152620034ce8162002cb4565b9050919050565b60006020820190508181036000830152620034f08162002cf6565b9050919050565b60006020820190508181036000830152620035128162002d5e565b9050919050565b60006020820190508181036000830152620035348162002da0565b9050919050565b60006020820190508181036000830152620035568162002e08565b9050919050565b60006020820190508181036000830152620035788162002e70565b9050919050565b600060208201905081810360008301526200359a8162002ed8565b9050919050565b60006020820190508181036000830152620035bc8162002f1a565b9050919050565b60006020820190508181036000830152620035de8162002f5c565b9050919050565b60006020820190508181036000830152620036008162002fc4565b9050919050565b60006020820190508181036000830152620036228162003006565b9050919050565b60006020820190508181036000830152620036448162003048565b9050919050565b6000602082019050818103600083015262003666816200308a565b9050919050565b6000602082019050620036846000830184620030cc565b92915050565b6000604051905081810181811067ffffffffffffffff82111715620036b457620036b3620038c9565b5b8060405250919050565b600067ffffffffffffffff821115620036dc57620036db620038c9565b5b601f19601f8301169050602081019050919050565b600081519050919050565b600082825260208201905092915050565b60006200371a82620037aa565b91506200372783620037aa565b9250827fffffffffffffffffffffffffffffffffffffffffffffffffffffffffffffffff038211156200375f576200375e6200386b565b5b828201905092915050565b600062003777826200378a565b9050919050565b60008115159050919050565b600073ffffffffffffffffffffffffffffffffffffffff82169050919050565b6000819050919050565b6000620037c182620037c8565b9050919050565b6000620037d5826200378a565b9050919050565b6000620037e982620037aa565b9050919050565b82818337600083830152505050565b60005b838110156200381f57808201518184015260208101905062003802565b838111156200382f576000848401525b50505050565b600060028204905060018216806200384e57607f821691505b602082108114156200386557620038646200389a565b5b50919050565b7f4e487b7100000000000000000000000000000000000000000000000000000000600052601160045260246000fd5b7f4e487b7100000000000000000000000000000000000000000000000000000000600052602260045260246000fd5b7f4e487b7100000000000000000000000000000000000000000000000000000000600052604160045260246000fd5b6000601f19601f8301169050919050565b62003914816200376a565b81146200392057600080fd5b50565b6200392e816200377e565b81146200393a57600080fd5b50565b6200394881620037aa565b81146200395457600080fd5b5056fe60806040523480156200001157600080fd5b5060405162000ca738038062000ca7833981810160405281019062000037919062000238565b620000576200004b6200013e60201b60201c565b6200014660201b60201c565b83600160006101000a81548173ffffffffffffffffffffffffffffffffffffffff021916908373ffffffffffffffffffffffffffffffffffffffff1602179055508260028190555081600381905550426004819055506000600560006101000a81548160ff021916908315150217905550806006819055507f4309a225233e9030fbc979e314e7b523c38f7d37946678ff4ba75e9184fc0d9833600160009054906101000a900473ffffffffffffffffffffffffffffffffffffffff166002546004546040516200012c9493929190620002c6565b60405180910390a15050505062000385565b600033905090565b60008060009054906101000a900473ffffffffffffffffffffffffffffffffffffffff169050816000806101000a81548173ffffffffffffffffffffffffffffffffffffffff021916908373ffffffffffffffffffffffffffffffffffffffff1602179055508173ffffffffffffffffffffffffffffffffffffffff168173ffffffffffffffffffffffffffffffffffffffff167f8be0079c531659141344cd1fd0a4f28419497f9722a3daafe3b4186f6b6457e060405160405180910390a35050565b6000815190506200021b8162000351565b92915050565b60008151905062000232816200036b565b92915050565b600080600080608085870312156200024f57600080fd5b60006200025f878288016200020a565b9450506020620002728782880162000221565b9350506040620002858782880162000221565b9250506060620002988782880162000221565b91505092959194509250565b620002af8162000313565b82525050565b620002c08162000347565b82525050565b6000608082019050620002dd6000830187620002a4565b620002ec6020830186620002a4565b620002fb6040830185620002b5565b6200030a6060830184620002b5565b95945050505050565b6000620003208262000327565b9050919050565b600073ffffffffffffffffffffffffffffffffffffffff82169050919050565b6000819050919050565b6200035c8162000313565b81146200036857600080fd5b50565b620003768162000347565b81146200038257600080fd5b50565b61091280620003956000396000f3fe608060405234801561001057600080fd5b50600436106100a95760003560e01c8063715018a611610071578063715018a61461013057806381cb8ae11461013a5780638da5cb5b14610158578063a6f7f5d614610176578063c24a0f8b14610194578063f2fde38b146101b2576100a9565b8063323046b1146100ae57806345fbfbca146100cc5780634f4d5c10146100ea57806351ff4847146100f4578063643aff0f14610112575b600080fd5b6100b66101ce565b6040516100c39190610851565b60405180910390f35b6100d46101d4565b6040516100e19190610851565b60405180910390f35b6100f26101da565b005b6100fc610313565b60405161010991906107b6565b60405180910390f35b61011a610326565b6040516101279190610764565b60405180910390f35b61013861034c565b005b6101426103d4565b60405161014f9190610851565b60405180910390f35b6101606103da565b60405161016d9190610764565b60405180910390f35b61017e610403565b60405161018b9190610851565b60405180910390f35b61019c610409565b6040516101a99190610851565b60405180910390f35b6101cc60048036038101906101c791906105e8565b61040f565b005b60045481565b60025481565b3373ffffffffffffffffffffffffffffffffffffffff16600160009054906101000a900473ffffffffffffffffffffffffffffffffffffffff1673ffffffffffffffffffffffffffffffffffffffff161461026a576040517f08c379a000000000000000000000000000000000000000000000000000000000815260040161026190610811565b60405180910390fd5b600560009054906101000a900460ff16156102ba576040517f08c379a00000000000000000000000000000000000000000000000000000000081526004016102b1906107f1565b60405180910390fd5b6001600560006101000a81548160ff0219169083151502179055507fe21af13e061ea0d637068fd172d57075690af2c7d6c696319a8d13c763009bf9336001426040516103099392919061077f565b60405180910390a1565b600560009054906101000a900460ff1681565b600160009054906101000a900473ffffffffffffffffffffffffffffffffffffffff1681565b610354610507565b73ffffffffffffffffffffffffffffffffffffffff166103726103da565b73ffffffffffffffffffffffffffffffffffffffff16146103c8576040517f08c379a00000000000000000000000000000000000000000000000000000000081526004016103bf90610831565b60405180910390fd5b6103d2600061050f565b565b60065481565b60008060009054906101000a900473ffffffffffffffffffffffffffffffffffffffff16905090565b60035481565b60075481565b610417610507565b73ffffffffffffffffffffffffffffffffffffffff166104356103da565b73ffffffffffffffffffffffffffffffffffffffff161461048b576040517f08c379a000000000000000000000000000000000000000000000000000000000815260040161048290610831565b60405180910390fd5b600073ffffffffffffffffffffffffffffffffffffffff168173ffffffffffffffffffffffffffffffffffffffff1614156104fb576040517f08c379a00000000000000000000000000000000000000000000000000000000081526004016104f2906107d1565b60405180910390fd5b6105048161050f565b50565b600033905090565b60008060009054906101000a900473ffffffffffffffffffffffffffffffffffffffff169050816000806101000a81548173ffffffffffffffffffffffffffffffffffffffff021916908373ffffffffffffffffffffffffffffffffffffffff1602179055508173ffffffffffffffffffffffffffffffffffffffff168173ffffffffffffffffffffffffffffffffffffffff167f8be0079c531659141344cd1fd0a4f28419497f9722a3daafe3b4186f6b6457e060405160405180910390a35050565b6000813590506105e2816108c5565b92915050565b6000602082840312156105fa57600080fd5b6000610608848285016105d3565b91505092915050565b61061a8161087d565b82525050565b6106298161088f565b82525050565b600061063c60268361086c565b91507f4f776e61626c653a206e6577206f776e657220697320746865207a65726f206160008301527f64647265737300000000000000000000000000000000000000000000000000006020830152604082019050919050565b60006106a260198361086c565b91507f436f6e747261637420686173206265656e207369676e656421000000000000006000830152602082019050919050565b60006106e2601c8361086c565b91507f4f6e6c7920696e766573746f722073686f756c642061636365707421000000006000830152602082019050919050565b600061072260208361086c565b91507f4f776e61626c653a2063616c6c6572206973206e6f7420746865206f776e65726000830152602082019050919050565b61075e816108bb565b82525050565b60006020820190506107796000830184610611565b92915050565b60006060820190506107946000830186610611565b6107a16020830185610620565b6107ae6040830184610755565b949350505050565b60006020820190506107cb6000830184610620565b92915050565b600060208201905081810360008301526107ea8161062f565b9050919050565b6000602082019050818103600083015261080a81610695565b9050919050565b6000602082019050818103600083015261082a816106d5565b9050919050565b6000602082019050818103600083015261084a81610715565b9050919050565b60006020820190506108666000830184610755565b92915050565b600082825260208201905092915050565b60006108888261089b565b9050919050565b60008115159050919050565b600073ffffffffffffffffffffffffffffffffffffffff82169050919050565b6000819050919050565b6108ce8161087d565b81146108d957600080fd5b5056fea2646970667358221220636caac0a1440169d13a7436a1eeedee2764be9449ede0f3f7bc2fb2de0ccad864736f6c6343000800003360806040523480156200001157600080fd5b506040516200173f3803806200173f833981810160405281019062000037919062000452565b620000576200004b6200017860201b60201c565b6200018060201b60201c565b87600160006101000a81548173ffffffffffffffffffffffffffffffffffffffff021916908373ffffffffffffffffffffffffffffffffffffffff16021790555086600281905550426003819055506000600460006101000a81548160ff021916908315150217905550856005819055508460068190555083600781905550826008819055508160098190555080600e8190555062000103600360026003600a6200024460201b60201c565b7fd912e0db3997b8efa782c542ab3e167df8ac40330751f5c28e1d35632d6ffadf600160009054906101000a900473ffffffffffffffffffffffffffffffffffffffff16600254600354600554604051620001629493929190620005e1565b60405180910390a15050505050505050620007de565b600033905090565b60008060009054906101000a900473ffffffffffffffffffffffffffffffffffffffff169050816000806101000a81548173ffffffffffffffffffffffffffffffffffffffff021916908373ffffffffffffffffffffffffffffffffffffffff1602179055508173ffffffffffffffffffffffffffffffffffffffff168173ffffffffffffffffffffffffffffffffffffffff167f8be0079c531659141344cd1fd0a4f28419497f9722a3daafe3b4186f6b6457e060405160405180910390a35050565b620002546200017860201b60201c565b73ffffffffffffffffffffffffffffffffffffffff166200027a620003e360201b60201c565b73ffffffffffffffffffffffffffffffffffffffff1614620002d3576040517f08c379a0000000000000000000000000000000000000000000000000000000008152600401620002ca906200068b565b60405180910390fd5b6000620002ef84866200040c60201b620008af1790919060201c565b905060006200030d83856200040c60201b620008af1790919060201c565b905060006200032b82846200040c60201b620008af1790919060201c565b9050600e5481111562000375576040517f08c379a00000000000000000000000000000000000000000000000000000000081526004016200036c90620006ad565b60405180910390fd5b86600a8190555085600b8190555084600c8190555083600d819055507fd9d73219186308fb5cd0317d12fd0e326d925501063d4596d5e84dd1708c8ffa33600a54600b54600c54600d54604051620003d29594939291906200062e565b60405180910390a150505050505050565b60008060009054906101000a900473ffffffffffffffffffffffffffffffffffffffff16905090565b600081836200041c9190620006e0565b905092915050565b6000815190506200043581620007aa565b92915050565b6000815190506200044c81620007c4565b92915050565b600080600080600080600080610100898b0312156200047057600080fd5b6000620004808b828c0162000424565b9850506020620004938b828c016200043b565b9750506040620004a68b828c016200043b565b9650506060620004b98b828c016200043b565b9550506080620004cc8b828c016200043b565b94505060a0620004df8b828c016200043b565b93505060c0620004f28b828c016200043b565b92505060e0620005058b828c016200043b565b9150509295985092959890939650565b62000520816200073d565b82525050565b600062000535602083620006cf565b91507f4f776e61626c653a2063616c6c6572206973206e6f7420746865206f776e65726000830152602082019050919050565b600062000577602f83620006cf565b91507f53686f756c64206265206c657373206f7220657175616c20746f206d6178696d60008301527f756d2070726f6a6563742074696d6500000000000000000000000000000000006020830152604082019050919050565b620005db8162000771565b82525050565b6000608082019050620005f8600083018762000515565b620006076020830186620005d0565b620006166040830185620005d0565b620006256060830184620005d0565b95945050505050565b600060a08201905062000645600083018862000515565b620006546020830187620005d0565b620006636040830186620005d0565b620006726060830185620005d0565b620006816080830184620005d0565b9695505050505050565b60006020820190508181036000830152620006a68162000526565b9050919050565b60006020820190508181036000830152620006c88162000568565b9050919050565b600082825260208201905092915050565b6000620006ed8262000771565b9150620006fa8362000771565b9250827fffffffffffffffffffffffffffffffffffffffffffffffffffffffffffffffff038211156200073257620007316200077b565b5b828201905092915050565b60006200074a8262000751565b9050919050565b600073ffffffffffffffffffffffffffffffffffffffff82169050919050565b6000819050919050565b7f4e487b7100000000000000000000000000000000000000000000000000000000600052601160045260246000fd5b620007b5816200073d565b8114620007c157600080fd5b50565b620007cf8162000771565b8114620007db57600080fd5b50565b610f5180620007ee6000396000f3fe608060405234801561001057600080fd5b506004361061012c5760003560e01c806374cf105e116100ad578063b19ea0a611610071578063b19ea0a6146102c9578063b2e062c0146102e7578063b2e5952714610305578063d35f33bf14610323578063f2fde38b146103415761012c565b806374cf105e1461023357806376267224146102515780637c3a00fd1461026f5780637e28f99c1461028d5780638da5cb5b146102ab5761012c565b80634f554dea116100f45780634f554dea146101b157806351ff4847146101cf578063589ac562146101ed5780636abb37321461020b578063715018a6146102295761012c565b80631b48a32114610131578063323046b11461014f578063368d88301461016d578063390c193d1461018b5780634f4d5c10146101a7575b600080fd5b61013961035d565b6040516101469190610df4565b60405180910390f35b610157610363565b6040516101649190610df4565b60405180910390f35b610175610369565b6040516101829190610df4565b60405180910390f35b6101a560048036038101906101a091906109e4565b61036f565b005b6101af6104e1565b005b6101b9610666565b6040516101c69190610df4565b60405180910390f35b6101d761066c565b6040516101e49190610d19565b60405180910390f35b6101f561067f565b6040516102029190610df4565b60405180910390f35b610213610685565b6040516102209190610c66565b60405180910390f35b6102316106ab565b005b61023b610733565b6040516102489190610df4565b60405180910390f35b610259610739565b6040516102669190610df4565b60405180910390f35b61027761073f565b6040516102849190610df4565b60405180910390f35b610295610745565b6040516102a29190610df4565b60405180910390f35b6102b361074b565b6040516102c09190610c66565b60405180910390f35b6102d1610774565b6040516102de9190610df4565b60405180910390f35b6102ef61077a565b6040516102fc9190610df4565b60405180910390f35b61030d6107ab565b60405161031a9190610df4565b60405180910390f35b61032b6107b1565b6040516103389190610df4565b60405180910390f35b61035b600480360381019061035691906109bb565b6107b7565b005b60025481565b60035481565b600a5481565b6103776108c5565b73ffffffffffffffffffffffffffffffffffffffff1661039561074b565b73ffffffffffffffffffffffffffffffffffffffff16146103eb576040517f08c379a00000000000000000000000000000000000000000000000000000000081526004016103e290610d74565b60405180910390fd5b600061040084866108af90919063ffffffff16565b9050600061041783856108af90919063ffffffff16565b9050600061042e82846108af90919063ffffffff16565b9050600e54811115610475576040517f08c379a000000000000000000000000000000000000000000000000000000000815260040161046c90610db4565b60405180910390fd5b86600a8190555085600b8190555084600c8190555083600d819055507fd9d73219186308fb5cd0317d12fd0e326d925501063d4596d5e84dd1708c8ffa33600a54600b54600c54600d546040516104d0959493929190610cc6565b60405180910390a150505050505050565b3373ffffffffffffffffffffffffffffffffffffffff16600160009054906101000a900473ffffffffffffffffffffffffffffffffffffffff1673ffffffffffffffffffffffffffffffffffffffff1614610571576040517f08c379a000000000000000000000000000000000000000000000000000000000815260040161056890610dd4565b60405180910390fd5b600460009054906101000a900460ff16156105c1576040517f08c379a00000000000000000000000000000000000000000000000000000000081526004016105b890610d54565b60405180910390fd5b60006105cb61077a565b1161060b576040517f08c379a000000000000000000000000000000000000000000000000000000000815260040161060290610d94565b60405180910390fd5b6001600460006101000a81548160ff0219169083151502179055507f51a1a099cba9a81d06bf524f39eed0ce75f3ffdcdf2a0fcc2f83f04f80d65aca336001334260405161065c9493929190610c81565b60405180910390a1565b600c5481565b600460009054906101000a900460ff1681565b60095481565b600160009054906101000a900473ffffffffffffffffffffffffffffffffffffffff1681565b6106b36108c5565b73ffffffffffffffffffffffffffffffffffffffff166106d161074b565b73ffffffffffffffffffffffffffffffffffffffff1614610727576040517f08c379a000000000000000000000000000000000000000000000000000000000815260040161071e90610d74565b60405180910390fd5b61073160006108cd565b565b600e5481565b60085481565b60055481565b60075481565b60008060009054906101000a900473ffffffffffffffffffffffffffffffffffffffff16905090565b600d5481565b6000600d54600c54600b54600a546107929190610e20565b61079c9190610e20565b6107a69190610e20565b905090565b600b5481565b60065481565b6107bf6108c5565b73ffffffffffffffffffffffffffffffffffffffff166107dd61074b565b73ffffffffffffffffffffffffffffffffffffffff1614610833576040517f08c379a000000000000000000000000000000000000000000000000000000000815260040161082a90610d74565b60405180910390fd5b600073ffffffffffffffffffffffffffffffffffffffff168173ffffffffffffffffffffffffffffffffffffffff1614156108a3576040517f08c379a000000000000000000000000000000000000000000000000000000000815260040161089a90610d34565b60405180910390fd5b6108ac816108cd565b50565b600081836108bd9190610e20565b905092915050565b600033905090565b60008060009054906101000a900473ffffffffffffffffffffffffffffffffffffffff169050816000806101000a81548173ffffffffffffffffffffffffffffffffffffffff021916908373ffffffffffffffffffffffffffffffffffffffff1602179055508173ffffffffffffffffffffffffffffffffffffffff168173ffffffffffffffffffffffffffffffffffffffff167f8be0079c531659141344cd1fd0a4f28419497f9722a3daafe3b4186f6b6457e060405160405180910390a35050565b6000813590506109a081610eed565b92915050565b6000813590506109b581610f04565b92915050565b6000602082840312156109cd57600080fd5b60006109db84828501610991565b91505092915050565b600080600080608085870312156109fa57600080fd5b6000610a08878288016109a6565b9450506020610a19878288016109a6565b9350506040610a2a878288016109a6565b9250506060610a3b878288016109a6565b91505092959194509250565b610a5081610e76565b82525050565b610a5f81610e88565b82525050565b6000610a72602683610e0f565b91507f4f776e61626c653a206e6577206f776e657220697320746865207a65726f206160008301527f64647265737300000000000000000000000000000000000000000000000000006020830152604082019050919050565b6000610ad8601983610e0f565b91507f436f6e747261637420686173206265656e207369676e656421000000000000006000830152602082019050919050565b6000610b18602083610e0f565b91507f4f776e61626c653a2063616c6c6572206973206e6f7420746865206f776e65726000830152602082019050919050565b6000610b58602983610e0f565b91507f546f74616c206d6f6e7468732073686f756c642062652067726561746572207460008301527f68616e207a65726f2100000000000000000000000000000000000000000000006020830152604082019050919050565b6000610bbe602f83610e0f565b91507f53686f756c64206265206c657373206f7220657175616c20746f206d6178696d60008301527f756d2070726f6a6563742074696d6500000000000000000000000000000000006020830152604082019050919050565b6000610c24601b83610e0f565b91507f4f6e6c7920737461727475702073686f756c64206163636570742100000000006000830152602082019050919050565b610c6081610eb4565b82525050565b6000602082019050610c7b6000830184610a47565b92915050565b6000608082019050610c966000830187610a47565b610ca36020830186610a56565b610cb06040830185610a47565b610cbd6060830184610c57565b95945050505050565b600060a082019050610cdb6000830188610a47565b610ce86020830187610c57565b610cf56040830186610c57565b610d026060830185610c57565b610d0f6080830184610c57565b9695505050505050565b6000602082019050610d2e6000830184610a56565b92915050565b60006020820190508181036000830152610d4d81610a65565b9050919050565b60006020820190508181036000830152610d6d81610acb565b9050919050565b60006020820190508181036000830152610d8d81610b0b565b9050919050565b60006020820190508181036000830152610dad81610b4b565b9050919050565b60006020820190508181036000830152610dcd81610bb1565b9050919050565b60006020820190508181036000830152610ded81610c17565b9050919050565b6000602082019050610e096000830184610c57565b92915050565b600082825260208201905092915050565b6000610e2b82610eb4565b9150610e3683610eb4565b9250827fffffffffffffffffffffffffffffffffffffffffffffffffffffffffffffffff03821115610e6b57610e6a610ebe565b5b828201905092915050565b6000610e8182610e94565b9050919050565b60008115159050919050565b600073ffffffffffffffffffffffffffffffffffffffff82169050919050565b6000819050919050565b7f4e487b7100000000000000000000000000000000000000000000000000000000600052601160045260246000fd5b610ef681610e76565b8114610f0157600080fd5b50565b610f0d81610eb4565b8114610f1857600080fd5b5056fea26469706673582212207419a97371b91a9a6dd68a1c17d6c527f87dbabf1534cf95f157b4994117cde264736f6c63430008000033a2646970667358221220a2bf8b181923cf737d10d202fe2c7fb697eae62b0202d037ac7482e4cfc2a51d64736f6c63430008000033",
  "immutableReferences": {},
  "source": "// SPDX-License-Identifier: MIT\r\npragma solidity ^0.8.0;\r\n\r\nimport \"./StartupContract.sol\";\r\nimport \"./InvestorContract.sol\";\r\nimport \"./TermalToken.sol\";\r\nimport \"@openzeppelin/contracts/access/Ownable.sol\";\r\nimport \"@openzeppelin/contracts/token/ERC20/IERC20.sol\";\r\n\r\ncontract Termal is Ownable {\r\n    IERC20 public termalToken;\r\n    IERC20 public daiToken;\r\n\r\n    struct Investor{\r\n        string name;\r\n        uint registerDate;\r\n        bool status;\r\n        uint rating;\r\n        uint amountInvested; //total amount in DAI\r\n        uint termalReceived;\r\n        bool hasContract;\r\n        address investorContractAddress;\r\n    }\r\n\r\n    mapping (address => Investor) public investors;\r\n    address[] public investorList;\r\n    \r\n    struct Startup{\r\n        string name;     //Startup's startupName\r\n        uint registerDate;  //Register Date\r\n        bool status;        //startup's status: true or false;\r\n        bool hasContract;\r\n        address startupContractAddress;\r\n        uint amountTermal;\r\n        uint daiReceived;\r\n        uint daiReturned;\r\n    }\r\n\r\n    mapping (address => Startup) public startups;\r\n    address[] public startupList;\r\n    \r\n    event LogCreateStartup(address _newStartupAddress, address _owner);\r\n    event LogNewStartupStatus(address _owner, address _startupAddress, bool _status);\r\n\r\n    event LogNewInvestorStatus(address _owner,  address _investorAddress, bool _status);\r\n    event LogCreateInvestor(address _creator, address _investorAddress, string _investorName, uint _registerDate, bool _status, uint _rating, uint _amountInvested);\r\n   \r\n    constructor(address _dai, address _termalToken) payable{\r\n        daiToken = IERC20(_dai);\r\n        termalToken = IERC20(_termalToken);\r\n    }\r\n\r\n    function createStartupContract(\r\n            address _startupWallet, \r\n            uint _initialLoan,\r\n            uint _interestRate,\r\n            uint _maxConvertionRate,\r\n            uint _minConvertionRate,\r\n            uint _termalCoinPercentage,\r\n            uint _stableCoinPercentage,\r\n            uint _maxProjectime\r\n        )\r\n        onlyOwner()\r\n        external\r\n    {\r\n        require(isValidStartup(_startupWallet), \"Startup profile is not a valid contract\");\r\n        require(!startups[_startupWallet].hasContract, \"Startup has a contract\");\r\n        \r\n        StartupContract newStartupContract = new StartupContract(_startupWallet, _initialLoan, _interestRate, _maxConvertionRate, _minConvertionRate, _termalCoinPercentage, _stableCoinPercentage, _maxProjectime);\r\n        startups[_startupWallet].hasContract = true;\r\n        startups[_startupWallet].startupContractAddress = address(newStartupContract);\r\n        newStartupContract.transferOwnership(msg.sender);\r\n    }\r\n\r\n    function createInvestorContract(\r\n            address _investorWallet, \r\n            uint _investment,\r\n            uint _managementFee,\r\n            uint _termalCoinRatio\r\n        )\r\n        onlyOwner()\r\n        external\r\n    {\r\n        require(isValidInvestor(_investorWallet), \"Investor wallet is not a valid contract\");\r\n        require(!startups[_investorWallet].hasContract, \"Startup has a contract\");\r\n        \r\n        InvestorContract newInvestorContract = new InvestorContract(\r\n            _investorWallet, \r\n            _investment,\r\n            _managementFee,\r\n            _termalCoinRatio\r\n        );\r\n\r\n        startups[_investorWallet].hasContract = true;\r\n        startups[_investorWallet].startupContractAddress = address(newInvestorContract);\r\n        newInvestorContract.transferOwnership(msg.sender);\r\n    }\r\n\r\n    event LogDepositDai(address _sender, address _receipent, uint _amount);\r\n    \r\n    // This function should be used by investors to deposit DAI\r\n    function depositDai(uint _amount) external {\r\n        require(isValidInvestor(msg.sender), \"Investor not registered!\");\r\n        \r\n        //bool approved = daiToken.approve(address(this), _amount);\r\n        //require(approved, \"Approved failed!\");\r\n\r\n        emit LogDepositDai(msg.sender, address(this), _amount);\r\n        bool success = daiToken.transferFrom(msg.sender, address(this), _amount);\r\n        require(success, \"Deposit failed!\");\r\n        investors[msg.sender].amountInvested += _amount;\r\n        \r\n        termalToken.transfer(msg.sender, _amount);\r\n        investors[msg.sender].termalReceived += _amount;\r\n    }\r\n\r\n    // This function should be used by startups to deposit DAI\r\n    function returnDaiStartup(uint _amount) external {\r\n        require(isValidStartup(msg.sender), \"Startup is not registered!\");\r\n        \r\n        //bool approved = daiToken.approve(address(this), _amount);\r\n        //require(approved, \"Approved failed!\");\r\n\r\n        bool success = daiToken.transferFrom(msg.sender, address(this), _amount);\r\n        require(success, \"Deposit failed!\");\r\n                \r\n        startups[msg.sender].daiReturned += _amount;\r\n    }\r\n\r\n    //This function allows to send Dai from the contract to a startup.\r\n    function transferDai(address _startupAddress, uint _amount)\r\n        onlyOwner()\r\n        public\r\n    {\r\n        require(isValidStartup(_startupAddress), \"Startup should be valid!\");\r\n        require(startups[_startupAddress].hasContract, \"Startup should have a contract!\");\r\n\r\n        //Contract should be accepted\r\n        address _contractAddress = startups[_startupAddress].startupContractAddress;\r\n\r\n        require(StartupContract(_contractAddress).signature(), \"Contract should be signed first!\");\r\n\r\n        bool success = daiToken.transfer(_startupAddress, _amount);\r\n        require(success, \"Deposit failed!\");\r\n        startups[_startupAddress].daiReceived += _amount;\r\n    }\r\n\r\n    //This function allows to send termal from the contract to a user.\r\n    function transferTermal(address _receiver, uint _amount)\r\n        onlyOwner()\r\n        public\r\n    {\r\n        termalToken.transfer(_receiver, _amount);\r\n    }\r\n\r\n    //This function returns the dai contract's balance\r\n    function getDaiContractBalance()\r\n        external\r\n        view\r\n        returns (uint)\r\n    {\r\n        return daiToken.balanceOf(address(this));\r\n    }\r\n\r\n    //This function returns the Termal tottal supply\r\n    function getTermalTotalSupply()\r\n        external\r\n        view\r\n        returns (uint)\r\n    {\r\n        return termalToken.totalSupply();\r\n    }\r\n\r\n    //This function returns a termal address's balance\r\n    function getTermalBalance(address _wallet)\r\n        external\r\n        view\r\n        returns (uint)\r\n    {\r\n        return termalToken.balanceOf(_wallet);\r\n    }\r\n    \r\n    //This function allows to register a new Startup\r\n    function createStartup(address _startupWallet, \r\n                         string memory _startupName)\r\n        onlyOwner()\r\n        external\r\n    {\r\n        require(!startups[_startupWallet].status, \"Startup is registered!\");\r\n        startups[_startupWallet] = Startup(_startupName, block.timestamp, true, false, address(0), 0, 0, 0);\r\n        startupList.push(_startupWallet);\r\n        emit LogCreateStartup(_startupWallet, msg.sender);\r\n    }\r\n    \r\n    //This function validates a registered startup\r\n    function isValidStartup(address _startupAddress)\r\n        public\r\n        view\r\n        returns(bool)\r\n    {\r\n        return startups[_startupAddress].status;\r\n    }\r\n    \r\n    //This function returns the total startups\r\n    function getTotalStartups()\r\n        external\r\n        view\r\n        returns (uint)\r\n    {\r\n        return startupList.length;\r\n    }\r\n    \r\n    //This function allows to register a new investor\r\n    function createInvestor(address _investorAddress, \r\n                         string memory _investorName)\r\n        onlyOwner()\r\n        external\r\n    {\r\n        require(!investors[_investorAddress].status, \"Investor's address is registered!\");\r\n        investors[_investorAddress] = Investor(_investorName, block.timestamp, true, 0, 0, 0, false, address(0));\r\n        investorList.push(_investorAddress);\r\n        emit LogCreateInvestor(msg.sender, _investorAddress, _investorName, block.timestamp, true, 0, 0);\r\n    }\r\n    //This function validates a registered investor\r\n    function isValidInvestor(address _investorAddress)\r\n        public\r\n        view\r\n        returns(bool)\r\n    {\r\n        return investors[_investorAddress].status;\r\n    }\r\n    //This function validate the investor's status before changing it.\r\n    function newInvestorStatus(address _investorAddress, bool _status)\r\n        onlyOwner()\r\n        public\r\n    {\r\n        require(investors[_investorAddress].status != _status, \"New investor's status should be different!\");\r\n        investors[_investorAddress].status = _status;\r\n        emit LogNewInvestorStatus(msg.sender, _investorAddress, _status);\r\n    }\r\n    //This function validate the startup's status before changing it.\r\n    function newStartupStatus(address _startupAddress, bool _status)\r\n        onlyOwner()\r\n        public\r\n    {\r\n        require(startups[_startupAddress].status != _status, \"New investor's status should be different!\");\r\n        startups[_startupAddress].status = _status;\r\n        emit LogNewStartupStatus(msg.sender, _startupAddress, _status);\r\n    }\r\n    //This function returns the total investors\r\n    function getTotalInvestors()\r\n        external\r\n        view\r\n        returns (uint)\r\n    {\r\n        return investorList.length;\r\n    }\r\n}",
  "sourcePath": "C:\\Users\\gimer\\Projects\\Termal-2.0\\contracts\\Termal.sol",
  "compiler": {
    "name": "solc",
    "version": "0.8.0+commit.c7dfd78e.Emscripten.clang"
  },
  "schemaVersion": "3.4.3",
  "updatedAt": "2021-12-17T05:27:58.602Z",
  "devdoc": {
    "kind": "dev",
    "methods": {
      "owner()": {
        "details": "Returns the address of the current owner."
      },
      "renounceOwnership()": {
        "details": "Leaves the contract without owner. It will not be possible to call `onlyOwner` functions anymore. Can only be called by the current owner. NOTE: Renouncing ownership will leave the contract without an owner, thereby removing any functionality that is only available to the owner."
      },
      "transferOwnership(address)": {
        "details": "Transfers ownership of the contract to a new account (`newOwner`). Can only be called by the current owner."
      }
    },
    "version": 1
  },
  "userdoc": {
    "kind": "user",
    "methods": {},
    "version": 1
  }
}