{
  "contractName": "Termal",
  "abi": [
    {
      "inputs": [
        {
          "internalType": "address",
          "name": "_dai",
          "type": "address"
        },
        {
          "internalType": "address",
          "name": "_termalToken",
          "type": "address"
        },
        {
          "internalType": "address",
          "name": "_investorsHandler",
          "type": "address"
        },
        {
          "internalType": "address",
          "name": "_startupsHandler",
          "type": "address"
        }
      ],
      "stateMutability": "payable",
      "type": "constructor"
    },
    {
      "anonymous": false,
      "inputs": [
        {
          "indexed": false,
          "internalType": "address",
          "name": "_sender",
          "type": "address"
        },
        {
          "indexed": false,
          "internalType": "address",
          "name": "_receipent",
          "type": "address"
        },
        {
          "indexed": false,
          "internalType": "uint256",
          "name": "_amount",
          "type": "uint256"
        }
      ],
      "name": "LogInvestorDepositDai",
      "type": "event"
    },
    {
      "anonymous": false,
      "inputs": [
        {
          "indexed": false,
          "internalType": "address",
          "name": "_sender",
          "type": "address"
        },
        {
          "indexed": false,
          "internalType": "address",
          "name": "_contract",
          "type": "address"
        },
        {
          "indexed": false,
          "internalType": "uint256",
          "name": "_amount",
          "type": "uint256"
        }
      ],
      "name": "LogStartupReturnTermal",
      "type": "event"
    },
    {
      "anonymous": false,
      "inputs": [
        {
          "indexed": true,
          "internalType": "address",
          "name": "previousOwner",
          "type": "address"
        },
        {
          "indexed": true,
          "internalType": "address",
          "name": "newOwner",
          "type": "address"
        }
      ],
      "name": "OwnershipTransferred",
      "type": "event"
    },
    {
      "inputs": [],
      "name": "daiToken",
      "outputs": [
        {
          "internalType": "contract IERC20",
          "name": "",
          "type": "address"
        }
      ],
      "stateMutability": "view",
      "type": "function"
    },
    {
      "inputs": [],
      "name": "investorsHandler",
      "outputs": [
        {
          "internalType": "contract InvestorsHandler",
          "name": "",
          "type": "address"
        }
      ],
      "stateMutability": "view",
      "type": "function"
    },
    {
      "inputs": [],
      "name": "owner",
      "outputs": [
        {
          "internalType": "address",
          "name": "",
          "type": "address"
        }
      ],
      "stateMutability": "view",
      "type": "function"
    },
    {
      "inputs": [],
      "name": "renounceOwnership",
      "outputs": [],
      "stateMutability": "nonpayable",
      "type": "function"
    },
    {
      "inputs": [],
      "name": "startupsHandler",
      "outputs": [
        {
          "internalType": "contract StartupsHandler",
          "name": "",
          "type": "address"
        }
      ],
      "stateMutability": "view",
      "type": "function"
    },
    {
      "inputs": [],
      "name": "termalToken",
      "outputs": [
        {
          "internalType": "contract IERC20",
          "name": "",
          "type": "address"
        }
      ],
      "stateMutability": "view",
      "type": "function"
    },
    {
      "inputs": [
        {
          "internalType": "address",
          "name": "newOwner",
          "type": "address"
        }
      ],
      "name": "transferOwnership",
      "outputs": [],
      "stateMutability": "nonpayable",
      "type": "function"
    },
    {
      "inputs": [
        {
          "internalType": "uint256",
          "name": "_amount",
          "type": "uint256"
        }
      ],
      "name": "investorDepositDai",
      "outputs": [],
      "stateMutability": "nonpayable",
      "type": "function"
    },
    {
      "inputs": [
        {
          "internalType": "uint256",
          "name": "_amount",
          "type": "uint256"
        }
      ],
      "name": "returnDaiStartup",
      "outputs": [],
      "stateMutability": "nonpayable",
      "type": "function"
    },
    {
      "inputs": [
        {
          "internalType": "uint256",
          "name": "_amount",
          "type": "uint256"
        }
      ],
      "name": "returnTermalStartup",
      "outputs": [],
      "stateMutability": "nonpayable",
      "type": "function"
    },
    {
      "inputs": [
        {
          "internalType": "address",
          "name": "_startupAddress",
          "type": "address"
        },
        {
          "internalType": "uint256",
          "name": "_amount",
          "type": "uint256"
        }
      ],
      "name": "transferDaiToStartup",
      "outputs": [],
      "stateMutability": "nonpayable",
      "type": "function"
    },
    {
      "inputs": [
        {
          "internalType": "address",
          "name": "_receiver",
          "type": "address"
        },
        {
          "internalType": "uint256",
          "name": "_amount",
          "type": "uint256"
        }
      ],
      "name": "transferTermal",
      "outputs": [],
      "stateMutability": "nonpayable",
      "type": "function"
    },
    {
      "inputs": [],
      "name": "getDaiContractBalance",
      "outputs": [
        {
          "internalType": "uint256",
          "name": "",
          "type": "uint256"
        }
      ],
      "stateMutability": "view",
      "type": "function"
    },
    {
      "inputs": [],
      "name": "getTermalTotalSupply",
      "outputs": [
        {
          "internalType": "uint256",
          "name": "",
          "type": "uint256"
        }
      ],
      "stateMutability": "view",
      "type": "function"
    },
    {
      "inputs": [
        {
          "internalType": "address",
          "name": "_wallet",
          "type": "address"
        }
      ],
      "name": "getTermalBalance",
      "outputs": [
        {
          "internalType": "uint256",
          "name": "",
          "type": "uint256"
        }
      ],
      "stateMutability": "view",
      "type": "function"
    }
  ],
  "bytecode": "0x608060405260405162001f0638038062001f0683398181016040528101906200002991906200028d565b620000496200003d6200015760201b60201c565b6200015f60201b60201c565b83600260006101000a81548173ffffffffffffffffffffffffffffffffffffffff021916908373ffffffffffffffffffffffffffffffffffffffff16021790555082600160006101000a81548173ffffffffffffffffffffffffffffffffffffffff021916908373ffffffffffffffffffffffffffffffffffffffff16021790555081600460006101000a81548173ffffffffffffffffffffffffffffffffffffffff021916908373ffffffffffffffffffffffffffffffffffffffff16021790555080600360006101000a81548173ffffffffffffffffffffffffffffffffffffffff021916908373ffffffffffffffffffffffffffffffffffffffff16021790555050505050620002ff565b600033905090565b60008060009054906101000a900473ffffffffffffffffffffffffffffffffffffffff169050816000806101000a81548173ffffffffffffffffffffffffffffffffffffffff021916908373ffffffffffffffffffffffffffffffffffffffff1602179055508173ffffffffffffffffffffffffffffffffffffffff168173ffffffffffffffffffffffffffffffffffffffff167f8be0079c531659141344cd1fd0a4f28419497f9722a3daafe3b4186f6b6457e060405160405180910390a35050565b600080fd5b600073ffffffffffffffffffffffffffffffffffffffff82169050919050565b6000620002558262000228565b9050919050565b620002678162000248565b81146200027357600080fd5b50565b60008151905062000287816200025c565b92915050565b60008060008060808587031215620002aa57620002a962000223565b5b6000620002ba8782880162000276565b9450506020620002cd8782880162000276565b9350506040620002e08782880162000276565b9250506060620002f38782880162000276565b91505092959194509250565b611bf7806200030f6000396000f3fe608060405234801561001057600080fd5b50600436106100f55760003560e01c8063715018a611610097578063be22f54611610066578063be22f5461461023a578063f2fde38b14610258578063f4cb924c14610274578063ff429ce414610290576100f5565b8063715018a6146101da5780638da5cb5b146101e45780639651c7ec146102025780639855089b1461021e576100f5565b80632993118b116100d35780632993118b146101645780632a36afa614610182578063312a8f97146101a05780636db074b2146101bc576100f5565b80630d49b360146100fa5780631e7d1d7a146101165780631eaaafcd14610146575b600080fd5b610114600480360381019061010f9190611589565b6102ae565b005b610130600480360381019061012b91906115c9565b6103de565b60405161013d9190611605565b60405180910390f35b61014e610492565b60405161015b919061167f565b60405180910390f35b61016c6104b8565b6040516101799190611605565b60405180910390f35b61018a61055f565b60405161019791906116bb565b60405180910390f35b6101ba60048036038101906101b591906116d6565b610585565b005b6101c4610748565b6040516101d19190611605565b60405180910390f35b6101e26107fa565b005b6101ec610882565b6040516101f99190611712565b60405180910390f35b61021c60048036038101906102179190611589565b6108ab565b005b610238600480360381019061023391906116d6565b610c82565b005b610242610e0a565b60405161024f919061174e565b60405180910390f35b610272600480360381019061026d91906115c9565b610e30565b005b61028e600480360381019061028991906116d6565b610f28565b005b6102986113fe565b6040516102a5919061174e565b60405180910390f35b6102b6611424565b73ffffffffffffffffffffffffffffffffffffffff166102d4610882565b73ffffffffffffffffffffffffffffffffffffffff161461032a576040517f08c379a0000000000000000000000000000000000000000000000000000000008152600401610321906117c6565b60405180910390fd5b600160009054906101000a900473ffffffffffffffffffffffffffffffffffffffff1673ffffffffffffffffffffffffffffffffffffffff1663a9059cbb83836040518363ffffffff1660e01b81526004016103879291906117e6565b602060405180830381600087803b1580156103a157600080fd5b505af11580156103b5573d6000803e3d6000fd5b505050506040513d601f19601f820116820180604052508101906103d99190611847565b505050565b6000600160009054906101000a900473ffffffffffffffffffffffffffffffffffffffff1673ffffffffffffffffffffffffffffffffffffffff166370a08231836040518263ffffffff1660e01b815260040161043b9190611712565b60206040518083038186803b15801561045357600080fd5b505afa158015610467573d6000803e3d6000fd5b505050506040513d601f19601f8201168201806040525081019061048b9190611889565b9050919050565b600360009054906101000a900473ffffffffffffffffffffffffffffffffffffffff1681565b6000600160009054906101000a900473ffffffffffffffffffffffffffffffffffffffff1673ffffffffffffffffffffffffffffffffffffffff166318160ddd6040518163ffffffff1660e01b815260040160206040518083038186803b15801561052257600080fd5b505afa158015610536573d6000803e3d6000fd5b505050506040513d601f19601f8201168201806040525081019061055a9190611889565b905090565b600460009054906101000a900473ffffffffffffffffffffffffffffffffffffffff1681565b6000600160009054906101000a900473ffffffffffffffffffffffffffffffffffffffff1673ffffffffffffffffffffffffffffffffffffffff166323b872dd3330856040518463ffffffff1660e01b81526004016105e6939291906118b6565b602060405180830381600087803b15801561060057600080fd5b505af1158015610614573d6000803e3d6000fd5b505050506040513d601f19601f820116820180604052508101906106389190611847565b90508061067a576040517f08c379a000000000000000000000000000000000000000000000000000000000815260040161067190611939565b60405180910390fd5b600360009054906101000a900473ffffffffffffffffffffffffffffffffffffffff1673ffffffffffffffffffffffffffffffffffffffff1663fed8c23633846040518363ffffffff1660e01b81526004016106d79291906117e6565b600060405180830381600087803b1580156106f157600080fd5b505af1158015610705573d6000803e3d6000fd5b505050507fb58296c2c3bdb9fcf26996d8c5d9ae079224562d4be2adea926b63fc84c8654633308460405161073c939291906118b6565b60405180910390a15050565b6000600260009054906101000a900473ffffffffffffffffffffffffffffffffffffffff1673ffffffffffffffffffffffffffffffffffffffff166370a08231306040518263ffffffff1660e01b81526004016107a59190611712565b60206040518083038186803b1580156107bd57600080fd5b505afa1580156107d1573d6000803e3d6000fd5b505050506040513d601f19601f820116820180604052508101906107f59190611889565b905090565b610802611424565b73ffffffffffffffffffffffffffffffffffffffff16610820610882565b73ffffffffffffffffffffffffffffffffffffffff1614610876576040517f08c379a000000000000000000000000000000000000000000000000000000000815260040161086d906117c6565b60405180910390fd5b610880600061142c565b565b60008060009054906101000a900473ffffffffffffffffffffffffffffffffffffffff16905090565b6108b3611424565b73ffffffffffffffffffffffffffffffffffffffff166108d1610882565b73ffffffffffffffffffffffffffffffffffffffff1614610927576040517f08c379a000000000000000000000000000000000000000000000000000000000815260040161091e906117c6565b60405180910390fd5b600360009054906101000a900473ffffffffffffffffffffffffffffffffffffffff1673ffffffffffffffffffffffffffffffffffffffff166324a9caa0836040518263ffffffff1660e01b81526004016109829190611712565b60206040518083038186803b15801561099a57600080fd5b505afa1580156109ae573d6000803e3d6000fd5b505050506040513d601f19601f820116820180604052508101906109d29190611847565b610a11576040517f08c379a0000000000000000000000000000000000000000000000000000000008152600401610a08906119a5565b60405180910390fd5b600360009054906101000a900473ffffffffffffffffffffffffffffffffffffffff1673ffffffffffffffffffffffffffffffffffffffff166375126d64836040518263ffffffff1660e01b8152600401610a6c9190611712565b60206040518083038186803b158015610a8457600080fd5b505afa158015610a98573d6000803e3d6000fd5b505050506040513d601f19601f82011682018060405250810190610abc9190611847565b610afb576040517f08c379a0000000000000000000000000000000000000000000000000000000008152600401610af290611a11565b60405180910390fd5b6000600260009054906101000a900473ffffffffffffffffffffffffffffffffffffffff1673ffffffffffffffffffffffffffffffffffffffff1663a9059cbb84846040518363ffffffff1660e01b8152600401610b5a9291906117e6565b602060405180830381600087803b158015610b7457600080fd5b505af1158015610b88573d6000803e3d6000fd5b505050506040513d601f19601f82011682018060405250810190610bac9190611847565b905080610bee576040517f08c379a0000000000000000000000000000000000000000000000000000000008152600401610be590611939565b60405180910390fd5b600360009054906101000a900473ffffffffffffffffffffffffffffffffffffffff1673ffffffffffffffffffffffffffffffffffffffff1663c63208a484846040518363ffffffff1660e01b8152600401610c4b9291906117e6565b600060405180830381600087803b158015610c6557600080fd5b505af1158015610c79573d6000803e3d6000fd5b50505050505050565b6000600260009054906101000a900473ffffffffffffffffffffffffffffffffffffffff1673ffffffffffffffffffffffffffffffffffffffff166323b872dd3330856040518463ffffffff1660e01b8152600401610ce3939291906118b6565b602060405180830381600087803b158015610cfd57600080fd5b505af1158015610d11573d6000803e3d6000fd5b505050506040513d601f19601f82011682018060405250810190610d359190611847565b905080610d77576040517f08c379a0000000000000000000000000000000000000000000000000000000008152600401610d6e90611939565b60405180910390fd5b600360009054906101000a900473ffffffffffffffffffffffffffffffffffffffff1673ffffffffffffffffffffffffffffffffffffffff1663ed6ba4dd33846040518363ffffffff1660e01b8152600401610dd49291906117e6565b600060405180830381600087803b158015610dee57600080fd5b505af1158015610e02573d6000803e3d6000fd5b505050505050565b600260009054906101000a900473ffffffffffffffffffffffffffffffffffffffff1681565b610e38611424565b73ffffffffffffffffffffffffffffffffffffffff16610e56610882565b73ffffffffffffffffffffffffffffffffffffffff1614610eac576040517f08c379a0000000000000000000000000000000000000000000000000000000008152600401610ea3906117c6565b60405180910390fd5b600073ffffffffffffffffffffffffffffffffffffffff168173ffffffffffffffffffffffffffffffffffffffff161415610f1c576040517f08c379a0000000000000000000000000000000000000000000000000000000008152600401610f1390611aa3565b60405180910390fd5b610f258161142c565b50565b600460009054906101000a900473ffffffffffffffffffffffffffffffffffffffff1673ffffffffffffffffffffffffffffffffffffffff16635092538a336040518263ffffffff1660e01b8152600401610f839190611712565b60206040518083038186803b158015610f9b57600080fd5b505afa158015610faf573d6000803e3d6000fd5b505050506040513d601f19601f82011682018060405250810190610fd39190611847565b611012576040517f08c379a000000000000000000000000000000000000000000000000000000000815260040161100990611b0f565b60405180910390fd5b600460009054906101000a900473ffffffffffffffffffffffffffffffffffffffff1673ffffffffffffffffffffffffffffffffffffffff166375126d64336040518263ffffffff1660e01b815260040161106d9190611712565b60206040518083038186803b15801561108557600080fd5b505afa158015611099573d6000803e3d6000fd5b505050506040513d601f19601f820116820180604052508101906110bd9190611847565b6110fc576040517f08c379a00000000000000000000000000000000000000000000000000000000081526004016110f390611ba1565b60405180910390fd5b6000600260009054906101000a900473ffffffffffffffffffffffffffffffffffffffff1673ffffffffffffffffffffffffffffffffffffffff166323b872dd3330856040518463ffffffff1660e01b815260040161115d939291906118b6565b602060405180830381600087803b15801561117757600080fd5b505af115801561118b573d6000803e3d6000fd5b505050506040513d601f19601f820116820180604052508101906111af9190611847565b9050806111f1576040517f08c379a00000000000000000000000000000000000000000000000000000000081526004016111e890611939565b60405180910390fd5b600460009054906101000a900473ffffffffffffffffffffffffffffffffffffffff1673ffffffffffffffffffffffffffffffffffffffff1663c63208a433846040518363ffffffff1660e01b815260040161124e9291906117e6565b600060405180830381600087803b15801561126857600080fd5b505af115801561127c573d6000803e3d6000fd5b50505050600160009054906101000a900473ffffffffffffffffffffffffffffffffffffffff1673ffffffffffffffffffffffffffffffffffffffff1663a9059cbb33846040518363ffffffff1660e01b81526004016112dd9291906117e6565b602060405180830381600087803b1580156112f757600080fd5b505af115801561130b573d6000803e3d6000fd5b505050506040513d601f19601f8201168201806040525081019061132f9190611847565b50600460009054906101000a900473ffffffffffffffffffffffffffffffffffffffff1673ffffffffffffffffffffffffffffffffffffffff1663dceb4c0a33846040518363ffffffff1660e01b815260040161138d9291906117e6565b600060405180830381600087803b1580156113a757600080fd5b505af11580156113bb573d6000803e3d6000fd5b505050507fdf825b8afb8d8de80dfbee1fb4a5e418bb3abd1dc37817dc9a0ede0f8f9c19133330846040516113f2939291906118b6565b60405180910390a15050565b600160009054906101000a900473ffffffffffffffffffffffffffffffffffffffff1681565b600033905090565b60008060009054906101000a900473ffffffffffffffffffffffffffffffffffffffff169050816000806101000a81548173ffffffffffffffffffffffffffffffffffffffff021916908373ffffffffffffffffffffffffffffffffffffffff1602179055508173ffffffffffffffffffffffffffffffffffffffff168173ffffffffffffffffffffffffffffffffffffffff167f8be0079c531659141344cd1fd0a4f28419497f9722a3daafe3b4186f6b6457e060405160405180910390a35050565b600080fd5b600073ffffffffffffffffffffffffffffffffffffffff82169050919050565b6000611520826114f5565b9050919050565b61153081611515565b811461153b57600080fd5b50565b60008135905061154d81611527565b92915050565b6000819050919050565b61156681611553565b811461157157600080fd5b50565b6000813590506115838161155d565b92915050565b600080604083850312156115a05761159f6114f0565b5b60006115ae8582860161153e565b92505060206115bf85828601611574565b9150509250929050565b6000602082840312156115df576115de6114f0565b5b60006115ed8482850161153e565b91505092915050565b6115ff81611553565b82525050565b600060208201905061161a60008301846115f6565b92915050565b6000819050919050565b600061164561164061163b846114f5565b611620565b6114f5565b9050919050565b60006116578261162a565b9050919050565b60006116698261164c565b9050919050565b6116798161165e565b82525050565b60006020820190506116946000830184611670565b92915050565b60006116a58261164c565b9050919050565b6116b58161169a565b82525050565b60006020820190506116d060008301846116ac565b92915050565b6000602082840312156116ec576116eb6114f0565b5b60006116fa84828501611574565b91505092915050565b61170c81611515565b82525050565b60006020820190506117276000830184611703565b92915050565b60006117388261164c565b9050919050565b6117488161172d565b82525050565b6000602082019050611763600083018461173f565b92915050565b600082825260208201905092915050565b7f4f776e61626c653a2063616c6c6572206973206e6f7420746865206f776e6572600082015250565b60006117b0602083611769565b91506117bb8261177a565b602082019050919050565b600060208201905081810360008301526117df816117a3565b9050919050565b60006040820190506117fb6000830185611703565b61180860208301846115f6565b9392505050565b60008115159050919050565b6118248161180f565b811461182f57600080fd5b50565b6000815190506118418161181b565b92915050565b60006020828403121561185d5761185c6114f0565b5b600061186b84828501611832565b91505092915050565b6000815190506118838161155d565b92915050565b60006020828403121561189f5761189e6114f0565b5b60006118ad84828501611874565b91505092915050565b60006060820190506118cb6000830186611703565b6118d86020830185611703565b6118e560408301846115f6565b949350505050565b7f4465706f736974206661696c6564210000000000000000000000000000000000600082015250565b6000611923600f83611769565b915061192e826118ed565b602082019050919050565b6000602082019050818103600083015261195281611916565b9050919050565b7f537461727475702073686f756c642062652076616c6964210000000000000000600082015250565b600061198f601883611769565b915061199a82611959565b602082019050919050565b600060208201905081810360008301526119be81611982565b9050919050565b7f436f6e74726163742073686f756c64206265207369676e656420666972737421600082015250565b60006119fb602083611769565b9150611a06826119c5565b602082019050919050565b60006020820190508181036000830152611a2a816119ee565b9050919050565b7f4f776e61626c653a206e6577206f776e657220697320746865207a65726f206160008201527f6464726573730000000000000000000000000000000000000000000000000000602082015250565b6000611a8d602683611769565b9150611a9882611a31565b604082019050919050565b60006020820190508181036000830152611abc81611a80565b9050919050565b7f496e766573746f72206e6f742072656769737465726564210000000000000000600082015250565b6000611af9601883611769565b9150611b0482611ac3565b602082019050919050565b60006020820190508181036000830152611b2881611aec565b9050919050565b7f537461727475702073686f756c6420686176652061207369676e656420636f6e60008201527f7472616374210000000000000000000000000000000000000000000000000000602082015250565b6000611b8b602683611769565b9150611b9682611b2f565b604082019050919050565b60006020820190508181036000830152611bba81611b7e565b905091905056fea26469706673582212205b10b0d1f9db0e2ef5b00dc51d879bbc60fc2a271958a263e1e961bd078f345a64736f6c63430008090033",
  "immutableReferences": {},
  "source": "// SPDX-License-Identifier: MIT\r\npragma solidity ^0.8.0;\r\n\r\nimport \"./StartupsHandler.sol\";\r\nimport \"./InvestorsHandler.sol\";\r\nimport \"./TermalToken.sol\";\r\nimport \"@openzeppelin/contracts/access/Ownable.sol\";\r\nimport \"@openzeppelin/contracts/token/ERC20/IERC20.sol\";\r\n\r\ncontract Termal is Ownable {\r\n    IERC20 public termalToken;\r\n    IERC20 public daiToken;\r\n    StartupsHandler public startupsHandler;\r\n    InvestorsHandler public investorsHandler;\r\n\r\n    event LogInvestorDepositDai(address _sender, address _receipent, uint _amount);\r\n    event LogStartupReturnTermal(address _sender, address _contract, uint _amount);\r\n\r\n    /*event LogCreateStartup(address _newStartupAddress, address _owner);\r\n    event LogNewStartupStatus(address _owner, address _startupAddress, bool _status);\r\n    \r\n    event LogNewInvestorStatus(address _owner,  address _investorAddress, bool _status);\r\n    event LogCreateInvestor(address _creator, address _investorAddress, string _investorName, uint _registerDate, bool _status, uint _rating, uint _amountInvested);\r\n    */\r\n   \r\n    constructor(address _dai, address _termalToken, address _investorsHandler, address _startupsHandler) payable{\r\n        daiToken = IERC20(_dai);\r\n        termalToken = IERC20(_termalToken);\r\n        investorsHandler = InvestorsHandler(_investorsHandler);\r\n        startupsHandler = StartupsHandler(_startupsHandler);\r\n    }\r\n    \r\n\r\n    function investorDepositDai(uint _amount) external {\r\n        require(investorsHandler.isValidInvestor(msg.sender), \"Investor not registered!\");\r\n        require(investorsHandler.getSignatureStatus(msg.sender), \"Startup should have a signed contract!\");\r\n        \r\n        //bool approved = daiToken.approve(address(this), _amount);\r\n        //require(approved, \"Approved failed!\");\r\n\r\n        bool success = daiToken.transferFrom(msg.sender, address(this), _amount);\r\n\r\n        require(success, \"Deposit failed!\");\r\n        investorsHandler.addDepositDai(msg.sender, _amount);\r\n        \r\n        //ratio?\r\n        termalToken.transfer(msg.sender, _amount);\r\n        investorsHandler.addDepositTermal(msg.sender, _amount);\r\n\r\n        emit LogInvestorDepositDai(msg.sender, address(this), _amount);\r\n    }\r\n\r\n    // This function should be used by startups to deposit DAI\r\n    function returnDaiStartup(uint _amount) external {\r\n        \r\n        bool success = daiToken.transferFrom(msg.sender, address(this), _amount);\r\n        require(success, \"Deposit failed!\");\r\n\r\n        startupsHandler.addReturnedDai(msg.sender, _amount);\r\n    }\r\n\r\n    function returnTermalStartup(uint _amount) external {\r\n        \r\n        bool success = termalToken.transferFrom(msg.sender, address(this), _amount);\r\n        require(success, \"Deposit failed!\");\r\n        \r\n        startupsHandler.addReturnedTermal(msg.sender, _amount);\r\n\r\n        emit LogStartupReturnTermal(msg.sender, address(this), _amount);\r\n    }\r\n\r\n    \r\n    function transferDaiToStartup(address _startupAddress, uint _amount)\r\n        onlyOwner()\r\n        public\r\n    {\r\n        require(startupsHandler.isValidStartup(_startupAddress), \"Startup should be valid!\");\r\n\r\n        require(startupsHandler.getSignatureStatus(_startupAddress), \"Contract should be signed first!\");\r\n\r\n        bool success = daiToken.transfer(_startupAddress, _amount);\r\n        require(success, \"Deposit failed!\");\r\n        \r\n        startupsHandler.addDepositDai(_startupAddress, _amount);\r\n    }\r\n\r\n    //This function allows to send termal from the contract to a user.\r\n    function transferTermal(address _receiver, uint _amount)\r\n        onlyOwner()\r\n        public\r\n    {\r\n        termalToken.transfer(_receiver, _amount);\r\n    }\r\n\r\n    //This function returns the dai contract's balance\r\n    function getDaiContractBalance()\r\n        external\r\n        view\r\n        returns (uint)\r\n    {\r\n        return daiToken.balanceOf(address(this));\r\n    }\r\n\r\n    //This function returns the Termal tottal supply\r\n    function getTermalTotalSupply()\r\n        external\r\n        view\r\n        returns (uint)\r\n    {\r\n        return termalToken.totalSupply();\r\n    }\r\n\r\n    function getTermalBalance(address _wallet)\r\n        external\r\n        view\r\n        returns (uint)\r\n    {\r\n        return termalToken.balanceOf(_wallet);\r\n    }\r\n    \r\n}",
  "sourcePath": "/Users/gimer/Projects/TermalPolygon/contracts/Termal.sol",
  "compiler": {
    "name": "solc",
    "version": "0.8.9+commit.e5eed63a.Emscripten.clang"
  },
  "schemaVersion": "3.4.4",
  "updatedAt": "2022-03-30T19:26:16.945Z",
  "devdoc": {
    "kind": "dev",
    "methods": {
      "owner()": {
        "details": "Returns the address of the current owner."
      },
      "renounceOwnership()": {
        "details": "Leaves the contract without owner. It will not be possible to call `onlyOwner` functions anymore. Can only be called by the current owner. NOTE: Renouncing ownership will leave the contract without an owner, thereby removing any functionality that is only available to the owner."
      },
      "transferOwnership(address)": {
        "details": "Transfers ownership of the contract to a new account (`newOwner`). Can only be called by the current owner."
      }
    },
    "version": 1
  },
  "userdoc": {
    "kind": "user",
    "methods": {},
    "version": 1
  }
}