{
  "contractName": "Termal",
  "abi": [
    {
      "inputs": [
        {
          "internalType": "address",
          "name": "_dai",
          "type": "address"
        },
        {
          "internalType": "address",
          "name": "_termalToken",
          "type": "address"
        },
        {
          "internalType": "address",
          "name": "_investorsHandler",
          "type": "address"
        },
        {
          "internalType": "address",
          "name": "_startupsHandler",
          "type": "address"
        }
      ],
      "stateMutability": "payable",
      "type": "constructor",
      "payable": true
    },
    {
      "anonymous": false,
      "inputs": [
        {
          "indexed": false,
          "internalType": "address",
          "name": "_sender",
          "type": "address"
        },
        {
          "indexed": false,
          "internalType": "address",
          "name": "_receipent",
          "type": "address"
        },
        {
          "indexed": false,
          "internalType": "uint256",
          "name": "_amount",
          "type": "uint256"
        }
      ],
      "name": "LogInvestorDepositDai",
      "type": "event"
    },
    {
      "anonymous": false,
      "inputs": [
        {
          "indexed": false,
          "internalType": "address",
          "name": "_sender",
          "type": "address"
        },
        {
          "indexed": false,
          "internalType": "address",
          "name": "_contract",
          "type": "address"
        },
        {
          "indexed": false,
          "internalType": "uint256",
          "name": "_amount",
          "type": "uint256"
        }
      ],
      "name": "LogStartupReturnTermal",
      "type": "event"
    },
    {
      "anonymous": false,
      "inputs": [
        {
          "indexed": true,
          "internalType": "address",
          "name": "previousOwner",
          "type": "address"
        },
        {
          "indexed": true,
          "internalType": "address",
          "name": "newOwner",
          "type": "address"
        }
      ],
      "name": "OwnershipTransferred",
      "type": "event"
    },
    {
      "inputs": [],
      "name": "daiToken",
      "outputs": [
        {
          "internalType": "contract IERC20",
          "name": "",
          "type": "address"
        }
      ],
      "stateMutability": "view",
      "type": "function",
      "constant": true
    },
    {
      "inputs": [],
      "name": "investorsHandler",
      "outputs": [
        {
          "internalType": "contract InvestorsHandler",
          "name": "",
          "type": "address"
        }
      ],
      "stateMutability": "view",
      "type": "function",
      "constant": true
    },
    {
      "inputs": [],
      "name": "owner",
      "outputs": [
        {
          "internalType": "address",
          "name": "",
          "type": "address"
        }
      ],
      "stateMutability": "view",
      "type": "function",
      "constant": true
    },
    {
      "inputs": [],
      "name": "renounceOwnership",
      "outputs": [],
      "stateMutability": "nonpayable",
      "type": "function"
    },
    {
      "inputs": [],
      "name": "startupsHandler",
      "outputs": [
        {
          "internalType": "contract StartupsHandler",
          "name": "",
          "type": "address"
        }
      ],
      "stateMutability": "view",
      "type": "function",
      "constant": true
    },
    {
      "inputs": [],
      "name": "termalToken",
      "outputs": [
        {
          "internalType": "contract IERC20",
          "name": "",
          "type": "address"
        }
      ],
      "stateMutability": "view",
      "type": "function",
      "constant": true
    },
    {
      "inputs": [
        {
          "internalType": "address",
          "name": "newOwner",
          "type": "address"
        }
      ],
      "name": "transferOwnership",
      "outputs": [],
      "stateMutability": "nonpayable",
      "type": "function"
    },
    {
      "inputs": [
        {
          "internalType": "uint256",
          "name": "_amount",
          "type": "uint256"
        }
      ],
      "name": "investorDepositDai",
      "outputs": [],
      "stateMutability": "nonpayable",
      "type": "function"
    },
    {
      "inputs": [
        {
          "internalType": "uint256",
          "name": "_amount",
          "type": "uint256"
        }
      ],
      "name": "returnDaiStartup",
      "outputs": [],
      "stateMutability": "nonpayable",
      "type": "function"
    },
    {
      "inputs": [
        {
          "internalType": "uint256",
          "name": "_amount",
          "type": "uint256"
        }
      ],
      "name": "returnTermalStartup",
      "outputs": [],
      "stateMutability": "nonpayable",
      "type": "function"
    },
    {
      "inputs": [
        {
          "internalType": "address",
          "name": "_startupAddress",
          "type": "address"
        },
        {
          "internalType": "uint256",
          "name": "_amount",
          "type": "uint256"
        }
      ],
      "name": "transferDaiToStartup",
      "outputs": [],
      "stateMutability": "nonpayable",
      "type": "function"
    },
    {
      "inputs": [
        {
          "internalType": "address",
          "name": "_receiver",
          "type": "address"
        },
        {
          "internalType": "uint256",
          "name": "_amount",
          "type": "uint256"
        }
      ],
      "name": "transferTermal",
      "outputs": [],
      "stateMutability": "nonpayable",
      "type": "function"
    },
    {
      "inputs": [],
      "name": "getDaiContractBalance",
      "outputs": [
        {
          "internalType": "uint256",
          "name": "",
          "type": "uint256"
        }
      ],
      "stateMutability": "view",
      "type": "function",
      "constant": true
    }
  ],
  "bytecode": "0x608060405260405162001d3738038062001d3783398181016040528101906200002991906200028d565b620000496200003d6200015760201b60201c565b6200015f60201b60201c565b83600260006101000a81548173ffffffffffffffffffffffffffffffffffffffff021916908373ffffffffffffffffffffffffffffffffffffffff16021790555082600160006101000a81548173ffffffffffffffffffffffffffffffffffffffff021916908373ffffffffffffffffffffffffffffffffffffffff16021790555081600460006101000a81548173ffffffffffffffffffffffffffffffffffffffff021916908373ffffffffffffffffffffffffffffffffffffffff16021790555080600360006101000a81548173ffffffffffffffffffffffffffffffffffffffff021916908373ffffffffffffffffffffffffffffffffffffffff16021790555050505050620002ff565b600033905090565b60008060009054906101000a900473ffffffffffffffffffffffffffffffffffffffff169050816000806101000a81548173ffffffffffffffffffffffffffffffffffffffff021916908373ffffffffffffffffffffffffffffffffffffffff1602179055508173ffffffffffffffffffffffffffffffffffffffff168173ffffffffffffffffffffffffffffffffffffffff167f8be0079c531659141344cd1fd0a4f28419497f9722a3daafe3b4186f6b6457e060405160405180910390a35050565b600080fd5b600073ffffffffffffffffffffffffffffffffffffffff82169050919050565b6000620002558262000228565b9050919050565b620002678162000248565b81146200027357600080fd5b50565b60008151905062000287816200025c565b92915050565b60008060008060808587031215620002aa57620002a962000223565b5b6000620002ba8782880162000276565b9450506020620002cd8782880162000276565b9350506040620002e08782880162000276565b9250506060620002f38782880162000276565b91505092959194509250565b611a28806200030f6000396000f3fe608060405234801561001057600080fd5b50600436106100cf5760003560e01c80638da5cb5b1161008c578063be22f54611610066578063be22f546146101c6578063f2fde38b146101e4578063f4cb924c14610200578063ff429ce41461021c576100cf565b80638da5cb5b146101705780639651c7ec1461018e5780639855089b146101aa576100cf565b80630d49b360146100d45780631eaaafcd146100f05780632a36afa61461010e578063312a8f971461012c5780636db074b214610148578063715018a614610166575b600080fd5b6100ee60048036038101906100e991906113ba565b61023a565b005b6100f861036a565b6040516101059190611459565b60405180910390f35b610116610390565b6040516101239190611495565b60405180910390f35b610146600480360381019061014191906114b0565b6103b6565b005b610150610579565b60405161015d91906114ec565b60405180910390f35b61016e61062b565b005b6101786106b3565b6040516101859190611516565b60405180910390f35b6101a860048036038101906101a391906113ba565b6106dc565b005b6101c460048036038101906101bf91906114b0565b610ab3565b005b6101ce610c3b565b6040516101db9190611552565b60405180910390f35b6101fe60048036038101906101f9919061156d565b610c61565b005b61021a600480360381019061021591906114b0565b610d59565b005b61022461122f565b6040516102319190611552565b60405180910390f35b610242611255565b73ffffffffffffffffffffffffffffffffffffffff166102606106b3565b73ffffffffffffffffffffffffffffffffffffffff16146102b6576040517f08c379a00000000000000000000000000000000000000000000000000000000081526004016102ad906115f7565b60405180910390fd5b600160009054906101000a900473ffffffffffffffffffffffffffffffffffffffff1673ffffffffffffffffffffffffffffffffffffffff1663a9059cbb83836040518363ffffffff1660e01b8152600401610313929190611617565b602060405180830381600087803b15801561032d57600080fd5b505af1158015610341573d6000803e3d6000fd5b505050506040513d601f19601f820116820180604052508101906103659190611678565b505050565b600360009054906101000a900473ffffffffffffffffffffffffffffffffffffffff1681565b600460009054906101000a900473ffffffffffffffffffffffffffffffffffffffff1681565b6000600160009054906101000a900473ffffffffffffffffffffffffffffffffffffffff1673ffffffffffffffffffffffffffffffffffffffff166323b872dd3330856040518463ffffffff1660e01b8152600401610417939291906116a5565b602060405180830381600087803b15801561043157600080fd5b505af1158015610445573d6000803e3d6000fd5b505050506040513d601f19601f820116820180604052508101906104699190611678565b9050806104ab576040517f08c379a00000000000000000000000000000000000000000000000000000000081526004016104a290611728565b60405180910390fd5b600360009054906101000a900473ffffffffffffffffffffffffffffffffffffffff1673ffffffffffffffffffffffffffffffffffffffff1663fed8c23633846040518363ffffffff1660e01b8152600401610508929190611617565b600060405180830381600087803b15801561052257600080fd5b505af1158015610536573d6000803e3d6000fd5b505050507fb58296c2c3bdb9fcf26996d8c5d9ae079224562d4be2adea926b63fc84c8654633308460405161056d939291906116a5565b60405180910390a15050565b6000600260009054906101000a900473ffffffffffffffffffffffffffffffffffffffff1673ffffffffffffffffffffffffffffffffffffffff166370a08231306040518263ffffffff1660e01b81526004016105d69190611516565b60206040518083038186803b1580156105ee57600080fd5b505afa158015610602573d6000803e3d6000fd5b505050506040513d601f19601f82011682018060405250810190610626919061175d565b905090565b610633611255565b73ffffffffffffffffffffffffffffffffffffffff166106516106b3565b73ffffffffffffffffffffffffffffffffffffffff16146106a7576040517f08c379a000000000000000000000000000000000000000000000000000000000815260040161069e906115f7565b60405180910390fd5b6106b1600061125d565b565b60008060009054906101000a900473ffffffffffffffffffffffffffffffffffffffff16905090565b6106e4611255565b73ffffffffffffffffffffffffffffffffffffffff166107026106b3565b73ffffffffffffffffffffffffffffffffffffffff1614610758576040517f08c379a000000000000000000000000000000000000000000000000000000000815260040161074f906115f7565b60405180910390fd5b600360009054906101000a900473ffffffffffffffffffffffffffffffffffffffff1673ffffffffffffffffffffffffffffffffffffffff166324a9caa0836040518263ffffffff1660e01b81526004016107b39190611516565b60206040518083038186803b1580156107cb57600080fd5b505afa1580156107df573d6000803e3d6000fd5b505050506040513d601f19601f820116820180604052508101906108039190611678565b610842576040517f08c379a0000000000000000000000000000000000000000000000000000000008152600401610839906117d6565b60405180910390fd5b600360009054906101000a900473ffffffffffffffffffffffffffffffffffffffff1673ffffffffffffffffffffffffffffffffffffffff166375126d64836040518263ffffffff1660e01b815260040161089d9190611516565b60206040518083038186803b1580156108b557600080fd5b505afa1580156108c9573d6000803e3d6000fd5b505050506040513d601f19601f820116820180604052508101906108ed9190611678565b61092c576040517f08c379a000000000000000000000000000000000000000000000000000000000815260040161092390611842565b60405180910390fd5b6000600260009054906101000a900473ffffffffffffffffffffffffffffffffffffffff1673ffffffffffffffffffffffffffffffffffffffff1663a9059cbb84846040518363ffffffff1660e01b815260040161098b929190611617565b602060405180830381600087803b1580156109a557600080fd5b505af11580156109b9573d6000803e3d6000fd5b505050506040513d601f19601f820116820180604052508101906109dd9190611678565b905080610a1f576040517f08c379a0000000000000000000000000000000000000000000000000000000008152600401610a1690611728565b60405180910390fd5b600360009054906101000a900473ffffffffffffffffffffffffffffffffffffffff1673ffffffffffffffffffffffffffffffffffffffff1663c63208a484846040518363ffffffff1660e01b8152600401610a7c929190611617565b600060405180830381600087803b158015610a9657600080fd5b505af1158015610aaa573d6000803e3d6000fd5b50505050505050565b6000600260009054906101000a900473ffffffffffffffffffffffffffffffffffffffff1673ffffffffffffffffffffffffffffffffffffffff166323b872dd3330856040518463ffffffff1660e01b8152600401610b14939291906116a5565b602060405180830381600087803b158015610b2e57600080fd5b505af1158015610b42573d6000803e3d6000fd5b505050506040513d601f19601f82011682018060405250810190610b669190611678565b905080610ba8576040517f08c379a0000000000000000000000000000000000000000000000000000000008152600401610b9f90611728565b60405180910390fd5b600360009054906101000a900473ffffffffffffffffffffffffffffffffffffffff1673ffffffffffffffffffffffffffffffffffffffff1663ed6ba4dd33846040518363ffffffff1660e01b8152600401610c05929190611617565b600060405180830381600087803b158015610c1f57600080fd5b505af1158015610c33573d6000803e3d6000fd5b505050505050565b600260009054906101000a900473ffffffffffffffffffffffffffffffffffffffff1681565b610c69611255565b73ffffffffffffffffffffffffffffffffffffffff16610c876106b3565b73ffffffffffffffffffffffffffffffffffffffff1614610cdd576040517f08c379a0000000000000000000000000000000000000000000000000000000008152600401610cd4906115f7565b60405180910390fd5b600073ffffffffffffffffffffffffffffffffffffffff168173ffffffffffffffffffffffffffffffffffffffff161415610d4d576040517f08c379a0000000000000000000000000000000000000000000000000000000008152600401610d44906118d4565b60405180910390fd5b610d568161125d565b50565b600460009054906101000a900473ffffffffffffffffffffffffffffffffffffffff1673ffffffffffffffffffffffffffffffffffffffff16635092538a336040518263ffffffff1660e01b8152600401610db49190611516565b60206040518083038186803b158015610dcc57600080fd5b505afa158015610de0573d6000803e3d6000fd5b505050506040513d601f19601f82011682018060405250810190610e049190611678565b610e43576040517f08c379a0000000000000000000000000000000000000000000000000000000008152600401610e3a90611940565b60405180910390fd5b600460009054906101000a900473ffffffffffffffffffffffffffffffffffffffff1673ffffffffffffffffffffffffffffffffffffffff166375126d64336040518263ffffffff1660e01b8152600401610e9e9190611516565b60206040518083038186803b158015610eb657600080fd5b505afa158015610eca573d6000803e3d6000fd5b505050506040513d601f19601f82011682018060405250810190610eee9190611678565b610f2d576040517f08c379a0000000000000000000000000000000000000000000000000000000008152600401610f24906119d2565b60405180910390fd5b6000600260009054906101000a900473ffffffffffffffffffffffffffffffffffffffff1673ffffffffffffffffffffffffffffffffffffffff166323b872dd3330856040518463ffffffff1660e01b8152600401610f8e939291906116a5565b602060405180830381600087803b158015610fa857600080fd5b505af1158015610fbc573d6000803e3d6000fd5b505050506040513d601f19601f82011682018060405250810190610fe09190611678565b905080611022576040517f08c379a000000000000000000000000000000000000000000000000000000000815260040161101990611728565b60405180910390fd5b600460009054906101000a900473ffffffffffffffffffffffffffffffffffffffff1673ffffffffffffffffffffffffffffffffffffffff1663c63208a433846040518363ffffffff1660e01b815260040161107f929190611617565b600060405180830381600087803b15801561109957600080fd5b505af11580156110ad573d6000803e3d6000fd5b50505050600160009054906101000a900473ffffffffffffffffffffffffffffffffffffffff1673ffffffffffffffffffffffffffffffffffffffff1663a9059cbb33846040518363ffffffff1660e01b815260040161110e929190611617565b602060405180830381600087803b15801561112857600080fd5b505af115801561113c573d6000803e3d6000fd5b505050506040513d601f19601f820116820180604052508101906111609190611678565b50600460009054906101000a900473ffffffffffffffffffffffffffffffffffffffff1673ffffffffffffffffffffffffffffffffffffffff1663dceb4c0a33846040518363ffffffff1660e01b81526004016111be929190611617565b600060405180830381600087803b1580156111d857600080fd5b505af11580156111ec573d6000803e3d6000fd5b505050507fdf825b8afb8d8de80dfbee1fb4a5e418bb3abd1dc37817dc9a0ede0f8f9c1913333084604051611223939291906116a5565b60405180910390a15050565b600160009054906101000a900473ffffffffffffffffffffffffffffffffffffffff1681565b600033905090565b60008060009054906101000a900473ffffffffffffffffffffffffffffffffffffffff169050816000806101000a81548173ffffffffffffffffffffffffffffffffffffffff021916908373ffffffffffffffffffffffffffffffffffffffff1602179055508173ffffffffffffffffffffffffffffffffffffffff168173ffffffffffffffffffffffffffffffffffffffff167f8be0079c531659141344cd1fd0a4f28419497f9722a3daafe3b4186f6b6457e060405160405180910390a35050565b600080fd5b600073ffffffffffffffffffffffffffffffffffffffff82169050919050565b600061135182611326565b9050919050565b61136181611346565b811461136c57600080fd5b50565b60008135905061137e81611358565b92915050565b6000819050919050565b61139781611384565b81146113a257600080fd5b50565b6000813590506113b48161138e565b92915050565b600080604083850312156113d1576113d0611321565b5b60006113df8582860161136f565b92505060206113f0858286016113a5565b9150509250929050565b6000819050919050565b600061141f61141a61141584611326565b6113fa565b611326565b9050919050565b600061143182611404565b9050919050565b600061144382611426565b9050919050565b61145381611438565b82525050565b600060208201905061146e600083018461144a565b92915050565b600061147f82611426565b9050919050565b61148f81611474565b82525050565b60006020820190506114aa6000830184611486565b92915050565b6000602082840312156114c6576114c5611321565b5b60006114d4848285016113a5565b91505092915050565b6114e681611384565b82525050565b600060208201905061150160008301846114dd565b92915050565b61151081611346565b82525050565b600060208201905061152b6000830184611507565b92915050565b600061153c82611426565b9050919050565b61154c81611531565b82525050565b60006020820190506115676000830184611543565b92915050565b60006020828403121561158357611582611321565b5b60006115918482850161136f565b91505092915050565b600082825260208201905092915050565b7f4f776e61626c653a2063616c6c6572206973206e6f7420746865206f776e6572600082015250565b60006115e160208361159a565b91506115ec826115ab565b602082019050919050565b60006020820190508181036000830152611610816115d4565b9050919050565b600060408201905061162c6000830185611507565b61163960208301846114dd565b9392505050565b60008115159050919050565b61165581611640565b811461166057600080fd5b50565b6000815190506116728161164c565b92915050565b60006020828403121561168e5761168d611321565b5b600061169c84828501611663565b91505092915050565b60006060820190506116ba6000830186611507565b6116c76020830185611507565b6116d460408301846114dd565b949350505050565b7f4465706f736974206661696c6564210000000000000000000000000000000000600082015250565b6000611712600f8361159a565b915061171d826116dc565b602082019050919050565b6000602082019050818103600083015261174181611705565b9050919050565b6000815190506117578161138e565b92915050565b60006020828403121561177357611772611321565b5b600061178184828501611748565b91505092915050565b7f537461727475702073686f756c642062652076616c6964210000000000000000600082015250565b60006117c060188361159a565b91506117cb8261178a565b602082019050919050565b600060208201905081810360008301526117ef816117b3565b9050919050565b7f436f6e74726163742073686f756c64206265207369676e656420666972737421600082015250565b600061182c60208361159a565b9150611837826117f6565b602082019050919050565b6000602082019050818103600083015261185b8161181f565b9050919050565b7f4f776e61626c653a206e6577206f776e657220697320746865207a65726f206160008201527f6464726573730000000000000000000000000000000000000000000000000000602082015250565b60006118be60268361159a565b91506118c982611862565b604082019050919050565b600060208201905081810360008301526118ed816118b1565b9050919050565b7f496e766573746f72206e6f742072656769737465726564210000000000000000600082015250565b600061192a60188361159a565b9150611935826118f4565b602082019050919050565b600060208201905081810360008301526119598161191d565b9050919050565b7f496e766573746f722073686f756c6420686176652061207369676e656420636f60008201527f6e74726163742100000000000000000000000000000000000000000000000000602082015250565b60006119bc60278361159a565b91506119c782611960565b604082019050919050565b600060208201905081810360008301526119eb816119af565b905091905056fea2646970667358221220e7a9e90066acd848c0830302dc822744f3b7b2cd6537b8baeb8409d759a84c3a64736f6c63430008090033",
  "immutableReferences": {},
  "source": "// SPDX-License-Identifier: MIT\r\npragma solidity ^0.8.0;\r\n\r\nimport \"./StartupsHandler.sol\";\r\nimport \"./InvestorsHandler.sol\";\r\nimport \"./TermalToken.sol\";\r\nimport \"@openzeppelin/contracts/access/Ownable.sol\";\r\nimport \"@openzeppelin/contracts/token/ERC20/IERC20.sol\";\r\n\r\ncontract Termal is Ownable {\r\n    IERC20 public termalToken;\r\n    IERC20 public daiToken;\r\n    StartupsHandler public startupsHandler;\r\n    InvestorsHandler public investorsHandler;\r\n\r\n    event LogInvestorDepositDai(address _sender, address _receipent, uint _amount);\r\n    event LogStartupReturnTermal(address _sender, address _contract, uint _amount);\r\n\r\n    /*event LogCreateStartup(address _newStartupAddress, address _owner);\r\n    event LogNewStartupStatus(address _owner, address _startupAddress, bool _status);\r\n    \r\n    event LogNewInvestorStatus(address _owner,  address _investorAddress, bool _status);\r\n    event LogCreateInvestor(address _creator, address _investorAddress, string _investorName, uint _registerDate, bool _status, uint _rating, uint _amountInvested);\r\n    */\r\n   \r\n    constructor(address _dai, address _termalToken, address _investorsHandler, address _startupsHandler) payable{\r\n        daiToken = IERC20(_dai);\r\n        termalToken = IERC20(_termalToken);\r\n        investorsHandler = InvestorsHandler(_investorsHandler);\r\n        startupsHandler = StartupsHandler(_startupsHandler);\r\n    }\r\n    \r\n\r\n    function investorDepositDai(uint _amount) external {\r\n        require(investorsHandler.isValidInvestor(msg.sender), \"Investor not registered!\");\r\n        require(investorsHandler.getSignatureStatus(msg.sender), \"Investor should have a signed contract!\");\r\n        \r\n        //bool approved = daiToken.approve(address(this), _amount);\r\n        //require(approved, \"Approved failed!\");\r\n\r\n        bool success = daiToken.transferFrom(msg.sender, address(this), _amount);\r\n\r\n        require(success, \"Deposit failed!\");\r\n        investorsHandler.addDepositDai(msg.sender, _amount);\r\n        \r\n        //ratio?\r\n        termalToken.transfer(msg.sender, _amount);\r\n        investorsHandler.addDepositTermal(msg.sender, _amount);\r\n\r\n        emit LogInvestorDepositDai(msg.sender, address(this), _amount);\r\n    }\r\n\r\n    // This function should be used by startups to deposit DAI\r\n    function returnDaiStartup(uint _amount) external {\r\n        \r\n        bool success = daiToken.transferFrom(msg.sender, address(this), _amount);\r\n        require(success, \"Deposit failed!\");\r\n\r\n        startupsHandler.addReturnedDai(msg.sender, _amount);\r\n    }\r\n\r\n    function returnTermalStartup(uint _amount) external {\r\n        \r\n        bool success = termalToken.transferFrom(msg.sender, address(this), _amount);\r\n        require(success, \"Deposit failed!\");\r\n        \r\n        startupsHandler.addReturnedTermal(msg.sender, _amount);\r\n\r\n        emit LogStartupReturnTermal(msg.sender, address(this), _amount);\r\n    }\r\n\r\n    \r\n    function transferDaiToStartup(address _startupAddress, uint _amount)\r\n        onlyOwner()\r\n        public\r\n    {\r\n        require(startupsHandler.isValidStartup(_startupAddress), \"Startup should be valid!\");\r\n\r\n        require(startupsHandler.getSignatureStatus(_startupAddress), \"Contract should be signed first!\");\r\n\r\n        bool success = daiToken.transfer(_startupAddress, _amount);\r\n        require(success, \"Deposit failed!\");\r\n        \r\n        startupsHandler.addDepositDai(_startupAddress, _amount);\r\n    }\r\n\r\n    //This function allows to send termal from the contract to a user.\r\n    function transferTermal(address _receiver, uint _amount)\r\n        onlyOwner()\r\n        public\r\n    {\r\n        termalToken.transfer(_receiver, _amount);\r\n    }\r\n\r\n    //This function returns the dai contract's balance\r\n    function getDaiContractBalance()\r\n        external\r\n        view\r\n        returns (uint)\r\n    {\r\n        return daiToken.balanceOf(address(this));\r\n    }\r\n\r\n    // This function returns the Termal tottal supply\r\n    // Probably we don't need these two functions\r\n    /*function getTermalTotalSupply()\r\n        external\r\n        view\r\n        returns (uint)\r\n    {\r\n        return termalToken.totalSupply();\r\n    }\r\n\r\n    function getTermalBalance(address _wallet)\r\n        external\r\n        view\r\n        returns (uint)\r\n    {\r\n        return termalToken.balanceOf(_wallet);\r\n    } */\r\n    \r\n}",
  "sourcePath": "/Users/gimer/Projects/TermalPolygon/contracts/Termal.sol",
  "compiler": {
    "name": "solc",
    "version": "0.8.9+commit.e5eed63a.Emscripten.clang"
  },
  "schemaVersion": "3.4.4",
  "updatedAt": "2022-03-31T06:25:46.728Z",
  "networkType": "ethereum",
  "devdoc": {
    "kind": "dev",
    "methods": {
      "owner()": {
        "details": "Returns the address of the current owner."
      },
      "renounceOwnership()": {
        "details": "Leaves the contract without owner. It will not be possible to call `onlyOwner` functions anymore. Can only be called by the current owner. NOTE: Renouncing ownership will leave the contract without an owner, thereby removing any functionality that is only available to the owner."
      },
      "transferOwnership(address)": {
        "details": "Transfers ownership of the contract to a new account (`newOwner`). Can only be called by the current owner."
      }
    },
    "version": 1
  },
  "userdoc": {
    "kind": "user",
    "methods": {},
    "version": 1
  }
}