{
  "contractName": "Termal",
  "abi": [
    {
      "inputs": [
        {
          "internalType": "address",
          "name": "_dai",
          "type": "address"
        },
        {
          "internalType": "address",
          "name": "_termalToken",
          "type": "address"
        },
        {
          "internalType": "address",
          "name": "_investorsHandler",
          "type": "address"
        },
        {
          "internalType": "address",
          "name": "_startupsHandler",
          "type": "address"
        }
      ],
      "stateMutability": "payable",
      "type": "constructor",
      "payable": true
    },
    {
      "anonymous": false,
      "inputs": [
        {
          "indexed": false,
          "internalType": "address",
          "name": "_sender",
          "type": "address"
        },
        {
          "indexed": false,
          "internalType": "address",
          "name": "_receipent",
          "type": "address"
        },
        {
          "indexed": false,
          "internalType": "uint256",
          "name": "_amount",
          "type": "uint256"
        }
      ],
      "name": "LogInvestorDepositDai",
      "type": "event"
    },
    {
      "anonymous": false,
      "inputs": [
        {
          "indexed": false,
          "internalType": "address",
          "name": "_sender",
          "type": "address"
        },
        {
          "indexed": false,
          "internalType": "address",
          "name": "_contract",
          "type": "address"
        },
        {
          "indexed": false,
          "internalType": "uint256",
          "name": "_amount",
          "type": "uint256"
        }
      ],
      "name": "LogStartupReturnTermal",
      "type": "event"
    },
    {
      "anonymous": false,
      "inputs": [
        {
          "indexed": true,
          "internalType": "address",
          "name": "previousOwner",
          "type": "address"
        },
        {
          "indexed": true,
          "internalType": "address",
          "name": "newOwner",
          "type": "address"
        }
      ],
      "name": "OwnershipTransferred",
      "type": "event"
    },
    {
      "inputs": [],
      "name": "daiToken",
      "outputs": [
        {
          "internalType": "contract IERC20",
          "name": "",
          "type": "address"
        }
      ],
      "stateMutability": "view",
      "type": "function",
      "constant": true
    },
    {
      "inputs": [],
      "name": "investorsHandler",
      "outputs": [
        {
          "internalType": "contract InvestorsHandler",
          "name": "",
          "type": "address"
        }
      ],
      "stateMutability": "view",
      "type": "function",
      "constant": true
    },
    {
      "inputs": [],
      "name": "owner",
      "outputs": [
        {
          "internalType": "address",
          "name": "",
          "type": "address"
        }
      ],
      "stateMutability": "view",
      "type": "function",
      "constant": true
    },
    {
      "inputs": [],
      "name": "renounceOwnership",
      "outputs": [],
      "stateMutability": "nonpayable",
      "type": "function"
    },
    {
      "inputs": [
        {
          "internalType": "address",
          "name": "",
          "type": "address"
        }
      ],
      "name": "startupTokenBalance",
      "outputs": [
        {
          "internalType": "uint256",
          "name": "",
          "type": "uint256"
        }
      ],
      "stateMutability": "view",
      "type": "function",
      "constant": true
    },
    {
      "inputs": [],
      "name": "startupsHandler",
      "outputs": [
        {
          "internalType": "contract StartupsHandler",
          "name": "",
          "type": "address"
        }
      ],
      "stateMutability": "view",
      "type": "function",
      "constant": true
    },
    {
      "inputs": [],
      "name": "termalToken",
      "outputs": [
        {
          "internalType": "contract IERC20",
          "name": "",
          "type": "address"
        }
      ],
      "stateMutability": "view",
      "type": "function",
      "constant": true
    },
    {
      "inputs": [
        {
          "internalType": "address",
          "name": "newOwner",
          "type": "address"
        }
      ],
      "name": "transferOwnership",
      "outputs": [],
      "stateMutability": "nonpayable",
      "type": "function"
    },
    {
      "inputs": [
        {
          "internalType": "uint256",
          "name": "_amount",
          "type": "uint256"
        }
      ],
      "name": "investorDepositDai",
      "outputs": [],
      "stateMutability": "nonpayable",
      "type": "function"
    },
    {
      "inputs": [
        {
          "internalType": "uint256",
          "name": "_amount",
          "type": "uint256"
        }
      ],
      "name": "returnDaiStartup",
      "outputs": [],
      "stateMutability": "nonpayable",
      "type": "function"
    },
    {
      "inputs": [
        {
          "internalType": "uint256",
          "name": "_amount",
          "type": "uint256"
        }
      ],
      "name": "returnTermalStartup",
      "outputs": [],
      "stateMutability": "nonpayable",
      "type": "function"
    },
    {
      "inputs": [
        {
          "internalType": "uint256",
          "name": "_amount",
          "type": "uint256"
        }
      ],
      "name": "depositStartupToken",
      "outputs": [
        {
          "internalType": "bool",
          "name": "",
          "type": "bool"
        }
      ],
      "stateMutability": "nonpayable",
      "type": "function"
    },
    {
      "inputs": [
        {
          "internalType": "address",
          "name": "startupToken",
          "type": "address"
        },
        {
          "internalType": "address",
          "name": "_wallet",
          "type": "address"
        }
      ],
      "name": "getStartupTokenBalance",
      "outputs": [
        {
          "internalType": "uint256",
          "name": "",
          "type": "uint256"
        }
      ],
      "stateMutability": "view",
      "type": "function",
      "constant": true
    },
    {
      "inputs": [
        {
          "internalType": "address",
          "name": "_startupAddress",
          "type": "address"
        },
        {
          "internalType": "uint256",
          "name": "_amount",
          "type": "uint256"
        }
      ],
      "name": "transferDaiToStartup",
      "outputs": [],
      "stateMutability": "nonpayable",
      "type": "function"
    },
    {
      "inputs": [
        {
          "internalType": "address",
          "name": "_receiver",
          "type": "address"
        },
        {
          "internalType": "uint256",
          "name": "_amount",
          "type": "uint256"
        }
      ],
      "name": "transferTermal",
      "outputs": [],
      "stateMutability": "nonpayable",
      "type": "function"
    },
    {
      "inputs": [],
      "name": "getDaiContractBalance",
      "outputs": [
        {
          "internalType": "uint256",
          "name": "",
          "type": "uint256"
        }
      ],
      "stateMutability": "view",
      "type": "function",
      "constant": true
    },
    {
      "inputs": [],
      "name": "getTermalTotalSupply",
      "outputs": [
        {
          "internalType": "uint256",
          "name": "",
          "type": "uint256"
        }
      ],
      "stateMutability": "view",
      "type": "function",
      "constant": true
    },
    {
      "inputs": [
        {
          "internalType": "address",
          "name": "_wallet",
          "type": "address"
        }
      ],
      "name": "getTermalBalance",
      "outputs": [
        {
          "internalType": "uint256",
          "name": "",
          "type": "uint256"
        }
      ],
      "stateMutability": "view",
      "type": "function",
      "constant": true
    }
  ],
  "bytecode": "0x6080604052604051620026a1380380620026a183398181016040528101906200002991906200028d565b620000496200003d6200015760201b60201c565b6200015f60201b60201c565b83600260006101000a81548173ffffffffffffffffffffffffffffffffffffffff021916908373ffffffffffffffffffffffffffffffffffffffff16021790555082600160006101000a81548173ffffffffffffffffffffffffffffffffffffffff021916908373ffffffffffffffffffffffffffffffffffffffff16021790555081600460006101000a81548173ffffffffffffffffffffffffffffffffffffffff021916908373ffffffffffffffffffffffffffffffffffffffff16021790555080600360006101000a81548173ffffffffffffffffffffffffffffffffffffffff021916908373ffffffffffffffffffffffffffffffffffffffff16021790555050505050620002ff565b600033905090565b60008060009054906101000a900473ffffffffffffffffffffffffffffffffffffffff169050816000806101000a81548173ffffffffffffffffffffffffffffffffffffffff021916908373ffffffffffffffffffffffffffffffffffffffff1602179055508173ffffffffffffffffffffffffffffffffffffffff168173ffffffffffffffffffffffffffffffffffffffff167f8be0079c531659141344cd1fd0a4f28419497f9722a3daafe3b4186f6b6457e060405160405180910390a35050565b600080fd5b600073ffffffffffffffffffffffffffffffffffffffff82169050919050565b6000620002558262000228565b9050919050565b620002678162000248565b81146200027357600080fd5b50565b60008151905062000287816200025c565b92915050565b60008060008060808587031215620002aa57620002a962000223565b5b6000620002ba8782880162000276565b9450506020620002cd8782880162000276565b9350506040620002e08782880162000276565b9250506060620002f38782880162000276565b91505092959194509250565b612392806200030f6000396000f3fe608060405234801561001057600080fd5b50600436106101165760003560e01c80638da5cb5b116100a25780639855089b116100715780639855089b146102cf578063be22f546146102eb578063f2fde38b14610309578063f4cb924c14610325578063ff429ce41461034157610116565b80638da5cb5b1461023557806392358f4f1461025357806393882513146102835780639651c7ec146102b357610116565b80632a36afa6116100e95780632a36afa6146101a3578063312a8f97146101c15780636db074b2146101dd578063715018a6146101fb57806381da109a1461020557610116565b80630d49b3601461011b5780631e7d1d7a146101375780631eaaafcd146101675780632993118b14610185575b600080fd5b61013560048036038101906101309190611af2565b61035f565b005b610151600480360381019061014c9190611b32565b610480565b60405161015e9190611b6e565b60405180910390f35b61016f610525565b60405161017c9190611be8565b60405180910390f35b61018d61054b565b60405161019a9190611b6e565b60405180910390f35b6101ab6105e3565b6040516101b89190611c24565b60405180910390f35b6101db60048036038101906101d69190611c3f565b610609565b005b6101e56107bd565b6040516101f29190611b6e565b60405180910390f35b610203610860565b005b61021f600480360381019061021a9190611c6c565b6108e8565b60405161022c9190611b6e565b60405180910390f35b61023d61096c565b60405161024a9190611cbb565b60405180910390f35b61026d60048036038101906102689190611c3f565b610995565b60405161027a9190611cf1565b60405180910390f35b61029d60048036038101906102989190611b32565b610cba565b6040516102aa9190611b6e565b60405180910390f35b6102cd60048036038101906102c89190611af2565b610cd2565b005b6102e960048036038101906102e49190611c3f565b61107c565b005b6102f36112d0565b6040516103009190611d2d565b60405180910390f35b610323600480360381019061031e9190611b32565b6112f6565b005b61033f600480360381019061033a9190611c3f565b6113ed565b005b610349611967565b6040516103569190611d2d565b60405180910390f35b61036761198d565b73ffffffffffffffffffffffffffffffffffffffff1661038561096c565b73ffffffffffffffffffffffffffffffffffffffff16146103db576040517f08c379a00000000000000000000000000000000000000000000000000000000081526004016103d290611da5565b60405180910390fd5b600160009054906101000a900473ffffffffffffffffffffffffffffffffffffffff1673ffffffffffffffffffffffffffffffffffffffff1663a9059cbb83836040518363ffffffff1660e01b8152600401610438929190611dc5565b6020604051808303816000875af1158015610457573d6000803e3d6000fd5b505050506040513d601f19601f8201168201806040525081019061047b9190611e1a565b505050565b6000600160009054906101000a900473ffffffffffffffffffffffffffffffffffffffff1673ffffffffffffffffffffffffffffffffffffffff166370a08231836040518263ffffffff1660e01b81526004016104dd9190611cbb565b602060405180830381865afa1580156104fa573d6000803e3d6000fd5b505050506040513d601f19601f8201168201806040525081019061051e9190611e5c565b9050919050565b600360009054906101000a900473ffffffffffffffffffffffffffffffffffffffff1681565b6000600160009054906101000a900473ffffffffffffffffffffffffffffffffffffffff1673ffffffffffffffffffffffffffffffffffffffff166318160ddd6040518163ffffffff1660e01b8152600401602060405180830381865afa1580156105ba573d6000803e3d6000fd5b505050506040513d601f19601f820116820180604052508101906105de9190611e5c565b905090565b600460009054906101000a900473ffffffffffffffffffffffffffffffffffffffff1681565b6000600160009054906101000a900473ffffffffffffffffffffffffffffffffffffffff1673ffffffffffffffffffffffffffffffffffffffff166323b872dd3330856040518463ffffffff1660e01b815260040161066a93929190611e89565b6020604051808303816000875af1158015610689573d6000803e3d6000fd5b505050506040513d601f19601f820116820180604052508101906106ad9190611e1a565b9050806106ef576040517f08c379a00000000000000000000000000000000000000000000000000000000081526004016106e690611f0c565b60405180910390fd5b600360009054906101000a900473ffffffffffffffffffffffffffffffffffffffff1673ffffffffffffffffffffffffffffffffffffffff1663fed8c23633846040518363ffffffff1660e01b815260040161074c929190611dc5565b600060405180830381600087803b15801561076657600080fd5b505af115801561077a573d6000803e3d6000fd5b505050507fb58296c2c3bdb9fcf26996d8c5d9ae079224562d4be2adea926b63fc84c865463330846040516107b193929190611e89565b60405180910390a15050565b6000600260009054906101000a900473ffffffffffffffffffffffffffffffffffffffff1673ffffffffffffffffffffffffffffffffffffffff166370a08231306040518263ffffffff1660e01b815260040161081a9190611cbb565b602060405180830381865afa158015610837573d6000803e3d6000fd5b505050506040513d601f19601f8201168201806040525081019061085b9190611e5c565b905090565b61086861198d565b73ffffffffffffffffffffffffffffffffffffffff1661088661096c565b73ffffffffffffffffffffffffffffffffffffffff16146108dc576040517f08c379a00000000000000000000000000000000000000000000000000000000081526004016108d390611da5565b60405180910390fd5b6108e66000611995565b565b60008273ffffffffffffffffffffffffffffffffffffffff166370a08231836040518263ffffffff1660e01b81526004016109239190611cbb565b602060405180830381865afa158015610940573d6000803e3d6000fd5b505050506040513d601f19601f820116820180604052508101906109649190611e5c565b905092915050565b60008060009054906101000a900473ffffffffffffffffffffffffffffffffffffffff16905090565b6000600360009054906101000a900473ffffffffffffffffffffffffffffffffffffffff1673ffffffffffffffffffffffffffffffffffffffff166324a9caa0336040518263ffffffff1660e01b81526004016109f29190611cbb565b602060405180830381865afa158015610a0f573d6000803e3d6000fd5b505050506040513d601f19601f82011682018060405250810190610a339190611e1a565b610a72576040517f08c379a0000000000000000000000000000000000000000000000000000000008152600401610a6990611f78565b60405180910390fd5b6000600360009054906101000a900473ffffffffffffffffffffffffffffffffffffffff1673ffffffffffffffffffffffffffffffffffffffff1663b50de789336040518263ffffffff1660e01b8152600401610acf9190611cbb565b602060405180830381865afa158015610aec573d6000803e3d6000fd5b505050506040513d601f19601f82011682018060405250810190610b109190611fad565b90506000819050838173ffffffffffffffffffffffffffffffffffffffff1663dd62ed3e33306040518363ffffffff1660e01b8152600401610b53929190611fda565b602060405180830381865afa158015610b70573d6000803e3d6000fd5b505050506040513d601f19601f82011682018060405250810190610b949190611e5c565b1015610bd5576040517f08c379a0000000000000000000000000000000000000000000000000000000008152600401610bcc9061204f565b60405180910390fd5b60008173ffffffffffffffffffffffffffffffffffffffff166323b872dd3330886040518463ffffffff1660e01b8152600401610c1493929190611e89565b6020604051808303816000875af1158015610c33573d6000803e3d6000fd5b505050506040513d601f19601f82011682018060405250810190610c579190611e1a565b905084600560003373ffffffffffffffffffffffffffffffffffffffff1673ffffffffffffffffffffffffffffffffffffffff1681526020019081526020016000206000828254610ca8919061209e565b92505081905550809350505050919050565b60056020528060005260406000206000915090505481565b610cda61198d565b73ffffffffffffffffffffffffffffffffffffffff16610cf861096c565b73ffffffffffffffffffffffffffffffffffffffff1614610d4e576040517f08c379a0000000000000000000000000000000000000000000000000000000008152600401610d4590611da5565b60405180910390fd5b600360009054906101000a900473ffffffffffffffffffffffffffffffffffffffff1673ffffffffffffffffffffffffffffffffffffffff166324a9caa0836040518263ffffffff1660e01b8152600401610da99190611cbb565b602060405180830381865afa158015610dc6573d6000803e3d6000fd5b505050506040513d601f19601f82011682018060405250810190610dea9190611e1a565b610e29576040517f08c379a0000000000000000000000000000000000000000000000000000000008152600401610e2090611f78565b60405180910390fd5b600360009054906101000a900473ffffffffffffffffffffffffffffffffffffffff1673ffffffffffffffffffffffffffffffffffffffff166375126d64836040518263ffffffff1660e01b8152600401610e849190611cbb565b602060405180830381865afa158015610ea1573d6000803e3d6000fd5b505050506040513d601f19601f82011682018060405250810190610ec59190611e1a565b610f04576040517f08c379a0000000000000000000000000000000000000000000000000000000008152600401610efb90612140565b60405180910390fd5b6000600260009054906101000a900473ffffffffffffffffffffffffffffffffffffffff1673ffffffffffffffffffffffffffffffffffffffff1663a9059cbb84846040518363ffffffff1660e01b8152600401610f63929190611dc5565b6020604051808303816000875af1158015610f82573d6000803e3d6000fd5b505050506040513d601f19601f82011682018060405250810190610fa69190611e1a565b905080610fe8576040517f08c379a0000000000000000000000000000000000000000000000000000000008152600401610fdf90611f0c565b60405180910390fd5b600360009054906101000a900473ffffffffffffffffffffffffffffffffffffffff1673ffffffffffffffffffffffffffffffffffffffff1663c63208a484846040518363ffffffff1660e01b8152600401611045929190611dc5565b600060405180830381600087803b15801561105f57600080fd5b505af1158015611073573d6000803e3d6000fd5b50505050505050565b600360009054906101000a900473ffffffffffffffffffffffffffffffffffffffff1673ffffffffffffffffffffffffffffffffffffffff166324a9caa0336040518263ffffffff1660e01b81526004016110d79190611cbb565b602060405180830381865afa1580156110f4573d6000803e3d6000fd5b505050506040513d601f19601f820116820180604052508101906111189190611e1a565b611157576040517f08c379a000000000000000000000000000000000000000000000000000000000815260040161114e90611f78565b60405180910390fd5b6000600260009054906101000a900473ffffffffffffffffffffffffffffffffffffffff1673ffffffffffffffffffffffffffffffffffffffff166323b872dd3330856040518463ffffffff1660e01b81526004016111b893929190611e89565b6020604051808303816000875af11580156111d7573d6000803e3d6000fd5b505050506040513d601f19601f820116820180604052508101906111fb9190611e1a565b90508061123d576040517f08c379a000000000000000000000000000000000000000000000000000000000815260040161123490611f0c565b60405180910390fd5b600360009054906101000a900473ffffffffffffffffffffffffffffffffffffffff1673ffffffffffffffffffffffffffffffffffffffff1663ed6ba4dd33846040518363ffffffff1660e01b815260040161129a929190611dc5565b600060405180830381600087803b1580156112b457600080fd5b505af11580156112c8573d6000803e3d6000fd5b505050505050565b600260009054906101000a900473ffffffffffffffffffffffffffffffffffffffff1681565b6112fe61198d565b73ffffffffffffffffffffffffffffffffffffffff1661131c61096c565b73ffffffffffffffffffffffffffffffffffffffff1614611372576040517f08c379a000000000000000000000000000000000000000000000000000000000815260040161136990611da5565b60405180910390fd5b600073ffffffffffffffffffffffffffffffffffffffff168173ffffffffffffffffffffffffffffffffffffffff16036113e1576040517f08c379a00000000000000000000000000000000000000000000000000000000081526004016113d8906121d2565b60405180910390fd5b6113ea81611995565b50565b600460009054906101000a900473ffffffffffffffffffffffffffffffffffffffff1673ffffffffffffffffffffffffffffffffffffffff16635092538a336040518263ffffffff1660e01b81526004016114489190611cbb565b602060405180830381865afa158015611465573d6000803e3d6000fd5b505050506040513d601f19601f820116820180604052508101906114899190611e1a565b6114c8576040517f08c379a00000000000000000000000000000000000000000000000000000000081526004016114bf9061223e565b60405180910390fd5b600460009054906101000a900473ffffffffffffffffffffffffffffffffffffffff1673ffffffffffffffffffffffffffffffffffffffff166375126d64336040518263ffffffff1660e01b81526004016115239190611cbb565b602060405180830381865afa158015611540573d6000803e3d6000fd5b505050506040513d601f19601f820116820180604052508101906115649190611e1a565b6115a3576040517f08c379a000000000000000000000000000000000000000000000000000000000815260040161159a906122d0565b60405180910390fd5b80600260009054906101000a900473ffffffffffffffffffffffffffffffffffffffff1673ffffffffffffffffffffffffffffffffffffffff1663dd62ed3e33306040518363ffffffff1660e01b8152600401611601929190611fda565b602060405180830381865afa15801561161e573d6000803e3d6000fd5b505050506040513d601f19601f820116820180604052508101906116429190611e5c565b1015611683576040517f08c379a000000000000000000000000000000000000000000000000000000000815260040161167a9061233c565b60405180910390fd5b6000600260009054906101000a900473ffffffffffffffffffffffffffffffffffffffff1673ffffffffffffffffffffffffffffffffffffffff166323b872dd3330856040518463ffffffff1660e01b81526004016116e493929190611e89565b6020604051808303816000875af1158015611703573d6000803e3d6000fd5b505050506040513d601f19601f820116820180604052508101906117279190611e1a565b905080611769576040517f08c379a000000000000000000000000000000000000000000000000000000000815260040161176090611f0c565b60405180910390fd5b600460009054906101000a900473ffffffffffffffffffffffffffffffffffffffff1673ffffffffffffffffffffffffffffffffffffffff1663c63208a433846040518363ffffffff1660e01b81526004016117c6929190611dc5565b600060405180830381600087803b1580156117e057600080fd5b505af11580156117f4573d6000803e3d6000fd5b50505050600160009054906101000a900473ffffffffffffffffffffffffffffffffffffffff1673ffffffffffffffffffffffffffffffffffffffff1663a9059cbb33846040518363ffffffff1660e01b8152600401611855929190611dc5565b6020604051808303816000875af1158015611874573d6000803e3d6000fd5b505050506040513d601f19601f820116820180604052508101906118989190611e1a565b50600460009054906101000a900473ffffffffffffffffffffffffffffffffffffffff1673ffffffffffffffffffffffffffffffffffffffff1663dceb4c0a33846040518363ffffffff1660e01b81526004016118f6929190611dc5565b600060405180830381600087803b15801561191057600080fd5b505af1158015611924573d6000803e3d6000fd5b505050507fdf825b8afb8d8de80dfbee1fb4a5e418bb3abd1dc37817dc9a0ede0f8f9c191333308460405161195b93929190611e89565b60405180910390a15050565b600160009054906101000a900473ffffffffffffffffffffffffffffffffffffffff1681565b600033905090565b60008060009054906101000a900473ffffffffffffffffffffffffffffffffffffffff169050816000806101000a81548173ffffffffffffffffffffffffffffffffffffffff021916908373ffffffffffffffffffffffffffffffffffffffff1602179055508173ffffffffffffffffffffffffffffffffffffffff168173ffffffffffffffffffffffffffffffffffffffff167f8be0079c531659141344cd1fd0a4f28419497f9722a3daafe3b4186f6b6457e060405160405180910390a35050565b600080fd5b600073ffffffffffffffffffffffffffffffffffffffff82169050919050565b6000611a8982611a5e565b9050919050565b611a9981611a7e565b8114611aa457600080fd5b50565b600081359050611ab681611a90565b92915050565b6000819050919050565b611acf81611abc565b8114611ada57600080fd5b50565b600081359050611aec81611ac6565b92915050565b60008060408385031215611b0957611b08611a59565b5b6000611b1785828601611aa7565b9250506020611b2885828601611add565b9150509250929050565b600060208284031215611b4857611b47611a59565b5b6000611b5684828501611aa7565b91505092915050565b611b6881611abc565b82525050565b6000602082019050611b836000830184611b5f565b92915050565b6000819050919050565b6000611bae611ba9611ba484611a5e565b611b89565b611a5e565b9050919050565b6000611bc082611b93565b9050919050565b6000611bd282611bb5565b9050919050565b611be281611bc7565b82525050565b6000602082019050611bfd6000830184611bd9565b92915050565b6000611c0e82611bb5565b9050919050565b611c1e81611c03565b82525050565b6000602082019050611c396000830184611c15565b92915050565b600060208284031215611c5557611c54611a59565b5b6000611c6384828501611add565b91505092915050565b60008060408385031215611c8357611c82611a59565b5b6000611c9185828601611aa7565b9250506020611ca285828601611aa7565b9150509250929050565b611cb581611a7e565b82525050565b6000602082019050611cd06000830184611cac565b92915050565b60008115159050919050565b611ceb81611cd6565b82525050565b6000602082019050611d066000830184611ce2565b92915050565b6000611d1782611bb5565b9050919050565b611d2781611d0c565b82525050565b6000602082019050611d426000830184611d1e565b92915050565b600082825260208201905092915050565b7f4f776e61626c653a2063616c6c6572206973206e6f7420746865206f776e6572600082015250565b6000611d8f602083611d48565b9150611d9a82611d59565b602082019050919050565b60006020820190508181036000830152611dbe81611d82565b9050919050565b6000604082019050611dda6000830185611cac565b611de76020830184611b5f565b9392505050565b611df781611cd6565b8114611e0257600080fd5b50565b600081519050611e1481611dee565b92915050565b600060208284031215611e3057611e2f611a59565b5b6000611e3e84828501611e05565b91505092915050565b600081519050611e5681611ac6565b92915050565b600060208284031215611e7257611e71611a59565b5b6000611e8084828501611e47565b91505092915050565b6000606082019050611e9e6000830186611cac565b611eab6020830185611cac565b611eb86040830184611b5f565b949350505050565b7f4465706f736974206661696c6564210000000000000000000000000000000000600082015250565b6000611ef6600f83611d48565b9150611f0182611ec0565b602082019050919050565b60006020820190508181036000830152611f2581611ee9565b9050919050565b7f537461727475702073686f756c642062652076616c6964210000000000000000600082015250565b6000611f62601883611d48565b9150611f6d82611f2c565b602082019050919050565b60006020820190508181036000830152611f9181611f55565b9050919050565b600081519050611fa781611a90565b92915050565b600060208284031215611fc357611fc2611a59565b5b6000611fd184828501611f98565b91505092915050565b6000604082019050611fef6000830185611cac565b611ffc6020830184611cac565b9392505050565b7f416c6c6f77616e6365206973206e6f7420656e6f756768210000000000000000600082015250565b6000612039601883611d48565b915061204482612003565b602082019050919050565b600060208201905081810360008301526120688161202c565b9050919050565b7f4e487b7100000000000000000000000000000000000000000000000000000000600052601160045260246000fd5b60006120a982611abc565b91506120b483611abc565b9250827fffffffffffffffffffffffffffffffffffffffffffffffffffffffffffffffff038211156120e9576120e861206f565b5b828201905092915050565b7f436f6e74726163742073686f756c64206265207369676e656420666972737421600082015250565b600061212a602083611d48565b9150612135826120f4565b602082019050919050565b600060208201905081810360008301526121598161211d565b9050919050565b7f4f776e61626c653a206e6577206f776e657220697320746865207a65726f206160008201527f6464726573730000000000000000000000000000000000000000000000000000602082015250565b60006121bc602683611d48565b91506121c782612160565b604082019050919050565b600060208201905081810360008301526121eb816121af565b9050919050565b7f496e766573746f72206e6f742072656769737465726564210000000000000000600082015250565b6000612228601883611d48565b9150612233826121f2565b602082019050919050565b600060208201905081810360008301526122578161221b565b9050919050565b7f496e766573746f722073686f756c6420686176652061207369676e656420636f60008201527f6e74726163742100000000000000000000000000000000000000000000000000602082015250565b60006122ba602783611d48565b91506122c58261225e565b604082019050919050565b600060208201905081810360008301526122e9816122ad565b9050919050565b7f4e6f7420656e6f75676820616c6c6f77616e6365210000000000000000000000600082015250565b6000612326601583611d48565b9150612331826122f0565b602082019050919050565b6000602082019050818103600083015261235581612319565b905091905056fea264697066735822122074fdebff7b2905376f2fed05804c58ab18bc2c157ad332a39108794f76647dfe64736f6c634300080e0033",
  "immutableReferences": {},
  "source": "// SPDX-License-Identifier: MIT\r\npragma solidity ^0.8.14;\r\n\r\nimport \"./StartupsHandler.sol\";\r\nimport \"./InvestorsHandler.sol\";\r\nimport \"./TermalToken.sol\";\r\nimport \"@openzeppelin/contracts/access/Ownable.sol\";\r\nimport \"@openzeppelin/contracts/token/ERC20/IERC20.sol\";\r\n\r\ncontract Termal is Ownable {\r\n    IERC20 public termalToken;\r\n    IERC20 public daiToken;\r\n    StartupsHandler public startupsHandler;\r\n    InvestorsHandler public investorsHandler;\r\n\r\n    event LogInvestorDepositDai(address _sender, address _receipent, uint _amount);\r\n    event LogStartupReturnTermal(address _sender, address _contract, uint _amount);\r\n\r\n    mapping (address => uint) public startupTokenBalance;\r\n\r\n    /*event LogCreateStartup(address _newStartupAddress, address _owner);\r\n    event LogNewStartupStatus(address _owner, address _startupAddress, bool _status);\r\n    \r\n    event LogNewInvestorStatus(address _owner,  address _investorAddress, bool _status);\r\n    event LogCreateInvestor(address _creator, address _investorAddress, string _investorName, uint _registerDate, bool _status, uint _rating, uint _amountInvested);\r\n    */\r\n   \r\n    constructor(address _dai, address _termalToken, address _investorsHandler, address _startupsHandler) payable{\r\n        daiToken = IERC20(_dai);\r\n        termalToken = IERC20(_termalToken);\r\n        investorsHandler = InvestorsHandler(_investorsHandler);\r\n        startupsHandler = StartupsHandler(_startupsHandler);\r\n    }\r\n    \r\n\r\n    function investorDepositDai(uint _amount) external {\r\n        require(investorsHandler.isValidInvestor(msg.sender), \"Investor not registered!\");\r\n        require(investorsHandler.getSignatureStatus(msg.sender), \"Investor should have a signed contract!\");\r\n        \r\n        require(daiToken.allowance(msg.sender, address(this)) >= _amount, \"Not enough allowance!\");\r\n        bool success = daiToken.transferFrom(msg.sender, address(this), _amount);\r\n\r\n        require(success, \"Deposit failed!\");\r\n        investorsHandler.addDepositDai(msg.sender, _amount);\r\n\r\n        //ratio?\r\n        termalToken.transfer(msg.sender, _amount);\r\n\r\n        investorsHandler.addDepositTermal(msg.sender, _amount);\r\n\r\n        emit LogInvestorDepositDai(msg.sender, address(this), _amount);\r\n    }\r\n\r\n    // This function should be used by startups to deposit DAI\r\n    function returnDaiStartup(uint _amount) external {\r\n        require(startupsHandler.isValidStartup(msg.sender), \"Startup should be valid!\");\r\n        bool success = daiToken.transferFrom(msg.sender, address(this), _amount);\r\n        require(success, \"Deposit failed!\");\r\n\r\n        startupsHandler.addReturnedDai(msg.sender, _amount);\r\n    }\r\n\r\n    function returnTermalStartup(uint _amount) external {\r\n        \r\n        bool success = termalToken.transferFrom(msg.sender, address(this), _amount);\r\n        require(success, \"Deposit failed!\");\r\n        \r\n        startupsHandler.addReturnedTermal(msg.sender, _amount);\r\n\r\n        emit LogStartupReturnTermal(msg.sender, address(this), _amount);\r\n    }\r\n\r\n    function depositStartupToken(uint _amount)\r\n        public\r\n        returns(bool)\r\n    {\r\n        require(startupsHandler.isValidStartup(msg.sender), \"Startup should be valid!\");\r\n        //require(startupsHandler.getSignatureStatus(msg.sender), \"Contract should be signed first!\");\r\n\r\n        address tokenAddress = startupsHandler.getStartupTokenAddress(msg.sender);\r\n        IERC20 startupToken = IERC20(tokenAddress);\r\n\r\n        require(startupToken.allowance(msg.sender, address(this)) >= _amount, \"Allowance is not enough!\");\r\n        \r\n        bool success = startupToken.transferFrom(msg.sender, address(this), _amount);\r\n\r\n        startupTokenBalance[msg.sender] += _amount;\r\n\r\n        return success;\r\n    }\r\n\r\n    function getStartupTokenBalance(address startupToken, address _wallet)\r\n        external\r\n        view\r\n        returns (uint)\r\n    {\r\n        return IERC20(startupToken).balanceOf(_wallet);\r\n    }\r\n\r\n    function transferDaiToStartup(address _startupAddress, uint _amount)\r\n        onlyOwner()\r\n        public\r\n    {\r\n        require(startupsHandler.isValidStartup(_startupAddress), \"Startup should be valid!\");\r\n\r\n        require(startupsHandler.getSignatureStatus(_startupAddress), \"Contract should be signed first!\");\r\n\r\n        bool success = daiToken.transfer(_startupAddress, _amount);\r\n        require(success, \"Deposit failed!\");\r\n        \r\n        startupsHandler.addDepositDai(_startupAddress, _amount);\r\n    }\r\n\r\n    //This function allows to send termal from the contract to a user.\r\n    function transferTermal(address _receiver, uint _amount)\r\n        onlyOwner()\r\n        public\r\n    {\r\n        termalToken.transfer(_receiver, _amount);\r\n    }\r\n\r\n    //This function returns the dai contract's balance\r\n    function getDaiContractBalance()\r\n        external\r\n        view\r\n        returns (uint)\r\n    {\r\n        return daiToken.balanceOf(address(this));\r\n    }\r\n\r\n    // This function returns the Termal tottal supply\r\n    // Probably we don't need these two functions\r\n    function getTermalTotalSupply()\r\n        external\r\n        view\r\n        returns (uint)\r\n    {\r\n        return termalToken.totalSupply();\r\n    }\r\n\r\n    function getTermalBalance(address _wallet)\r\n        external\r\n        view\r\n        returns (uint)\r\n    {\r\n        return termalToken.balanceOf(_wallet);\r\n    }\r\n   \r\n}",
  "sourcePath": "/Users/gimer/Projects/TermalPolygon/contracts/Termal.sol",
  "compiler": {
    "name": "solc",
    "version": "0.8.14+commit.80d49f37.Emscripten.clang"
  },
  "schemaVersion": "3.4.7",
  "updatedAt": "2022-06-24T14:25:33.637Z",
  "networkType": "ethereum",
  "devdoc": {
    "kind": "dev",
    "methods": {
      "owner()": {
        "details": "Returns the address of the current owner."
      },
      "renounceOwnership()": {
        "details": "Leaves the contract without owner. It will not be possible to call `onlyOwner` functions anymore. Can only be called by the current owner. NOTE: Renouncing ownership will leave the contract without an owner, thereby removing any functionality that is only available to the owner."
      },
      "transferOwnership(address)": {
        "details": "Transfers ownership of the contract to a new account (`newOwner`). Can only be called by the current owner."
      }
    },
    "version": 1
  },
  "userdoc": {
    "kind": "user",
    "methods": {},
    "version": 1
  }
}